:020000040804EE
:1000000000000220CD930508718504087985040855
:100010007B8504087D8504087F85040800000000B6
:10002000000000000000000000000000111A050898
:100030008185040800000000B11A050883850408C2
:100040001D9405081D9405081D9405081D940508B8
:100050001D9405081D9405081D9405081D940508A8
:100060001D9405081D9405081D9405081D94050898
:100070001D9405081D9405081D9405081D94050888
:100080001D9405081D9405081D9405088D85040818
:100090009D850408AD850408BD850408CD85040848
:1000A0001D940508D98504081D9405081D940508AC
:1000B0001D9405081D9405081D9405081D94050848
:1000C0001D9405081D9405081D9405081D94050838
:1000D0001D940508018604081D9405081D94050853
:1000E0001D9405081D9405081D9405081D94050818
:1000F00011860408518604081D9405081D940508FE
:100100001D9405081D9405081D9405081D940508F7
:100110001D9405081D940508618604087986040865
:100120001D9405081D9405081D9405081D940508D7
:100130001D940508918604081D9405081D94050862
:100140001D9405081D9405081D9405081D940508B7
:100150001D9405081D9405081D940508E96104080F
:100160001D9405081D9405081D9405081D94050897
:100170001D9405081D9405081D9405080000000045
:080180001D9405081D940508FB
:1001900010B5054C237833B9044B13B10448AFF3C1
:1001A00000800123237010BDD8040020000000004F
:1001B000C0B6050808B5034B1BB103490348AFF3AC
:1001C000008008BD00000000DC040020C0B6050867
:1001D00053B94AB9002908BF00281CBF4FF0FF31AE
:1001E0004FF0FF3000F072B9ADF1080C6DE904CEAC
:1001F00000F006F8DDF804E0DDE9022304B0704702
:100200002DE9F047089E04468846002B4BD18A42D0
:10021000154667D9B2FA82F24AB1C2F1200701FA53
:1002200002F320FA07F7954047EA030894404FEAA3
:10023000154E230CB8FBFEF71FFA85FC0EFB178842
:1002400043EA084307FB0CF1994209D9EB1807F17F
:10025000FF3080F01B81994240F21881023F2B440D
:100260005B1AA4B2B3FBFEF00EFB103344EA034466
:1002700000FB0CFCA44509D92C1900F1FF3380F0D8
:100280000781A44540F2048102382C4440EA07402B
:10029000A4EB0C0400271EB1D4400023C6E90043A0
:1002A0003946BDE8F0878B4209D9002E00F0EB807B
:1002B0000027C6E9000138463946BDE8F087B3FAA1
:1002C00083F7002F47D18B4202D3824200F2FA809B
:1002D000841A61EB030301209846002EE0D0C6E9A2
:1002E0000048DDE702B9FFDEB2FA82F2002A40F0F0
:1002F0008F80491B4FEA154E1FFA85F80127B1FB85
:10030000FEFC230C0EFB1C1143EA014308FB0CF11D
:10031000994207D9EB180CF1FF3002D2994200F252
:10032000CD808446591AA3B2B1FBFEF00EFB101427
:1003300043EA044408FB00F8A04507D92C1900F152
:10034000FF3302D2A04500F2B6801846A4EB0804A1
:1003500040EA0C409FE7C7F1200CBB4022FA0CFE9C
:100360004EEA030E01FA07F420FA0CF521FA0CF319
:100370004FEA1E482543B3FBF8F92C0C08FB193350
:100380001FFA8EFA44EA034309FB0AF49C4202FA7C
:1003900007F200FA07F10BD91EEB030309F1FF3056
:1003A00080F087809C4240F28480A9F10209734466
:1003B0001B1BADB2B3FBF8F008FB103345EA034456
:1003C00000FB0AFAA24508D91EEB040400F1FF3332
:1003D0006BD2A24569D90238744440EA0940A0FBB7
:1003E0000289A4EB0A044C45C2464B4654D351D073
:1003F000002E69D0B1EB0A0564EB030404FA0CFC8F
:10040000FD40FC404CEA0505C6E90054002747E7DB
:10041000C2F1200320FA03F7954001FA02F021FA15
:1004200003F34FEA154E3843010CB3FBFEF71FFAF6
:1004300085F80EFB173341EA034107FB08F38B42B3
:1004400004FA02F407D9691807F1FF3C2FD28B4256
:100450002DD9023F2944CB1A81B2B3FBFEF00EFB2B
:10046000103341EA034100FB08F38B4207D96918B6
:1004700000F1FF3C17D28B4215D902382944C91A22
:1004800040EA07473BE73746304609E70746E7E6D5
:100490001846FBE64145ABD2B8EB020A69EB0E0207
:1004A00001381346A4E76046E9E7184695E7674632
:1004B000D1E781467CE702382C4447E7ACF1020CD7
:1004C0002B442FE7384608E73746E9E6704700BF78
:1004D000034613F8012B002AFBD1181A0138704784
:1004E00010F8012B11F8013B012A28BF9A42F7D0DE
:1004F000D01A70470000000000000000000000005B
:1005000001F0FF01102A2BDB10F0070F08D010F8C4
:10051000013B013A8B422DD010F0070F42B3F6D1C8
:10052000F0B441EA012141EA014122F007047FF0E1
:1005300000070023F0E80256083C85EA010586EA38
:10054000010685FA47F5A3FA87F586FA47F6A5FA74
:1005500087F68EB9EED1F0BC01F0FF0102F0070280
:1005600032B110F8013B013A83EA010313B1F8D12B
:100570000020704701387047002D06BF354603380C
:10058000073815F0010F07D1013015F4807F02BF45
:10059000013015F4C03F0130F0BC0138704700BF96
:1005A0007BB972B90029BEBF00204FF0004106E0C0
:1005B00008BF00281CBF6FF000414FF0FF30FFF76D
:1005C00085BFADF1080C6DE904CE002909DB002BD5
:1005D0001ADBFFF715FEDDF804E0DDE9022304B0C5
:1005E0007047404261EB4101002B1BDBFFF708FE27
:1005F000DDF804E0DDE9022304B0404261EB410193
:10060000524263EB43037047524263EB4303FFF7ED
:10061000F7FDDDF804E0DDE9022304B0404261EBC0
:1006200041017047524263EB4303FFF7E9FDDDF8F8
:1006300004E0DDE9022304B0524263EB4303704758
:100640007047C3688360704710B4426883685C1C5D
:100650008460D1545DF8044B7047F0B447688668F5
:10066000002303E0F418CD5C3D5501339342F9DBE0
:1006700083681A448260F0BC7047806870474068A5
:100680007047C368F9338068181A704710B4044C77
:1006900004604160C26082605DF8044B704700BF37
:1006A00000000020C36B6BB370B4466C334603EBA1
:1006B00003152C01044494F85441012C08D03CB19A
:1006C0000133846B93FBF4F504FB15339E42EED1AA
:1006D00003EB03152C01044494F85441012C13D16D
:1006E0001E01F5182C010444022584F85451D4E964
:1006F0001245C1E90045136033441A0150321044D9
:1007000070BC7047002070470020F9E742F2542384
:10071000C25852B330B442F25C23C358012A17D0F6
:10072000591C42F25024055991FBF5F405FB1411B4
:1007300042F25C240151013A42F25421425003EB4F
:100740008312930003F509532033184430BC7047DB
:1007500042F25422002181504FF0FF3242F25C21DC
:10076000425042F258214250E9E700207047036BA3
:10077000B3F1FF3F09D0426B9A4206D00133C26AFF
:1007800093FBF2F102FB1133F5E77047016BB1F116
:10079000FF3F0CD0436B0133C06A93FBF0F200FBC8
:1007A0001233994201D00020704701207047002089
:1007B000704770B504460025C5634564056420266E
:1007C0008663012004F0B7FE42F24823E05042F273
:1007D0005423E55042F25C23E55042F25823E550A1
:1007E00042F25023E650012004F0A5FE44F2E0233B
:1007F000E05070BD08B544F2E023C05804F0A1FEFB
:1008000008BD08B542F24823C05804F09AFE08BD5E
:100810002DE91848044604F089FE626844F210335A
:10082000D2584FF47A7303FB02F310EB030B41EB46
:10083000E37CC4E908BCBDE818882DE9F04184B028
:1008400004460F4644F2E023C05804F07AFE42F218
:100850005423E35842F25022A258934238D083BB2B
:1008600042F25C21002060501D46AA422ED042F286
:100870005822A550013342F25422A350AE017319FD
:10088000990001F509512031062221446846FFF7FD
:10089000FDFE80460146384600F03CFF404604F02D
:1008A0003BFE3544AB00234442F2603298500125B0
:1008B00044F2E023E05804F04AFE284604B0BDE8C4
:1008C000F08142F2582165580135CEE70025CEE788
:1008D0000025EDE738B5044644F2E025405904F020
:1008E00030FE002342F25C22A35042F25822A35071
:1008F00042F25422A350605904F029FE38BDF8B5E5
:100900000D1E02DB816BA94200DAF8BD16461F46B8
:10091000044642F24823C05804F013FEE36B002B58
:1009200007DD05EB05121301234493F85431022B24
:1009300005D042F24823E05804F009FEE5E705EB54
:10094000051213012344D3E91223BB4208BFB2426C
:10095000EFD12B4611E04FF0FF3363642364E8E7E7
:10096000691CA06B91FBF0F300FB13136364012A75
:10097000DFD12364DDE7AB42DBD003EB03110A01D7
:10098000224492F85421022AD3D1190119440A01B0
:100990002244002182F8541100200021C2E91201F2
:1009A000E26B013AE263002AD5D0616C9942D7D05C
:1009B000013BE0D5A36B013BDDE7F8B504460D46EE
:1009C000C06B04F0BEFD216BB1F1FF3F10D0A26BF4
:1009D00002EB41139B69606B02EB401292699342F8
:1009E0000FDCAB4214DCAA4224DA0026374611E0C1
:1009F000E368AB4227D00027E06B04F0A8FD38463F
:100A0000F8BDAB4219DDAA421ADA0126002701E03F
:100A100000263746013B5A42C3F30E03C2F30E02CF
:100A200058BF53429D4211D0002FE5D0B1F1FF3F96
:100A300034D1E1E700260127ECE701263746E9E754
:100A400001263746E6E700260127EFE70127EDE715
:100A5000013B5942C3F30E03C1F30E0158BF4B4291
:100A6000AB42C9D09168B1F1FF3F21D1236B591C32
:100A7000E26A91FBF2F302FB13132363D4F834C050
:100A80000CF1010090FBF2F102FB11018B4215D039
:100A9000A16B01EB43118969A94213D0A26B236BAF
:100AA00002EB43129369002ED2D19D42DADAA3E71A
:100AB000D2E900236068FFF722FFD7E74FF0FF334A
:100AC000236399E7634506D0013393FBF2F102FB00
:100AD0001133236390E74FF0FF3323638CE708B5AE
:100AE00044F2E023C05804F032FD08BD38B5044696
:100AF00044F2E023C05804F024FD42F25423E358AA
:100B0000002B07DD012544F2E023E05804F01FFD2F
:100B1000284638BD0025F6E708B542F24823C058FC
:100B200004F015FD08BD10B5044668230B70931E34
:100B30004B70C368584203F07F0300F07F0058BF3A
:100B400043425B008B70E368002B26DBC3F3C713C3
:100B5000CB702369584203F07F0300F07F0058BF39
:100B600043425B000B712369002B18DBC3F3C713EF
:100B70004B71206804F066FEB0F1FF3F11D0E368CE
:100B800001335A42C3F30E03C2F30E0258BF53425D
:100B9000E36000236361E06810BD7F33D6E77F33F5
:100BA000E4E700236372F4E7F8B504468C46104688
:100BB0001946236BB3F1FF3F23D0656B6B1CE26AD0
:100BC00093FBF2F502FB1535A36B6E013344C3E9C9
:100BD0000001A36B3344069A9A60A76B3744DCF894
:100BE000002161462046FFF79EFFB861A36B1E44BB
:100BF00004F09CFCC6E9040165632046FFF7B7FDDD
:100C0000F8BD002525636563DEE7F0B5C9B0057A58
:100C100015B9284649B0F0BD0E460446C06B04F035
:100C200090FC2046FFF7B2FD40B1E06B04F08FFC72
:100C300031466068FFF701FE0546EAE7062207A98C
:100C400003A8FFF723FD07460146304600F062FD8A
:100C5000384604F061FC47904FF0FF3300930022C8
:100C6000002307A92046FFF79FFFE06B04F06FFC0D
:100C7000CFE730B583B00446C06B04F062FC204679
:100C8000FFF784FD30B10025E06B04F060FC2846DE
:100C900003B030BD05466068FFF7ACFD6068FFF744
:100CA00035FD014640B14FF0FF3300930022002391
:100CB0002046FFF779FF01256068FFF710FFE3E7A3
:100CC00010B586B00446C06B04F03BFC2046FFF72D
:100CD0005DFD20B1E06B04F03AFC06B010BD606829
:100CE000FFF78FFD03AA04A96068FFF7DBFC01464C
:100CF00030B1039B0093DDE904232046FFF754FF46
:100D00006068FFF709FFE5E710B504466068FFF784
:100D1000EDFE38B12046FFF7ACFF30B1637A002B0F
:100D2000F4D102E02046FFF7CBFF10BD00B583B041
:100D300068238DF8003004238DF8013001238DF8ED
:100D4000023000238DF803300369594203F07F021B
:100D500001F07F0158BF4A4252008DF804201A4624
:100D6000002B0BDBC2F3C7128DF805200622694663
:100D7000006804F067FD03B05DF804FB03F17F0237
:100D8000F0E700002DE9F843044604F0CFFB80466D
:100D90008946D4E908238B4208BF824217D2A36A4E
:100DA000022B01DD002513E006222C49206804F007
:100DB00049FDB0F1FF3F07D0A36A0133A36220468B
:100DC000FFF726FD012503E000236372F4E7012508
:100DD0006369002B12DDD4E90623B8EB020069EB4E
:100DE0000301626844F20C33D3584FF47A7202FB69
:100DF00003F2D317994208BF904222D2E06B04F06D
:100E0000A0FB226BB2F1FF3F15D0A36B03EB4213A3
:100E1000D3E90423B8EB020669EB0307626844F2E6
:100E20000833D3584FF47A7202FB03F2D3179F4270
:100E300008BF96420DD2E06B04F089FB2846BDE85E
:100E4000F883C4E90689002363612046FFF76EFF3B
:100E5000D4E72046FFF78BFC0025ECE72C000020B0
:100E600038B505460C462D2100F08CFC294620465D
:100E7000FFF7CBFE38BD000070B506460D46482092
:100E800004F006FD044638B346600560002505728F
:100E900045720561C56045614FF0FF324FF0FF3389
:100EA000C0E9062380F8405044F2FC23F058E06289
:100EB0004FF0FF3323636363400104F0E9FCA06358
:100EC000012004F038FBE063A562012221460348BB
:100ED00004F045FB04F052FB204670BD3B130408B0
:100EE00038B5044644F22033C05890B144F21C3364
:100EF000E15804F025FC05469DB1284604F05BFC52
:100F000044F215330122E25444F214330022E25435
:100F100012E044F21C33E158184804F011FC054675
:100F2000EAE7174818F092FC44F214330022E25426
:100F30001FE0012004F05AFB44F21633E35C73B95E
:100F4000284604F054FC01460028F2D02046FFF762
:100F500093FF44F21832A3580133A350ECE728461C
:100F600004F07AFC002344F21532A35444F2163202
:100F7000A354034818F06AFC38BD00BFC4B7050885
:100F8000CCB7050870B506460D46012204F03EFCBC
:100F9000002812DD2B78682B10D10122A9183046C9
:100FA00004F034FC01280CD16C782246A91C304690
:100FB00004F02CFCA04207D1A01C70BD4FF0FF3004
:100FC000FBE74FF0FF30F8E74FF0FF30F5E72DE992
:100FD000F84305460C464668084600F0CEFB074637
:100FE000204600F0E5FB6438062800F2E580DFE8E3
:100FF00000F00432547493A4C300062F01D0082FCC
:1010000023D13368002B00F0D9800021204600F066
:1010100005FC80463768D6F8049004F099F9034639
:10102000224629464846B8470746404602F0A9F9F5
:1010300037B9336B23B122462946706B984710B9F4
:10104000002F00F0C780BDE8F88329462046FFF74F
:1010500007FF0027EDE7062F01D0082F17D1B3684F
:10106000002B00F0AD800021204600F0D7FB804629
:10107000B768D6F80C9004F090F90346224629464A
:101080004846B8470746404602F07FF9D0E7294670
:101090002046FFF7E5FE0027CBE7052F17D1336980
:1010A000002B00F08F800021204600F0B7FB804627
:1010B0003769D6F8149002F06FFF0346224629469E
:1010C0004846B8470746404602F053F9B0E729467C
:1010D0002046FFF7C5FE0027ABE7062F16D1B36900
:1010E000002B71D00021204600F098FB8046B769A4
:1010F000D6F81C9004F000F90346224629464846DB
:10110000B8470746404602F038F991E7294620469D
:10111000FFF7A6FE00278CE7062F09D02D212046D9
:1011200000F030FB21462846FFF76FFD012787E7D7
:101130000721204600F026FBF4E7062F16D1336A7C
:10114000002B43D00021204600F068FB8046376A20
:10115000D6F8249004F046F903462246294648462C
:10116000B8470746404602F014F961E72946204691
:10117000FFF776FE00275CE7062F01D0032F15D17D
:10118000B36A2BB30021204600F048FB8046B76AC3
:10119000D6F82C9004F04BF90346224629464846DF
:1011A000B8470746404602F0F8F841E7294620468E
:1011B000FFF756FE00273CE700273AE7002738E70D
:1011C000002736E7002734E7002732E7002730E71B
:1011D00000272EE72C21204600F0D4FA214628468D
:1011E000FFF713FD2FE7000070B505460C461646C5
:1011F00004F09CF9A37813F0010F43D1062E40F3BD
:10120000828095F8403023B9012385F84030C5E944
:101210000601E278A37803F0FE0303EB0223627970
:10122000217901F0FE0101EB022149102A69B2EB9C
:10123000630F01D0002342E02846FFF7BEFB0346C0
:1012400000283CD02B6901335A42C3F30E03C2F38A
:101250000E0258BF53422B616B6901336B612B7ACD
:101260004BB36868B21FA11D00F58540643000F0E3
:101270005BFA044601462846FFF7A9FE204600F027
:1012800043FA18E003F04302432A0FD003F00702A9
:10129000072A16D003F01302132A1DD003F083028D
:1012A000832A21D0012B22D0012308E006221749EE
:1012B000286804F0C7FA2846FFF7AAFA012318465F
:1012C00070BD01232B726868FFF704FB06221049EA
:1012D000286804F0B7FAEEE700232B7206220D49C6
:1012E000286804F0AFFAE6E70023AB62E3E7217970
:1012F000637901EB032149102846FFF75EFB0346A3
:101300000028D8D1DBE70023D9E700BF3400002054
:101310001C0000202400002070B110B504460068B5
:1013200004F09AFAA06B04F0CFFAE06B04F013F922
:10133000204604F0C9FA10BD704730B5C3B004466A
:1013400001234372FFF764FA04F090F9054610E0B8
:101350006269636803F586431B689A422BDA20466C
:10136000FFF710FD08B900236372637A0BB1237A8B
:101370005BBB637A6BB3284604F08CF9216828467E
:1013800004F095F96421284604F0AEF90028E6D06F
:1013900001A92068FFF7F6FDB0F1FF3F19D0002842
:1013A000DDDD024601A92046FFF71EFF0028CFD150
:1013B00000236372CCE704F0B9F8C4E90601002306
:1013C00063612046FFF7B2FCC9E72046FFF79CFCAB
:1013D000CFE7284604F0B0F900236372616844F255
:1013E00018328B58013B8B502046FFF795FF43B0D6
:1013F00030BD000038B504461A48FFF7DAF934B3B7
:10140000194D0FCC0FC50FCC0FC594E80F0085E820
:101410000F0014480023036303608360036183614A
:101420000362836244F21532835444F216328354C9
:1014300044F22032835044F21C3240F66411815051
:1014400044F21832835044F22432835038BD064CA3
:10145000064D0FCD0FC40FCD0FC495E80F0084E8E3
:101460000F00D6E7F8040020DC47002094B70508F9
:1014700038B504460D4644F22033C05808B104F094
:1014800023FA2846FFF724F8013004F001FA44F269
:101490002033E05010B1294618F024FA38BD44F248
:1014A0001833C0587047016042607047016342635F
:1014B00070478161C261704700F5854064307047B4
:1014C0002DE9F04184B00446884642F24823C058D2
:1014D00004F037F8E36B93BB002262641D46A26BF5
:1014E000AA422FD093422FD025640133E3632E010B
:1014F000731919015031062221446846FFF7C6F8D6
:1015000007460146404600F005F9384604F004F865
:1015100073191F012744C7F8500104F007F8C7E901
:101520001201012287F85421404600F0EDF842F202
:101530004823E05804F00BF804B0BDE8F081256CB6
:101540000135CCE70025CDE725646B1C9A4201D01C
:101550006364CCE70023FBE738B50C46FFF755FB87
:101560000546204600F0D4F808B1284638BD20468C
:1015700000F0CAF8F9E770B505460C461646072193
:10158000204600F0FFF83146204600F0E9F82146F9
:101590002846FFF7E1FF70BD38B505460C460A2125
:1015A000204600F0EFF80021204600F0D9F821464F
:1015B0002846FFF7D1FF38BD44F21533C35C03B1B1
:1015C000704710B5044644F214330122C25400227D
:1015D00044F21533C25444F21633C254014609484A
:1015E00003F0BDFF44F22433E05003F0C7FF02E0F4
:1015F000012003F0FBFF44F21433E35C002BF7D12E
:1016000010BD00BFE10E040844F21533C05C704702
:10161000704710B4436818695A69541C5C6181545E
:101620005DF8044B7047F0B443681F695E6900239E
:1016300003E0F418CD5C3D5501339342F9DB41687A
:101640004B691A444A61F0BC704743685869C0F15D
:10165000F900DB68C01A70472DE9F04704468A4656
:1016600091461E46099D9DF828809DF82C704FF4E8
:101670008C7004F00DF9024600283AD00023037064
:10168000A368023321690B4480F818A0B9F1000F58
:1016900032D08021417606F03F069676B8F1000FF1
:1016A00002D066F07F0696761FB1917E41F0400130
:1016B0009176A168012922DD0899D17604216E4234
:1016C000E8B2F6B258BF7042561830762069012849
:1016D00006DD2846002D14DB001201311144087686
:1016E00002F118019160D3600B4413610023536130
:1016F00054601046BDE8F08700214176CBE7032116
:10170000DDE705F1FF00E7E708B504F0DDF808BD07
:101710000078704708B503460846D9685A690A44F4
:10172000996803F0F4FE08BDF8B5836802330469D4
:101730001C44944212DC17460E460546182004F05D
:10174000A7F8034640B10122027045608660C4607C
:10175000264406613C1B44611846F8BD0023FBE7A4
:1017600029B98268937823F04003937070478268A8
:10177000937843F04003937070478368987800F043
:101780003F0070478268937803F0C00301F03F0187
:1017900019439170704741688B6802338268D05C4E
:1017A0000969012903DD13445B7800EB03207047CE
:1017B000836818787047836893F90130002B01DB48
:1017C00000207047012070478368587800F07F0040
:1017D0007047000070B582B004460D460E4B009372
:1017E0000190FFF7F1FF60B900236268694628465F
:1017F00002F0C8FB18B1A26853780133537002B0ED
:1018000070BD66682046FFF7D6FF0346324669463C
:10181000284602F0B7FBEDE73C00002070B582B02F
:1018200004460D46FFF7C4FF0138702800F2EF862A
:10183000DFE810F071009A00C500EE0019014401C4
:1018400070019C01C701F1011C02460271029B025A
:10185000C402EE02170342036C039603C003ED06B5
:10186000ED06ED06ED06ED06ED06ED06ED06E903E7
:1018700012043B0465049004BB04E60411053C0516
:1018800067059305ED06ED06ED06ED06BF05CD05F2
:10189000D905E505F205FF050C06ED06ED06ED069A
:1018A000ED06ED06ED061906270635064306510638
:1018B0005F066D06ED06ED06ED06ED06ED067B0610
:1018C000ED06ED06ED06ED06ED06ED06ED06ED0680
:1018D000ED06ED06ED06ED06ED06ED06ED06ED0670
:1018E000ED06ED06ED06ED06ED06ED06ED06ED0660
:1018F000ED06ED06ED06ED06ED0684068D06960670
:101900009F06ED06A806B106ED06ED06ED06BA0641
:10191000C706D406E1062046FFF74DFFB0B1616867
:101920004B692B44012201920093636922690020D4
:1019300002F06FFB064600222169606802F030FB6E
:101940004119304602F02AFB00F03EBD6168226971
:101950006369486900FB055500200190009502F07D
:1019600058FB064600F030BD2046FFF724FFB8B113
:1019700061684B6903EB850301220192009363695F
:101980002269002002F0B3FC06460022216960684B
:1019900002F006FB4119304602F000FB00F014BDD6
:1019A0006168226963694869043005FB00F500201D
:1019B0000190009502F09BFC064600F005BD204614
:1019C000FFF7F9FEB0B161684B692B440122019227
:1019D000009363692269002002F0DDFB06460022C5
:1019E0002169606802F0DCFA4119304602F0D6FA4B
:1019F00000F0EABC616822696369486900FB05552B
:101A000000200190009502F0C6FB064600F0DCBC09
:101A10002046FFF7D0FEB8B161684B6903EB850340
:101A200001220192009363692269002002F0DBFB2E
:101A3000064600222169606802F0B2FA4119304678
:101A400002F0ACFA00F0C0BC6168226963694869C1
:101A5000043005FB00F500200190009502F0C3FB67
:101A6000064600F0B1BC2046FFF7A5FEB8B161689C
:101A70004B6903EB450301220192009363692269DC
:101A8000002002F0EEFA064600222169606802F0AA
:101A900087FA4119304602F081FA00F095BC61687E
:101AA000226963694869023005FB00F50020019056
:101AB000009502F0D6FA064600F086BC2046FFF7F5
:101AC0007AFEC0B161684B6905EB850213440122BF
:101AD0000192009363692269002002F018FB064618
:101AE00000222169606802F05BFA4119304602F079
:101AF00055FA00F069BC616822696369486905307C
:101B000005FB00F500200190009502F000FB064661
:101B100000F05ABC2046FFF74EFEC0B161684B6929
:101B200005EB850213440122019200936369226947
:101B3000002002F060FC064600222169606802F085
:101B40002FFA4119304602F029FA00F03DBC6168D5
:101B5000226963694869053005FB00F500200190A2
:101B6000009502F048FC064600F02EBC2046FFF728
:101B700022FEB8B161684B6903EBC50301220192F3
:101B8000009363692269002002F059FC0646002296
:101B90002169606802F004FA4119304602F0FEF94A
:101BA00000F012BC6168226963694869083005FB6E
:101BB00000F500200190009502F041FC064600F07F
:101BC00003BC2046FFF7F7FDB8B161684B6905EB30
:101BD00045021344012201920093636922690020A7
:101BE00002F089FC064600222169606802F0D8F9FB
:101BF0004119304602F0D2F9E6E36168226963696F
:101C00004869033005FB00F500200190009502F0C3
:101C100072FC0646D8E32046FFF7CDFDC0B16168EF
:101C20004B6905EB450042001344012201920093E9
:101C300063692269002002F0B9FC0646002221698E
:101C4000606802F0ADF94119304602F0A7F9BBE334
:101C50006168226963694869063005FB00F5002068
:101C60000190009502F0A2FC0646ADE32046FFF786
:101C7000A2FDB8B161684B6905EB4502134401222E
:101C80000192009363692269002002F0F5FC064688
:101C900000222169606802F083F94119304602F0A0
:101CA0007DF991E36168226963694869033005FB46
:101CB00000F500200190009502F0DEFC064683E36B
:101CC0002046FFF778FDC0B161684B6905EB450020
:101CD00042001344012201920093636922690020AB
:101CE00002F0FFFC064600222169606802F058F904
:101CF0004119304602F052F966E36168226963696E
:101D00004869063005FB00F500200190009502F0BF
:101D1000E8FC064658E32046FFF74DFDB8B1616880
:101D20004B6905EB8502134401220192009363691C
:101D30002269002002F056FD0646002221696068F3
:101D400002F02EF94119304602F028F93CE36168AF
:101D5000226963694869053005FB00F500200190A0
:101D6000009502F03FFD06462EE32046FFF723FDD7
:101D7000B0B161684B6903EBC50301220192009386
:101D800063692269002002F068FD0646002221698D
:101D9000606802F005F94119304602F0FFF813E3DC
:101DA0006168226963694869083005FB00F5002015
:101DB0000190009502F051FD064605E32046FFF72D
:101DC000FAFCB8B161684B6905EB85021344012246
:101DD0000192009363692269002002F0B0FD06467B
:101DE00000222169606802F0DBF84119304602F0F8
:101DF000D5F8E9E26168226963694869053005FB45
:101E000000F500200190009502F099FD0646DBE206
:101E10002046FFF7D0FCB0B161684B6903EBC50306
:101E200001220192009363692269002002F0B1FD52
:101E3000064600222169606802F0B2F84119304676
:101E400002F0ACF8C0E26168226963694869083051
:101E500005FB00F500200190009502F09AFD064672
:101E6000B2E22046FFF7A7FCC0B161684B6905EB01
:101E700045004200134401220192009363692269E4
:101E8000002002F0EEFD064600222169606802F0A3
:101E900087F84119304602F081F895E261682269BD
:101EA00063694869063005FB00F500200190009544
:101EB00002F0D7FD064687E22046FFF77CFCB8B16A
:101EC00061684B69C5EBC50213440122019200937E
:101ED00063692269002002F03AFE06460022216969
:101EE000606802F05DF84119304602F057F86BE285
:101EF0006168226963694869073005FB00F50020C5
:101F00000190009502F023FE06465DE22046FFF7B1
:101F100052FCB8B161684B69C5EBC502134401229C
:101F20000192009363692269002002F08CFE06464C
:101F300000222169606802F033F84119304602F04E
:101F40002DF841E26168226963694869073005FB41
:101F500000F500200190009502F075FE064633E280
:101F60002046FFF728FCB8B161684B6905EB850294
:101F7000134401220192009363692269002002F058
:101F8000DEFE064600222169606802F009F8411968
:101F9000304602F003F817E2616822696369486914
:101FA000053005FB00F500200190009502F0C7FE0A
:101FB000064609E22046FFF7FEFBB0B161684B69B7
:101FC00003EB45030122019200936369226900201B
:101FD00002F0C6FA064600222169606801F0E0FFBF
:101FE0004119304601F0DAFFEEE161682269636968
:101FF0004869023005FB00F500200190009502F0D1
:10200000AFFA0646E0E12046FFF7D5FBB0B16168C4
:102010004B6903EBC50301220192009363692269B6
:10202000002002F0B6F9064600222169606801F03E
:10203000B7FF4119304601F0B1FFC5E1616822697F
:1020400063694869083005FB00F5002001900095A0
:1020500002F09FF90646B7E12046FFF7ACFBB0B1AE
:1020600061684B6903EBC503012201920093636928
:102070002269002002F009F9064600222169606801
:1020800001F08EFF4119304601F088FF9CE1616844
:10209000226963694869083005FB00F5002001905A
:1020A000009502F0F2F806468EE12046FFF783FB2A
:1020B000B8B161684B6905EBC50213440122019276
:1020C000009363692269002001F0F1FF06460022B7
:1020D0002169606801F064FF4119304601F05EFF3C
:1020E00072E16168226963694869093005FB00F59E
:1020F00000200190009501F0DAFF064664E12046D9
:10210000FFF759FBC0B161684B6905EB45008200E0
:10211000134401220192009363692269002002F0B6
:10212000BCF9064600222169606801F039FF4119B7
:10213000304601F033FF47E161682269636948690D
:102140000C3005FB00F500200190009502F0A5F988
:10215000064639E12046FFF72EFBC0B161684B69A6
:1021600005EB85004200134401220192009363694C
:102170002269002002F04DFA0646002221696068BB
:1021800001F00EFF4119304601F008FF1CE16168C3
:102190002269636948690A3005FB00F50020019057
:1021A000009502F036FA06460EE12046FFF703FBE3
:1021B000C0B161684B6905EB850042001344012200
:1021C0000192009363692269002002F0BDFA06467D
:1021D00000222169606801F0E3FE4119304601F0F8
:1021E000DDFEF1E061682269636948690A3005FB38
:1021F00000F500200190009502F0A6FA0646E3E003
:102200002046FFF7D8FAC0B161684B6905EB45007D
:102210008200134401220192009363692269002025
:1022200002F054FB064600222169606801F0B8FE06
:102230004119304601F0B2FEC6E061682269636967
:1022400048690C3005FB00F500200190009502F074
:102250003DFB0646B8E02046FFF7ADFAC0B1616825
:102260004B6905EB45008200134401220192009363
:1022700063692269002002F0C0FB06460022216942
:10228000606801F08DFE4119304601F087FE9BE049
:1022900061682269636948690C3005FB00F500201C
:1022A0000190009502F0A9FB06468DE02046FFF75D
:1022B00082FAC0B161684B6905EB850042001344A6
:1022C00001220192009363692269002002F004FC5C
:1022D000064600222169606801F062FE411930461D
:1022E00001F05CFE70E061682269636948690A3048
:1022F00005FB00F500200190009502F0EDFB06467D
:1023000062E02046FFF757FAC8B161684B6905EBF8
:10231000850205EB42021344012201920093636996
:102320002269002002F051FC064600222169606803
:1023300001F036FE4119304601F030FE44E061689C
:102340002269636948690B3005FB00F500200190A4
:10235000009502F03AFC064636E02046FFF72BFADD
:10236000C8B161684B6905EB850205EB4202134475
:1023700001220192009363692269002002F0A1FC0E
:10238000064600222169606801F00AFE41193046C4
:1023900001F004FE18E061682269636948690B3046
:1023A00005FB00F500200190009502F08AFC06462E
:1023B0000AE0616848692269636900FB0555009578
:1023C000002002F0FAFC0646304602B070BD61689B
:1023D00048692269636900FB05550095002002F0F9
:1023E00045FD0646F0E7616848692269636900FBBC
:1023F00005550095002002F08BFD0646E4E7616874
:102400004B69D81C2269636900FB05F50095002023
:1024100002F0CEFD0646D7E761684B69D81C2269F9
:10242000636900FB05F50095002002F01EFE0646DC
:10243000CAE761684B69581D2269636900FB05F5AD
:102440000095002002F06EFE0646BDE761684B690C
:10245000181D2269636900FB05F50095002002F054
:10246000CAFE0646B0E761684B6903F108002269BD
:10247000636900FB05F50095002002F0C3FC0646E9
:10248000A2E761684B6903F108002269636900FBF8
:1024900005F50095002002F00CFD064694E7616802
:1024A0004B6903F108002269636900FB05F500959B
:1024B000002002F050FD064686E761684B6903F193
:1024C0000A002269636900FB05F50095002002F00F
:1024D00098FD064678E761684B6903F10A002269B6
:1024E000636900FB05F50095002002F0E7FD064654
:1024F0006AE761684B6903F10C002269636900FBBC
:1025000005F50095002002F03CFE06465CE7616898
:102510004B6903F10B002269636900FB05F5009527
:10252000002002F094FE06464EE761682269636966
:102530000020009002F0C3FF064645E7616822696B
:1025400063690020009002F005FF06463CE76168E1
:10255000226963690020009002F021FF064633E7FC
:102560006168226963690020009002F0A7FE0646B8
:102570002AE76168226963690020009002F0BEFECC
:10258000064621E76168226963690020009002F035
:102590002BFF064618E761682269636900200090F6
:1025A00002F047FF06460FE761684B69D81C2269B5
:1025B000636900FB05F50095002001F0C5FF0646A4
:1025C00002E761684B69D81C2269636900FB05F565
:1025D0000095002002F079F80646F5E661684B693F
:1025E000581D2269636900FB05F50095002002F083
:1025F00028F90646E8E6616848692269636900FBD4
:1026000005550095002002F03EFF0646DCE6002658
:10261000DAE600000378407803EB0020024B83FBEE
:1026200000308011704700BFD34D621010B40478A1
:10263000437804EB03240B4B83FB04239B114FF4DF
:102640007A7202FB134302FB013101700B46002931
:1026500005DBC3F3072343705DF8044B704701F1BA
:10266000FF03F6E7D34D6210807800F03F0070471B
:1026700090F9023023F03F0301F03F010B438370D8
:10268000704700002DE9F00B4669016901297FDDE3
:10269000A6F145073C46FD174FEAC50CFA004CEA87
:1026A000577312EB070843EB05094FEAC90747EADE
:1026B00058774FEAC80C1CEB040B47EB050C4FEAAC
:1026C0008C0545EA9B754FEA8B041BEB04024CEB2F
:1026D00005033446002E5EDBA710D41943EBE775E3
:1026E0002F4A82FB0632F317C3EB621303EB43035B
:1026F0001A46002B51DB9610A21B65EBE6730231E4
:1027000001EBC10101EB0111264C84FB0154C917F7
:10271000C1EB6401541843EBE175B4F5DF7245F188
:10272000FF33C168541843EBE175221945EB0503EB
:10273000161943EB0507F90041EA5671F4000F46FC
:102740008168641847EBE1752901220141EA14739D
:10275000121B63EB0503990041EA927194000F4646
:102760004168621847EBE1731901140141EA1275DF
:10277000A41A65EB0305A90041EA9471A40000685E
:10278000231841EBE07418462146BDE8F00B704772
:102790000C31013E7CE7F41C9EE7DA1CABE700BF7E
:1027A0001F85EB516766666610B49C1C94420BDC77
:1027B000002203E0D4180C5D84540132012AF9DDB3
:1027C00001205DF8044B70470020FAE710B4DC1CD0
:1027D00094420BDC002203E0D4180C5D84540132D7
:1027E000022AF9DD01205DF8044B70470020FAE76A
:1027F00010B4DC1D94420BDC002203E0D4180C5D05
:1028000084540132062AF9DD01205DF8044B70473B
:102810000020FAE70278407802EB0022044B83FBA9
:1028200002139B114FF47A7000FB1320704700BF16
:10283000D34D621008B5FFF7EDFE08BD38B504466C
:102840000D46FFF7F7FF4FF47A7303FB005020703B
:102850000346002803DBC3F30723637038BD00F190
:10286000FF03F8E708B5FFF7E1FE08BD08B5FFF77D
:10287000FBFE08BD08B5FFF7FBFE08BDC07800F001
:102880001F00704790F9033023F01F0301F01F0170
:102890000B43C370704700794009704790F90430CA
:1028A00003F01F0343EA411101717047007900F002
:1028B0001F007047037903F0E00301F01F010B4391
:1028C00003717047407900F00F007047437903F0BF
:1028D000F00301F00F010B4343717047807900F062
:1028E0007F0070472DE970488BB00646FFF7A2FFC6
:1028F00001903046FFF7BAFF02903046FFF7BEFF67
:1029000003903046FFF7D2FF04903046FFF7DAFF1E
:10291000013805903046FFF7E1FF6430069001A8CA
:10292000FFF7B0FE4B01440143EAD065241A65EB82
:102930000105AB0043EA9473A200141843EB0105B0
:10294000EB0043EA5473E20014461D463046FFF79D
:1029500061FF0346201845EBE3710BB0BDE87088BA
:10296000837903F0800301F07F010B43837170478B
:10297000F0B58DB0044616461F464FF47A72002318
:1029800030463946FDF724FCCDE90A014FF47A724E
:10299000002330463946FDF71BFC154601A90AA85D
:1029A00016F06AFD01992046FFF75CFF2946204694
:1029B000FFF744FF02992046FFF75CFF039920468A
:1029C000FFF760FF04992046FFF774FF00212046BF
:1029D000FFF764FF059901312046FFF777FF06995D
:1029E00064392046FFF7BCFF0DB0F0BDD0B51646E8
:1029F0001F4660B1044600230360C0F8033024B1D1
:102A000032463B462046FFF7B3FF2046D0BD0721A4
:102A1000012002F047FF0446F1E70000024B83600B
:102A200001230371704700BFC8010020024B83607F
:102A300005230371704700BFF0010020024B836043
:102A400020230371704700BF00020020024B836007
:102A500006230371704700BFF8010020024B83601A
:102A600003230371704700BFB0000020024B836056
:102A700004230371704700BFB8000020024B83603D
:102A80001F230371704700BFC0000020024B83600A
:102A900002230371704700BFD0010020024B836006
:102AA0001E230371704700BFD8010020024B8360D2
:102AB00007230371704700BF68000020024B83604A
:102AC00008230371704700BF80000020024B836021
:102AD00021230371704700BF88000020024B8360F0
:102AE00009230371704700BFF8000020024B836088
:102AF00015230371704700BF10010020024B836053
:102B00000A230371704700BF00010020024B83605D
:102B100022230371704700BF08010020024B83602D
:102B20000B230371704700BF18010020024B836024
:102B30000C230371704700BF20010020024B83600B
:102B400023230371704700BF28010020024B8360DC
:102B50000D230371704700BF30010020024B8360DA
:102B60000E230371704700BF38010020024B8360C1
:102B700024230371704700BF40010020024B836093
:102B80000F230371704700BFD8000020024B836001
:102B900010230371704700BFE0000020024B8360E8
:102BA00025230371704700BFE8000020024B8360BB
:102BB00011230371704700BFC8000020024B8360DF
:102BC00026230371704700BFD0000020024B8360B2
:102BD00012230371704700BF60010020024B836025
:102BE00027230371704700BF68010020024B8360F8
:102BF00013230371704700BF48010020024B83601C
:102C000028230371704700BF50010020024B8360EE
:102C100014230371704700BF58010020024B8360EA
:102C20002D230371704700BFB8010020024B836061
:102C30003A230371704700BFC0010020024B83603C
:102C40002E230371704700BFA0000020024B836059
:102C50003B230371704700BFA8000020024B836034
:102C60002F230371704700BFE0010020024B8360F7
:102C70003C230371704700BFE8010020024B8360D2
:102C800030230371704700BF88010020024B83602E
:102C90003D230371704700BF90010020024B836009
:102CA00031230371704700BF98010020024B8360FD
:102CB0003E230371704700BFA0010020024B8360D8
:102CC00032230371704700BFA8010020024B8360CC
:102CD0003F230371704700BFB0010020024B8360A7
:102CE00033230371704700BF70000020024B8360E4
:102CF00040230371704700BF78000020024B8360BF
:102D000066230371704700BF78010020024B836087
:102D100067230371704700BF90000020024B83605F
:102D200064230371704700BFF0000020024B8360F2
:102D300065230371704700BF98000020024B836039
:102D400069230371704700BF80010020024B83603C
:102D50006A230371704700BF58000020024B836054
:102D600071230371704700BF70010020024B836024
:102D700046230371704700BF6000002003B1704715
:102D800070B514460D4606460178284602F0BAFB97
:102D90006369012B03DC6369022B0BDC70BD3168B6
:102DA000002905DBC1F30721284602F0ABFBF2E75F
:102DB000FF31F7E73168002905DBC1F307412846F9
:102DC00002F0A0FBEAE701F57F41FF31F5E72DE9CD
:102DD000F04107460C461646984643B955692046C9
:102DE00002F09FFBA84204DA0020BDE8F081002534
:102DF000F5E74346324621463846FFF7BFFF01203C
:102E0000F3E72DE9F04106460D46174698464BB9C3
:102E100054690134284602F084FBA04204DA002001
:102E2000BDE8F0810124F5E743463A46294630469D
:102E3000FFF7A4FF717B337B0BB10131C9B2284688
:102E400002F060FB0120EBE72DE9F04106460C465D
:102E5000174698464BB955690235204602F061FB8A
:102E6000A84204DA0020BDE8F0810225F5E74346D8
:102E70003A4621463046FFF781FF317B204602F07B
:102E800041FB717B204602F03DFB0120EBE72DE981
:102E9000F04106460D46174698464BB95469013431
:102EA000284602F03EFBA04204DA0020BDE8F08193
:102EB0000124F5E743463A4629463046FFF75EFFD0
:102EC000737B317B1944C9B2284602F01BFB0120F9
:102ED000ECE72DE9F04106460C46174698464BB9FB
:102EE00055690535204602F01CFBA84204DA002093
:102EF000BDE8F0810525F5E743463A4621463046D0
:102F0000FFF73CFFF5686B42E9B2DBB258BF5942AC
:102F1000C9B2204602F0F6FA2946002D23DB091239
:102F20004B42C9B2DBB258BF5942C9B2204602F087
:102F3000E9FA2946002D19DB09144B42C9B2DBB26C
:102F400058BF5942C9B2204602F0DCFA2946002D8A
:102F500010DB090E204602F0D5FA317C204602F043
:102F6000D1FA0120C4E705F1FF01D8E705F57F415B
:102F7000FF31E1E705F1FF1101F57F41E9E72DE9B7
:102F8000F04106460C46174698464BB9556903353D
:102F9000204602F0C6FAA84204DA0020BDE8F0811B
:102FA0000325F5E743463A4621463046FFF7E6FE5D
:102FB000317B204602F0A6FA717B204602F0A2FA8D
:102FC000B17B204602F09EFA0120E7E708B5FFF743
:102FD000D6FF08BD2DE9F04106460C461746984637
:102FE0004BB955690235204602F09BFAA84204DA33
:102FF0000020BDE8F0810225F5E743463A46214628
:103000003046FFF7BBFE317B204602F07BFA717B36
:10301000204602F077FA0120EBE72DE9F041074660
:103020000D46164698464BB954690134284602F0BD
:1030300078FAA04204DA0020BDE8F0810124F5E727
:103040004346324629463846FFF798FE397B2846E4
:1030500002F058FA0120EFE72DE9F04107460D464E
:10306000164698464BB954690134284602F059FA7D
:10307000A04204DA0020BDE8F0810124F5E74346D0
:10308000324629463846FFF779FE397B284602F05A
:1030900039FA0120EFE72DE9F04107460D461646C3
:1030A00098464BB954690134284602F03AFAA042D6
:1030B00004DA0020BDE8F0810124F5E743463246FA
:1030C00029463846FFF75AFE397B284602F01AFA9D
:1030D0000120EFE72DE9F04107460D4616469846D8
:1030E0004BB954690134284602F01BFAA04204DAB5
:1030F0000020BDE8F0810124F5E743463246294629
:103100003846FFF73BFE397B284602F0FBF90120E9
:10311000EFE72DE9F04107460D46164698464BB9B4
:1031200054690134284602F0FCF9A04204DA002078
:10313000BDE8F0810124F5E743463246294638468A
:10314000FFF71CFE397B284602F0DCF90120EFE78F
:103150002DE9F04107460D46164698464BB954698D
:103160000134284602F0DDF9A04204DA0020BDE86F
:10317000F0810124F5E74346324629463846FFF7F9
:10318000FDFD397B284602F0BDF90120EFE72DE96E
:10319000F04107460D46164698464BB9546901342E
:1031A000284602F0BEF9A04204DA0020BDE8F08112
:1031B0000124F5E74346324629463846FFF7DEFD4F
:1031C000397B284602F09EF90120EFE72DE9F04116
:1031D00007460D46164698464BB9546901342846B1
:1031E00002F09FF9A04204DA0020BDE8F08101243A
:1031F000F5E74346324629463846FFF7BFFD397B9F
:10320000284602F07FF90120EFE708B502F05CFBE9
:1032100008BD08B502F058FB08BD08B502F054FB24
:1032200008BD08B502F050FB08BD08B502F04CFB24
:1032300008BD08B502F048FB08BD08B502F044FB24
:1032400008BD08B502F040FB08BD08B502F03CFB24
:1032500008BD08B502F038FB08BD08B502F034FB24
:1032600008BD08B502F030FB08BD08B502F02CFB24
:1032700008BD08B502F028FB08BD08B502F024FB24
:1032800008BD08B502F020FB08BD08B502F01CFB24
:1032900008BD08B502F018FB08BD08B502F014FB24
:1032A00008BD08B502F010FB08BD08B502F00CFB24
:1032B00008BD08B502F008FB08BD08B502F004FB24
:1032C00008BD08B502F000FB08BD08B502F0FCFA25
:1032D00008BD08B502F0F8FA08BD08B502F0F4FA26
:1032E00008BD08B502F0F0FA08BD08B502F0ECFA26
:1032F00008BD08B502F0E8FA08BD08B502F0E4FA26
:1033000008BD08B502F0E0FA08BD08B502F0DCFA25
:1033100008BD08B502F0D8FA08BD08B502F0D4FA25
:1033200008BD08B502F0D0FA08BD08B502F0CCFA25
:1033300008BD08B502F0C8FA08BD08B502F0C4FA25
:1033400008BD08B502F0C0FA08BD08B502F0BCFA25
:1033500008BD08B502F0B8FA08BD08B502F0B4FA25
:1033600008BD08B502F0B0FA08BD08B502F0ACFA25
:1033700008BD08B502F0A8FA08BD08B502F0A4FA25
:1033800008BD08B502F0A0FA08BD08B502F09CFA25
:1033900008BD08B502F098FA08BD08B502F094FA25
:1033A00008BD08B502F090FA08BD08B502F08CFA25
:1033B00008BD2DE9F04106460C46174698464BB924
:1033C00055690935204602F0ACF8A84204DA00201D
:1033D000BDE8F0810925F5E743463A4621463046E7
:1033E000FFF7CCFC317B204602F08CF8717B204645
:1033F00002F088F8072206F10E01204602F087F855
:10340000E5E72DE9F04106460C46174698464BB9CC
:1034100055690535204602F084F8A84204DA0020F8
:10342000BDE8F0810525F5E743463A46214630469A
:10343000FFF7A4FC317B204602F064F8717B204644
:1034400002F060F8032206F10E01204602F05FF858
:103450000120E5E72DE9F04106460C46174698465F
:103460004BB955690435204602F05BF8A84204DAEE
:103470000020BDE8F0810425F5E743463A462146A1
:103480003046FFF77BFC737B317B1944C9B2204681
:1034900002F038F8032206F10E01204602F037F858
:1034A0000120E6E72DE9F04106460C46174698460E
:1034B0004BB955690835204602F033F8A84204DAC2
:1034C0000020BDE8F0810825F5E743463A4621464D
:1034D0003046FFF753FC737B317B1944C9B2204659
:1034E00002F010F8072206F10E01204602F00FF854
:1034F0000120E6E72DE9F04106460C4617469846BE
:103500004BB955690435204602F00BF8A84204DA9D
:103510000020BDE8F0810425F5E743463A46214600
:103520003046FFF72BFC717B337B0BB10131C9B205
:10353000204601F0E7FF032206F10E01204601F0CC
:10354000E6FF0120E5E72DE9F04106460C46174667
:1035500098464BB955690835204601F0E2FFA8426C
:1035600004DA0020BDE8F0810825F5E743463A4635
:1035700021463046FFF702FC717B337B0BB10131F2
:10358000C9B2204601F0BEFF072206F10E01204617
:1035900001F0BDFF0120E5E72DE9F04106460C46AC
:1035A000174698464BB955690835204601F0B9FFD2
:1035B000A84204DA0020BDE8F0810825F5E743467B
:1035C0003A4621463046FFF7D9FBF5686B42E9B22F
:1035D000DBB258BF5942C9B2204601F093FF2946D9
:1035E000002D29DB09124B42C9B2DBB258BF594248
:1035F000C9B2204601F086FF2946002D1FDB0914C1
:103600004B42C9B2DBB258BF5942C9B2204601F0A1
:1036100079FF2946002D16DB090E204601F072FFC6
:10362000317C204601F06EFF032206F11101204695
:1036300001F06DFF0120BEE705F1FF01D2E705F5BE
:103640007F41FF31DBE705F1FF1101F57F41E3E742
:103650002DE9F04106460C46174698464BB9556988
:103660000C35204601F05DFFA84204DA0020BDE8D9
:10367000F0810C25F5E743463A4621463046FFF7F0
:103680007DFBF5686B42E9B2DBB258BF5942C9B263
:10369000204601F037FF2946002D29DB09124B4255
:1036A000C9B2DBB258BF5942C9B2204601F02AFF65
:1036B0002946002D1FDB09144B42C9B2DBB258BFAB
:1036C0005942C9B2204601F01DFF2946002D16DBE4
:1036D000090E204601F016FF317C204601F012FF52
:1036E000072206F11101204601F011FF0120BEE77B
:1036F00005F1FF01D2E705F57F41FF31DBE705F179
:10370000FF1101F57F41E3E72DE9F04107460D4642
:10371000164698464BB954690634284601F001FF15
:10372000A04204DA0020BDE8F0810624F5E7434614
:10373000324629463846FFF722FC032207F10F01E3
:10374000284601F0E4FE0120EDE72DE9F0410746AF
:103750000D46164698464BB954690A34284601F07E
:10376000E0FEA04204DA0020BDE8F0810A24F5E77B
:103770004346324629463846FFF701FC072207F147
:103780000F01284601F0C3FE0120EDE72DE9F041CD
:1037900007460D46164698464BB9546906342846E6
:1037A00001F0BFFEA04204DA0020BDE8F08106244B
:1037B000F5E74346324629463846FFF7E0FB032249
:1037C00007F10F01284601F0A2FE0120EDE72DE9E7
:1037D000F04107460D46164698464BB954690A34DF
:1037E000284601F09EFEA04204DA0020BDE8F081E8
:1037F0000A24F5E74346324629463846FFF7BFFB21
:10380000072207F10F01284601F081FE0120EDE7B4
:103810002DE9F04106460C46174698464BB95569C6
:103820000535204601F07DFEA84204DA0020BDE8FF
:10383000F0810525F5E743463A4621463046FFF735
:103840009DFA042206F10C01204601F060FE317C55
:10385000204601F057FE0120E9E72DE9F041074637
:103860000D46164698464BB954690834284601F06F
:1038700058FEA04204DA0020BDE8F0810824F5E7F4
:103880004346324629463846FFF7C2FF032207F176
:103890001101284601F03BFE0120EDE72DE9F04142
:1038A00007460D46164698464BB954690C342846CF
:1038B00001F037FEA04204DA0020BDE8F0810C24BC
:1038C000F5E74346324629463846FFF7A1FF07226F
:1038D00007F11101284601F01AFE0120EDE72DE95C
:1038E000F04107460D46164698464BB954690534D3
:1038F000284601F016FEA04204DA0020BDE8F0815F
:103900000524F5E74346324629463846FFF736FA9E
:10391000052207F10C01284601F0F9FD0120EDE731
:103920002DE9F04107460D46164698464BB95469B5
:103930000834284601F0F5FDA04204DA0020BDE875
:10394000F0810824F5E74346324629463846FFF71A
:10395000C6FF032207F11101284601F0D8FD01201E
:10396000EDE72DE9F04107460D46164698464BB95E
:1039700054690C34284601F0D4FDA04204DA00203A
:10398000BDE8F0810C24F5E7434632462946384627
:10399000FFF7A5FF072207F11101284601F0B7FD47
:1039A0000120EDE72DE9F04106460C461746984602
:1039B0004BB955690635204601F0B3FDA84204DA3B
:1039C0000020BDE8F0810625F5E743463A4621464A
:1039D0003046FFF7D3F9317B204601F093FD0222F8
:1039E00006F10D01204601F092FD032206F10F01C0
:1039F000204601F08CFD0120E3E72DE9F041064669
:103A00000C46174698464BB955690A35204601F0D1
:103A100088FDA84204DA0020BDE8F0810A25F5E718
:103A200043463A4621463046FFF7A8F9317B204607
:103A300001F068FD022206F10D01204601F067FD4C
:103A4000072206F10F01204601F061FD0120E3E7A6
:103A50002DE9F04106460C46174698464BB9556984
:103A60000735204601F05DFDA84204DA0020BDE8DC
:103A7000F0810725F5E743463A4621463046FFF7F1
:103A80007DF9317B204601F03DFD717B204601F040
:103A900039FD022206F10E01204601F038FD032215
:103AA00006F11001204601F032FD0120DFE72DE98B
:103AB000F04106460C46174698464BB955690B35FA
:103AC000204601F02EFDA84204DA0020BDE8F08176
:103AD0000B25F5E743463A4621463046FFF74EF9B7
:103AE000317B204601F00EFD717B204601F00AFD7E
:103AF000022206F10E01204601F009FD072206F11F
:103B00001001204601F003FD0120DFE72DE9F0411F
:103B100006460C46174698464BB955690735204668
:103B200001F0FFFCA84204DA0020BDE8F08107257F
:103B3000F5E743463A4621463046FFF71FF9317B09
:103B4000204601F0DFFC717B204601F0DBFC022205
:103B500006F10E01204601F0DAFC032206F1100105
:103B6000204601F0D4FC0120DFE72DE9F0410646B4
:103B70000C46174698464BB955690B35204601F05F
:103B8000D0FCA84204DA0020BDE8F0810B25F5E75F
:103B900043463A4621463046FFF7F0F8317B20464F
:103BA00001F0B0FC717B204601F0ACFC022206F172
:103BB0000E01204601F0ABFC072206F11001204661
:103BC00001F0A5FC0120DFE72DE9F04106460C4697
:103BD000174698464BB955690535204601F0A1FCBA
:103BE000A84204DA0020BDE8F0810525F5E7434648
:103BF0003A4621463046FFF7C1F8042206F10C018F
:103C0000204601F084FC317C204601F07BFC012041
:103C1000E9E72DE9F04107460D46164698464BB9AF
:103C200054690834284601F07CFCA04204DA0020E4
:103C3000BDE8F0810824F5E7434632462946384678
:103C4000FFF7EBF9072207F10D01284601F05FFCB1
:103C50000120EDE72DE9F04107460D46164698464E
:103C60004BB954690834284601F05BFCA04204DAE1
:103C70000020BDE8F0810824F5E743463246294696
:103C80003846FFF7E9F9072207F10D01284601F050
:103C90003EFC0120EDE72DE9F04107460D461646B2
:103CA00098464BB954690834284601F03AFCA042C2
:103CB00004DA0020BDE8F0810824F5E743463246E7
:103CC00029463846FFF7E7F9072207F10D01284694
:103CD00001F01DFC0120EDE72DE9F04106460C4600
:103CE000174698464BB955690335204601F019FC33
:103CF000A84204DA0020BDE8F0810325F5E7434639
:103D00003A4621463046FFF739F8022206F10C0107
:103D1000204601F0FCFBB17B204601F0F3FB0120C3
:103D2000E9E72DE9F04107460D46164698464BB99E
:103D300054690A34284601F0F4FBA04204DA00205A
:103D4000BDE8F0810A24F5E7434632462946384665
:103D5000FFF7C2FF072207F10F01284601F0D7FB4A
:103D60000120EDE72DE9F04106460C46174698463E
:103D70004BB955690335204601F0D3FBA84204DA5C
:103D80000020BDE8F0810325F5E743463A46214689
:103D90003046FEF7F3FF022206F10C01204601F047
:103DA000B6FBB17B204601F0ADFB0120E9E72DE930
:103DB000F04107460D46164698464BB954690A34F9
:103DC000284601F0AEFBA04204DA0020BDE8F081F5
:103DD0000A24F5E74346324629463846FFF7C2FF34
:103DE000072207F10F01284601F091FB0120EDE7C2
:103DF0002DE9F04106460C46174698464BB95569E1
:103E00000535204601F08DFBA84204DA0020BDE80C
:103E1000F0810525F5E743463A4621463046FEF750
:103E2000ADFF042206F10C01204601F070FB317C4D
:103E3000204601F067FB0120E9E72DE9F041074644
:103E40000D46164698464BB954690C34284601F085
:103E500068FBA04204DA0020BDE8F0810C24F5E7FD
:103E60004346324629463846FFF7C2FF072207F18C
:103E70001101284601F04BFB0120EDE72DE9F0414F
:103E800007460D46164698464BB9546905342846F0
:103E900001F047FBA04204DA0020BDE8F0810524D0
:103EA000F5E74346324629463846FEF767FF0422C7
:103EB00007F10C01284601F02AFB0120EDE72DE96E
:103EC000F04107460D46164698464BB954690C34E6
:103ED000284601F026FBA04204DA0020BDE8F0816C
:103EE0000C24F5E74346324629463846FFF7C6FF1D
:103EF000072207F11001284601F009FB0120EDE738
:103F00002DE9F04107460D46164698464BB95469CF
:103F10000734284601F005FBA04204DA0020BDE882
:103F2000F0810724F5E74346324629463846FEF736
:103F300025FF072207F10C01284601F0E8FA0120CD
:103F4000EDE72DE9F04107460D46164698464BB978
:103F500054690234284601F0E4FAA04204DA002051
:103F6000BDE8F0810224F5E743463246294638464B
:103F7000FEF704FF022207F10C01284601F0C7FA00
:103F80000120EDE710B584682468A04710BD08B58E
:103F900083685B68984708BD006870470160704798
:103FA0008B5C406901280EDD10B48C18647803EB3B
:103FB0000423022803DD11448A7803EB02431846E8
:103FC0005DF8044B7047022803DD11448A7803EB47
:103FD00002431846704710B50446084611461A4673
:103FE000FFF7DEFF206010BDF8B50F4616461D46F0
:103FF000044640B114B12046FEF710FD2760267339
:1040000065732046F8BD1021012001F04BFC0446E9
:10401000F0E72DE9F04188461646069D9DF81C7094
:10402000044658B13CB197B1735D03F001022273AD
:1040300003F0F00363732046BDE8F081102001F027
:1040400027FC04460028EDD0FEF7E8FCEAE72B4603
:10405000324641462046FFF7BEFFD8F814301D44D3
:10406000E2E72DE9F04188461646069D9DF81C7052
:10407000044648B12CB187B16B1C725D2273F35CAE
:1040800063732046BDE8F081102001F001FC044676
:104090000028EFD0FEF7CAFCECE72B46324641463B
:1040A0002046FFF798FFD8F814301D44E4E72DE9C7
:1040B000F843894616461F46089D9DF8248004460D
:1040C00090B174B1B8F1000F17D06B1C725D227300
:1040D000F35C6373AB1C3A46314604F10E00FEF705
:1040E00087FB2046BDE8F883182001F0D1FB044689
:1040F0000028E6D0FEF7A2FCE3E72B46324649460D
:104100002046FFF768FFD9F814301D44DDE72DE99C
:10411000F843894615461F46089E9DF824800446AC
:1041200088B16CB1B8F1000F16D0731CAA5D227370
:10413000EA5C62733A46294604F10E00FEF746FB3C
:104140002046BDE8F883142001F0A2FB04460028B5
:10415000E7D0FEF77BFCE4E733462A464946204693
:10416000FFF739FFD9F814301E44DEE7F8B50F46E3
:1041700016461D46044640B114B12046FEF76EFCBB
:104180002760267365732046F8BD1021012001F0D9
:1041900089FB0446F0E72DE9F04188461646069D66
:1041A0009DF81C70044658B13CB197B1735D03F0A3
:1041B0000302227303F0F00363732046BDE8F0812D
:1041C000102001F065FB04460028EDD0FEF746FC08
:1041D000EAE72B46324641462046FFF7FCFED8F878
:1041E00014301D44E2E72DE9F843894616461F4680
:1041F000089D9DF824800446A0B184B1B8F1000F59
:1042000019D0735D03F00302227303F0F0036373AC
:104210006B1C3A46314604F10E00FEF7D7FA2046F1
:10422000BDE8F883142001F033FB04460028E4D0F5
:10423000FEF71CFCE1E72B46324649462046FFF7D5
:10424000CAFED9F814301D44DBE72DE9F041884659
:1042500017461E46069D044688B114B12046FEF757
:104260000DFCC4F80080277366732A68C4F80E201A
:10427000A988AA79618222752046BDE8F0811821BB
:10428000012001F00FFB0446E7E72DE9F8438946DA
:1042900016461F46089D9DF824800446A0B184B1AF
:1042A000B8F1000F19D0735D03F00302227303F01D
:1042B000F00363736B1C3A46314604F10E00FEF7BF
:1042C00097FA2046BDE8F883182001F0E1FA044689
:1042D0000028E4D0FEF7D2FBE1E72B463246494600
:1042E0002046FFF778FED9F814301D44DBE72DE9AE
:1042F000F843894616461F46089D9DF824800446CB
:10430000A0B184B1B8F1000F19D0735D03F00102C0
:10431000227303F0F00363736B1C3A46314604F1D9
:104320000E00FEF753FA2046BDE8F883142001F092
:10433000AFFA04460028E4D0FEF7A8FBE1E72B46DD
:10434000324649462046FFF746FED9F814301D4450
:10435000DBE72DE9F041884617461E46069D0446D8
:1043600088B114B12046FEF799FBC4F8008027738A
:1043700066732A68C4F80E20A988AA79618222751A
:104380002046BDE8F0811821012001F08BFA044697
:10439000E7E72DE9F843894616461F46089D9DF834
:1043A00024800446A0B184B1B8F1000F19D0735D28
:1043B00003F00102227303F0F00363736B1C3A46AF
:1043C000314604F10E00FEF713FA2046BDE8F883EB
:1043D000182001F05DFA04460028E4D0FEF75EFBE9
:1043E000E1E72B46324649462046FFF7F4FDD9F86F
:1043F00014301D44DBE72DE9F04188461646069D42
:104400009DF81C70044638B11CB177B10435735D5A
:1044100023742046BDE8F081142001F039FA0446E7
:104420000028F1D0FEF742FBEEE72B46324641462C
:104430002046FFF7D0FDD8F814301D44E6E72DE9FB
:10444000F843894616461F46089D9DF82480044679
:1044500080B164B1B8F1000F15D02B1DF35C23744B
:104460006B1D3A46314604F11100FEF7AFF92046C4
:10447000BDE8F883142001F00BFA04460028E8D0C8
:10448000FEF71CFBE5E72B46324649462046FFF780
:10449000A2FDD9F814301D44DFE72DE9F843894621
:1044A00016461F46089D9DF82480044680B164B1DD
:1044B000B8F1000F15D02B1DF35C23746B1D3A4629
:1044C000314604F11100FEF793F92046BDE8F88368
:1044D000142001F0DDF904460028E8D0FEF7F6FAD2
:1044E000E5E72B46324649462046FFF774FDD9F8EA
:1044F00014301D44DFE72DE9F04188461646069D3D
:104500009DF81C70044660B144B19FB16B1C725D94
:1045100022730235F35C6373735DA3732046BDE8B9
:10452000F081102001F0B4F904460028ECD0FEF729
:10453000D5FAE9E72B46324641462046FFF74BFDC8
:10454000D8F814301D44E1E710B582B0002401947E
:10455000049C0094FFF7CFFF6E23037102B010BDDF
:104560002DE9F04188461646069D9DF81C700446CC
:1045700048B12CB187B16B1C725D2273F35C63731D
:104580002046BDE8F081102001F082F904460028A1
:10459000EFD0FEF7ABFAECE72B4632464146204619
:1045A000FFF719FDD8F814301D44E4E72DE9F8436E
:1045B000894616461F46089D9DF824800446A8B1EA
:1045C0008CB1B8F1000F1AD06A1C735D2373AB1C59
:1045D000B25C6273F35CA373EB1C3A46314604F1A0
:1045E0000F00FEF7F3F82046BDE8F883142001F031
:1045F0004FF904460028E3D0FEF780FAE0E72B46A7
:10460000324649462046FFF7E6FCD9F814301D44EF
:10461000DAE72DE9F843894616461F46089D9DF8BE
:1046200024800446A8B18CB1B8F1000F1AD06A1CDE
:10463000735D2373AB1CB25C6273F35CA373EB1CFE
:104640003A46314604F10F00FEF7D2F82046BDE8A5
:10465000F883182001F01CF904460028E3D0FEF787
:1046600055FAE0E72B46324649462046FFF7B3FCB1
:10467000D9F814301D44DAE72DE9F0418846164692
:10468000069D9DF81C70044660B144B19FB16B1C3F
:10469000725D22730235F35C6373735DA37320460E
:1046A000BDE8F081102001F0F3F804460028ECD0BA
:1046B000FEF734FAE9E72B46324641462046FFF73B
:1046C0008AFCD8F814301D44E1E710B582B000240C
:1046D0000194049C0094FFF7CFFF6F23037102B095
:1046E00010BD2DE9F843894616461F46089D9DF8E2
:1046F00024800446A8B18CB1B8F1000F1AD06A1C0E
:10470000735D2373AB1CB25C6273F35CA373EB1C2D
:104710003A46314604F10F00FEF758F82046BDE84E
:10472000F883142001F0B4F804460028E3D0FEF723
:10473000FDF9E0E72B46324649462046FFF74BFCA1
:10474000D9F814301D44DAE72DE9F84389461646B6
:104750001F46089D9DF824800446A8B18CB1B8F18D
:10476000000F1AD06A1C735D2373AB1CB25C6273BA
:10477000F35CA373EB1C3A46314604F10F00FEF7DD
:1047800037F82046BDE8F883182001F081F8044688
:104790000028E3D0FEF7D2F9E0E72B46324649463F
:1047A0002046FFF718FCD9F814301D44DAE770B53D
:1047B0002DED028B0E46B0EE408A1546044658B1E8
:1047C00014B12046FEF7C2F9266084ED038A2574F1
:1047D0002046BDEC028B70BD1421012001F062F86F
:1047E0000446EDE72DE9F04188461646069D9DF802
:1047F0001C70044690B174B1CFB16B1C725D227312
:10480000AA1CF35C6373EB1CB25CA2730435F35C0B
:10481000E373735D23742046BDE8F081142001F03A
:1048200037F804460028E6D0FEF790F9E3E72B4678
:10483000324641462046FFF7CEFBD8F814301D44DF
:10484000DBE710B582B000240194049C0094FFF7CC
:10485000C9FF7023037102B010BD2DE9F8438946EA
:1048600016461F46089D9DF824800446D8B1BCB169
:10487000B8F1000F20D06A1C735D2373AB1CB25CCF
:104880006273EA1CF35CA3732B1DB25CE273F35CEE
:1048900023746B1D3A46314604F11100FDF796FF73
:1048A0002046BDE8F883142000F0F2FF04460028FB
:1048B000DDD0FEF753F9DAE72B463246494620466B
:1048C000FFF789FBD9F814301D44D4E72DE9F843EC
:1048D000894616461F46089D9DF824800446D8B197
:1048E000BCB1B8F1000F20D06A1C735D2373AB1C00
:1048F000B25C6273EA1CF35CA3732B1DB25CE273BF
:10490000F35C23746B1D3A46314604F11100FDF748
:104910006FFF2046BDE8F883182000F0B9FF044679
:104920000028DDD0FEF722F9DAE72B463246494669
:104930002046FFF750FBD9F814301D44D4E72DE989
:10494000F04188461646069C9DF81C70054618B135
:10495000E5B157B1002317E0142000F099FF054698
:104960000028F5D0FEF70AF9F2E723463246414621
:104970002846FFF730FBD8F814301C44EAE7315DD5
:10498000EA18117301330134042BF8DD2846BDE821
:10499000F0812DE9F843894616461F46089C9DF88C
:1049A0002480054628B12DB3B8F1000F0AD00023AA
:1049B00017E0142000F06CFF05460028F3D0FEF746
:1049C000E5F8F0E72346324649462846FFF703FB61
:1049D000D9F814301C44EAE7315DEA181173013349
:1049E0000134042BF8DD23463A46314605F1110027
:1049F000FDF7ECFE2846BDE8F8832DE9F84389462B
:104A000016461F46089C9DF82480054628B12DB304
:104A1000B8F1000F0AD0002317E0182000F038FF8B
:104A200005460028F3D0FEF7B9F8F0E723463246F2
:104A300049462846FFF7CFFAD9F814301C44EAE774
:104A4000315DEA18117301330134042BF8DD23467C
:104A50003A46314605F11100FDF7CAFE2846BDE889
:104A6000F8832DE9F84317461E46089D9DF82490CB
:104A70005A1B4B6906339A422CDB04468846B0B178
:104A800094B1B9F1000F1BD07B5D23736B1C3246D0
:104A9000394604F10D00FDF787FEEB1C324639461E
:104AA00004F10F00FDF792FE2046BDE8F8831420C4
:104AB00000F0EEFE04460028E2D0FEF777F8DFE7CC
:104AC0002B463A4641462046FFF785FAD8F814307F
:104AD0001D44D9E70024E7E72DE9F84317461E46B1
:104AE000089D9DF824905A1B4B6906339A422CDB93
:104AF00004468846B0B194B1B9F1000F1BD07B5D7C
:104B000023736B1C3246394604F10D00FDF74CFE51
:104B1000EB1C3246394604F10F00FDF769FE2046D2
:104B2000BDE8F883182000F0B3FE04460028E2D068
:104B3000FEF744F8DFE72B463A4641462046FFF7AA
:104B40004AFAD8F814301D44D9E70024E7E72DE9E4
:104B5000F84316461F46089D9DF824905A1B4B6942
:104B600007339A422FDB04468846C8B1ACB1B9F18D
:104B7000000F1ED06B1C725D2273F35C6373AB1C61
:104B80003A46314604F10E00FDF70EFE2B1D3A4663
:104B9000314604F11000FDF719FE2046BDE8F88308
:104BA000142000F075FE04460028DFD0FEF70EF852
:104BB000DCE72B46324641462046FFF70CFAD8F890
:104BC00014301D44D6E70024E7E72DE9F8431646E4
:104BD0001F46089D9DF824905A1B4B6907339A4243
:104BE0002FDB04468846C8B1ACB1B9F1000F1ED026
:104BF0006B1C725D2273F35C6373AB1C3A463146E7
:104C000004F10E00FDF7D0FD2B1D3A46314604F1AC
:104C10001000FDF7EDFD2046BDE8F883182000F0F8
:104C200037FE04460028DFD0FDF7D8FFDCE72B462F
:104C3000324641462046FFF7CEF9D8F814301D44DD
:104C4000D6E70024E7E72DE9F84316461F46089DFE
:104C50009DF824905A1B4B6907339A422FDB044678
:104C60008846C8B1ACB1B9F1000F1ED06B1C725DA3
:104C70002273F35C6373AB1C3A46314604F10E00B9
:104C8000FDF792FD2B1D3A46314604F11000FDF769
:104C90009DFD2046BDE8F883142000F0F9FD044690
:104CA0000028DFD0FDF7A2FFDCE72B463246414665
:104CB0002046FFF790F9D8F814301D44D6E70024B9
:104CC000E7E72DE9F84316461F46089D9DF8249016
:104CD0005A1B4B6907339A422FDB04468846C8B1FA
:104CE000ACB1B9F1000F1ED06B1C725D2273F35C86
:104CF0006373AB1C3A46314604F10E00FDF754FDD8
:104D00002B1D3A46314604F11000FDF771FD204697
:104D1000BDE8F883182000F0BBFD04460028DFD072
:104D2000FDF76CFFDCE72B46324641462046FFF795
:104D300052F9D8F814301D44D6E70024E7E72DE9EE
:104D4000F0411646069D9DF81C805B1B4A690532A2
:104D5000934229DB04460F46A0B184B1B8F1000F9D
:104D600019D06B1C725D2273AA1CF35C6373EB1C7D
:104D7000B25CA2730435F35CE373735D2374204665
:104D8000BDE8F081142000F083FD04460028E4D043
:104D9000FDF73CFFE1E72B46324639462046FFF758
:104DA0001AF97B691D44DCE70024E8E7007B00F08A
:104DB00001007047007BC0097047F8B51746069D93
:104DC0005B1B4A690132934218DB04460E4660B110
:104DD0004CB12B463A4631462046FFF7FCF8736942
:104DE0001D447B5D23732046F8BD102000F050FD6C
:104DF00004460028ECD0FDF711FFE9E70024F2E7B4
:104E00000D3070472DE9F04117469846069D5B1B13
:104E10004A690132934220DB04460E46A0B184B1B8
:104E20002B463A4631462046FFF7D5F873692B44A6
:104E3000FA5C227301334246394604F10D00FDF756
:104E4000D7FC2046BDE8F081142000F021FD044687
:104E50000028E4D0FDF7EAFEE1E70024F1E7007B5B
:104E600000F003007047007BC0097047F8B5174693
:104E7000069D5B1B4A690132934218DB04460E46CD
:104E800060B14CB12B463A4631462046FFF7A3F8B5
:104E900073691D447B5D23732046F8BD102000F02C
:104EA000F7FC04460028ECD0FDF7C8FEE9E7002433
:104EB000F2E72DE9F04117469846069D5B1B4A69CB
:104EC0000132934220DB04460E46A0B184B12B464A
:104ED0003A4631462046FFF77EF873692B44FA5C68
:104EE000227301334246394604F10D00FDF780FC80
:104EF0002046BDE8F081142000F0CAFC04460028DA
:104F0000E4D0FDF7A3FEE1E70024F1E70D307047A0
:104F1000F8B51746069D5B1B4A690132934218DBC0
:104F200004460E4660B14CB12B463A463146204607
:104F3000FFF751F873691D447B5D23732046F8BD6C
:104F4000102000F0A5FC04460028ECD0FDF786FEFA
:104F5000E9E70024F2E72DE9F04117469846069D5F
:104F60005B1B4A690832934220DB04460E46A0B11F
:104F700084B12B463A4631462046FFF72CF8736938
:104F80002B44FA5C227301334246394604F10D008A
:104F9000FDF72EFC2046BDE8F081142000F078FCDF
:104FA00004460028E4D0FDF761FEE1E70024F1E7C4
:104FB000F8B51546069E9B1B4A69033293421EDBD9
:104FC00004460F4690B17CB133462A463946204606
:104FD000FFF701F87B6933445A1CE95C2173023303
:104FE000AA5C6273EB5CA3732046F8BD102000F04E
:104FF0004FFC04460028E6D0FDF740FEE3E700241E
:10500000F2E72DE9F04115461F46069E9A1B4B69B3
:105010000A339A4227DB04468846D8B1BCB13346EE
:105020002A4641462046FEF7D6FFD8F814303344CE
:10503000591CEA5C22739A1C695C6173AA5CA273B6
:1050400003333A46294604F10F00FDF7D1FB204611
:10505000BDE8F081182000F01BFC04460028DDD0DC
:10506000FDF714FEDAE70024F1E7F8B51546069ED1
:105070009B1B4A69033293421EDB04460F4690B1E4
:105080007CB133462A4639462046FEF7A4FF7B69A9
:1050900033445A1CE95C21730233AA5C6273EB5CF3
:1050A000A3732046F8BD102000F0F2FB0446002850
:1050B000E6D0FDF7F3FDE3E70024F2E72DE9F04148
:1050C00015461F46069E9A1B4B690A339A4227DBF8
:1050D00004468846D8B1BCB133462A4641462046EC
:1050E000FEF779FFD8F814303344591CEA5C227378
:1050F0009A1C695C6173AA5CA27303333A46294621
:1051000004F10F00FDF774FB2046BDE8F081182084
:1051100000F0BEFB04460028DDD0FDF7C7FDDAE74E
:105120000024F1E7F8B51546069E9B1B4A69053237
:10513000934224DB04460F46C0B1ACB133462A4645
:1051400039462046FEF747FF7B6933445A1CE95C29
:105150002173991CAA5C6273DA1C695CA173043325
:10516000AA5CE273EB5C23742046F8BD142000F0C7
:105170008FFB04460028E0D0FDF7A0FDDDE700240A
:10518000F2E72DE9F04115461F46069E9A1B4B6932
:105190000A339A422DDB0446884608B3ECB1334605
:1051A0002A4641462046FEF716FFD8F8143033440D
:1051B000591CEA5C22739A1C695C6173D91CAA5C55
:1051C000A2731A1D695CE173AA5C227405333A4626
:1051D000294604F11100FDF70BFB2046BDE8F081E4
:1051E000182000F055FB04460028D7D0FDF76EFDCF
:1051F000D4E70024F1E7F8B51546069E9B1B4A69E3
:105200000432934221DB04460F46A8B194B13346E1
:105210002A4639462046FEF7DEFE7B693344591C98
:10522000EA5C22739A1C695C61730333AA5CA27303
:10523000EB5CE3732046F8BD102000F029FB044628
:105240000028E3D0FDF74AFDE0E70024F2E72DE96E
:10525000F04115461F46069E9A1B4B690B339A4236
:105260002ADB04468846F0B1D4B133462A4641468B
:105270002046FEF7B0FED8F8143033445A1CE95CDF
:105280002173991CAA5C6273DA1C695CA173AA5C25
:10529000E27304333A46294604F11000FDF7A8FAF8
:1052A0002046BDE8F081182000F0F2FA04460028FC
:1052B000DAD0FDF71BFDD7E70024F1E7F8B5174674
:1052C000069E9B1B4A69934214DB04460D4640B17F
:1052D0002CB133463A4629462046FEF77CFE20464E
:1052E000F8BD0C2000F0D4FA04460028F0D0FDF7F9
:1052F00005FDEDE70024F2E70C3070472DE9F041A1
:1053000090461F46069D5A1B4B6907339A421DDB88
:1053100004460E4688B16CB12B46424631462046C3
:10532000FEF759FE73692B443A46414604F10C00DE
:10533000FDF75EFA2046BDE8F081142000F0A8FADF
:1053400004460028E7D0FDF7E1FCE4E70024F1E79C
:10535000007B7047F8B51746069D5B1B4A69013212
:10536000934218DB04460E4660B14CB12B463A46D8
:1053700031462046FEF72FFE73691D447B5D237383
:105380002046F8BD102000F083FA04460028ECD037
:10539000FDF7C4FCE9E70024F2E7007B7047F8B5AD
:1053A0001746069D5B1B4A690132934218DB04468F
:1053B0000E4660B14CB12B463A4631462046FEF7C8
:1053C0000AFE73691D447B5D23732046F8BD1020DF
:1053D00000F05EFA04460028ECD0FDF7A7FCE9E7F0
:1053E0000024F2E7007B7047F8B51746069D5B1B6B
:1053F0004A690132934218DB04460E4660B14CB153
:105400002B463A4631462046FEF7E5FD73691D44BA
:105410007B5D23732046F8BD102000F039FA044666
:105420000028ECD0FDF78AFCE9E70024F2E70C3015
:1054300070472DE9F04190461F46069D5A1B4B6967
:1054400001339A421DDB04460E4688B16CB12B46EF
:10545000424631462046FEF7BEFD73692B443A466C
:10546000414604F10C00FDF79FF92046BDE8F081AC
:10547000102000F00DFA04460028E7D0FDF766FC86
:10548000E4E70024F1E770B50E461546044668B11E
:1054900054B1049B2A4631462046FEF79CFD7369B1
:1054A000049A1344EB5C2373204670BD102000F077
:1054B000EFF904460028EBD0FDF750FCE8E7F8B51B
:1054C0001746069D5B1B4A690132934218DB04466E
:1054D0000E4660B14CB12B463A4631462046FEF7A7
:1054E0007AFD73691D447B5D23732046F8BD10204F
:1054F00000F0CEF904460028ECD0FDF737FCE9E7D0
:105500000024F2E708B503689B68984708BD08B512
:105510000368DB68984708BD08B503681B699847AE
:1055200008BD08B503689B69984708BD08B50FF02A
:1055300071FB002108BD08B5014600200CF06AFC93
:1055400008BD08B54FF0FF310CF078FC08BD08B578
:105550000CF0AEFC08BD08B50CF0D8FC08BD70B569
:1055600006460D461446102000F092F9034610B18D
:10557000066045600473184670BD000070B586B0C3
:105580000446037B8BB90F4B0193036802930023FE
:10559000ADF80C3004934FF400730593416801A8F3
:1055A0000CF0A3FBA06006B070BD01AD064E0FCE9F
:1055B0000FC533682B60214601A80CF096FBA06054
:1055C000F1E700BFE8B70508D8B6050808B500F050
:1055D0007BF900200CF0A3FB08BD10B5044603685E
:1055E000406898472046FFF7F1FF10BD08B50CF062
:1055F0009BFB08BD38B50D4614460023136053606D
:105600009360D36080B10AF05BFF90B10169C2681A
:105610000968201D14F02BF802236370A8B205F06E
:1056200055F96080012038BD002005F054F9606014
:10563000F2E70020F7E710B50446002203210068D6
:105640000BF05EFF40F00102042120680BF058FFD0
:1056500010BDB0F1FF3F08D010B5044602210BF099
:10566000D5FE20460BF034FB10BD704710B50C2062
:1056700000F00EF9044658B10246002303E0002171
:10568000117001330132072BF9D94FF0FF33A360BA
:10569000204610BD0246002303E0002111700133B3
:1056A0000132072BF9D94FF0FF3383607047C8B13F
:1056B0000246B9B10B68B3F1FF3F13D010B45C09D7
:1056C00003F01F03012000FA03F352F824001843EB
:1056D00042F824000B6891688B4200DD93605DF80E
:1056E000044B704770470000E8B130B587B00446FE
:1056F0008268002A1ADB0F4BA3FB01239B090022BF
:10570000029303924FF47A7000FB131500FB05F02F
:105710000490A06802AB00931346214601300BF0C1
:1057200041FD07B030BD4FF0FF3070474FF0FF3004
:10573000F7E700BFD34D621008B500F0C5F808BD0B
:1057400070B588B004460E460022012102200BF0FD
:10575000E5FC051E2DDB04AA31462046FFF74AFF73
:10576000F0B108AB012243F8142D0422009240F658
:10577000FF7128460BF08EFE10220DEB0201284629
:105780000BF066FA002810DB082000F081F80446D0
:10579000056000234360FFF74EFF204608B070BD50
:1057A00028460BF095FA0024F7E728460BF090FA0C
:1057B000F9E70024F1E708B5416800680BF0B2FA98
:1057C00008BD10B584B0082000F062F8044601223C
:1057D00004AB43F8042D00680421009106210BF06E
:1057E00059FE4FF0FF332360204604B010BD10B5C2
:1057F0000022114600680BF07DF9041E03DBFFF761
:10580000E0FF046010BD0020FCE7000010B5046854
:10581000B4F1FF3F08D0082320460BF0C5FB044637
:1058200050B1B0F1FF3F01D0204610BD044B1B68C2
:105830000B2BF9D10024F7E74FF0FF34F4E700BF5A
:10584000209200200068B0F1FF3F04D008B500238B
:105850000BF020FC08BD704710B5044600684FF0FF
:10586000FF332360FFF7F5FE0A20FFF7BFFE204657
:1058700000F02AF810BD000008B5034B1B6813B1F7
:10588000024A1068984708BD20480020244800209C
:1058900010B50BF0ABFF044608B1204610BDFFF772
:1058A000EBFFFAE738B501FB00F528460BF09EFF49
:1058B000044630B12A460021204613F0E3FE20467C
:1058C00038BDFFF7D9FFF5E708B50CF01DF808BDA6
:1058D00030B583B0002502AA42F8045D084C0223CB
:1058E00023822946204610F097FD019A42F4006277
:1058F00001922946204610F0D7FD03B030BD00BF0D
:105900009C76002030B583B0002102AD45F8041D1F
:10591000134C032323824FF40452204610F0C4FD9D
:105920002A461021204610F077FD019A42F4804269
:1059300022F4806201921021204610F0B5FD2A4623
:105940001421204610F068FD019A22F0200242F056
:10595000100201921421204610F0A6FD03B030BDC4
:105960009C76002030B583B0002102AD45F8041DBF
:10597000134C042323824FF40452204610F094FD6C
:105980002A461021204610F047FD019A42F4804239
:1059900022F4806201921021204610F085FD2A46F3
:1059A0001421204610F038FD019A22F0200242F026
:1059B000100201921421204610F076FD03B030BD94
:1059C0009C76002030B583B0002102AD45F8041D5F
:1059D000124C052323824FF40452204610F064FD3C
:1059E0002A461421204610F017FD019A22F02002C9
:1059F00042F4047201921421204610F055FD2A460B
:105A00001D21204610F008FD019A42F40072019217
:105A10001D21204610F048FD03B030BD9C760020CB
:105A200030B583B0002502AA42F8045D084C062375
:105A300023822946204610F0EFFC019A42F40062CE
:105A400001922946204610F02FFD03B030BD00BF63
:105A50009C76002038B50C4C10252582042211219B
:105A6000204610F021FDFFF733FFFFF74BFFFFF754
:105A700079FFFFF7A7FFFFF7D3FF2582002211214F
:105A8000204610F011FD38BD9C76002008B50C486A
:105A90000C4B03600723436000238360C3604FF413
:105AA000A02202614FF4C002426183610122C261FF
:105AB000026243628362C3620FF096F908BD00BFC1
:105AC000DC5B0020006400400268154B9A4200D065
:105AD000704710B586B00024009403F5EA331A6CC1
