:020000040804EE
:10000000FFFF0120B50106080DF1040815F10408F1
:1000100017F1040819F104081BF10408000000009E
:10002000000000000000000000000000D18705086B
:100030001DF1040800000000718805081FF1040884
:10004000050206080502060805020608050206085C
:10005000050206080502060805020608050206084C
:10006000050206080502060805020608050206083C
:10007000050206080502060805020608050206082C
:1000800005020608050206080502060829F104080B
:1000900039F1040849F1040859F1040869F1040828
:1000A0000502060875F1040805020608050206089F
:1000B00005020608050206080502060805020608EC
:1000C00005020608050206080502060805020608DC
:1000D0000502060899F1040805020608050206084B
:1000E00005020608050206080502060805020608BC
:1000F000A9F10408E9F1040805020608050206084A
:10010000050206080502060805020608050206089B
:100110000502060805020608F9F1040811F20408B0
:10012000050206080502060805020608050206087B
:100130000502060829F20408050206080502060859
:10014000050206080502060805020608050206085B
:10015000050206080502060805020608C9CD0408BE
:10016000050206080502060805020608050206083B
:100170000502060805020608050206080000000040
:0801800005020608050206084D
:1001900053B94AB9002908BF00281CBF4FF0FF31EE
:1001A0004FF0FF3000F00CB8ADF1080C6DE904CE53
:1001B00020F02AF8DDF804E0DDE9022304B07047FE
:1001C000704700BF10F8012B11F8013B012A28BF2E
:1001D0009A42F7D0D01A7047034613F8012B002A31
:1001E000FBD1181A01387047000000000000000021
:1001F00001F0FF01102A2BDB10F0070F08D010F8D8
:10020000013B013A8B422DD010F0070F42B3F6D1DB
:10021000F0B441EA012141EA014122F007047FF0F4
:1002200000070023F0E80256083C85EA010586EA4B
:10023000010685FA47F5A3FA87F586FA47F6A5FA87
:1002400087F68EB9EED1F0BC01F0FF0102F0070293
:1002500032B110F8013B013A83EA010313B1F8D13E
:100260000020704701387047002D06BF354603381F
:10027000073815F0010F07D1013015F4807F02BF58
:10028000013015F4C03F0130F0BC0138704700BFA9
:100290007BB972B90029BEBF00204FF0004106E0D3
:1002A00008BF00281CBF6FF000414FF0FF30FFF780
:1002B00087BFADF1080C6DE904CE002909DB002BE6
:1002C0001ADB1FF0A1FFDDF804E0DDE9022304B032
:1002D0007047404261EB4101002B1BDB1FF094FF94
:1002E000DDF804E0DDE9022304B0404261EB4101A6
:1002F000524263EB43037047524263EB43031FF0E8
:1003000083FFDDF804E0DDE9022304B0404261EB45
:1003100041017047524263EB43031FF075FFDDF864
:1003200004E0DDE9022304B0524263EB430370476B
:100330000348044B834202D0034B03B11847704774
:10034000AC030020AC030020000000000548064973
:10035000091A891001EBD171491002D0034B03B186
:1003600018477047AC030020AC03002000000000D9
:1003700010B5064C237843B9FFF7DAFF044B13B1ED
:100380000448AFF300800123237010BDB0030020A8
:1003900000000000D42B060808B5054B1BB1054929
:1003A0000548AFF30080BDE80840FFF7CFBF00BFAE
:1003B00000000000B4030020D42B0608022809D056
:1003C000032805D0012801D003487047034870472F
:1003D0000348704703487047502E0608382E060819
:1003E000442E06083C2E060808B5B1F1FF3F0DD09B
:1003F000B2F1FF3F10D1826D52F82120817C89B18A
:10040000107878B9012B66D0012008BD3F4B404AD7
:100410002421404820F060F83F4B3D4A25213D48CB
:1004200020F05AF839B1117829B1022B01D00220FD
:1004300008BD002008BD012B12D0022B3AD0032B9F
:1004400043D11378002B58D1137A002B57D1537B0B
:10045000002B56D092F83930002B54D1012008BD22
:10046000537C1BB9117809B1022008BD6BB1138E02
:100470005BB9137A4BB1537E3BB1536B1B685B780E
:1004800013F0040F01D0022008BD138E2BBB13788C
:100490002BBB137A2BBB537E2BB3536B1B685B7840
:1004A00013F0040F21D092F839300BB1032008BDAE
:1004B000002008BD537C0BB1117A09B91178B1B194
:1004C000BBB1137CBBB1002008BD144B104A742192
:1004D000104820F001F8002008BD002008BD0020D1
:1004E00008BD002008BD002008BD002008BD012077
:1004F00008BD002008BD012008BD012008BD012065
:1005000008BD012008BD002008BD00BF5C2E060804
:100510001C2F06086C2E0608A82E0608B82E060802
:1005200008B5B1F1FF3F10D0B2F1FF3F13D1826D9A
:1005300052F82120022B14D0012B17D0032B19D1F4
:10054000002313740123537308BD0D4B0D4A7C2106
:100550000D481FF0C1FF0D4B0A4A7D210A481FF0CC
:10056000BBFF012313740023537308BD00231374CE
:10057000537308BD064B034A912103481FF0ACFF9B
:100580005C2E0608C02E06086C2E0608A82E06084B
:10059000B82E06080138092818D8DFE800F0051938
:1005A00007090B0D0F1113150A4870470A487047C9
:1005B0000A4870470A4870470A4870470A48704717
:1005C0000A4870470A4870470A4870470A48704707
:1005D0000A487047742F0608882F0608902F0608CF
:1005E000A42F0608B82F0608CC2F0608DC2F060813
:1005F000E42F0608EC2F0608502E0608802F060868
:100600002DE9F041B1F1FF3F16D006460C461546E4
:10061000B2F1FF3F16D0826D52F82120516B51F894
:100620002510527CA2B90879042811D0012B00F0C2
:1006300095800120BDE8F081604B614A322161481C
:100640001FF04AFF604B5E4A33215E481FF044FFB3
:10065000B77C002FEAD1012B2AD0022B31D0032BFB
:1006600000F08880042B00F08880052B00F0888043
:10067000062B00F08880072B00F08880082B00F004
:100680008880092B2AD00A2B62D14B79012B00F0EC
:100690008680022B00F08680032B00F08680042BDE
:1006A00000F08680052B40F086800820BDE8F081B0
:1006B000497811F0080F54D1002A55D00220BDE826
:1006C000F0814B78DB0952D08B7813F0080F02D001
:1006D0000320BDE8F0810020BDE8F0814B78DB0904
:1006E00006D08B7813F0080F02D00320BDE8F0810C
:1006F0000B79032B03D0BFB10220BDE8F081B1F824
:100700009A30002BF7D191F80280C8F3C008B8F1F5
:10071000000FF0D12A462146304603F0EFFF08B91A
:100720000127E8E74746E6E72A462146304603F038
:10073000E5FF804630B12A462146304603F0E6FF09
:1007400000B1B846B8F1000F26D00A20BDE8F0810C
:100750001E4B1B4A90211B481FF0BEFE0020BDE827
:10076000F0811846BDE8F0810020BDE8F08100204E
:10077000BDE8F0810920BDE8F0810920BDE8F081E5
:100780000920BDE8F0810920BDE8F0810920BDE81D
:10079000F0810920BDE8F0810020BDE8F08104204F
:1007A000BDE8F0810520BDE8F0810620BDE8F081BC
:1007B0000720BDE8F0810020BDE8F0815C2E06082E
:1007C0009C300608F42F060830300608B82E0608BC
:1007D0002DE9F041B1F1FF3F32D007460E461546F4
:1007E000B2F1FF3F32D0826D52F82180D8F8342028
:1007F00052F82540012B2FD0022B42D0032B49D099
:10080000042B00F08980052B00F0D680062B00F029
:10081000EF80072B00F0F580082B00F00081092BFA
:1008200000F009810A2B40F000812A4602F0B4F959
:1008300060712A463146384602F090FCBDE8F081EE
:100840007E4B7F4A98217F481FF046FE7E4B7C4AB4
:1008500099217C481FF040FE6378227802F0FB0269
:100860006FF3410222700022A4F89A200421217122
:1008700003F0F10343F0400362F3C7136370BDE874
:10088000F0812371637843F040036FF3C713637003
:10089000BDE8F081637803F0FD036FF382036370BA
:1008A0002078C0F3800060BB237860F3820323705C
:1008B000A37813F0020F00D1002094F802E060F357
:1008C000410E04F1500604F10C070FCF0FC60FCFF5
:1008D0000FC63B683380234653F8720F5968C4F83B
:1008E0008600C4F88A101B89A4F88E306FF3C30EFB
:1008F00084F802E0012323714DB988F80F30BDE878
:10090000F08101232A46384601F0F4FFCCE70123A9
:1009100088F82B30BDE8F08198F81E3088F8283030
:1009200063786FF38203637023786FF3820323701D
:100930002A4602F0D1FC2A463146384602F0D0FD64
:100940002078C0F3400080B9237860F3410323701E
:100950002A463146384603F0C3FDA37813F0020F50
:100960000AD02378C3F3800307E003232A463146E5
:10097000384601F0BFFFE7E70023A27863F34102A6
:10098000A2702A463146384602F04AFC2A463146D1
:10099000384602F009FD2A463146384603F0E0F8B1
:1009A00003232371637843F0400303F07F036FF365
:1009B000C3036370BDE8F08198F81E3088F82830D2
:1009C0002A4602F089FC2A463146384602F088FD64
:1009D0002A463146384603F083FD2A4631463846DA
:1009E00003F0BEF863786FF3C3036370BDE8F08172
:1009F0002A4602F04FFB63786FF3C3036370BDE8D0
:100A0000F0812A4603F06CFD2A463146384602F052
:100A100067FD63786FF3C3036370BDE8F0816378AB
:100A20006FF3C3036370BDE8F081084B044AF821FB
:100A300004481FF051FDBDE8F08100BF5C2E0608A0
:100A400040300608F42F060830300608B82E060895
:100A5000022809D0032805D0012801D00348704797
:100A6000034870470348704703487047502E0608F4
:100A7000F4300608143106080431060838B5B1F11F
:100A8000FF3F0BD0B2F1FF3F0ED1826D52F82140F3
:100A9000827C7AB1012B46D0012038BD274B284AF1
:100AA000242128481FF018FD274B254A25212548D9
:100AB0001FF012FD012B09D0022B11D0032B2CD1DA
:100AC000637ECBB1237DBBB1022038BDA28D0AB9B4
:100AD000032038BD032A28D0627C42B3002038BDF1
:100AE000A38D0BB9032038BD637C0BB9032038BD3F
:100AF000A37BF3B1032038BD637C43B1A57B3DB933
:100B000003F0E7FC38B1637E13B9E57C00E0012512
:100B10008DB1012038BD0546FAE70C4B084A5F212C
:100B200008481FF0D9FC002038BD002038BD184609
:100B300038BD002038BD002038BD00BF5C2E06083F
:100B4000C03106081C310608A82E0608B82E060873
:100B500010B5B1F1FF3F0FD0B2F1FF3F12D1826D5E
:100B600052F82140012B13D0022B19D0032B1CD19A
:100B700000232375E37410BD0F4B104A6721104802
:100B80001FF0AAFC0F4B0D4A68210D481FF0A4FC72
:100B90000023A37303F09DFC60760323A38510BD9F
:100BA000002363760323A38510BD074B034A7C21F2
:100BB00003481FF091FC00BF5C2E06086031060858
:100BC0001C310608A82E0608B82E0608012803D0F6
:100BD000022803D002487047024870470248704715
:100BE000502E06081C320608EC2F060870B5B1F12D
:100BF000FF3F13D01C46B2F1FF3F15D1836D53F870
:100C00002130857C35B99E7C16B91A8E032A11D005
:100C10005A7C7AB9012C2ED0012070BD1A4B1B4A88
:100C200025211B481FF058FC1A4B184A262118484A
:100C30001FF052FC012C09D0022C16D11EB15E7C93
:100C40000EB19E7A5EB9E6B1204670BDAEB15A7C57
:100C5000AAB19B7A0BB1022070BD002070BD03F0D9
:100C6000C7FB0028EFD02E46EDE70B4B074A4E217D
:100C700007481FF031FC002070BD002070BD00202F
:100C800070BD002070BD00BF5C2E0608B43206089F
:100C900024320608A82E0608B82E060870B5B1F151
:100CA000FF3F1DD006460D46B2F1FF3F1ED1826DBB
:100CB00052F82140012B1FD0022B26D102F02CFF2D
:100CC0002946304601F0B4FEA0772946304601F0AF
:100CD000EFFF0023A374637323740323238670BD83
:100CE0000D4B0E4A59210E481FF0F6FB0D4B0B4AD7
:100CF0005A210B481FF0F0FB00232375E374A37403
:100D000001F028FE0323238670BD074B034A6D21A3
:100D100003481FF0E1FB00BF5C2E06085C320608AA
:100D200024320608A82E0608B82E0608012803D08B
:100D3000022803D0024870470248704702487047B3
:100D4000502E0608083306081433060810B5B2F111
:100D5000FF3F08D0B1F1FF3F0BD1817C79B1012B6E
:100D600027D0012010BD174B174A262117481FF026
:100D7000B3FB174B144A272114481FF0ADFB012B7E
:100D800019D0022B0FD10021846CA14215D2846DA1
:100D900054F82140646B54F82240647814F0400FFA
:100DA0000DD10131F0E70B4B074A492107481FF0ED
:100DB00093FB002010BD022010BD002010BD18467E
:100DC00010BD00BF30300608D033060824330608B3
:100DD00064330608B82E060838B5B2F1FF3F14D0C8
:100DE00005461446B1F1FF3F15D1012B19D0022B56
:100DF0001BD1114601F0D3FD2146284602F0D4FE56
:100E00002146284602F030FB38BD0B4B0B4A5421DB
:100E10000B481FF061FB0B4B084A552108481FF097
:100E20005BFB114603F0A6F938BD074B034A62216C
:100E300003481FF051FB00BF30300608743306082A
:100E40002433060864330608B82E06080138202823
:100E500052D8DFE800F01153131517191B1D1F217D
:100E6000232527292B2D2F31333537393B3D3F4162
:100E700043454B4F4D494700214870472148704733
:100E800021487047214870472148704721487047E2
:100E900021487047214870472148704721487047D2
:100EA00021487047214870472148704721487047C2
:100EB00021487047214870472148704721487047B2
:100EC00021487047214870472148704721487047A2
:100ED0002148704721487047214870472148704792
:100EE0002148704721487047214870472148704782
:100EF0002148704721487047214870472148704772
:100F000028340608443406085434060860340608B9
:100F1000703406088034060890340608A0340608A9
:100F2000B0340608C0340608D0340608DC3406089D
:100F3000EC340608F8340608043506080C350608B3
:100F40001C350608283506083435060844350608D9
:100F5000583506086C3506088035060894350608AD
:100F6000A8350608BC350608D0350608E035060861
:100F7000F0350608FC350608103606081C3606084B
:100F8000502E0608343406082DE9F047B1F1FF3F32
:100F900015D005460E4617461C46B2F1FF3F14D049
:100FA000836D53F82190D9F8343053F82280837C34
:100FB0008BB1012C00F0C9830120BDE8F087CC4B38
:100FC000CC4A6B21CC481FF087FACC4BC94A6C2124
:100FD000C9481FF081FA98F801305FEAD31A18D097
:100FE00098F8023013F0080F13D198F80730052B4A
:100FF00000F00C810A2B00F01181062B00F0168105
:10100000072B00F01B81A3F10802D2B2012A40F2A3
:101010001D81012C00F09C83022C00F01F81032C09
:1010200000F03681042C00F06B81052C00F0B183B8
:10103000062C00F0B183072C00F0B183082C00F0DF
:10104000B183092C00F0B1830A2C00F0B1830B2C82
:1010500000F0B1830C2C00F015820D2C00F0CC8335
:101060000E2C00F0CC830F2C00F0CC83102C00F061
:10107000CC83112C00F0CC83122C00F0CC83132CE9
:1010800000F0CC83142C00F0CC831C2C40F0B782F1
:10109000BAF1000F00F0C88398F80240C4F3C0040E
:1010A000002C40F0C48398F8003013F0200F0CD1CE
:1010B00013F0040F09D198F8013013F0040F04D194
:1010C00099F81030002B00F0B5833A463146284697
:1010D00003F064F860B198F80130C3F34003002BCB
:1010E00040F0898298F8003013F0020F00F08582FA
:1010F000002C40F0A28398F80030DB0904D198F866
:10110000013013F0010F07D098F8003013F0040FEE
:1011100002D199F810302BB198F8023013F0020F79
:1011200000F08E8398F8023013F0010305D098F890
:10113000022012F0020F40F0868398F80120C2F3DB
:10114000401222B1B8F89410002900F07F8323B137
:1011500098F8021011F0020F0BD012B1B8F89410E9
:1011600039B998F8001011F0080F02D199F80D1054
:1011700061B199F8101049B998F8001011F0400FBA
:1011800040F0678311F0200F40F06683B8F89210AA
:1011900039B198F8000010F0040F02D199F810004E
:1011A00070B1B8F8940000B152B94BB998F800008A
:1011B00010F0400F04D199F80D00002800F04F8383
:1011C00049B198F8001011F0040F04D199F81010EB
:1011D000002900F04783B8F8941011B1002A40F0BC
:1011E0004483002B40F0448398F8003013F0400F04
:1011F00000F0418313F0200F40F0408399F80D3048
:10120000002B40F03E831920BDE8F08798F80620B7
:1012100093423FF4EFAE0220BDE8F08798F8062035
:1012200093423FF4EAAE0420BDE8F08798F8062028
:1012300093423FF4E5AE0C20BDE8F08798F8062015
:1012400093423FF4E0AE1C20BDE8F08798F80620FA
:1012500093423FF4DEAE1F20BDE8F087BAF1000FE5
:1012600000F0798298F8023013F0080F40F076828F
:1012700098F80030DB0940F0748298F8013013F0E0
:10128000010F02D10320BDE8F0870020BDE8F08700
:10129000BAF1000F00F0688298F8023013F0080FDE
:1012A00002D00020BDE8F087B8F892703146284699
:1012B00003F054F8874206D0BAF1000F00F05782CD
:1012C0002046BDE8F08798F8023013F001030BD1F7
:1012D00098F80130C3F3401343B998F8022012F094
:1012E000020FE9D09A46E7E79A46E5E79A46E3E730
:1012F0005C2E0608D0360608303606083030060860
:10130000BAF1000F00F0368298F80240C4F3C0042E
:10131000002C40F0328298F8023013F0010F02D016
:1013200013F0020F0CD098F8013013F0200F02D008
:10133000B8F8943023B998F8003013F0080F10D0A3
:1013400099F810306BB998F8003013F0400F02D0C4
:101350000B20BDE8F08713F0200F02D00B20BDE872
:10136000F087B8F892304BB998F8003013F0400F7E
:1013700000D154465CB10A20BDE8F0873A463146B8
:10138000284602F00BFF0028EED10446F2E7B8F839
:10139000923093B998F800A0CAF3801ABAF1000FFE
:1013A00005D098F8003013F0200F00D0A246BAF113
:1013B000000F0BD00920BDE8F0873A463146284699
:1013C00002F0ECFE82460028F1D0E3E798F8013005
:1013D00013F0020F07D098F8003013F0020F02D17B
:1013E0000520BDE8F0873A463146284602F0D6FE91
:1013F00020B198F8002012F0020F0FD098F80130B9
:1014000013F0020F04D098F80030C3F340033BB947
:10141000BAF1000F06D00620BDE8F0878246F7E754
:101420009A46F5E798F80030DB0904D198F80130C6
:1014300013F0010F07D098F8003013F0040F02D119
:1014400099F810303BB198F8023013F0020F02D136
:101450000720BDE8F08798F8023013F0010F03D0A1
:1014600013F0020F40F08C8198F8013013F0200F38
:1014700000F08981B8F89430002B40F08781082073
:10148000BDE8F087BAF1000F00F0988198F802905B
:10149000C9F3C009B9F1000F40F0938198F8013009
:1014A00013F0020F07D098F8003013F0020F02D1AA
:1014B0000D20BDE8F0873A463146284602F06EFE20
:1014C00020B198F8002012F0020F0FD098F80130E8
:1014D00013F0020F04D098F80030C3F340033BB977
:1014E000B9F1000F06D00E20BDE8F0878146F7E77E
:1014F0009946F5E798F8003013F0040F05D098F8F6
:10150000023013F0020F00F05F8198F8023013F000
:10151000010F03D013F0020F40F0598198F800300A
:1015200013F0200F08D1B8F896302BB998F8013095
:1015300013F0200F00F04E81B8F894903146284601
:1015400002F0F0FE814540F0488198F80040C4F375
:10155000C004002C40F0448198F8013013F0200FB3
:1015600005D098F8003013F0200F40F03C81B8F817
:10157000923063B13A463146284602F091FF80B37B
:10158000B8F896304BB9284602F0A3FF58B398F844
:10159000003013F0400F00D15446002C40F026815B
:1015A000B8F8923063B13A463146284602F078FFE7
:1015B000D8B1B8F8963073B9284602F08AFFB0B1B6
:1015C00098F80030C3F380139BB198F8002012F014
:1015D000200F00D11C46002C00F00B811120BDE82B
:1015E000F0870446D9E70446D7E70446F3E7044604
:1015F000F1E71C46EFE71C467AE5044678E5192C2E
:1016000000F04281152C00F042811A2C00F042813A
:10161000162C00F042811B2C00F04281172C00F0A8
:101620004281182C00F04281212C64D1BAF1000FC4
:1016300000F03F8198F80290C9F3C009B9F1000F9A
:1016400040F03A8198F8013013F0020F05D098F875
:10165000003013F0020F00F032813A46314628463E
:1016600002F09CFD20B198F8002012F0020F3CD04F
:1016700098F8013013F0020F04D098F80030C3F34B
:101680004003A3BBB9F1000F40F01C81B8F8927081
:101690003146284602F056FE87422AD198F8027059
:1016A00017F001070AD198F80170C7F340172FB956
:1016B00098F8023013F0020F00D15746002F40F087
:1016C0000481B8F896403146284602F033FEB4EB68
:1016D000400F04D098F80630092B00D15746002F50
:1016E00000F0F6802020BDE8F0878146CAE79946E1
:1016F000C8E75746E2E7202C00F0ED801D2C00F0F3
:10170000ED801E2C00F0ED801F2C17D1BAF1000FD8
:1017100000F0EA8098F8023013F0080F40F0E780FC
:1017200098F80030DB0940F0E58098F8013013F0BC
:10173000010F00F0E2800020BDE8F087704B714A95
:101740004FF4C47170481EF0C7FE0020BDE8F0875A
:101750000220BDE8F0870020BDE8F0870020BDE84A
:10176000F0870020BDE8F0870020BDE8F08700206A
:10177000BDE8F0870020BDE8F0870020BDE8F087D5
:101780000720BDE8F0870020BDE8F0870020BDE815
:10179000F0870420BDE8F0870420BDE8F08704202E
:1017A000BDE8F0870420BDE8F0870420BDE8F0879D
:1017B0000420BDE8F0870420BDE8F0870020BDE8E4
:1017C000F0870020BDE8F0870F20BDE8F0870F20EC
:1017D000BDE8F0871020BDE8F0872046BDE8F0871F
:1017E0001420BDE8F0871320BDE8F0871220BDE883
:1017F000F0870020BDE8F0870C20BDE8F0870C20C2
:10180000BDE8F0870C20BDE8F0870C20BDE8F0872C
:101810000C20BDE8F0870C20BDE8F0870C20BDE867
:10182000F0870C20BDE8F0870020BDE8F08700209D
:10183000BDE8F0871520BDE8F0871620BDE8F087E9
:101840001720BDE8F0871720BDE8F0871820BDE815
:10185000F0871B20BDE8F0871B20BDE8F0871A2029
:10186000BDE8F0870020BDE8F0870020BDE8F087E4
:101870000020BDE8F0870020BDE8F0870020BDE82B
:10188000F0870020BDE8F0871C20BDE8F0871C2011
:10189000BDE8F0871C20BDE8F0871C20BDE8F0877C
:1018A0001C20BDE8F0871C20BDE8F0871C20BDE8A7
:1018B000F0870020BDE8F0870020BDE8F0871D20FC
:1018C000BDE8F0871E20BDE8F0872046BDE8F08720
:1018D0000020BDE8F0872120BDE8F0872120BDE889
:1018E000F0872120BDE8F0870020BDE8F0870020C8
:1018F000BDE8F0870020BDE8F0872120BDE8F08733
:10190000B82E0608D0360608303606082DE9F04312
:1019100083B0B1F1FF3F00F0828006460D461746C6
:10192000B2F1FF3F00F08280826D52F82180D8F83A
:10193000342052F82740012B7FD0022B00F0AB80DF
:10194000032B00F0BB80042B00F0CA80052B00F0B5
:10195000D280062B00F0D780072B00F0E180082B07
:1019600000F0E880092B00F0EA800A2B00F0F580F7
:101970000B2B00F0FB800C2B00F003810D2B00F0F3
:1019800013810E2B00F018810F2B00F02A81102BF1
:1019900000F02E81112B00F02F81122B00F03481EA
:1019A000132B00F03A81142B00F03C811C2B00F02B
:1019B0005181192B00F07781152B00F082811A2BB1
:1019C00000F09781162B00F0A5811B2B00F0B7814A
:1019D000172B00F0BF81182B00F0C681212B00F0DF
:1019E000C881202B00F0D7811D2B00F0DA811E2B3F
:1019F00000F0DF811F2B40F0ED81E379A371D0F877
:101A00003880B8F1000F03D00A9A00923A46C047D6
:101A1000237803F0DF036FF38613237038E0B94BAC
:101A2000B94A4FF4C871B9481EF056FDB84BB64AD2
:101A300040F29111B5481EF04FFD0523A371D0F877
:101A40003880B8F1000F04D00A9B009305233A4672
:101A5000C047237803F0DF036FF386132370A37866
:101A6000627842F02002627003F0FD0343F001034C
:101A7000A3702946304602F055FCA4F8940029468C
:101A8000304602F06BFCA4F892000023A4F89630D4
:101A900003B0BDE8F0830523A371D0F83880B8F116
:101AA000000F04D00A9B009305233A46C0472378D1
:101AB00003F0DF036FF386132370E9E702F04EFCB7
:101AC000A4F89200A3780022A4F89420617862F32D
:101AD0004511617043F0020362F30003A370D7E77E
:101AE0000A23A371846B002CD2D00A9B00930A2393
:101AF0003A46A047CCE7394601F0DCFC63786FF347
:101B000041036370C4E7A3786FF30003A3706378A5
:101B10006FF341036370237843F002032370B7E748
:101B20000022A4F89420A37843F0020362F3000398
:101B3000A370ADE763786FF345136370A8E723786C
:101B400043F0200323700023A4F8923098F8192062
:101B5000237862F3820323709AE7237843F04003EB
:101B6000237002F0EFFBA4F8920091E7237803F0D2
:101B7000D7036FF38613237002F0E4FBA4F89200FE
:101B800086E70623A371D0F83880B8F1000F04D09F
:101B90000A9B009306233A46C0472946304602F086
:101BA000C1FBA4F8940073E7394601F083FC637825
:101BB0006FF3410363706BE7A3786FF30003A370C7
:101BC00063786FF341036370237843F0020323705B
:101BD0001FB9012388F80F305AE7012388F82B300A
:101BE00056E7A37843F002036FF30003A3704FE7B7
:101BF000394601F023FC4BE70023A4F89230237808
:101C000043F02003237043E702F09CFBA4F892000A
:101C1000237843F0400323703AE763786FF345136A
:101C2000637035E7237813F0080F0CD1237803F0A5
:101C3000D7036FF3861323702946304602F072FBF8
:101C4000A4F8920024E702F075FB00EB4000A4F832
:101C50009600EBE70723A371D0F83890B9F1000F95
:101C600004D00A9B009307233A46C84739463046BA
:101C700002F02CFB00283FF40BAF6378C3F3800322
:101C800063B998F800204AB998F8082032B998F852
:101C900009201AB198F8392002B11346627863F32B
:101CA00082026270F4E6237843F02003237000235D
:101CB000A4F8923098F81920237862F382032370F5
:101CC000E6E6637843F004036370394602F0FEFAF7
:101CD00020B957B9012388F80F30D9E62946304694
:101CE00002F044FBA8F83000F3E7012388F82B301A
:101CF000CEE6237843F04003237002F023FBA4F8E0
:101D00009200C5E65C2E06087036060830360608D6
:101D100030300608A3786FF30003A37063786FF385
:101D200041036370237843F0020323701FB901233A
:101D300088F80F30ACE6012388F82B30A8E623782A
:101D400003F0D7036FF38613237002F0FBFAA4F8B5
:101D500092009DE60022A4F89420A37843F00203A9
:101D600062F30003A37093E663786FF34513637027
:101D70008EE602F0E7FAA4F89200A3780022A4F815
:101D80009420617862F34511617043F0020362F3BD
:101D90000003A3707CE602F0CDFA4000A4F89600A0
:101DA00076E6394601F086FB63786FF34103637092
:101DB0006EE663786FF341036370237843F00203A8
:101DC00023701FB9012388F80F3061E6012388F8DA
:101DD0002B305DE6034B044A4FF41F7103481EF09D
:101DE0007BFB00BFB82E06087036060830360608A2
:101DF000022809D0032805D0012801D003487047E4
:101E0000034870470348704703487047502E060840
:101E10002C370608443706083837060810B5B1F1E4
:101E2000FF3F0ED0B2F1FF3F11D0846D54F8211066
:101E3000496B51F82210827C7AB1012B2ED00120FF
:101E400010BD1B4B1B4A28211B481EF045FB1B4B9A
:101E5000184A292118481EF03FFB012B09D0022BFC
:101E60000DD0032B14D10B7813F0200F1ED10120BD
:101E700010BD0B7813F0400F12D0022010BD0B786C
:101E800013F0400F0ED013F0200F0DD0032010BD23
:101E90000B4B084A5A2108481EF01EFB002010BDBB
:101EA000002010BD012010BD002010BD002010BD7D
:101EB0005C2E0608F0370608503706083030060852
:101EC000B82E060830B583B0B1F1FF3F18D0B2F19B
:101ED000FF3F1BD0846D54F82140646B54F82240BE
:101EE000012B19D0022B24D0032B2BD1069D00955A
:101EF00000F06CFD637843F00103637003B030BD04
:101F0000134B144A652114481EF0E6FA134B114A8C
:101F1000662111481EF0E0FA069D009500F056FD7E
:101F200023786FF3C713237063786FF30003637034
:101F3000E4E7069D009500F049FD237843F0800317
:101F40002370DBE7064B034A8D2103481EF0C4FAD9
:101F50005C2E060890370608503706083030060811
:101F6000B82E0608012803D0022803D00248704783
:101F70000248704702487047502E06084C38060841
:101F80005838060808B5B1F1FF3F0BD0B2F1FF3F5A
:101F90000ED1826D52F82110827C7AB1012B1DD0B6
:101FA000012008BD0F4B104A252110481EF094FA5D
:101FB0000F4B0D4A26210D481EF08EFA012B03D03F
:101FC000022B05D1012008BDCB7E4BB1022008BDFC
:101FD000084B054A462105481EF07EFA002008BD40
:101FE000002008BD5C2E0608F03806086038060898
:101FF000A82E0608B82E060810B5B1F1FF3F1FD075
:10200000B2F1FF3F22D1826D52F82140012B23D043
:10201000022B56D1E38D0BB1013BE385A38D0BB1B0
:10202000013BA385238E0BB1013B2386A38B0BB110
:10203000013BA383638E0BB1013B6386002239E031
:10204000234B244A512124481EF046FA234B214AAF
:10205000522121481EF040FA0023E37610BD0123EF
:102060009A4234D2636B53F82230B3F8981011B10E
:102070000139A3F89810B3F8921011B10139A3F8FF
:102080009210B3F89A1011B10139A3F89A10B3F86D
:10209000941011B10139A3F89410B3F89C1011B148
:1020A0000139A3F89C10B3F8961011B10139A3F8C7
:1020B0009610013290F86030022BD0DDC36C0133F2
:1020C000CEE7074B034A7B2103481EF005FA10BDFB
:1020D0005C2E06089838060860380608A82E060800
:1020E000B82E0608013805280ED8DFE800F0030FE7
:1020F0000507090B064870470648704706487047B1
:1021000006487047064870470648704706487047BB
:1021100044390608683906087839060888390608F7
:1021200098390608502E0608543906082DE9F84358
:10213000B1F1FF3F13D005460C46B2F1FF3F14D179
:10214000826D52F82170867C1EB97A7C0AB1FA7AC7
:102150008AB9012B00F083800120BDE8F8834C4B45
:102160004C4A33214C481EF0B7F94C4B494A3421B4
:1021700049481EF0B1F9012B74D0022B75D0032B06
:1021800076D0042B77D0052B78D0062B61D102F0C6
:102190006DF8002875D0FB8D13B90220BDE8F883D7
:1021A00097F81980B8F1000F0FD1FB7B0BB9984657
:1021B0000CE02146284602F0AAF868B1BA8B052A3D
:1021C00004D8FA8D12B1804600E0B046B8F1000F95
:1021D00004D00320BDE8F8838046F7E77E7E6EB921
:1021E000FB7B83B12146284602F086F868B1BA8BA2
:1021F000052A04D8FA8D12B1064600E0464636B1EB
:102200000420BDE8F8831E46F9E70646F7E797F88D
:102210001980B8F1000F13D097F80F90B9F1000FA3
:1022200007D197F82B3083B12146284602F0CDF82C
:1022300068B9BB8B052B04D8FB8D13B1464600E073
:1022400046460EB30520BDE8F8831E46F9E74E4624
:10225000F7E7134B0F4A76210F481EF03DF9002097
:10226000BDE8F8830620BDE8F8830620BDE8F883C2
:102270000620BDE8F8830620BDE8F8830620BDE807
:10228000F8830020BDE8F8830020BDE8F88300BF94
:102290005C2E0608303A0608A0390608A82E060863
:1022A000B82E0608F8B5B1F1FF3F17D006460C4628
:1022B000B2F1FF3F18D1826D52F82150012B19D095
:1022C000022B1DD0032B3DD0042B45D0052B4CD029
:1022D000062B56D102F02EF8E885F8BD2C4B2D4A7E
:1022E00081212D481EF0F8F82C4B2A4A82212A48D9
:1022F0001EF0F2F885F82B30EB730023AB83F8BDAA
:10230000EF7B37B1EF7395F82B00B0B185F82B0058
:10231000F8BD01F0FCFF07460028F3D12146304606
:1023200001F0EAFF38B16A6B1268B2F89820002A0F
:10233000E8D00746E6E70746E4E72146304602F0E4
:1023400021F8E3E70027EF73069A01F093F9AB8BCE
:102350000133AB83AF76F8BD0023EB73069A01F02F
:10236000A9FBAB8B0133AB83F8BD002785F82B703D
:10237000EF73069A01F010FAAB8B0133AB83AF76A3
:10238000F8BD074B034AAD2103481EF0A5F800BF76
:102390005C2E0608D8390608A0390608A82E0608BB
:1023A000B82E06080138072813D8DFE800F0041417
:1023B00006080A0C0E10094870470948704709487A
:1023C00070470948704709487047094870470948ED
:1023D0007047094870470948704700BF843A0608AB
:1023E00038370608983A0608A43A0608B43A0608A8
:1023F000C03A0608CC3A0608502E06088C3A060861
:1024000038B5B1F1FF3F0FD0B2F1FF3F12D0846D6C
:1024100054F821104C6B54F82240827C82B1022B7C
:1024200000F09480022038BD504B514A3021514871
:102430001EF052F8504B4E4A31214E481EF04CF8D7
:10244000012B13D0022B34D0032B3DD0042B00F0F2
:102450008580052B00F08480062B00F08380072BFD
:1024600000F08280082B6BD1012038BDA279931F28
:10247000DBB2012B05D90A2A03D002F04FF9032061
:1024800038BD0B7C002BF8D18B7D0BB1052038BDFE
:10249000637813F0100F01D0062038BDA37813F035
:1024A000040F01D0072038BD4B7D002B50D00820F1
:1024B00038BD237813F0400F4CD013F0100F01D12A
:1024C000032038BD002038BDA079821FD2B2012A76
:1024D00019D90A2817D0012A1ED90A281CD0227817
:1024E00012F0400F18D1D20916D1627812F0100FF5
:1024F00012D18A7D82B94A7D72B9A27812F0040F96
:102500000AD1022038BD257815F0200FE3D00D7CCC
:10251000002DE0D1042038BD627812F0100F01D0F8
:10252000184638BD8A7D0AB1184638BD4A7D0AB1C1
:10253000184638BDA27812F0040F0DD0184638BDE9
:102540000E4B0B4A87210B481DF0C6FF002038BDFB
:10255000002038BD002038BD002038BD012038BD26
:10256000062038BD012038BD012038BD5C2E06088C
:10257000743B0608DC3A060830300608B82E060818
:102580002DE9F843B1F1FF3F24D006460D4614462D
:10259000B2F1FF3F24D0826D52F821707A6B52F86D
:1025A0002480012B00F0B380022B1FD0032B3BD0E3
:1025B000042B4BD0052B64D0062B67D0072B00F0E3
:1025C0008180082B40F09D800023A8F898307B750F
:1025D000BDE8F8834F4B504A8F2150481DF07CFFD7
:1025E0004F4B4D4A90214D481DF076FF3B7C63B91F
:1025F000437CA3B9D6F82890304601F06AFF88B131
:102600000023224629463046C8470023A8F89C30BC
:10261000A8F89830002C7AD1BB76BDE8F88303F097
:102620004BFDE7E70123ECE714B900237B75BB758D
:1026300098F802306FF3820388F8023098F801307E
:102640006FF3041388F80130BDE8F88302F066F8F0
:1026500022462946304600F05BFA2246294630469B
:1026600000F0A6FF22462946304600F015FA1CB9B4
:102670000123FB73BDE8F883012387F82B30BDE805
:10268000F883224600F044FABDE8F883089A214610
:1026900002F050F80CB90023BB7598F801306FF3C5
:1026A000041388F801301CB998F80630072B06D0BF
:1026B00022462946304600F07BFFBDE8F88301231F
:1026C000BB76F5E7224600F023FA3B7C5BB9737CCE
:1026D0008BB9B76A304601F0FCFE80B10023224678
:1026E00029463046B84798F802306FF3820388F8DD
:1026F0000230BDE8F883304603F0DEFCE9E7012351
:10270000EDE7084B044AF02104481DF0E5FEBDE862
:10271000F88300BF5C2E0608183B0608DC3A060862
:1027200030300608B82E06082DE9F041436D53F805
:102730002260836D53F821E0DEF8343053F82240F4
:1027400012BB06F1360504F10C0C06F1560867467B
:1027500028686968AA68EB680FC71035BC4645450C
:10276000F5D12B883B8004F124033068716803C3E2
:10277000B4F89030A3859EF81930FBB9183430684E
:10278000716803C4BDE8F08106F1360504F10C0E52
:1027900006F1560C774628686968AA68EB680FC787
:1027A0001035BE466545F5D12B883B8004F12403E6
:1027B0003068716803C3B4F89030A385BDE8F08138
:1027C0002DE9F047814690461C46836D53F821C0A1
:1027D000DCF8343053F822E00EF1500725460EF1B4
:1027E000700A3E460FCE28606960AA60EB603746EB
:1027F00010355645F5D133882B80B8F1000F4ED1F6
:102800009CF81E309BBBDCF82420217A637A1B04E1
:1028100043EA0163A17A43EA0123E17A0B431344BB
:102820001A0E2272C3F307426272C3F30722A27226
:10283000E372D9F8543053F828301A685B68E260C4
:1028400023619EF864209EF865301B0443EA02630E
:102850009EF8662043EA02239EF86720134337D090
:10286000204B214A40F26C4120481DF035FEDEF835
:102870000820217D637D1B0443EA0163A17D43EAB7
:102880000123E17D0B4313441A0E2275C3F3074263
:102890006275C3F30722A275E375BDE8F0879CF863
:1028A0001E30BBB1DEF80820217D637D1B0443EAA6
:1028B0000163A17D43EA0123E17D0B4313441A0E1A
:1028C0002275C3F307426275C3F30722A275E3754D
:1028D000BDE8F087064B044A40F27E4103481DF0F4
:1028E000FBFD00BFA03E060870420608E03E060859
:1028F000143F060870B51D46836D53F821305B6B9D
:1029000053F82260032D05D000240CB9012D13D0FB
:10291000204670BD3379032B01D00024F5E7222235
:1029200006F1500106F12E0002F0CEFE002801DD76
:102930000024EAE70124E8E73379012BE8D12222D9
:1029400006F1500106F10C0002F0BEFE0028DFDCAB
:102950000124DDE7002390F86020022A1DDDC26C0F
:102960000132934218D210B403E0C26C0132934298
:1029700010D2826D52F82120526B52F823205478E5
:102980006FF3C3045470013390F86020022AECDC2A
:102990000122ECE75DF8044B70470122E1E70023D8
:1029A000826C934210D210B4826D52F82320526B85
:1029B00052F8212054786FF3861454700133826CDE
:1029C0009342F1D35DF8044B704700002DE9F041CC
:1029D00082B0B1F1FF3F14D004460D4616461F46A3
:1029E000B2F1FF3F13D0437CBBB9D4F81C80089BE5
:1029F00000933B46324629462046C04702B0BDE818
:102A0000F081074B074A6C2107481DF065FD074B15
:102A1000044A6D2104481DF05FFD03F04DFBE4E71F
:102A20005C2E0608EC3F0608E03E0608303006083B
:102A300008B5B1F1FF3F0ED00346826D52F8211068
:102A4000D0F8A4206AB1C87CB0B193F8A8100429CA
:102A50000DD0002008BD0C4B0C4A7A210C481DF00B
:102A60003BFD0C4B094A7E2109481DF035FD93F8CA
:102A70006010022901DC002008BD03F1610102F1B0
:102A8000260002F019FE08BD5C2E06080C4106085F
:102A9000E03E0608EC3C060838B5B1F1FF3F23D014
:102AA000B2F1FF3F26D0836D53F821104C6B54F8E0
:102AB0002230B3F89C503DB94D7E2DB12468B4F856
:102AC00088400134A3F89C40B3F89C405CB9497E2F
:102AD00049B9416D51F82210B1F85C20B1F8581095
:102AE0000A44A3F89C2038BD054B064A97210648A6
:102AF0001DF0F2FC054B034A982103481DF0ECFC45
:102B00005C2E060860400608E03E060830300608E5
:102B100038B5B1F1FF3F26D0B2F1FF3F29D0836D28
:102B200053F821104C6B54F82230B3F8985055B933
:102B30004D7E45B12468B4F888400134A3F898402C
:102B4000EAB90124CC73B3F898405CB9497E49B91D
:102B5000416D51F82210B1F85C20B1F858100A44C8
:102B6000A3F8982038BD084B084AB32108481DF047
:102B7000B3FC084B054AB42105481DF0ADFC012407
:102B800081F82B40DFE700BF5C2E0608283F0608CF
:102B9000E03E0608303006082DE9F041836D53F819
:102BA00021305B6B53F82240A37803F0C003C02BA5
:102BB0000AD0A37803F0C003C02B3FD00025002D1E
:102BC00057D00220BDE8F08104F12E0604F1500731
:102BD00022223946304602F077FD00281ADB07F141
:102BE0001A0106F11A0002F087FD054628B99DB1C9
:102BF000002DDED00120BDE8F08106F1200002F0BA
:102C0000F9FD804607F1200002F0F4FD8045EED08A
:102C10000025ECE70125EAE722223946304602F09A
:102C200053FD0028E4D10A2204F1860104F17C005E
:102C300002F04AFD0028DBD00125D9E7222204F169
:102C4000500104F12E0002F03FFD08B10025B6E767
:102C50000A2204F1860104F17C0002F035FD30B94E
:102C60002379032B01D00025A9E70125A7E700253B
:102C7000A5E7A37803F0C003C02B12D0802B05D0AA
:102C8000402B03D085B10420BDE8F081222204F15D
:102C9000500104F12E0002F017FD0028F2DB01259F
:102CA000F0E70320BDE8F0810520BDE8F0810000D9
:102CB0002DE9F04F83B081460D46836D53F821B066
:102CC00090F8A830022B00F05C81012B04D0032B7C
:102CD00002D0042B40F0A281DBF834301C68D9F814
:102CE000A43053F8052F5B68C4F82E20C4F83230A6
:102CF000D9F8A430D3F80D30C4F83630D9F8A43060
:102D000053F8112F5B68C4F83A20C4F83E309BF8A2
:102D10001E30002B00F04E81D9F8A430D3F8593082
:102D2000C4F84230D9F8A43053F85D2F5B68C4F87A
:102D30004620C4F84A30D9F8A430B3F81930A4F8C2
:102D40004E30D9F8A42092F8211092F8223043EAAC
:102D500001231B0AA4F87C30D9F8A420D17F92F873
:102D6000203043EA01231B0AA4F87E30D9F8A420BE
:102D7000517F937F43EA01231B0AA4F88030D9F8DE
:102D8000A420D17E137F43EA01231B0AA4F88230DA
:102D90009BF81E30002B00F02081D9F8A43093F866
:102DA000653084F8843099F8A830012B00F019813F
:102DB000D9F8A430187902F0E9FDA37860F3041380
:102DC000A370D9F8A430187902F0E3FDA37860F37A
:102DD0004513A370D9F8A430187902F0DDFDA3786B
:102DE00060F38713A370D9F8A430187902F0D7FDE7
:102DF000E37860F30003E370D9F8A430187902F0A7
:102E0000D1FDE37860F34103E370D9F8A430187979
:102E100002F0CBFDE37860F382036FF3C303E3704A
:102E2000D9F8583053F825305B6B1A68537843F063
:102E3000080353709BF81E30002B00F00B8199F8AB
:102E40001130002B40F0F180D9F8A46096F82420CE
:102E500096F8253043EA0223403B9BB213F00F0F54
:102E600040F0EB801B0901930027019B9F4280F0FB
:102E7000F4803D01663506EB05080137DBF8343098
:102E800053F82740434653F8012F5B68C4F83A20B3
:102E9000C4F83E30D8F80930C4F8423098F80D3004
:102EA0001B02BAB213F4706F40F0CE8013431A0ABB
:102EB00084F8462084F84730D9F8A43093F85F208E
:102EC00084F8482093F8602084F8492093F8612022
:102ED00084F84A2093F8622084F84B2093F863200A
:102EE00084F84C2093F8643084F84D3004F14E039C
:102EF000009398F80EA00AF0F00AD9F8A40019304F
:102F000002F078FC02465146009802F037FC98F82F
:102F10000F3084F88430705D02F038FDA37860F3E0
:102F20000413A370705D02F034FDA37860F34513C1
:102F3000A370705D02F030FDA37860F38713A37077
:102F4000705D02F02CFDE37860F30003E370705DC8
:102F500002F028FDE37860F34103E370705D02F056
:102F600024FDE37860F38203E370705D02F050FEAD
:102F7000E37860F3C303E370637843F0080363709E
:102F800073E701238BF816300CE001229342BFF463
:102F900047AFDBF8342052F823104A7842F0100291
:102FA0004A70013399F86020022AEEDDD9F84C20EE
:102FB0000132EBE7002384F8423084F8433084F890
:102FC000443084F84530D9F8A43053F8112F5B68A9
:102FD000C4F84620C4F84A30ADE6142384F884309F
:102FE000E1E6D9F8A430187902F0D0FCA37860F3B8
:102FF0000413A370D9F8A430187902F07DFDE378AA
:1030000060F3C303A27862F03F026FF34512A2702F
:1030100003F0FC036FF38203E37001E7144B154ADE
:103020004FF4B77114481DF057FA144B4FF0FF32AC
:103030001146484603F094F806E7114B0D4A40F25A
:1030400081110D481DF048FA0E4B0F4A78210F48A8
:103050001DF042FA99F8113013B903B0BDE8F08FB2
:103060000B4B4FF0FF321146484603F079F8F4E776
:10307000B82E060828420608E03E0608B83D0608B5
:10308000D83D06080C3E0608C0420608343E060835
:10309000603E060810B5B1F1FF3F1CD0B2F1FF3F12
:1030A00020D0D0F8A43023B3836D53F821104B6B9C
:1030B00053F82230002A3CD1DA7812F0010F42D0C6
:1030C0001A7842F008026FF382021A708B7F002B8D
:1030D00039D1012326E01C4B1C4A40F209211C482F
:1030E0001DF0FAF91B4B194A40F20A2118481DF04D
:1030F000F3F9194B154A40F20D2115481DF0ECF972
:10310000012293421FD24A6B52F82340227842F0A8
:10311000080222704A6B52F8232014786FF382045D
:103120001470013390F86020022AE9DDC26C01328C
:10313000E7E7DA7812F0010F05D01A7842F00802BA
:103140006FF382021A7010BD5C2E06088C400608D0
:10315000E03E060830300608EC3C060830B585B085
:10316000B1F1FF3F0ED0B2F1FF3F12D0D0F8A43042
:10317000B3B1836D53F821503ABBAB7F002B35D1EF
:1031800001241BE0204B214A40F23B2120481DF046
:10319000A3F9204B1D4A4FF40F711D481DF09CF9F7
:1031A0001D4B1A4A40F23F2119481DF095F90123A1
:1031B0009C421BD2002385F82A30013490F86030FD
:1031C000022BF4DDC36C0133F2E795F8393053B1CB
:1031D0006B6B53F82230DB7813F0080F03D0012318
:1031E00085F82A3002E0002385F82A30437C0BB9A9
:1031F00005B030BD95F82A30029301924B1C009324
:10320000064B02F0ADFFF3E75C2E060834410608DA
:10321000E03E060830300608EC3C0608103D060883
:103220002DE9F04385B0B1F1FF3F34D080468E46A2
:103230009446B2F1FF3F35D0D0F8A430002B38D0FF
:10324000836D53F821305B6B53F8226006F12E0436
:1032500006F1500706F14E093D4620686168A268F4
:10326000E3680FC510342F464C45F5D123882B80D9
:1032700098F8113063B150360296CDF804C00EF1C3
:10328000010300930E4B62467146404602F068FF10
:1032900005B0BDE8F0830B4B0B4A40F25B210B48B5
:1032A0001DF01AF90A4B084A4FF4177107481DF030
:1032B00013F9084B044A40F25F2104481DF00CF951
:1032C000383D06085C2E060860410608E03E060808
:1032D00030300608EC3C060838B5B1F1FF3F13D09A
:1032E000B2F1FF3F17D0D0F8A430DBB1836D53F8B3
:1032F00021104B6B53F82230002A3DD19A7802F00E
:10330000C002C02A15D038BD224B234A40F2762194
:1033100022481DF0E1F8224B1F4A40F277211F4856
:103320001DF0DAF81F4B1C4A40F27A211B481DF0B1
:10333000D3F89A7812F0200FE5D05A7842F00202C2
:103340005A708B7F002BDED101230EE001229342C5
:10335000D9D24A6B52F8234012685278C2F3400225
:10336000657862F341056570013390F86020022AA8
:10337000ECDDC26C0132EAE79A7802F0C002C02AA2
:10338000C1D19A7812F0200FBDD05A7842F00202D3
:103390005A70B8E75C2E06088C410608E03E060825
:1033A00030300608EC3C060808B5B1F1FF3F11D0FB
:1033B000B2F1FF3F15D0D0F8A430CBB1836D53F8F4
:1033C00021305B6B53F82230CAB193F8842083F824
:1033D0008E2008BD144B154A40F29B2114481DF065
:1033E0007BF8144B114A4FF4277111481DF074F803
:1033F000114B0E4A40F29F210D481DF06DF8B3F8B5
:103400008220A3F88C20B3F88020A3F88A20B3F898
:103410007C20A3F8862093F8842083F88E20022253
:10342000A3F8882008BD00BF5C2E0608C43F06082C
:10343000E03E060830300608EC3C06080023826CAB
:10344000934210D210B4826D52F82320526B52F87E
:103450002140627842F0200262700133826C934214
:10346000F1D35DF8044B70470023826C93420BD27A
:10347000826D52F82320526B52F82120527812F0BC
:10348000400F16D10133F0E70023826C934210D233
:1034900010B4826D52F82320526B52F821406278AA
:1034A00042F0800262700133826C9342F1D35DF886
:1034B000044B70470023826C934210D210B4826D8B
:1034C00052F82320526B52F82140A27842F00102B8
:1034D000A2700133826C9342F1D35DF8044B7047C4
:1034E00038B5B1F1FF3F1AD0B2F1FF3F1ED0D0F88E
:1034F000A43013B3836D53F82110002A41D14B6BD4
:103500001D68EB7813F0080F01D001234B758B7FFA
:1035100063BBAB7813F0100F28D000231FE01F4BC4
:103520001F4A40F2E3211F481CF0D6FF1E4B1C4AE5
:103530004FF439711B481CF0CFFF1C4B184A40F266
:10354000E72118481CF0C8FF012293420ED24A6BB3
:1035500052F82340627842F010026270013390F812
:103560006020022AF0DDC26C0132EEE78B7F9BB156
:10357000AB7813F0100F0FD06B7843F010036B7023
:1035800038BD4B6B53F822309A7812F0100F03D0ED
:103590005A7842F010025A7038BD00BF5C2E0608FF
:1035A000743F0608E03E060830300608EC3C06088A
:1035B00038B5B1F1FF3F09D0B2F1FF3F0DD0836DB7
:1035C0000D4653F821301B7E7BB138BD0F4B104A9E
:1035D00040F20D310F481CF07FFF0F4B0C4A40F2B8
:1035E0000E310C481CF078FF0133816C8B42ECD219
:1035F000AB42F9D0816D51F82310496B51F822404C
:10360000A17841F00401A170EEE700BF5C2E06082E
:10361000B8400608E03E06083030060830B4002501
:103620001AE00123994216D2636B53F821201378D4
:1036300003F0FD036FF382031370937803F0FD032F
:1036400043F001039370013190F86030022BE8DD04
:10365000C36C0133E6E70135836C9D4208D2836D6C
:1036600053F8254094F82830002BF4D00121EBE7E3
:1036700030BC70472DE9F04383B005460F469146B4
:10368000836D53F82180D8F834301E68437C002BBA
:1036900067D12C6A4B46232239462846A047044668
:1036A00000285BD00023037043708370C37006F161
:1036B0000C0203CAC4F80500C4F809107069C4F804
:1036C0000D0006F1240203CAC4F81100C4F8151055
:1036D000B28DA4F819202371B6F898300BB10123EC
:1036E000237198F81A301BB1237943F080032371BA
:1036F000B6F878301B029BB21A0AE276DBB2237767
:10370000B6F876301B029BB21A0A6277DBB2A37757
:10371000B6F872301B029BB21A0A84F82120DBB281
:1037200084F82230B6F888301B029BB21A0AE2777E
:10373000DBB284F820306B7CB3B96B7CF3B92346E1
:103740004FF0FF323946284602F0D8F96B7CCBB9EE
:103750006B7CDBB96B6A21462846984703B0BDE80D
:10376000F08302F0A9FC94E77B1C0093094B4FF017
:10377000FF323946284602F0F3FCDEE7284602F025
:10378000BDFCDCE7284602F0CDFCE1E7284602F06C
:1037900093FCDFE7803E06082DE9F04F83B0064634
:1037A0008A461746836D53F82190D9F834301D6846
:1037B00090F86030022B40F3BE80C36C1B0103F114
:1037C0006608737C002B40F0B980346A3B46424661
:1037D00051463046A0470746002800F02C810023C0
:1037E0000370437096F86030022B00F3AB80022325
:1037F0008370C370A87902F067F88000C0B2387196
:103800002B7813F0020F02D040F0400038716B7833
:1038100013F0040F03D03B7943F002033B71B5F87A
:1038200098301BB13B7943F001033B712B78DB09E6
:1038300003D03B7943F010033B716B7813F0010F19
:1038400003D03B7943F020033B7105F10C0303CB1C
:10385000C7F80500C7F809106869C7F80D0005F139
:10386000180303CBC7F81100C7F81510AB8DA7F8E4
:103870001930B5F878301B029BB21A0AFA76DBB21F
:103880003B77B5F876301B029BB21A0A7A77DBB227
:10389000BB77B5F888301B029BB21A0AFA77DBB205
:1038A00087F82030B5F872301B029BB21A0A87F8ED
:1038B0002120DBB287F82230002387F8233096F8E6
:1038C0006030022B40F39F80A8F126081FFA88F889
:1038D0004FEA182387F8243087F8258006F1610322
:1038E00007F1260206F19101D3F800C0D3F804E0F5
:1038F0009C68D868C2F800C0C2F804E09460D06048
:10390000103310328B42EFD119889B78118093705D
:10391000286AC7F8590005F1240303CBC7F85D00F6
:10392000C7F8611095F87A3087F8653007F16604BA
:103930004FF0000829E04FF0240842E7304602F03B
:10394000BBFB42E7032383700223C37052E705F1F8
:10395000180303CBC4F80100C4F80510286AC4F8A2
:103960000900736D53F80B201178537843EA012353
:103970001B1203F0F003637305F1900001F026FFC2
:10398000A07395F87A30E3731034F36C98453AD20B
:10399000D9F8343008F101084FEA880B53F8285061
:1039A000A87901F091FF8000C0B220702B7813F04D
:1039B000020F02D040F0400020706B7813F0040F2B
:1039C00003D0237843F002032370B5F898301BB17D
:1039D000237843F00103237099F829301BB1237831
:1039E00043F0800323702B78DB0903D0237843F066
:1039F000100323706B7813F0010FA8D0237843F0E5
:103A000020032370A3E796F86030022B29DC737C37
:103A1000A3B9737CEBB93B464FF0FF3251463046B9
:103A200001F0C6FF737CC3B9737C002B3AD1736A73
:103A300039463046984703B0BDE8F08F0AF10103DC
:103A400000931A4B4FF0FF325146304602F088FB8C
:103A5000DFE7304602F052FBDDE7304602F062FB62
:103A6000E2E7737C7BB9737CC3B93B464FF0FF320E
:103A70005146304602F05CF9737C002BD4D03046BE
:103A800002F050FBD0E70AF101030093084B4FF01E
:103A9000FF325146304602F063FBE4E7304602F065
:103AA0002DFBE2E7304602F007FBC0E7803D060849
:103AB0009C3D0608F0B583B004460E461746437C8D
:103AC000BBB9256A3B46042231462046A847054635
:103AD00068B100230370437083708023C370637CDC
:103AE00053B9637C93B9636A29462046984703B06B
:103AF000F0BD02F0E1FAE4E7731C0093054B4FF0D0
:103B0000FF323146204602F02BFBEAE7204602F066
:103B1000D3FAE8E7643D060808B590F8A830013B01
:103B2000032B0FD8DFE803F002020808836D53F877
:103B3000213001221A7508BD836D53F8213001220E
:103B4000DA7408BD034B044A40F22E4103481CF0CE
:103B5000C3FC00BFB82E0608E4410608E03E060894
:103B600010B4836D53F821104B6B53F822401B683F
:103B7000B3F88C200132B3F88A00824201DC8A7FDC
:103B80005AB193F88E20012A01DD8A7F2AB90023D9
:103B9000A4F89A305DF8044B7047B3F8883003EB13
:103BA0004303A4F89A30F5E72DE9F04F95B0B1F151
:103BB000FF3F42D004460E46436D8F0053F821A0CC
:103BC000437C002B40D1637C002B45D112AB524685
:103BD00052F8420F516803C3DAF83E0011900AF11F
:103BE00008030AF136020AF12801D3F800C0D3F81D
:103BF00004E09D68D868C2F800C0C2F804E095608F
:103C0000D060103310328B42EFD11B8813800AF141
:103C100034030793184601F0D5FD524652F82A0F97
:103C20005168CAF85800CAF85C101289AAF86020D6
:103C30000025AB46B84605962AE0B84BB84A40F294
:103C4000AB41B8481CF048FC0091B74B0A464FF016
:103C5000FF3102F085FAB6E7CDF800A0B34B32464B
:103C60004FF0FF31204602F07BFAAFE708AB01933B
:103C70006B1C0093AE4B059A4FF0FF31204602F0CB
:103C80006FFA1AE04FF00009B9F1000F24D10135A5
:103C9000A36C9D427DD2A36D53F82560736B53F8DE
:103CA00008703B79032BF2D108AB059A29462046D0
:103CB000FEF786FD637C002BD8D10AF122010DF1BD
:103CC0003A0001F021FD81460028DBD0F37D002B76
:103CD000DAD04FF00009D7E70AF136032222069323
:103CE000194608A801F0F0FC002807DB22220699FB
:103CF00008A801F0E9FCB0B34FF00009B9F1000FDA
:103D0000C5D00DF120090AF1360E0DF1400BCC465D
:103D1000BCE80F00CEF80000CEF80410CEF8082062
:103D2000CEF80C30E1460EF1100EDC45EFD1BCF8B8
:103D30000030AEF80030B7F89030AAF834303A4688
:103D400052F8860F5168CAF85800CAF85C101289F8
:103D5000AAF86020B37F6BB9BAF85E300133AAF8D5
:103D60005E30BB4693E7079907F1900001F06CFDC8
:103D70008146C3E79AF8603023B1013B8AF860308E
:103D8000BB4684E76B4B664A40F2DB4165481CF05A
:103D9000A3FB4746059E637C23B9637C6BB9002572
:103DA000B04615E00AF136030093634B32464FF0FC
:103DB000FF31204602F0D4F9EFE7079B00935F4BF9
:103DC00032464FF0FF31204602F0CAF9E7E70135ED
:103DD000A36C9D4223D2A36D53F825305B6BDE5953
:103DE000424629462046FEF79FFC534653F8580F9B
:103DF0005968C6F87200C6F876101B89A6F87A30A2
:103E0000637C002BE3D00C3601966B1C00934C4B6B
:103E100042464FF0FF31204602F0A2F9D7E746466E
:103E20002EB10020002840D14FF0000849E00AF1EF
:103E300042019DF848209AF842309A4222D0002050
:103E400048BB70BB9AF83E209AF83F301B0443EA07
:103E500002639AF8402043EA02239AF84120134370
:103E600021D19DF844209DF845301B0443EA0263AC
:103E70009DF8462043EA02239DF847201343D1D002
:103E80000120CFE79DF849204B789A4201D00020CD
:103E9000D6E70120D4E702310DF14A0001F02CFCF5
:103EA000CFE70020BEE70120BCE72046FFF7B6FBC6
:103EB000BAE70523EB71637C002B40F0408108F1E9
:103EC0000108A36C984580F04A81A36D53F828201F
:103ED000536BDD5919682B79042BEAD016B1087998
:103EE00003282FD016B10979032974D0022B78D07A
:103EF000012B7DD0032B00F0BD80032B00F0C4808C
:103F00004FF00009B9F1000F00F0D7800823EB71E2
:103F1000AB786FF3C303AB70CDE700BF303006085A
:103F2000E4400608E03E0608E43B0608F03B0608CD
:103F3000043C0608303C0608583C06087C3C060851
:103F4000943C060892F82890B9F1000FCAD1CB79B9
:103F5000062B0FD0CB79082B0FD0222205F10C01B4
:103F600005F1500001F0B0FB48B1AB7843F0080315
:103F7000AB70A0E70A23EB71ECE7EB71EDE7BBF167
:103F8000000F09D00A220BF1860105F1860001F02D
:103F90009BFB08B14FF00109B9F1000F04D0AB78D9
:103FA00043F00803AB7086E7BBF1000F07D0B9F10F
:103FB000000F80D0AB7843F00803AB707BE70A2298
:103FC0000AF1580105F1860001F07EFB0028EED0D1
:103FD0004FF00109EBE792F82820002A3FF46BAF7D
:103FE00084E7AB7843F00803AB700723EB7162E71B
:103FF0000723EB71222205F10C0105F1500001F0BD
:1040000063FB20B1AB7843F00803AB7053E7BBF11F
:10401000000F11D00A220BF1860105F1860001F094
:1040200053FB60B14FF00109B9F1000F0AD0AB7832
:1040300043F00803AB703EE74FF00009F4E74FF0A0
:104040000009F1E7BBF1000F08D0B9F1000F3FF410
:1040500032AFAB7843F00803AB702CE70A220AF1C9
:10406000580105F1860001F02FFB0028EDD04FF03C
:104070000109EAE7AB457FF440AF0623EB71AB786B
:104080006FF3C303AB7016E7AB4510D0222205F1E6
:10409000500105F10C0001F017FB00280ADB0AF1C2
:1040A000020105F16A0001F02FFB81462AE74FF07B
:1040B000000927E74FF0000924E72B79032B09D0EB
:1040C000B9F1000F19D00923EB71AB786FF3C3037B
:1040D000AB70F0E6AB45F3D0222205F1500105F1BB
:1040E0000C0001F0F1FA0028EADB0AF1020105F107
:1040F0006A0001F001FB8146E2E72B79032B0AD12C
:10410000AB4508D0222205F1500105F10C0001F069
:10411000DBFA002809DBB9F1000F09D00723EB71A6
:10412000AB7843F00803AB70C5E64FF00109F2E746
:104130000C4B0D4A40F299510C481CF0CDF9E8792E
:1041400001F0EAFA0290019608F101030093084B8E
:1041500032464FF0FF31204602F002F8AFE615B0CC
:10416000BDE8F08FB82E0608E4400608E03E0608D9
:10417000C03C06080023826C93420ED210B4826DBC
:1041800052F82320526B52F821200524D4710133B8
:10419000826C9342F3D35DF8044B704770B50025F1
:1041A000846CA54212D2836D53F825305B6B53F8B3
:1041B00022406378DB094BD0A679E3799E4246D151
:1041C000A37813F0080F45D10135E9E7806D0E465D
:1041D00050F821305B6B950053F822309B79062B09
:1041E00016D0082B16D0092B16D0072B26D00A2B59
:1041F00026D10022A24231D2B24207D050F822305A
:104200005B6B5B599B78C3F340030BB30132F1E75F
:10421000002204E0002202E0002200E00132A2427B
:104220001AD250F822305B6B5B5999790629F5D088
:104230009B78C3F34003002BF0D109E00022D9E7BB
:10424000074B084A4FF4BE6107481CF045F90023AC
:10425000184670BD0023FBE70123F9E70123F7E7C8
:10426000B82E060848420608E03E0608002290F8EC
:104270006030022B24DDC36C01339A4222D210B489
:1042800003E0C36C01339A4213D2836D53F821309B
:104290005B6B53F822406378DB090BD0A37813F0F3
:1042A000080F0BD1013290F86030022BE9DC0123BA
:1042B000E9E7012318465DF8044B70470023F9E74E
:1042C0000123DAE70123184670470000B1F1FF3FF0
:1042D00003D0B1FA81F04009704708B5034B044A96
:1042E00040F20F6103481CF0F7F800BF30300608B9
:1042F0000C420608E03E0608836D53F821305B6BE4
:104300001B689879062814BF002001207047836D30
:1043100053F821305B6B1B689879072814BF002085
:1043200001207047836D53F821305B6B1B68B3F835
:1043300072007047836D53F821305B6B1B68B3F8D4
:104340008800704708B5836D53F821305B7E13B940
:10435000FFF7E8FF08BDFFF7EDFF08BD836D53F8D9
:1043600021305B6B1B68B3F87600704708B5836D2E
:1043700053F8213093F839300BB1032008BDFFF713
:10438000EDFF08BD0023C26C93421CD210B402E0C2
:10439000C26C934211D2826D52F82120526B0133CC
:1043A00052F82340A279072A0BD0062AF0D1B4F89C
:1043B0009820002AECD0012000E000205DF8044B9A
:1043C00070470120FAE7002070470023C26C934237
:1043D0000BD2826D52F82120526B013352F8232008
:1043E00092790A2AF2D1012070470020704700001C
:1043F00008B5B1F1FF3F04D0836D53F821100022BE
:1044000011E00E4B0E4A40F279610E481CF064F840
:1044100001239A420ED24B6B53F822305B78C3F3E0
:10442000C00343B9013290F86030022BF0DDC36C59
:104430000133EEE70023184608BD00BF5C2E0608D6
:10444000503F0608E03E0608836D53F821305B6B51
:104450001B685878C0F3C0007047000010B57AB1EF
:104460001446836D53F821305B6B1A68527812F052
:10447000080F0CD153F824305878C0F3C00010BD99
:10448000044B054A40F2946104481CF025F80020D2
:1044900010BD00BFCC3B06089C3F0608E03E060866
:1044A00010B4002300E00133846CA3420DD28B4290
:1044B000F9D0846D54F82340646B54F82240B4F86A
:1044C0009440002CEFD0002000E001205DF8044B68
:1044D000704790F860000128D4BF00200120704789
:1044E000F8B5B1F1FF3F19D00546B2F1FF3F1CD03E
:1044F000D0F8A43003B3836D53F82140636B1E687A
:1045000053F82270002A52D1FFF7E3FFD8B194F894
:10451000393033B3FB78C3F3800315E05D4B5E4A5B
:104520004FF4D9715D481BF0D7FF5D4B5A4A40F2FA
:10453000B3115A481BF0D0FF5A4B574A4FF4DB7166
:1045400056481BF0C9FF00236BB13B7843F00403CE
:104550003B707B786FF382037B70A37F93BB012357
:104560001EE00023F0E73B786FF382033B70F4E733
:104570000122934226D2626B52F823103278C2F3A2
:104580008002087862F382000870626B52F8231090
:104590007278C2F38002487862F382004870013377
:1045A00095F86020022AE3DDEA6C0132E1E7A37F9F
:1045B0004BB194F8390068B9002862D13B786FF3A9
:1045C00082033B70F8BD384B334A40F2E91133485F
:1045D0001BF082FF06F12E0406F1500196F82E2002
:1045E00096F850309A421ED0002010BB0028E3D02D
:1045F00096F8362096F858309A421FD000200028AE
:10460000DAD006F13A0406F15C0196F83A2096F801
:104610005C309A422AD0002070BB0028CCD0F878B9
:10462000C0F38000C8E762784B789A42DDD0002062
:10463000DBE70231A01C01F05FF8D7E796F83720DE
:1046400096F859309A4201D00020D8E796F83820E1
:1046500096F85A309A4201D00020D0E796F83920D7
:1046600096F85B309A42CAD00020C8E762784B784F
:104670009A42D1D00020CFE70231A01C01F03CF8D3
:10468000CBE73B7843F004033B707B786FF3820306
:104690007B70F8BD5C2E0608B8410608E03E0608AF
:1046A00030300608EC3C0608143F0608836D53F8CA
:1046B00021305B6B1B689878C0F3C0007047000026
:1046C00010B572B1836D53F821305B6B53F8222023
:1046D0009078C0F3C00018B91B689878C0F3C00088
:1046E00010BD034B034A40F2CD6103481BF0F4FEBA
:1046F000CC3B060834400608E03E060808B512B96F
:10470000FFF7A2FE08BDFFF7A9FE08BD08B512B964
:10471000FFF7CCFF08BDFFF7D3FF08BDB0F894301A
:1047200003B1704710B50446036B98470623A4F8FD
:10473000943010BD2DE9F041054688461746002407
:1047400000E00134AB6C9C420CD2AB6D53F82430CA
:104750001B7C002BF5D16E6B3B464246214628461A
:10476000B047EEE7BDE8F081B0B1012816D90A28BC
:1047700016D9642816D9B0F57A7F15D942F210728D
:10478000904214D90C4A904214D90C4A904201D953
:104790000220704714207047094870470948704745
:1047A000094870470948704744F6206070474FF445
:1047B000FA607047C8207047A086010040420F0091
:1047C00000C2EB0B002D310180841E00400D030060
:1047D00008B50378032B08D8DFE803F00E021004B5
:1047E000104608BD02FB01F008BD054B054A40F22A
:1047F000A62105481BF070FE012008BD084608BD33
:10480000B82E0608E84A06087048060870B505463E
:1048100000242646D5F8A0305A6894420CD2186875
:1048200004EB84029300EA6C0132A96C1844FFF790
:10483000CFFF06440134EDE7EA6C0132A96C9868B9
:10484000FFF7C6FF304470BD70B59CB0054602A8A6
:1048500002F09EFA2A6D01325200E96D02A802F0C0
:10486000BDFA0023ADF806302C6D0134B4F5805F3D
:1048700007DA02220DF1060102A802F0AFFA0134B4
:10488000F4E702A802F0AEFA18AC0FCCC5F8840029
:10489000C5F88810C5F88C20C5F890301CB070BDE4
:1048A0002DE9F04F85B00446884615461E46DDF8D2
:1048B0003890DDF83CA000238DF80F302CE0637CAD
:1048C000002B39D0304B32462946204601F048FCB7
:1048D00032E06B1C00932D4B32462946204601F0F6
:1048E0003FFC29E0002E02DD637C002B34D1D8F898
:1048F000083058469847637C002B35D1CDF800A08E
:104900005B46324629462046D8F81070B84789F8E9
:1049100000B001238DF80F3099F800303246294657
:104920002046D8F80C70B847834640B3B5F1FF3F36
:10493000C5D0637C002BCCD194F86030022BD6DD3F
:10494000002ECFD1637C002BD1D0114B32462946AB
:10495000204601F005FCCAE700960E4B3246294678
:10496000204601F0FDFBC2E7D8F804300190009327
:10497000094B32462946204601F0F2FBBEE79DF87E
:104980000F0005B0BDE8F08F34480608404806081F
:104990004C48060854480608604806082DE9F043CC
:1049A00085B0064688461546994600238DF80F3097
:1049B0000B78032B15D8DFE803F002193A54CDF831
:1049C00004902B6800934FF0FF331A46FFF768FFFF
:1049D0009DF80F300343DBB28DF80F302B680133A5
:1049E0002B609DF80F0005B0BDE8F083002417E0B0
:1049F00001239C42F5D2CDF804902B680093234606
:104A00004FF0FF3241463046FFF74AFF9DF80F3026
:104A10001843C0B28DF80F002B6801332B600134AE
:104A200096F86030022BE3DDF36C0133E1E70024FC
:104A3000B36C9C42D5D2CDF804902B6800934FF014
:104A4000FF33224641463046FFF72AFF9DF80F30DC
:104A50001843C0B28DF80F002B6801332B6001346E
:104A6000E6E7002702E0012306E0013796F8603010
:104A7000022BF8DDF36C01339F42B2D20024B36CF9
:104A80009C42F2D2CDF804902B6800933B4622461C
:104A900041463046FFF704FF9DF80F301843C0B27F
:104AA0008DF80F002B6801332B600134E7E770B5F8
:104AB00082B005460E4605E09DF80730FBB19DF833
:104AC00007304BB3D5F89C30009300248DF8074095
:104AD000D5F8A0104B689C42EED2086804EB840322
:104AE000990033466A4601442846FFF757FF9DF870
:104AF00007301843C0B28DF807000134E8E73346A9
:104B00006A4689682846FFF749FF9DF80730034346
:104B1000DBB28DF80730D2E702B070BD70B50E463B
:104B2000F1B90D4602E0012306E0013590F860304E
:104B3000022BF8DDC36C01339D4223D23146836CD6
:104B40009942F2D2836D53F821305B6B53F82540C4
:104B5000637803F07F0343F0400363700131EEE7B5
:104B60000021836C99420DD2836D53F821305B6B29
:104B700053F82640637803F07F0343F040036370EB
:104B80000131EEE71146FFF792FF70BD30B583B0FB
:104B900004460D46437CD3B9E37C03BB0123E37495
:104BA000A37429462046FFF782FF0023A3742946F9
:104BB0002046FFF77CFFE36B294620469847637C3D
:104BC0009BB9637CCBB9637CFBB903B030BD00916A
:104BD000104B4FF0FF32114601F0C2FADCE70E4BEA
:104BE0000E4AD7210E481BF077FC0E4B4FF0FF32D8
:104BF0001146204601F0B4FAE3E70B4B4FF0FF32C9
:104C00001146204601F0ACFADDE7204601F054FAE7
:104C1000DBE700BFBC470608DC470608B8480608C3
:104C200070480608F84706080C480608436D1868DF
:104C300002307047F0B583B005460C4617461E4655
:104C4000437CDBB9AB6D53F82440637C0BBB012381
:104C50006374003618BF012684F83A60236AFBB1FA
:104C6000636294F838300BB984F83960EB7CE3B9AF
:104C70006B7CFBB96B7C2BBB03B0F0BD4B1C019371
:104C8000089B0093114B4FF0FF32114601F068FA78
:104C9000D8E70F4B0F4A4FF4AA710F481BF01CFCCA
:104CA0003846FFF761FD6062DBE708992846FFF7A9
:104CB000FEFEDDE7094B4FF0FF321146284601F0BA
:104CC0004FFAD7E7284601F0F7F9D5E794460608EA
:104CD000AC4606086C490608704806080C480608E9
:104CE00070B582B004460D461646437C73B9A36D79
:104CF00053F825305A7C1AB100225A74E37C7BB9F0
:104D0000637C93B9637CC3B902B070BD4B1C019343
:104D100000920C4B4FF0FF32114601F021FAE6E70A
:104D200031462046FFF7C3FEEAE7074B4FF0FF325C
:104D30001146204601F014FAE4E7204601F0BCF9E0
:104D4000E2E700BF7C4606080C480608C37CA3B314
:104D500030B583B00D460446437C83B9B4F8943033
:104D600013B1013BA4F894300023A26C93420ED2FD
:104D7000A26D52F823200120D0760344F5E700917C
:104D80000E4B4FF0FF32114601F0EAF9E6E72946F3
:104D90002046FFF78CFE637C1BB9637C4BB903B0E4
:104DA00030BD074B4FF0FF321146204601F0D8F9D5
:104DB000F3E7204601F080F9F1E7704768460608FE
:104DC0000C4806082DE9F04383B0C47C94B19846A2
:104DD00017460D460446836D53F821305E7CBEB9FC
:104DE000437C53B9637C002B40F0F380637C002B41
:104DF00040F0F78003B0BDE8F083013501950A9BD0
:104E000000937A4B4FF0FF32114601F0A9F9E9E720
:104E1000437C63B94146384600F076FD8046431E28
:104E2000032B00F2B480DFE803F00DA361824B1C7A
:104E300001930A9B00936E4B4FF0FF32114601F035
:104E40008FF9E7E7637C002B3FD1637C002B44D1D3
:104E50003B464FF0FF322946204600F04FFE94F8C3
:104E60001190B9F1000F3CD1002EBBD0D4F8A43082
:104E7000002B40F0998094F8A830002B40F09B80E4
:104E8000A36D53F82520927C002A40F09B80C4F843
:104E9000A47084F8A88053F8253001229A740A99E6
:104EA0002046FFF704FE0023C4F8A43084F8A8309D
:104EB000A36D53F825309B7C002B93D04D4B4E4A6D
:104EC00040F2E9114D481BF007FB4D4B4FF0FF320C
:104ED0002946204601F044F9B7E7204601F00EF9D3
:104EE000B6E7204601F01EF94E46BDE7637C93B954
:104EF000637CC3B93B464FF0FF322946204600F0A1
:104F000057FD94F81190B9F1000FADD0204601F093
:104F100009F94E46A8E73B4B4FF0FF3229462046A1
:104F200001F01EF9E4E7204601F0E8F8E2E7637CCF
:104F300093B9637CC3B93B464FF0FF322946204604
:104F400000F0F6FE94F81190B9F1000F8CD02046D5
:104F500001F0E8F84E4687E72B4B4FF0FF32294629
:104F6000204601F0FDF8E4E7204601F0C7F8E2E74B
:104F700094F81190B9F1000F3FF476AF234B4FF046
:104F8000FF322946204601F0EBF84E466CE7667C7E
:104F9000002E3FF469AF1E4B4FF0FF3229462046EA
:104FA00001F0DEF800265FE71A4B134A40F2DB11EE
:104FB00012481BF091FA184B0F4A4FF4EE710F484C
:104FC0001BF08AFA0B4B0C4A40F2DD110B481BF028
:104FD00083FA124B4FF0FF321146204601F0C0F821
:104FE00004E7204601F068F804E700BF0045060822
:104FF000584506083C460608C84906087048060891
:105000007C4506088C4506089C450608AC45060804
:10501000B8450608E0450608044606080C48060898
:10502000003118BF012141747047836D53F821305E
:10503000003218BF01221A7070470000F0B587B027
:105040001F46C2F30B03002B51D104460E461546F2
:10505000C36C8B4252D3437C002B56D1636D53F803
:10506000262004AB1068516803C39DF810209DF8FA
:10507000113043EA02239D4261D0637C002B4ED164
:10508000B3B21D432B0A8DF810308DF81150636DAB
:1050900053F8263004AA03CA1860596019785A7860
:1050A00042EA0122C2F30B021AB919685A689960E0
:1050B000DA6019685A6859619A6119625A62E36B39
:1050C000394620469847E37C43B194F86020022A91
:1050D0002DDDE26C0132964200D300234BBB637C92
:1050E000002B37D1637C002B3CD107B0F0BD1F4BA8
:1050F0001F4A40F24A311F481BF0EEF91E4B1C4A72
:105100004FF453711B481BF0E7F90292019100978D
:105110001A4B4FF0FF32114601F022F89EE7184B70
:105120004FF0FF321146204601F01AF8A8E701229D
:10513000D1E73A4631462046FFF7F0FCCFE7637CE3
:10514000002BCCD00F4B4FF0FF321146204601F020
:1051500007F8C4E70C4B4FF0FF321146204600F031
:10516000FFFFBFE7204600F0A7FFBEE7084706089D
:10517000304A0608704806082847060848470608C7
:1051800030480608F44606080C4806080022052A9E
:1051900022D810B40EE057335BB211E057335BB244
:1051A0004B70CC1C042A13D83A238B700132214651
:1051B000052A0FD88418835C1B11092BEBD83033D8
:1051C0000B70237803F00F03092BE7D83033E7E7A0
:1051D0000023EAE75DF8044B704700002DE9F84F23
:1051E000DDF828900B9F012F40F2988005468B46F2
:1051F00092469846402900F29780421E40F6FE7380
:105200009A4200F2978040F6FE739A4500F2988029
:10521000D8F82430AC2098470646002800F0968045
:10522000022380F86030B74BC0F8A03000F11C04B6
:10523000C646BEE80F000FC4BEE80F000FC49EE8CC
:10524000070084E80700B564C6F84CB0C6F850A063
:10525000D8F8243038469847306000287CD07760F2
:105260000023B3604FF0FF337361B3613046FFF743
:10527000CDFAD8F824309847C6F89C00002871D0A1
:10528000D8F82420F36C013398009047706500280B
:105290006ED0D8F82430A8009847B06500286DD0AB
:1052A000746DD8F82430622098472060736D1B68B5
:1052B000002B69D080221A7000225A7099F80020C1
:1052C0009A7099F80120DA7099F802201A7199F809
:1052D00003205A7199F804209A7199F80520DA711F
:1052E00019685A689960DA6059619A6119625A625C
:1052F000736D1B6802229A85736D1A68142382F8F5
:105300003230726D12680F215185726D1268D3852B
:10531000736D1B6800221A8601244DE07A4B7B4A8C
:105320002C217B481BF0D8F87A4B784A31217848F9
:105330001BF0D2F8784B754A352175481BF0CCF834
:10534000764B724A372172481BF0C6F8744B6F4A8D
:105350003B216F481BF0C0F8724B6C4A48216C48E7
:105360001BF0BAF8704B694A552169481BF0B4F834
:105370006E4B664A5B2166481BF0AEF86C4B634A85
:105380005F2163481BF0A8F86A4B604A64216048BB
:105390001BF0A2F8684B5D4A76215D481BF09CF833
:1053A00019685A6859619A6119625A62736D5B593A
:1053B000142283F832200134F36C01339C4233D23F
:1053C000776DA500D8F824306220984747F824006C
:1053D000736D53F82430002BDCD06FEA44426FEA3F
:1053E000524292B2110A19705A7099F800209A70BC
:1053F00099F80120DA7099F802201A7199F80320BF
:105400005A7199F804209A7199F80520DA71C9B295
:105410005A7842EA0122C2F30B02002AC0D119686D
:105420005A689960DA60BBE7002718E0434B374AB7
:10543000812137481BF050F8414B344A87213448CA
:105440001BF04AF83F4B314A8F2131481BF044F89A
:1054500001232B72AB72EB723B4B6B620137B36C67
:105460009F4239D2B46DD8F824303C20984744F894
:105470002700B36D53F82750002DD7D0D8F824302B
:10548000F06C01308000984768630028D4D0002475
:10549000F36C01339C42DBD2D5F834B0D8F8243019
:1054A000A02098474BF824006B6B53F82400002889
:1054B000C8D07A1C92B28021903000F05FF96B6BFB
:1054C00053F824300222A3F888206B6B53F8243061
:1054D0001D4A9A600134DBE70023C6F8A43006F1C8
:1054E00062014846FFF752FED8F824300AF1010065
:1054F00040009847F06548B33046FFF7A5F93046BD
:10550000BDE8F88F802D060804430608E848060821
:10551000704806081C4306082C4306085443060836
:105520006C4306087C43060898430608B043060807
:10553000C8430608E0430608044406082844060851
:105540004C44060860440608400D0300024B034A21
:10555000A92103481AF0C0FF80440608E84806085D
:1055600070480608836D53F82130587C704700005E
:10557000012808D018B1022803D004487047044815
:105580007047044870470448704700BFF444060859
:10559000A0440608B4440608A8440608F0B585B03F
:1055A00004460E4615461F461046FFF7E1FF637C92
:1055B000BBB9A36D53F8263093F8382095420AD032
:1055C00083F83850012D18D0022D1AD0EDB993F878
:1055D0003A2083F83920637CF3B9637C23BB05B0A0
:1055E000F0BD731C029301900097114B4FF0FF32F6
:1055F0003146204600F0B4FDDBE7012283F8392074
:10560000E9E7002283F83920E5E70A4B0A4A40F22D
:10561000F9210A481AF060FF094B4FF0FF3211469A
:10562000204600F09DFDD8E7204600F045FDD6E776
:1056300080470608B82E0608884A060870480608FB
:105640000C480608F0B591B006460F4696469C46B3
:10565000054607AC55F8010F6968AA68EB680FC4E6
:1056600028696969AA69EB690FC400238DF83C3089
:105670007B7C0BB911B0F0BD6246714638463446AA
:1056800096F8213096F8225096F8236094F824700A
:1056900094F831E094F832400594CDF810E0039787
:1056A000029645EA0323019307AB0093014B00F0F8
:1056B00057FDDFE78448060808B5332200F004F8F8
:1056C000B0FA80F0400908BD0023934212DA30B4EA
:1056D00005780C78A54208DC09DB01300131013383
:1056E0009342F5DB002030BC70470120FBE74FF010
:1056F000FF30F8E70020704708B50622FFF7E4FF07
:10570000B0FA80F0400908BD08B50622FFF7DCFFBB
:10571000003018BF012008BD0A2812D0062812D078
:10572000072812D0082812D0092812D0052801D144
:105730000948704708B5094B094A3D2109481AF044
:10574000CBFE0948F5E70948F3E70948F1E70948BE
:10575000EFE70948EDE700BFC0440608B82E060889
:10576000B44B0608444B0608EC440608CC44060833
:10577000D4440608E0440608B44F060810B511F0FA
:105780000F0F0AD1531E9BB240F6FE74A3420AD8F3
:1057900041EA22210170427010BD064B064A4621A3
:1057A00006481AF099FE064B034A472103481AF0AF
:1057B00093FE00BF644B0608E04B0608444B060806
:1057C0007C4B0608002303704370704708B543788C
:1057D0001BB1007800F0F00008BD034B034A5521CF
:1057E00003481AF079FE00BFA84B0608184C0608BB
:1057F000444B060808B542782AB1037803F00F033A
:1058000042EA030008BD034B034A632103481AF030
:1058100063FE00BFA84B0608784C0608444B0608F8
:1058200008B543781BB1007843EA002008BD034B5C
:10583000034A6A2103481AF04FFE00BFA84B06082E
:10584000AC4C0608444B060808B543785BB10078B9
:1058500043EA00230A78487840EA02208342ACBF3A
:105860000020012008BD034B034A722103481AF0AF
:1058700033FE00BFA84B0608444C0608444B0608FC
:1058800070B108B501280DD002280DD0032801D130
:10589000064808BD064B074A1F2107481AF01CFEA0
:1058A00006487047064808BD064808BDD4440608A7
:1058B000B82E06084C510608BC4F0608A84F06082B
:1058C000B04F0608CC4406080A2811D008B5A0F14C
:1058D0000803DBB2012B0DD906280DD0072801D112
:1058E000032008BD054B064A3A2106481AF0F4FD8C
:1058F00000207047012008BD022008BDB82E060810
:105900001C510608BC4F06080278437843EA02237C
:105910001BB27BBBC3780BB922292DD8802B08D0B2
:105920008278022A09D0022A28DD022B0BD000201F
:1059300070470329F4D902207047022BF3D12329A1
:10594000F1D90320704765291AD990F8242090F8DE
:10595000253043EA0223403B9BB290F823208AB9CA
:1059600013F00F0F10D16633994201D00020704719
:1059700004207047002070470120704700207047C6
:1059800000207047002070470020704700F00100A1
:105990007047C0F340007047C0F381007047C0F308
:1059A00000107047C0F340107047C0F3801070477C
:1059B0002DE9F04F89B00446069107921D46437CBD
:1059C0008BB9637C002B39D1637C002B3FD1637C86
:1059D000002B4ED1637C002B55D1637C002B5CD116
:1059E00009B0BDE8F08F95F804804046FFF7CEFF80
:1059F00006464046FFF7CDFF07464046FFF7CCFF7F
:105A0000FFF73EFF81464046FFF7C9FF824640460A
:105A1000FFF7C8FF83464046FFF7C7FF0590CDF864
:105A200010B0CDF80CA0CDF80890019700962C4B43
:105A3000079A0699204600F093FBC2E76B1D00937E
:105A4000284B079A0699204600F08AFBBCE76A7B40
:105A5000AB7B1B0443EA0263EA7B43EA02232A7C12
:105A600013430093204B079A0699204600F078FBD9
:105A7000ADE705F1110300931C4B079A06992046E8
:105A800000F06EFBA6E705F119030093184B079A87
:105A90000699204600F064FB9FE7EA7E2B7F43EAED
:105AA00002231B0A697FAA7F42EA0122120AE87FC9
:105AB00095F8201041EA0021090A95F821E095F8AF
:105AC000220040EA0E20000A039002910192009306
:105AD000084B079A0699204600F042FB80E700BF7A
