:020000040800F2
:1000000000500020E51000082D1100082D110008F7
:100010002D1100082D1100082D110008000000000E
:100020000000000000000000000000002D1100088A
:100030002D110008000000002D1100082D110008EE
:100040002D1100082D1100082D1100082D11000898
:100050002D1100082D1100082D1100082D11000888
:100060002D1100082D1100082D1100082D11000878
:100070002D1100082D1100082D1100082D11000868
:100080002D1100082D1100082D1100082D11000858
:100090002D1100082D1100082D1100082D11000848
:1000A0002D1100082D1100082D1100082D11000838
:1000B0002D1100082D1100082D1100082D11000828
:1000C0002D1100082D1100082D1100082D11000818
:1000D0002D1100082D1100082D1100082D11000808
:1000E0002D1100082D1100082D110008000000003E
:1000F0000000000000000000000000000000000000
:0C01000000000000000000005FF808F1A3
:10010C0010B5054C237833B9044B13B10448AFF345
:10011C0000800123237010BD0800002000000000A7
:10012C008811000808B5034B1BB103490348AFF312
:10013C00008008BD000000000C00002088110008A1
:10014C00002382B001930D4B1B68013308D04FF094
:10015C00500383F31188BFF36F8FBFF34F8FFEE70C
:10016C004FF0500383F31188BFF36F8FBFF34F8FA2
:10017C00019B002BFCD002B0704700BF0400002094
:10018C0000F00700C0F10702031D042A28BF042257
:10019C00062B4FF0FF3398BF002003FA02F388BF01
:1001AC00033821EA030101FA00F07047054B82B0D5
:1001BC009A6902439A619B6918400190019B02B0B5
:1001CC00704700BF001002404FF0500383F31188BA
:1001DC00BFF36F8FBFF34F8FFEE70000064A136823
:1001EC001968064B19B94FF0FF321A607047126844
:1001FC00D268D2685268F8E76800002054290020C1
:10020C000369D0E901128A608268516059688142A1
:10021C0008BF5A60002202611A68013A1A60186815
:10022C0070470A6830B5531C0AD103695A684A6092
:10023C0091608B605960036808610133036030BDC5
:10024C0000F108035C6825689542EFD82346F9E76E
:10025C0043689A684B608A609A6851609960036839
:10026C000861013303607047084A136843B94FF0C3
:10027C00500383F31188BFF36F8FBFF34F8FFEE7EB
:10028C00013B13600BB983F3118870470400002005
:10029C0008B54FF0500383F31188BFF36F8FBFF392
:1002AC004F8F074A13680133012B136006D1054B9E
:1002BC001B6813F0FF0F01D0FFF786FF08BD00BFCE
:1002CC000400002004ED00E02DE9F84F6D4C23688C
:1002DC0043B94FF0500383F31188BFF36F8FBFF313
:1002EC004F8FFEE7FFF7D4FF2368013B236025689F
:1002FC0025B10020FFF7B8FFBDE8F88F624B1B68F3
:10030C00002BF6D0614E624FDFF8A49121E0F36828
:10031C004FF00108DD6805F1040A05F11800FFF73C
:10032C006FFF5046FFF76CFF1420EA6A396808FA31
:10033C0002F30B4300FB029051463B60FFF788FF32
:10034C00544BEA6A1B68DB6A9A4202D3524BC3F8DD
:10035C0000803368002BDAD10DB1FFF73FFF4F4D12
:10036C002F68002F3ED0DFF850812368002B40F01F
:10037C0082804B4B1E6801361E60BEB9494B1A6811
:10038C00126842B14FF0500383F31188BFF36F8FA3
:10039C00BFF34F8FFEE7444A19681068186011606C
:1003AC00424A136801331360FFF718FFD8F8003086
:1003BC004FF0000A9E4254D2364B1A683C4BD16A1D
:1003CC0014224A439A58022A28BF4FF0010A324A93
:1003DC00116811B9BAF1000F01D001231360013F6C
:1003EC00C3D12F602C4B1B68002B82D04FF0805256
:1003FC00304B1A60BFF34F8FBFF36F8F012079E73B
:10040C00284B1A68D268D2F80CB0DBF804108E4274
:10041C0002D2C8F80010CFE70BF104094846FFF7E9
:10042C00EFFEDBF8281019B10BF11800FFF7E8FE0E
:10043C0001214FF0140C164ADBF82C001368814094
:10044C0019431B4B11600CFB00304946FFF700FFB2
:10045C00104BDBF82C101868C26A914228BF4FF081
:10046C00010A104B1A681268002AC9D14FF0FF32EA
:10047C00C8F80020A0E72B684FF0000A01332B606E
:10048C00A5E700BF10290020042900205C290020CA
:10049C001829002064000020A82900200C29002025
:1004AC00A42900206800002070000020582900209A
:1004BC007400002004ED00E0542900200648006878
:1004CC00006880F3088862B661B6BFF34F8FBFF344
:1004DC006F8F00DF00BF000008ED00E010B50F4B80
:1004EC001A68824218D35C681919884201BF4168A6
:1004FC00184609195960446801198A4207D10849FC
:10050C0009688A421FBF51681268091941609842F4
:10051C00026018BF186010BD1346E1E77429002073
:10052C006C00002008B530B3134A50F8043C126834
:10053C00134201D1FFF748FE50F8081C41B14FF0AF
:10054C00500383F31188BFF36F8FBFF34F8FFEE718
:10055C000A4923EA02030A6840F8043C01320A60A3
:10056C00074908380A6813440B60FFF7B7FFBDE86A
:10057C000840FFF7A9BE08BD1C2900201029002047
:10058C004829002080B5DFF86480144F144C154EB8
:10059C00236863B9144B1B68012BF8D94FF08053B7
:1005AC00C8F80030BFF34F8FBFF36F8FEEE7FFF744
:1005BC006FFEFB68DD68281DFFF722FE3368013BE8
:1005CC0033602368013B2360FFF74EFE286BFFF777
:1005DC00A9FF2846FFF7A6FFDAE700BF9029002005
:1005EC0008290020042900207400002004ED00E0FC
:1005FC00404A2DE9F04113683F4E013313603368D4
:10060C003E4CFBB93E4900234D0701F520520FBF6C
:10061C004FF42052073121F00701521A0A44394D88
:10062C00083A22F007026B602960C2E90033531AC2
:10063C00C1E900233260344A1360344A13604FF02E
:10064C0000432360D4F8008018EA000F0DD0FFF7A8
:10065C003BFE0026730749D04FF0500383F31188FB
:10066C00BFF36F8FBFF34F8FFEE70028EFD000F181
:10067C000803580702D023F007030833234F3D68C3
:10068C009D42E4D31F4A14686068984201D22168E5
:10069C00A1B93168A142DAD0216816681160C21A7A
:1006AC00102A12D9E01841070BD04FF0500383F3F6
:1006BC001188BFF36F8FBFF34F8FFEE722460C46B6
:1006CC00E2E742606360FFF709FF63680E4AED1AC8
:1006DC0048EA030363600023116823608D423D6088
:1006EC0038BF15600836FFF7EFFDB3E73046BDE8BD
:1006FC00F08100BF102900206C0000201C29002074
:10070C0000010020742900205029002048290020D5
:10071C002DE9F8434FEA8208074640460E461D462F
:10072C00FFF766FF8146C0B15420FFF761FF044616
:10073C0080B14246C0F83090A521484600F016FD25
:10074C00226BA8F10408424422F0070246B984F84F
:10075C00346015E04846FFF7E5FE4FF0FF36A6E0A3
:10076C00731E04F134010F3613F9010F01F8010B5C
:10077C0093F9000008B1B342F6D1002384F843305A
:10078C00062D28BF0625C5F107030021A3614FF0F4
:10079C008073E5626564E164A1646161A1622461B6
:1007AC00646284F8501042F8043C484B27F001076F
:1007BC0042F80C3C089B42F8087C42F8201C403A5A
:1007CC0022601C60FFF764FD414B424D1A68424F9A
:1007DC0001321A602A68002A6CD12C601B68012B2C
:1007EC0041D14FF0FF364FF0140C114607F10803BE
:1007FC000CFB02F00132072A43E90136C3E901334D
:10080C00395003F11403F3D13448DFF8F8C000F188
:10081C000803C0E90136C0E903330CF10803CCE945
:10082C000136CCE903332E4B016003F10802CCF8FE
:10083C000010C3E901261960C3E90322294B03F117
:10084C0008021960C3E90126C3E90322264B03F110
:10085C0008021960C3E90126C3E90322234B18607F
:10086C00234BC3F800C00126224A234913680868A9
:10087C0001331360E26A06FA02F3034314200B609F
:10088C0000FB0270211DFFF7E3FCFFF7EDFC1B4B97
:10089C001B6863B12B68DA6AE36A9A4207D24FF09D
:1008AC008052174B1A60BFF34F8FBFF36F8F3046D8
:1008BC00BDE8F883114B1B68002BD4D12B68DA6A86
:1008CC00E36A9A4298BF2C60CDE700BF4D01000847
:1008DC00042900206400002074000020202900203E
:1008EC005C290020902900207C2900206800002031
:1008FC0070000020142900201829002070290020E5
:10090C0004ED00E03429002038B50C4D0446E868AD
:10091C00C0F30220FFF734FC002CBABF04F00F0424
:10092C00043C04F160444FEA0010C0B2B5BF641936
:10093C0004F56144207684F8000338BD00ED00E036
:10094C0008B5204D204E33680BB1FFF73DFC3368E2
:10095C00013333601D4B1C6828680430FFF750FCD2
:10096C0040B92A681A49D06A01220B68824023EAEE
:10097C0002030B600123E4184FF0000228BF1A4653
:10098C002B685C6092B1134B186829680431FFF72F
:10099C0048FCFFF799FC0028D5D14FF080520E4B44
:1009AC001A60BFF34F8FBFF36F8FCBE70B4B1868F9
:1009BC0029680431FFF735FC094B1A68944238BF9B
:1009CC001C60E6E76400002010290020A429002008
:1009DC00182900207000002004ED00E068000020C1
:1009EC005429002030B50D0E91FAA1F4B4FA84F418
:1009FC0091FAA1F10F23B1FA81F1A40003FA04F4E6
:100A0C004359890023EA040302FA01F119434151C5
:100A1C0030BD2DE9F84F0B6806460F46C3F30F287F
:100A2C0098FAA8F54FF00109B5FA85F54FF0030ACD
:100A3C004FF0040B38FA05F302D10120BDE8F88F12
:100A4C0009FA05F313EA080F4AD0072D89BF4FF0B6
:100A5C00011440F20114A5F108039C4094BFAC4072
:100A6C0044F0806430467A682146FFF7BBFFF36898
:100A7C00200A90FAA0F2B2FA82F13A6923EA000352
:100A8C008A401343F3607B6823F00803012B27D1C2
:100A9C00210E94FAA4F2B2FA82F294FAA4F0B0FA0B
:100AAC0080F0735892000AFA02F223EA0203BA6841
:100ABC00800002FA00F00343735094FAA4F2B2FAE5
:100ACC0082F294FAA4F4B4FA84F4F86892000BFA63
:100ADC0002F2A40023EA020300FA04F42343735045
:100AEC000135A7E70F4B1A6842F001021A605968EA
:100AFC000D4A0A405A601A6822F0847222F480323D
:100B0C001A601A6822F480221A605A6822F4FE02D3
:100B1C005A604FF41F029A604FF00062034B9A60C8
:100B2C00704700BF001002400000FFF800ED00E02D
:100B3C00594D2DE980482B68584E43F010032B601B
:100B4C00574B8FB0DA68002122F4E0621204120CC9
:100B5C003243DA601920FFF7D7FE4FF0007240F2F3
:100B6C00E730504B504C1A60A369DFF854C143F482
:100B7C000063A361A3694D4A03F400630893089BC7
:100B8C0063686368636863682B686368DCF80010EB
:100B9C00C3F3C223D35C464AD940464BD060B1FB69
:100BAC00F3F10020444B92F83D70013910619060D4
:100BBC0013605160956907F0FF0E3046CDF808C000
:100BCC000FB982F83CE0022682F83D601E6826F4DC
:100BDC007C7635431D6040F2E735DD6299625169E0
:100BEC0019630121596182F83D10DA680A43DA6011
:100BFC001A680A431A60A369294A0B43A361A369C3
:100C0C000B400793079BE369002143F08053E3619A
:100C1C00E36903F080530693069BD36823F4E063E7
:100C2C001B041B0C0343D3606FF00B00FFF76CFE2F
:100C3C0000216FF00A00FFF767FE00216FF009003A
:100C4C00FFF762FE00216FF00400FFF75DFE00214C
:100C5C006FF00300FFF758FE0F216FF00100FFF754
:100C6C0053FE0F214FF0FF30FFF74EFE134A53682F
:100C7C0023F0E06343F00073536002F59032136885
:100C8C0023F0070343F002031360136803F0070318
:100C9C00022B17D0FEE700BF002002400003FA052C
:100CAC0000ED00E000E100E000100240A01100089F
:100CBC002400002040420F00002C014000000140A5
:100CCC0000000020236843F48033236023689E03D4
:100CDC00FCD5B94A136843F480731360236A43F458
:100CEC0080332362236A23F480332362236A43F024
:100CFC0001032362236A9D07FCD5236A23F4407306
:100D0C0043F480732362236A43F4004323626368D1
:100D1C0023F47C1343F4E8136360236843F080737B
:100D2C00236023689801FCD5636823F0F0036360AB
:100D3C00636823F4E06343F480636360636823F4C3
:100D4C0060536360636823F0030343F00203636042
:100D5C00656805F00C05082DFAD1984A984B0024CB
:100D6C0053600523946013601168039341F00401F0
:100D7C00029B1160934ADFF8B8B21A60DBF80C00E2
:100D8C000F21C0F30220FFF7FBF90001C0B28BF872
:100D9C0023001020FFF70AFA2020FFF707FA04209F
:100DAC00FFF704FA2846FFF701FA1222DFF88482D3
:100DBC004FF0020AC8F810204FF40042824E09ADE1
:100DCC00C6F810A0C8F81420102272617F4A294678
:100DDC007F48CDE90924FFF71CFE7E4A2946404690
:100DEC0001274FF00409CDE90924FFF712FE40F268
:100DFC00022229464046CDE90927CDF82CA0CDF892
:100E0C003090FFF706FE744A29464046CDE9092783
:100E1C00CDE90BA4FFF7FDFD41F212222946304625
:100E2C00CDE90927CDE90BA4FFF7F3FD6B4A294661
:100E3C003046CDE90924FFF7ECFD694A29463046D6
:100E4C00CDE90929FFF7E5FD664A29464046CDE97B
:100E5C000929FFF7DEFD64480F21826891FAA1F1A0
:100E6C00B1FA81F122F00F028F4017435F4A87607D
:100E7C005168304621F001015160116841F00101C7
:100E8C001160D16821F00101D160916841F001013C
:100E9C0091604A4640F20111FFF7A4FD039BDBF879
:100EAC000C001946C0F30220FFF76AF94022504BA0
:100EBC0000FA09F0C0B283F806034E491A604E4896
:100ECC00032380220095FFF723FC4C4B80220093D8
:100EDC004B4923464B48FFF71BFC012840F0E980A7
:100EEC004FF0500383F31188BFF36F8FBFF34F8F15
:100EFC004FF0FF31444B1960444B1860444B1C605D
:100F0C00444B1A78D2B20992072219701B78DBB2C3
:100F1C008DF817309DF817303F4B1A609DF817105D
:100F2C00501E09060DD404B11A601A68032A11D098
:100F3C004FF0500383F31188BFF36F8FBFF34F8FC4
:100F4C00FEE79DF8172001245200D2B28DF817202D
:100F5C000246E3E7120202F4E0621A60099B2D4A92
:100F6C00DBB213702D4B4FF47A701A68134942F4AC
:100F7C0070021A601A68A3F6085342F07042C3F864
:100F8C00082D00220A601A60029B1B68B3FBF0F369
:100F9C002348013B036007230B60224B1A60FFF7C9
:100FAC008DFA214B1A68214B002A45D001221A6078
:100FBC00FFF7C6F8FEE700BF0070004010E000E04D
:100FCC003F19010000A24A04000C0140200020043B
:100FDC000010014001010104901080047724730477
:100FEC008000800418001804000001400004014037
:100FFC0000E100E0A81100084D0900084C29002070
:10100C00B411000891050008542900207029002013
:10101C00A429002000E400E00029002020ED00E0DD
:10102C0014E000E00400002010290020A829002072
:10103C0000ED00E00008014024481A6003681B6BB7
:10104C001A68B2F1A53F0BD15A68B2F1A53F07D18E
:10105C009A68B2F1A53F03D1DB68B3F1A53F01D08B
:10106C00036803681A4B1B68B3FA83F31422DBB2D0
:10107C00C3F11F035A4317498D588C1845B94FF0CB
:10108C00500383F31188BFF36F8FBFF34F8FFEE7CD
:10109C00656808326D680A44954208BF6A686560E5
:1010AC0008BF6260142202FB03135B68DB680360F9
:1010BC007EE701307FF47EAF4FF0500383F311884D
:1010CC00BFF36F8FBFF34F8FFEE700BF64000020AC
:1010DC001829002074000020002103E00B4B5B5802
:1010EC00435004310A480B4B42189A42F6D30A4A31
:1010FC0002E0002342F8043B084B9A42F9D3FFF775
:10110C00F1FC00F00FF8FFF713FD7047C411000855
:10111C00000000200800002008000020AC2900205E
:10112C00FEE7000070B500250C4E0D4CA41BA4105E
:10113C00A54209D100F022F800250A4E0A4CA41B46
:10114C00A410A54205D170BD56F82530984701353D
:10115C00EEE756F8253098470135F2E7BC11000848
:10116C00BC110008BC110008C01100080346024461
:10117C00934200D1704703F8011BF9E7F8B500BFA3
:10118C00F8BC08BC9E467047F8B500BFF8BC08BC5C
:04119C009E467047B4
:1011A000000000000102030464656661756C7454FC
:0C11B00061736B0049444C4500000000D6
:0411BC0031010008F5
:0411C0000D01000815
:0811C40000A24A04AAAAAAAA8B
:04000005080010E5FA
:00000001FF
