:020000040800F2
:100000000050002005B800087DB3000885B3000843
:1000100087B3000889B300088BB300080000000014
:100020000000000000000000000000000156000871
:100030008DB3000800000000A1560008E556000836
:100040004DB800084DB800084DB800084DB800087C
:100050004DB800084DB800084DB800084DB800086C
:100060004DB800088FB300084DB800084DB800081F
:100070004DB8000899B300084DB800084DB8000805
:100080004DB800084DB800084DB800084DB800083C
:100090004DB800084DB800084DB800084DB800082C
:1000A0004DB80008A9B300084DB800084DB80008C5
:1000B000B9B300084DB800084DB800084DB80008A5
:1000C0004DB800084DB800084DB800084DB80008FC
:1000D0004DB800084DB800084DB800085DA70008ED
:1000E0004DB800084DB800084DB8000800000000E9
:1000F0000000000000000000000000000000000000
:0C01000000000000000000005FF808F1A3
:1001100010B5054C237833B9044B13B10448AFF341
:1001200000800123237010BDE802002000000000C1
:10013000D0C6000808B5034B1BB103490348AFF311
:10014000008008BD00000000EC020020D0C60008BE
:1001500080F0004002E000BF81F0004142001FBF7C
:100160005FEA410392EA030F7FEA226C7FEA236C85
:100170006AD04FEA1262D2EB1363C1BFD21841407A
:1001800048404140B8BF5B42192B88BF704710F010
:10019000004F40F4000020F07F4018BF404211F0B3
:1001A000004F41F4000121F07F4118BF494292EA1B
:1001B000030F3FD0A2F1010241FA03FC10EB0C0047
:1001C000C3F1200301FA03F100F0004302D54942D4
:1001D00060EB4000B0F5000F13D3B0F1807F06D381
:1001E00040084FEA310102F10102FE2A51D2B1F179
:1001F000004F40EBC25008BF20F0010040EA03006E
:100200007047490040EB000010F4000FA2F101021A
:10021000EDD1B0FA80FCACF1080CB2EB0C0200FAA4
:100220000CF0AABF00EBC25052421843BCBFD040F2
:100230001843704792F0000F81F4000106BF80F46C
:1002400000000132013BB5E74FEA41037FEA226C2F
:1002500018BF7FEA236C21D092EA030F04D092F0FA
:10026000000F08BF0846704790EA010F1CBF00202E
:10027000704712F07F4F04D1400028BF40F000408B
:10028000704712F100723CBF00F50000704700F0AB
:10029000004343F0FE4040F4000070477FEA2262D2
:1002A00016BF08467FEA23630146420206BF5FEAA3
:1002B000412390EA010F40F4800070474FF00003A3
:1002C00004E000BF10F0004348BF40425FEA000C6A
:1002D00008BF704743F0964301464FF000001CE012
:1002E00050EA010208BF70474FF000030AE000BF68
:1002F00050EA010208BF704711F0004302D54042A6
:1003000061EB41015FEA010C02BF84460146002017
:1003100043F0B64308BFA3F18053A3F50003BCFA32
:100320008CF2083AA3EBC25310DB01FA02FC6344DF
:1003300000FA02FCC2F12002BCF1004F20FA02F2E6
:1003400043EB020008BF20F00100704702F12002D9
:1003500001FA02FCC2F1200250EA4C0021FA02F23A
:1003600043EB020008BF20EADC7070474FF0FF0C3F
:100370001CEAD0521EBF1CEAD15392EA0C0F93EA3A
:100380000C0F6FD01A4480EA010C400218BF5FEADC
:1003900041211ED04FF0006343EA501043EA51114F
:1003A000A0FB01310CF00040B1F5000F3EBF490049
:1003B00041EAD3715B0040EA010062F17F02FD2A4D
:1003C0001DD8B3F1004F40EBC25008BF20F0010030
:1003D000704790F0000F0CF0004C08BF49024CEA47
:1003E000502040EA51207F3AC2BFD2F1FF0340EAD9
:1003F000C250704740F400004FF00003013A5DDC4A
:1004000012F1190FDCBF00F000407047C2F100028A
:10041000410021FA02F1C2F1200200FA02FC5FEA77
:10042000310040F1000053EA4C0308BF20EADC70C1
:10043000704792F0000F00F0004C02BF400010F433
:10044000000F013AF9D040EA0C0093F0000F01F0E0
:10045000004C02BF490011F4000F013BF9D041EA02
:100460000C018FE70CEAD15392EA0C0F18BF93EA04
:100470000C0F0AD030F0004C18BF31F0004CD8D12E
:1004800080EA010000F00040704790F0000F17BFB5
:1004900090F0004F084691F0000F91F0004F14D0FB
:1004A00092EA0C0F01D142020FD193EA0C0F03D153
:1004B0004B0218BF084608D180EA010000F0004056
:1004C00040F0FE4040F40000704740F0FE4040F431
:1004D000400070474FF0FF0C1CEAD0521EBF1CEAD0
:1004E000D15392EA0C0F93EA0C0F69D0A2EB0302EE
:1004F00080EA010C49024FEA402037D04FF0805388
:1005000043EA111143EA10130CF000408B4238BF4C
:100510005B0042F17D024FF4000C8B4224BF5B1A5A
:1005200040EA0C00B3EB510F24BFA3EB510340EAA8
:100530005C00B3EB910F24BFA3EB910340EA9C0056
:10054000B3EBD10F24BFA3EBD10340EADC001B01C6
:1005500018BF5FEA1C1CE0D1FD2A3FF650AF8B426A
:1005600040EBC25008BF20F0010070470CF0004C77
:100570004CEA50207F32C2BFD2F1FF0340EAC250A2
:10058000704740F400004FF00003013A37E792F063
:10059000000F00F0004C02BF400010F4000F013AC1
:1005A000F9D040EA0C0093F0000F01F0004C02BFBC
:1005B000490011F4000F013BF9D041EA0C0195E725
:1005C0000CEAD15392EA0C0F08D142027FF47DAFBE
:1005D00093EA0C0F7FF470AF084676E793EA0C0FAE
:1005E00004D14B023FF44CAF08466EE730F0004CAC
:1005F00018BF31F0004CCAD130F000427FF45CAF3C
:1006000031F000437FF43CAF5FE700BF034613F8CF
:10061000012B002AFBD1181A013870477047C368B4
:100620008360704710B4426883685C1C8460D15456
:1006300010BC7047F0B447688668002303E0F418E4
:10064000CD5C3D5501339342F9DB83681A448260E7
:10065000F0BC70478068704740687047C368F933E2
:100660008068181A7047000010B4034C04604160A1
:10067000C260826010BC704700000020C36B7BB377
:1006800070B4466C334603EB03152C01044494F814
:100690005441012C08D03CB10133846B93FBF4F539
:1006A00004FB15339E42EED103EB03152C010444E9
:1006B00094F85441012C15D11E01F5182C01044465
:1006C000022584F8545104F14805D5E90045C1E9F3
:1006D0000045136033441A015032104470BC704717
:1006E000002070470020F9E7D0F8942412B330B40A
:1006F000D0F89C34012A13D0591CD0F8905491FBA7
:10070000F5F405FB1411C0F89C14013AC0F89424C8
:1007100003EB83139A0002F59462104430BC7047D7
:100720000022C0F894244FF0FF32C0F89C24C0F897
:100730009824EDE700207047036BB3F1FF3F09D029
:10074000426B9A4206D00133C26A93FBF2F102FB7C
:100750001133F5E77047016BB1F1FF3F0CD0436BEC
:100760000133C06A93FBF0F200FB1233994201D0CF
:1007700000207047012070470020704770B5044684
:100780000025C5634564056404268663012004F0E2
:10079000E1FCC4F88804C4F89454C4F89C54C4F828
:1007A0009854C4F89064012004F0D4FCC4F8B00854
:1007B00070BD08B5D0F8B00804F0D2FC08BD08B58B
:1007C000D0F8880404F0CCFC08BD2DE91848044694
:1007D00004F0BBFC6368D3F8E0284FF47A7303FBA2
:1007E00002F310EB030B41EBE37CC4E908BCBDE86A
:1007F00018882DE9F04184B004460F46D0F8B008BF
:1008000004F0AEFCD4F89434D4F89024934231D060
:1008100053BB0021C4F89C141D46AA4228D0C4F83A
:1008200098540133C4F89434AE017319990001F55A
:100830009461062221446846FFF716FF8046014670
:10084000384600F0BDFE404604F075FC3544AB0070
:100850002344C3F8A0050125D4F8B00804F086FCB1
:10086000284604B0BDE8F081D4F898540135D4E7A7
:100870000025D4E70025EFE710B50446D0F8B0080E
:1008800004F06EFC0023C4F89C34C4F89834C4F817
:100890009434D4F8B00804F069FC10BDF8B50D1E0E
:1008A00002DB816BA94200DAF8BD16461F460446FA
:1008B000D0F8880404F054FCE36B002B07DD05EB53
:1008C00005121301234493F85431022B04D0D4F8B9
:1008D000880404F04BFCE7E705EB05121301234401
:1008E000D3E91223BB4208BFB242F0D12B4611E03C
:1008F0004FF0FF3363642364E9E7691CA06B91FB4D
:10090000F0F300FB13136364012AE0D12364DEE7F4
:10091000AB42DCD003EB03110A01224492F85421CC
:10092000022AD4D1190119440A012244002182F873
:10093000541100200021C2E91201E26B013AE26386
:10094000002AD5D0616C9942D7D0013BE0D5A36B8A
:10095000013BDDE7F8B504460D46C06B04F000FC32
:10096000216BB1F1FF3F10D0A26B02EB41139B69E9
:10097000606B02EB4012926993420FDCAB4214DCD5
:10098000AA4224DA0026374611E0E368AB4227D0BA
:100990000027E06B04F0EAFB3846F8BDAB4219DDF6
:1009A000AA421ADA0126002701E000263746013B59
:1009B0005A42C3F30E03C2F30E0258BF53429D4284
:1009C00011D0002FE5D0B1F1FF3F34D1E1E700268F
:1009D0000127ECE701263746E9E701263746E6E737
:1009E00000260127EFE70127EDE7013B5942C3F35A
:1009F0000E03C1F30E0158BF4B42AB42C9D0916800
:100A0000B1F1FF3F21D1236B591CE26A91FBF2F354
:100A100002FB13132363D4F834C00CF1010090FBE4
:100A2000F2F102FB11018B4214D0A16B01EB4311D7
:100A30008969A94212D0A26B236B02EB431293691E
:100A4000002ED2D19D42DADAA3E70CCA6068FFF724
:100A500025FFD8E74FF0FF3323639AE7634506D0BD
:100A6000013393FBF2F102FB1133236391E74FF063
:100A7000FF3323638DE708B5D0F8B00804F076FBA8
:100A800008BD38B50446D0F8B00804F069FBD4F8C6
:100A90009434002B06DD0125D4F8B00804F066FB81
:100AA000284638BD0025F7E708B5D0F8880404F0DB
:100AB0005DFB08BD10B5044668230B70931E4B7098
:100AC000C368584203F07F0300F07F0058BF4342E1
:100AD0005B008B70E368002B26DBC3F3C713CB707E
:100AE0002369584203F07F0300F07F0058BF434260
:100AF0005B000B712369002B18DBC3F3C7134B7129
:100B0000206804F0CBFBB0F1FF3F11D0E368013364
:100B10005A42C3F30E03C2F30E0258BF5342E360BE
:100B200000236361E06810BD7F33D6E77F33E4E7DD
:100B300000236372F4E7F8B504468C461046194664
:100B4000236BB3F1FF3F23D0656B6B1CE26A93FB11
:100B5000F2F502FB1535A36B6E013344C3E90001C6
:100B6000A36B3344069A9A60A76B3744DCF80021E4
:100B700061462046FFF79EFFB861A36B1E4404F058
:100B8000E4FAC6E9040165632046FFF7D5FDF8BD28
:100B9000002525636563DEE7F0B5C9B0057A15B9B0
:100BA000284649B0F0BD0E460446C06B04F0D8FAA2
:100BB0002046FFF7D0FD40B1E06B04F0D7FA314694
:100BC0006068FFF716FE0546EAE7062207A903A8B4
:100BD000FFF74AFD07460146304600F0F1FC384673
:100BE00004F0A9FA47904FF0FF330093002200234E
:100BF00007A92046FFF79FFFE06B04F0B7FACFE7A5
:100C000030B583B00446C06B04F0AAFA2046FFF763
:100C1000A2FD30B10025E06B04F0A8FA284603B02D
:100C200030BD05466068FFF7C4FD6068FFF75CFDF6
:100C3000014640B14FF0FF330093002200232046CD
:100C4000FFF779FF01256068FFF715FFE3E710B5AF
:100C500086B00446C06B04F083FA2046FFF77BFDA4
:100C600020B1E06B04F082FA06B010BD6068FFF7B7
:100C7000A6FD03AA04A96068FFF700FD014630B194
:100C8000039B0093DDE904232046FFF754FF6068CF
:100C9000FFF70AFFE5E710B504466068FFF7F1FECD
:100CA00038B12046FFF7ACFF30B1637A002BF4D1A6
:100CB00002E02046FFF7CBFF10BD00B583B06823EC
:100CC0008DF8003004238DF8013001238DF80230B7
:100CD00000238DF803300369594203F07F0201F0CD
:100CE0007F0158BF4A4252008DF804201A46002B5B
:100CF0000BDBC2F3C7128DF8052006226946006897
:100D000004F0CCFA03B05DF804FB03F17F02F0E7D6
:100D10002DE9F843044604F018FA80468946D4E9E0
:100D200008238B4208BF824217D2A36A022B01DD3F
:100D3000002513E006222B49206804F0AFFAB0F139
:100D4000FF3F07D0A36A0133A3622046FFF73DFDB2
:100D5000012503E000236372F4E701256369002B9A
:100D600011DDD4E90623B8EB020069EB03016368E7
:100D7000D3F8DC384FF47A7202FB03F2D3179942AE
:100D800008BF904221D2E06B04F0EAF9226BB2F185
:100D9000FF3F14D0A36B03EB4213D3E90423B8EB5A
:100DA000020669EB03076368D3F8D8384FF47A7208
:100DB00002FB03F2D3179F4208BF96420DD2E06BAD
:100DC00004F0D4F92846BDE8F883C4E90689002375
:100DD00063612046FFF771FFD5E72046FFF7ACFCC3
:100DE0000025ECE72C00002038B505460C462D21E7
:100DF00000F01EFC29462046FFF7CEFE38BD00005D
:100E000070B506460D46482004F076FA044630B325
:100E1000466005600025057245720561C560456143
:100E20004FF0FF324FF0FF33C0E9062380F8405007
:100E3000D6F8CC08E0624FF0FF33236363634001D0
:100E400004F05AFAA063012004F084F9E063A5627B
:100E500001222146034804F091F904F09DF920464F
:100E600070BD00BFAB12000838B50446D0F8F008DA
:100E700078B1D4F8EC1804F0E5F9054685B12846B8
:100E800004F0E5F9012384F8E538002384F8E43818
:100E900010E0D4F8EC18164804F0D4F90546EDE754
:100EA00014480AF021FD002384F8E4381CE00A20ED
:100EB00004F0AAF994F8E63873B9284604F0D0F99A
:100EC00001460028F3D02046FFF79AFFD4F8E8380F
:100ED0000133C4F8E838EDE7284604F0EFF90023C1
:100EE00084F8E53884F8E63802480AF0FDFC38BD9D
:100EF00054C700085CC7000870B506460D460122BD
:100F000004F0BEF9002812DD2B78682B10D10122E5
:100F1000A918304604F0B4F901280CD16C782246A7
:100F2000A91C304604F0ACF9A04207D1A01C70BD4A
:100F30004FF0FF30FBE74FF0FF30F8E74FF0FF30A6
:100F4000F5E72DE9F84305460C464668084600F0EB
:100F50006AFB0746204600F081FB6438062800F251
:100F6000E580DFE800F00432547493A4C300062F38
:100F700001D0082F23D13368002B00F0D980002145
:100F8000204600F0A1FB80463768D6F8049003F0B5
:100F9000EEFF0346224629464846B84707464046E4
:100FA00002F081F837B9336B23B122462946706BC2
:100FB000984710B9002F00F0C780BDE8F883294694
:100FC0002046FFF711FF0027EDE7062F01D0082F7D
:100FD00017D1B368002B00F0AD800021204600F04F
:100FE00073FB8046B768D6F80C9003F0E5FF034624
:100FF000224629464846B8470746404602F057F879
:10100000D0E729462046FFF7EFFE0027CBE7052F64
:1010100017D13369002B00F08F800021204600F0AB
:1010200053FB80463769D6F8149002F047FE03461A
:10103000224629464846B8470746404602F02BF864
:10104000B0E729462046FFF7CFFE0027ABE7062F83
:1010500016D1B369002B71D00021204600F034FB7B
:101060008046B769D6F81C9003F055FF0346224628
:1010700029464846B8470746404602F010F891E72F
:1010800029462046FFF7B0FE00278CE7062F09D03F
:101090002D21204600F0CCFA21462846FFF77CFDA2
:1010A000012787E70721204600F0C2FAF4E7062F60
:1010B00016D1336A002B43D00021204600F004FBF8
:1010C0008046376AD6F8249003F09BFF03462246F9
:1010D00029464846B8470746404601F0ECFF61E71D
:1010E00029462046FFF780FE00275CE7062F01D047
:1010F000032F15D1B36A2BB30021204600F0E4FA88
:101100008046B76AD6F82C9003F0A0FF034622462B
:1011100029464846B8470746404601F0D0FF41E718
:1011200029462046FFF760FE00273CE700273AE704
:10113000002738E7002736E7002734E7002732E7A3
:10114000002730E700272EE72C21204600F070FA18
:1011500021462846FFF720FD2FE7000070B5054621
:101160000C46164603F0F1FFA37813F0010F42D1AD
:10117000062E40F3818095F8403023B9012385F88D
:101180004030C5E90601E278A37803F0FE0303EBE3
:1011900002236279217901F0FE0101EB022149105D
:1011A0002A69B2EB630F01D0002341E02846FFF724
:1011B000D1FB034600283BD02B6901335A42C3F3CD
:1011C0000E03C2F30E0258BF53422B616B69013309
:1011D0006B612B7A43B36868B21FA11D00F6B4009F
:1011E00000F0F8F9044601462846FFF7AAFE20461B
:1011F00000F0E0F918E003F04302432A0FD003F0B7
:101200000702072A16D003F01302132A1DD003F099
:101210008302832A21D0012B22D0012308E0062259
:101220001649286804F03AF82846FFF7CEFA012359
:10123000184670BD01232B726868FFF71DFB06225C
:101240000F49286804F02AF8EEE700232B720622E3
:101250000C49286804F022F8E6E70023AB62E3E7D4
:101260002179637901EB032149102846FFF772FBCE
:1012700003460028D8D1DBE70023D9E7340000205B
:101280001C0000202400002070B110B50446006846
:1012900004F014F8A06B04F04BF8E06B03F06AFF65
:1012A000204604F045F810BD704730B5C3B0044681
:1012B00001234372FFF789FA03F0AAFF05460FE006
:1012C00062696368D3F8D0389A422BDA2046FFF778
:1012D0001FFD08B900236372637A0BB1237A5BBBED
:1012E000637A6BB3284603F098FF2168284603F021
:1012F00095FFC821284603F093FF0028E6D001A9F6
:101300002068FFF7F9FDB0F1FF3F19D00028DDDDBF
:10131000024601A92046FFF721FF0028D0D1002373
:101320006372CDE703F011FFC4E906010023636196
:101330002046FFF7C2FCC9E72046FFF7ACFCCFE729
:10134000284603F07BFF002363726268D2F8E83816
:10135000013BC2F8E8382046FFF796FF43B030BDA6
:1013600038B504461748FFF709FA04B3164D0FCCF9
:101370000FC50FCC0FC594E80F0085E80F0011488A
:1013800000230363036083600361836103628362FC
:1013900080F8E53880F8E638C0F8F03840F6641296
:1013A000C0F8EC28C0F8E838C0F8F43838BD064C6E
:1013B000064D0FCD0FC40FCD0FC495E80F0084E884
:1013C0000F00DCE708030020BC0B002024C7000846
:1013D00038B504460D46D0F8F00808B103F0A8FF70
:1013E0002846FFF713F9013003F086FFC4F8F00830
:1013F00010B129460AF090FA38BD0160426070478A
:101400000163426370478161C261704700F6B400B6
:10141000704738B50C46FFF7BFFB0546204600F085
:10142000CDF808B1284638BD204600F0C3F8F9E7EA
:1014300070B505460C4616460721204600F0F8F820
:101440003146204600F0E2F821462846FFF7E1FF4A
:1014500070BD38B505460C460A21204600F0E8F874
:101460000021204600F0D2F821462846FFF7D1FFA0
:1014700038BD000090F8E53803B1704710B5044658
:10148000012380F8E438002280F8E52880F8E62877
:101490000146084803F072FEC4F8F40803F07CFE2D
:1014A00002E0012003F0B0FE94F8E438002BF8D1FC
:1014B00010BD00BF690E000890F8E508704770473E
:1014C00010B4436818695A69541C5C61815410BC9B
:1014D0007047F0B443681F695E69002303E0F418A5
:1014E000CD5C3D5501339342F9DB41684B691A44A9
:1014F0004A61F0BC704743685869C0F1F900DB6885
:10150000C01A70472DE9F04704468A4691461E46A8
:10151000099D9DF828809DF82C704FF48C7003F085
:10152000EBFE024600283AD000230370A368023382
:1015300021690B4480F818A0B9F1000F32D0802146
:10154000417606F03F069676B8F1000F02D066F0BD
:101550007F0696761FB1917E41F040019176A16899
:10156000012922DD0899D17604216E42E8B2F6B253
:1015700058BF7042561830762069012806DD28468B
:10158000002D14DB001201311144087602F118011C
:101590009160D3600B441361002353615460104683
:1015A000BDE8F08700214176CBE70321DDE705F1B7
:1015B000FF00E7E708B503F0BBFE08BD0078704701
:1015C00008B503460846D9685A690A44996803F081
:1015D000ADFD08BDF8B58368023304691C4494422C
:1015E00012DC17460E460546182003F085FE03461A
:1015F00040B10122027045608660C46026440661E5
:101600003C1B44611846F8BD0023FBE729B98268FA
:10161000937823F04003937070478268937843F087
:101620004003937070478368987800F03F007047DC
:101630008268937803F0C00301F03F011943917071
:10164000704741688B6802338268D05C0969012960
:1016500003DD13445B7800EB032070478368187840
:101660007047836893F90130002B01DB002070473D
:10167000012070478368587800F07F0070470000B1
:1016800070B582B004460D460E4B00930190FFF7F3
:10169000F1FF60B9002362686946284602F004FB46
:1016A00018B1A26853780133537002B070BD6668F8
:1016B0002046FFF7D6FF034632466946284602F029
:1016C000F3FAEDE73C00002070B582B004460D4609
:1016D000FFF7C4FF0138702800F2EF86DFE810F052
:1016E00071009A00C500EE001901440170019C01CF
:1016F000C701F1011C02460271029B02C402EE0204
:10170000170342036C039603C003ED06ED06ED06D6
:10171000ED06ED06ED06ED06ED06E90312043B04C9
:1017200065049004BB04E60411053C0567059305B8
:10173000ED06ED06ED06ED06BF05CD05D905E5057F
:10174000F205FF050C06ED06ED06ED06ED06ED06CD
:10175000ED06190627063506430651065F066D0697
:10176000ED06ED06ED06ED06ED067B06ED06ED0653
:10177000ED06ED06ED06ED06ED06ED06ED06ED06D1
:10178000ED06ED06ED06ED06ED06ED06ED06ED06C1
:10179000ED06ED06ED06ED06ED06ED06ED06ED06B1
:1017A000ED06ED06ED0684068D0696069F06ED060F
:1017B000A806B106ED06ED06ED06BA06C706D40684
:1017C000E1062046FFF74DFFB0B161684B692B443D
:1017D00001220192009363692269002002F095FAC8
:1017E000064600222169606802F06CFA4119304611
:1017F00002F066FA00F03EBD6168226963694869DB
:1018000000FB055500200190009502F07EFA064687
:1018100000F030BD2046FFF724FFB8B161684B6986
:1018200003EB850301220192009363692269002082
:1018300002F0A4FB064600222169606802F042FA29
:101840004119304602F03CFA00F014BD616822698B
:1018500063694869043005FB00F50020019000959C
:1018600002F08CFB064600F005BD2046FFF7F9FEAE
:10187000B0B161684B692B44012201920093636906
:101880002269002002F0EEFA064600222169606813
:1018900002F018FA4119304602F012FA00F0EABCE0
:1018A000616822696369486900FB05550020019061
:1018B000009502F0D7FA064600F0DCBC2046FFF7A0
:1018C000D0FEB8B161684B6903EB85030122019238
:1018D000009363692269002002F0ECFA06460022B8
:1018E0002169606802F0EEF94119304602F0E8F92A
:1018F00000F0C0BC6168226963694869043005FB77
:1019000000F500200190009502F0D4FA064600F0A0
:10191000B1BC2046FFF7A5FEB8B161684B6903EB87
:10192000450301220192009363692269002002F0BD
:1019300014FA064600222169606802F0C3F94119D1
:10194000304602F0BDF900F095BC61682269636918
:101950004869023005FB00F500200190009502F077
:10196000FCF9064600F086BC2046FFF77AFEC0B1BF
:1019700061684B6905EB85021344012201920093D3
:1019800063692269002002F03EFA064600222169BE
:10199000606802F097F94119304602F091F900F0C1
:1019A00069BC6168226963694869053005FB00F517
:1019B00000200190009502F026FA064600F05ABC7D
:1019C0002046FFF74EFEC0B161684B6905EB85020A
:1019D000134401220192009363692269002002F0FE
:1019E00031FB064600222169606802F06BF941195B
:1019F000304602F065F900F03DBC61682269636918
:101A00004869053005FB00F500200190009502F0C3
:101A100019FB064600F02EBC2046FFF722FEB8B1A7
:101A200061684B6903EBC50301220192009363696E
:101A30002269002002F02AFB064600222169606824
:101A400002F040F94119304602F03AF900F012BCB8
:101A50006168226963694869083005FB00F5002068
:101A60000190009502F012FB064600F003BC2046F0
:101A7000FFF7F7FDB8B161684B6905EB4502134408
:101A800001220192009363692269002002F05AFB4F
:101A9000064600222169606802F014F941193046B7
:101AA00002F00EF9E6E36168226963694869033070
:101AB00005FB00F500200190009502F043FB06466F
:101AC000D8E32046FFF7CDFDC0B161684B6905EB57
:101AD0004500420013440122019200936369226988
:101AE000002002F08AFB064600222169606802F0AD
:101AF000E9F84119304602F0E3F8BBE36168226976
:101B000063694869063005FB00F5002001900095E7
:101B100002F073FB0646ADE32046FFF7A2FDB8B125
:101B200061684B6905EB4502134401220192009361
:101B300063692269002002F0C6FB06460022216983
:101B4000606802F0BFF84119304602F0B9F891E33D
:101B50006168226963694869033005FB00F500206C
:101B60000190009502F0AFFB064683E32046FFF7A5
:101B700078FDC0B161684B6905EB45004200134434
:101B800001220192009363692269002002F0D0FBD8
:101B9000064600222169606802F094F84119304637
:101BA00002F08EF866E3616822696369486906306D
:101BB00005FB00F500200190009502F0B9FB0646F8
:101BC00058E32046FFF74DFDB8B161684B6905EB5E
:101BD0008502134401220192009363692269002067
:101BE00002F021FC064600222169606802F06AF8D2
:101BF0004119304602F064F83CE361682269636988
:101C00004869053005FB00F500200190009502F0C1
:101C10000AFC06462EE32046FFF723FDB0B16168BB
:101C20004B6903EBC50301220192009363692269AA
:101C3000002002F033FC064600222169606802F0B1
:101C400041F84119304602F03BF813E3616822691C
:101C500063694869083005FB00F500200190009594
:101C600002F01CFC064605E32046FFF7FAFCB8B17B
:101C700061684B6905EB85021344012201920093D0
:101C800063692269002002F07BFC0646002221697C
:101C9000606802F017F84119304602F011F8E9E2E5
:101CA0006168226963694869053005FB00F5002019
:101CB0000190009502F064FC0646DBE22046FFF747
:101CC000D0FCB0B161684B6903EBC50301220192FE
:101CD000009363692269002002F07CFC0646002222
:101CE0002169606801F0EEFF4119304601F0E8FF1C
:101CF000C0E26168226963694869083005FB00F544
:101D000000200190009502F065FC0646B2E22046F4
:101D1000FFF7A7FCC0B161684B6905EB45004200C5
:101D2000134401220192009363692269002002F0AA
:101D3000B9FC064600222169606801F0C3FF411921
:101D4000304601F0BDFF95E2616822696369486928
:101D5000063005FB00F500200190009502F0A2FC82
:101D6000064687E22046FFF77CFCB8B161684B6904
:101D7000C5EBC502134401220192009363692269F5
:101D8000002002F005FD064600222169606801F08E
:101D900099FF4119304601F093FF6BE261682269B7
:101DA00063694869073005FB00F500200190009544
:101DB00002F0EEFC06465DE22046FFF752FCB8B1A9
:101DC00061684B69C5EBC50213440122019200937F
:101DD00063692269002002F057FD0646002221694E
:101DE000606801F06FFF4119304601F069FF41E280
:101DF0006168226963694869073005FB00F50020C6
:101E00000190009502F040FD064633E22046FFF7C0
:101E100028FCB8B161684B6905EB850213440122C7
:101E20000192009363692269002002F0A9FD064631
:101E300000222169606801F045FF4119304601F038
:101E40003FFF17E26168226963694869053005FB55
:101E500000F500200190009502F092FD064609E28F
:101E60002046FFF7FEFBB0B161684B6903EB450309
:101E700001220192009363692269002002F097F920
:101E8000064600222169606801F01CFF41193046B6
:101E900001F016FFEEE1616822696369486902306A
:101EA00005FB00F500200190009502F080F9064640
:101EB000E0E12046FFF7D5FBB0B161684B6903EB69
:101EC000C50301220192009363692269002002F098
:101ED00087F8064600222169606801F0F3FE411987
:101EE000304601F0EDFEC5E1616822696369486929
:101EF000083005FB00F500200190009502F070F815
:101F00000646B7E12046FFF7ACFBB0B161684B690C
:101F100003EBC5030122019200936369226900204B
:101F200001F0FAFF064600222169606801F0CAFE4E
:101F30004119304601F0C4FE9CE161682269636981
:101F40004869083005FB00F500200190009501F07C
:101F5000E3FF06468EE12046FFF783FBB8B16168D8
:101F60004B6905EBC502134401220192009363699A
:101F70002269002001F017FF0646002221696068EF
:101F800001F0A0FE4119304601F09AFE72E161684D
:101F9000226963694869093005FB00F5002001905A
:101FA000009501F000FF064664E12046FFF759FB6B
:101FB000C0B161684B6905EB450082001344012202
:101FC0000192009363692269002002F08DF80646B1
:101FD00000222169606801F075FE4119304601F068
:101FE0006FFE47E161682269636948690C3005FB4F
:101FF00000F500200190009502F076F8064639E1E0
:102000002046FFF72EFBC0B161684B6905EB8500E8
:102010004200134401220192009363692269002067
:1020200002F01EF9064600222169606801F04AFEAE
:102030004119304601F044FE1CE161682269636980
:1020400048690A3005FB00F500200190009502F078
:1020500007F906460EE12046FFF703FBC0B16168B1
:102060004B6905EB85004200134401220192009365
:1020700063692269002002F08EF906460022216978
:10208000606801F01FFE4119304601F019FEF1E0D1
:1020900061682269636948690A3005FB00F5002020
:1020A0000190009502F077F90646E3E02046FFF73D
:1020B000D8FAC0B161684B6905EB45008200134452
:1020C00001220192009363692269002002F01FFA45
:1020D000064600222169606801F0F4FD411930468E
:1020E00001F0EEFDC6E061682269636948690C3061
:1020F00005FB00F500200190009502F008FA064665
:10210000B8E02046FFF7ADFAC0B161684B6905EB56
:102110004500820013440122019200936369226901
:10212000002002F08BFA064600222169606801F067
:10213000C9FD4119304601F0C3FD9BE06168226989
:10214000636948690C3005FB00F50020019000959B
:1021500002F074FA06468DE02046FFF782FAC0B11D
:1021600061684B6905EB850042001344012201922E
:10217000009363692269002002F0CFFA064600222C
:102180002169606801F09EFD4119304601F098FD1B
:1021900070E061682269636948690A3005FB00F5EF
:1021A00000200190009502F0B8FA064662E0204651
:1021B000FFF757FAC8B161684B6905EB850205EB7B
:1021C00042021344012201920093636922690020B4
:1021D00002F01CFB064600222169606801F072FDD6
:1021E0004119304601F06CFD44E061682269636981
:1021F00048690B3005FB00F500200190009502F0C6
:1022000005FB064636E02046FFF72BFAC8B16168A9
:102210004B6905EB850205EB420213440122019252
:10222000009363692269002002F06CFB06460022DD
:102230002169606801F046FD4119304601F040FD1A
:1022400018E061682269636948690B3005FB00F595
:1022500000200190009502F055FB06460AE06168F7
:1022600048692269636900FB05550095002002F06A
:10227000BEFB0646304602B070BD616848692269FF
:10228000636900FB05550095002002F000FC06463E
:10229000F0E7616848692269636900FB05550095AC
:1022A000002002F044FC0646E4E761684B69D81C54
:1022B0002269636900FB05F50095002002F087FCA8
:1022C0000646D7E761684B69D81C2269636900FB41
:1022D00005F50095002002F0D7FC0646CAE76168C4
:1022E0004B69581D2269636900FB05F500950020C4
:1022F00002F027FD0646BDE761684B69181D22699B
:10230000636900FB05F50095002002F083FD064699
:10231000B0E761684B6903F108002269636900FB5B
:1023200005F50095002002F085FB0646A2E76168EE
:102330004B6903F108002269636900FB05F500950C
:10234000002002F0C7FB064694E761684B6903F181
:1023500008002269636900FB05F50095002002F082
:1023600009FC064686E761684B6903F10A002269A9
:10237000636900FB05F50095002002F051FC06465C
:1023800078E761684B6903F10A002269636900FB21
:1023900005F50095002002F0A0FC06466AE761689A
:1023A0004B6903F10C002269636900FB05F5009598
:1023B000002002F0F5FC06465CE761684B6903F11A
:1023C0000B002269636900FB05F50095002002F00F
:1023D0004DFD06464EE76168226963690020009062
:1023E00002F07CFE064645E76168226963690020C9
:1023F000009002F0BEFD06463CE761682269636911
:102400000020009002F0DAFD064633E76168226999
:1024100063690020009002F060FD06462AE76168CB
:10242000226963690020009002F077FD064621E7EB
:102430006168226963690020009002F0E4FD0646AD
:1024400018E76168226963690020009002F000FECD
:1024500006460FE761684B69D81C2269636900FB77
:1024600005F50095002001F096FE064602E761683A
:102470004B69D81C2269636900FB05F500950020B3
:1024800001F04AFF0646F5E661684B69581D22696E
:10249000636900FB05F50095002001F0F3FF064697
:1024A000E8E6616848692269636900FB05550095A3
:1024B000002002F0F7FD0646DCE60026DAE6000022
:1024C0000378407803EB0020024B83FB003080113F
:1024D000704700BFD34D6210807800F03F00704716
:1024E0002DE9F00B4669016901297FDDA6F1450759
:1024F0003C46FD174FEAC50CFA004CEA577312EB45
:10250000070843EB05094FEAC90747EA58774FEA3E
:10251000C80C1CEB040B47EB050C4FEA8C0545EA95
:102520009B754FEA8B041BEB04024CEB050334460E
:10253000002E5EDBA710D41943EBE7752F4A82FB10
:102540000632F317C3EB621303EB43031A46002B67
:1025500051DB9610A21B65EBE673023101EBC10162
:1025600001EB0111264C84FB0154C917C1EB640136
:10257000541843EBE175B4F5DF7245F1FF33C168E0
:10258000541843EBE175221945EB0503161943EB8B
:102590000507F90041EA5671F4000F468168641896
:1025A00047EBE1752901220141EA1473121B63EB29
:1025B0000503990041EA927194000F464168621840
:1025C00047EBE1731901140141EA1275A41A65EB96
:1025D0000305A90041EA9471A4000068231841EBA7
:1025E000E07418462146BDE8F00B70470C31013EFF
:1025F0007CE7F41C9EE7DA1CABE700BF1F85EB51BC
:102600006766666610B49C1C94420ADC002203E0F4
:10261000D4180C5D84540132012AF9DD012010BC6C
:1026200070470020FBE710B4DC1C94420ADC002257
:1026300003E0D4180C5D84540132022AF9DD012034
:1026400010BC70470020FBE710B4DC1D94420ADC8C
:10265000002203E0D4180C5D84540132062AF9DD0F
:10266000012010BC70470020FBE700000278407892
:1026700002EB0022044B83FB02139B114FF47A7090
:1026800000FB1320704700BFD34D621008B5FFF761
:1026900017FF08BD08B5FFF71FFF08BDC07800F0A1
:1026A0001F007047007940097047007900F01F0053
:1026B0007047407900F00F007047807900F07F008C
:1026C00070472DE970488BB00646FFF7DFFF019099
:1026D0003046FFF7DFFF02903046FFF7DFFF039041
:1026E0003046FFF7E2FF04903046FFF7E2FF013883
:1026F00005903046FFF7E1FF6430069001A8FFF730
:10270000EFFE4B01440143EAD065241A65EB010555
:10271000AB0043EA9473A200141843EB0105EB00ED
:1027200043EA5473E20014461D463046FFF79EFF0D
:102730000346201845EBE3710BB0BDE8708800003C
:10274000024B836001230371704700BFC801002062
:10275000024B836005230371704700BFF001002026
:10276000024B836020230371704700BF00020020EA
:10277000024B836006230371704700BFF8010020FD
:10278000024B836003230371704700BFB000002039
:10279000024B836004230371704700BFB800002020
:1027A000024B83601F230371704700BFC0000020ED
:1027B000024B836002230371704700BFD0010020E9
:1027C000024B83601E230371704700BFD8010020B5
:1027D000024B836007230371704700BF680000202D
:1027E000024B836008230371704700BF8000002004
:1027F000024B836021230371704700BF88000020D3
:10280000024B836009230371704700BFF80000206A
:10281000024B836015230371704700BF1001002035
:10282000024B83600A230371704700BF0001002040
:10283000024B836022230371704700BF0801002010
:10284000024B83600B230371704700BF1801002007
:10285000024B83600C230371704700BF20010020EE
:10286000024B836023230371704700BF28010020BF
:10287000024B83600D230371704700BF30010020BD
:10288000024B83600E230371704700BF38010020A4
:10289000024B836024230371704700BF4001002076
:1028A000024B83600F230371704700BFD8000020E4
:1028B000024B836010230371704700BFE0000020CB
:1028C000024B836025230371704700BFE80000209E
:1028D000024B836011230371704700BFC8000020C2
:1028E000024B836026230371704700BFD000002095
:1028F000024B836012230371704700BF6001002008
:10290000024B836027230371704700BF68010020DA
:10291000024B836013230371704700BF48010020FE
:10292000024B836028230371704700BF50010020D1
:10293000024B836014230371704700BF58010020CD
:10294000024B83602D230371704700BFB801002044
:10295000024B83603A230371704700BFC00100201F
:10296000024B83602E230371704700BFA00000203C
:10297000024B83603B230371704700BFA800002017
:10298000024B83602F230371704700BFE0010020DA
:10299000024B83603C230371704700BFE8010020B5
:1029A000024B836030230371704700BF8801002011
:1029B000024B83603D230371704700BF90010020EC
:1029C000024B836031230371704700BF98010020E0
:1029D000024B83603E230371704700BFA0010020BB
:1029E000024B836032230371704700BFA8010020AF
:1029F000024B83603F230371704700BFB00100208A
:102A0000024B836033230371704700BF70000020C6
:102A1000024B836040230371704700BF78000020A1
:102A2000024B836066230371704700BF780100206A
:102A3000024B836067230371704700BF9000002042
:102A4000024B836064230371704700BFF0000020D5
:102A5000024B836065230371704700BF980000201C
:102A6000024B836069230371704700BF800100201F
:102A7000024B83606A230371704700BF5800002037
:102A8000024B836071230371704700BF7001002007
:102A9000024B836046230371704700BF6000002033
:102AA00003B1704770B514460D46064601782846B6
:102AB00002F037FB6369012B03DC6369022B0BDC3B
:102AC00070BD3168002905DBC1F30721284602F0FB
:102AD00028FBF2E7FF31F7E73168002905DBC1F396
:102AE0000741284602F01DFBEAE701F57F41FF316F
:102AF000F5E72DE9F04107460C461646984643B9DE
:102B00005569204602F01CFBA84204DA0020BDE80B
:102B1000F0810025F5E74346324621463846FFF767
:102B2000BFFF0120F3E72DE9F04106460D461746A9
:102B300098464BB954690134284602F001FBA04283
:102B400004DA0020BDE8F0810124F5E743463A4667
:102B500029463046FFF7A4FF717B337B0BB101316F
:102B6000C9B2284602F0DDFA0120EBE72DE9F04179
:102B700006460C46174698464BB95569023520461D
:102B800002F0DEFAA84204DA0020BDE8F081022556
:102B9000F5E743463A4621463046FFF781FF317B51
:102BA000204602F0BEFA717B204602F0BAFA0120FC
:102BB000EBE72DE9F04106460D46174698464BB91E
:102BC00054690134284602F0BBFAA04204DA00201E
:102BD000BDE8F0810124F5E743463A4629463046F0
:102BE000FFF75EFF737B317B1944C9B2284602F0C0
:102BF00098FA0120ECE72DE9F04106460C4617460D
:102C000098464BB955690535204602F099FAA84215
:102C100004DA0020BDE8F0810525F5E743463A4691
:102C200021463046FFF73CFFF5686B42E9B2DBB264
:102C300058BF5942C9B2204602F073FA2946002D06
:102C400023DB09124B42C9B2DBB258BF5942C9B2A9
:102C5000204602F066FA2946002D19DB09144B4282
:102C6000C9B2DBB258BF5942C9B2204602F059FA84
:102C70002946002D10DB090E204602F052FA317C65
:102C8000204602F04EFA0120C4E705F1FF01D8E723
:102C900005F57F41FF31E1E705F1FF1101F57F41C6
:102CA000E9E72DE9F04106460C46174698464BB930
:102CB00055690335204602F043FAA84204DA0020A1
:102CC000BDE8F0810325F5E743463A462146304604
:102CD000FFF7E6FE317B204602F023FA717B2046A7
:102CE00002F01FFAB17B204602F01BFA0120E7E751
:102CF00008B5FFF7D6FF08BD2DE9F04106460C46A2
:102D0000174698464BB955690235204602F018FA25
:102D1000A84204DA0020BDE8F0810225F5E7434629
:102D20003A4621463046FFF7BBFE317B204602F093
:102D3000F8F9717B204602F0F4F90120EBE72DE968
:102D4000F04107460D46164698464BB95469013482
:102D5000284602F0F5F9A04204DA0020BDE8F0812F
:102D60000124F5E74346324629463846FFF798FEE8
:102D7000397B284602F0D5F90120EFE72DE9F04133
:102D800007460D46164698464BB954690134284605
:102D900002F0D6F9A04204DA0020BDE8F081012457
:102DA000F5E74346324629463846FFF779FE397B38
:102DB000284602F0B6F90120EFE72DE9F041074679
:102DC0000D46164698464BB954690134284602F020
:102DD000B7F9A04204DA0020BDE8F0810124F5E74C
:102DE0004346324629463846FFF75AFE397B284685
:102DF00002F097F90120EFE72DE9F04107460D4673
:102E0000164698464BB954690134284602F098F9A1
:102E1000A04204DA0020BDE8F0810124F5E7434632
:102E2000324629463846FFF73BFE397B284602F0FA
:102E300078F90120EFE72DE9F04107460D461646E7
:102E400098464BB954690134284602F079F9A042FA
:102E500004DA0020BDE8F0810124F5E7434632465C
:102E600029463846FFF71CFE397B284602F059F9FF
:102E70000120EFE72DE9F04107460D46164698463A
:102E80004BB954690134284602F05AF9A04204DAD9
:102E90000020BDE8F0810124F5E74346324629468B
:102EA0003846FFF7FDFD397B284602F03AF901204C
:102EB000EFE72DE9F04107460D46164698464BB917
:102EC00054690134284602F03BF9A04204DA00209C
:102ED000BDE8F0810124F5E74346324629463846ED
:102EE000FFF7DEFD397B284602F01BF90120EFE7F2
:102EF0002DE9F04107460D46164698464BB95469F0
:102F00000134284602F01CF9A04204DA0020BDE892
:102F1000F0810124F5E74346324629463846FFF75B
:102F2000BFFD397B284602F0FCF80120EFE708B529
:102F300002F0FEF908BD08B502F0FAF908BD08B5BF
:102F400002F0F6F908BD08B502F0F2F908BD08B5BF
:102F500002F0EEF908BD08B502F0EAF908BD08B5BF
:102F600002F0E6F908BD08B502F0E2F908BD08B5BF
:102F700002F0DEF908BD08B502F0DAF908BD08B5BF
:102F800002F0D6F908BD08B502F0D2F908BD08B5BF
:102F900002F0CEF908BD08B502F0CAF908BD08B5BF
:102FA00002F0C6F908BD08B502F0C2F908BD08B5BF
:102FB00002F0BEF908BD08B502F0BAF908BD08B5BF
:102FC00002F0B6F908BD08B502F0B2F908BD08B5BF
:102FD00002F0AEF908BD08B502F0AAF908BD08B5BF
:102FE00002F0A6F908BD08B502F0A2F908BD08B5BF
:102FF00002F09EF908BD08B502F09AF908BD08B5BF
:1030000002F096F908BD08B502F092F908BD08B5BE
:1030100002F08EF908BD08B502F08AF908BD08B5BE
:1030200002F086F908BD08B502F082F908BD08B5BE
:1030300002F07EF908BD08B502F07AF908BD08B5BE
:1030400002F076F908BD08B502F072F908BD08B5BE
:1030500002F06EF908BD08B502F06AF908BD08B5BE
:1030600002F066F908BD08B502F062F908BD08B5BE
:1030700002F05EF908BD08B502F05AF908BD08B5BE
:1030800002F056F908BD08B502F052F908BD08B5BE
:1030900002F04EF908BD08B502F04AF908BD08B5BE
:1030A00002F046F908BD08B502F042F908BD08B5BE
:1030B00002F03EF908BD08B502F03AF908BD08B5BE
:1030C00002F036F908BD08B502F032F908BD08B5BE
:1030D00002F02EF908BD2DE9F04106460C461746D0
:1030E00098464BB955690935204602F029F8A8429F
:1030F00004DA0020BDE8F0810925F5E743463A46A9
:1031000021463046FFF7CCFC317B204602F009F81F
:10311000717B204602F005F8072206F10E012046D9
:1031200002F004F8E5E72DE9F04106460C461746A3
:1031300098464BB955690535204602F001F8A8427A
:1031400004DA0020BDE8F0810525F5E743463A465C
:1031500021463046FFF7A4FC317B204601F0E1FF19
:10316000717B204601F0DDFF032206F10E012046AF
:1031700001F0DCFF0120E5E72DE9F04106460C46B1
:10318000174698464BB955690435204601F0D8FFDB
:10319000A84204DA0020BDE8F0810425F5E74346A3
:1031A0003A4621463046FFF77BFC737B317B19445E
:1031B000C9B2204601F0B5FF032206F10E012046F8
:1031C00001F0B4FF0120E6E72DE9F04106460C4688
:1031D000174698464BB955690835204601F0B0FFAF
:1031E000A84204DA0020BDE8F0810825F5E743464F
:1031F0003A4621463046FFF753FC737B317B194436
:10320000C9B2204601F08DFF072206F10E012046CB
:1032100001F08CFF0120E6E72DE9F04106460C465F
:10322000174698464BB955690435204601F088FF8A
:10323000A84204DA0020BDE8F0810425F5E7434602
:103240003A4621463046FFF72BFC717B337B0BB1AE
:103250000131C9B2204601F064FF032206F10E01DC
:10326000204601F063FF0120E5E72DE9F041064625
:103270000C46174698464BB955690835204601F06B
:103280005FFFA84204DA0020BDE8F0810825F5E7D9
:1032900043463A4621463046FFF702FC717B337BBA
:1032A0000BB10131C9B2204601F03BFF072206F104
:1032B0000E01204601F03AFF0120E5E72DE9F0413B
:1032C00006460C46174698464BB9556908352046C0
:1032D00001F036FFA84204DA0020BDE8F08108259D
:1032E000F5E743463A4621463046FFF7D9FBF568F5
:1032F0006B42E9B2DBB258BF5942C9B2204601F075
:1033000010FF2946002D29DB09124B42C9B2DBB25E
:1033100058BF5942C9B2204601F003FF2946002D8B
:103320001FDB09144B42C9B2DBB258BF5942C9B2C4
:10333000204601F0F6FE2946002D16DB090E204638
:1033400001F0EFFE317C204601F0EBFE032206F196
:103350001101204601F0EAFE0120BEE705F1FF0160
:10336000D2E705F57F41FF31DBE705F1FF1101F5FC
:103370007F41E3E72DE9F04106460C4617469846A3
:103380004BB955690C35204601F0DAFEA84204DA43
:103390000020BDE8F0810C25F5E743463A4621467A
:1033A0003046FFF77DFBF5686B42E9B2DBB258BFF0
:1033B0005942C9B2204601F0B4FE2946002D29DB4E
:1033C00009124B42C9B2DBB258BF5942C9B22046BA
:1033D00001F0A7FE2946002D1FDB09144B42C9B29C
:1033E000DBB258BF5942C9B2204601F09AFE2946C5
:1033F000002D16DB090E204601F093FE317C20469D
:1034000001F08FFE072206F11101204601F08EFE29
:103410000120BEE705F1FF01D2E705F57F41FF314D
:10342000DBE705F1FF1101F57F41E3E72DE9F0410D
:1034300007460D46164698464BB954690634284649
:1034400001F07EFEA04204DA0020BDE8F0810624EF
:10345000F5E74346324629463846FFF722FC032269
:1034600007F10F01284601F061FE0120EDE72DE98B
:10347000F04107460D46164698464BB954690A3442
:10348000284601F05DFEA04204DA0020BDE8F0818C
:103490000A24F5E74346324629463846FFF701FC41
:1034A000072207F10F01284601F040FE0120EDE759
:1034B0002DE9F04107460D46164698464BB954692A
:1034C0000634284601F03CFEA04204DA0020BDE8A4
:1034D000F0810624F5E74346324629463846FFF791
:1034E000E0FB032207F10F01284601F01FFE012037
:1034F000EDE72DE9F04107460D46164698464BB9D3
:1035000054690A34284601F01BFEA04204DA002068
:10351000BDE8F0810A24F5E743463246294638469D
:10352000FFF7BFFB072207F10F01284601F0FEFD60
:103530000120EDE72DE9F04106460C461746984676
:103540004BB955690535204601F0FAFDA84204DA69
:103550000020BDE8F0810525F5E743463A462146BF
:103560003046FFF79DFA042206F10C01204601F0D7
:10357000DDFD317C204601F0D4FD0120E9E72DE995
:10358000F04107460D46164698464BB95469083433
:10359000284601F0D5FDA04204DA0020BDE8F08104
:1035A0000824F5E74346324629463846FFF7C2FF6E
:1035B000032207F11101284601F0B8FD0120EDE7D3
:1035C0002DE9F04107460D46164698464BB9546919
:1035D0000C34284601F0B4FDA04204DA0020BDE816
:1035E000F0810C24F5E74346324629463846FFF77A
:1035F000A1FF072207F11101284601F097FD0120E4
:10360000EDE72DE9F04107460D46164698464BB9C1
:1036100054690534284601F093FDA04204DA0020E5
:10362000BDE8F0810524F5E7434632462946384691
:10363000FFF736FA052207F10C01284601F076FD66
:103640000120EDE72DE9F04107460D461646984664
:103650004BB954690834284601F072FDA04204DADF
:103660000020BDE8F0810824F5E7434632462946AC
:103670003846FFF7C6FF032207F11101284601F083
:1036800055FD0120EDE72DE9F04107460D461646B0
:1036900098464BB954690C34284601F051FDA042BC
:1036A00004DA0020BDE8F0810C24F5E743463246F9
:1036B00029463846FFF7A5FF072207F111012846E2
:1036C00001F034FD0120EDE72DE9F04106460C46FE
:1036D000174698464BB955690635204601F030FD2E
:1036E000A84204DA0020BDE8F0810625F5E743464C
:1036F0003A4621463046FFF7D3F9317B204601F0A8
:1037000010FD022206F10D01204601F00FFD0322FB
:1037100006F10F01204601F009FD0120E3E72DE944
:10372000F04106460C46174698464BB955690A358E
:10373000204601F005FDA84204DA0020BDE8F08132
:103740000A25F5E743463A4621463046FFF7A8F9F1
:10375000317B204601F0E5FC022206F10D012046F6
:1037600001F0E4FC072206F10F01204601F0DEFC27
:103770000120E3E72DE9F04106460C46174698463E
:103780004BB955690735204601F0DAFCA84204DA46
:103790000020BDE8F0810725F5E743463A4621467B
:1037A0003046FFF77DF9317B204601F0BAFC717B92
:1037B000204601F0B6FC022206F10E01204601F07F
:1037C000B5FC032206F11001204601F0AFFC0120F8
:1037D000DFE72DE9F04106460C46174698464BB9FF
:1037E00055690B35204601F0ABFCA84204DA0020F5
:1037F000BDE8F0810B25F5E743463A4621463046C1
:10380000FFF74EF9317B204601F08BFC717B20469F
:1038100001F087FC022206F10E01204601F086FC31
:10382000072206F11001204601F080FC0120DFE7AD
:103830002DE9F04106460C46174698464BB95569A6
:103840000735204601F07CFCA84204DA0020BDE8E0
:10385000F0810725F5E743463A4621463046FFF713
:103860001FF9317B204601F05CFC717B204601F0A2
:1038700058FC022206F10E01204601F057FC0322FB
:1038800006F11001204601F051FC0120DFE72DE98F
:10389000F04106460C46174698464BB955690B351C
:1038A000204601F04DFCA84204DA0020BDE8F0817A
:1038B0000B25F5E743463A4621463046FFF7F0F838
:1038C000317B204601F02DFC717B204601F029FC64
:1038D000022206F10E01204601F028FC072206F123
:1038E0001001204601F022FC0120DFE72DE9F04124
:1038F00006460C46174698464BB95569053520468D
:1039000001F01EFCA84204DA0020BDE8F081052584
:10391000F5E743463A4621463046FFF7C1F8042210
:1039200006F10C01204601F001FC317C204601F03B
:10393000F8FB0120E9E72DE9F04107460D46164660
:1039400098464BB954690834284601F0F9FBA04267
:1039500004DA0020BDE8F0810824F5E7434632464A
:1039600029463846FFF7EBF9072207F10D012846F3
:1039700001F0DCFB0120EDE72DE9F04107460D46A3
:10398000164698464BB954690834284601F0D8FBCE
:10399000A04204DA0020BDE8F0810824F5E74346A0
:1039A000324629463846FFF7E9F9072207F10D01AB
:1039B000284601F0BBFB0120EDE72DE9F041074669
:1039C0000D46164698464BB954690834284601F00E
:1039D000B7FBA04204DA0020BDE8F0810824F5E737
:1039E0004346324629463846FFF7E7F9072207F1F2
:1039F0000D01284601F09AFB0120EDE72DE9F04189
:103A000006460C46174698464BB95569033520467D
:103A100001F096FBA84204DA0020BDE8F0810325FE
:103A2000F5E743463A4621463046FFF739F8022289
:103A300006F10C01204601F079FBB17B204601F034
:103A400070FB0120E9E72DE9F04107460D461646D7
:103A500098464BB954690A34284601F071FBA042DC
:103A600004DA0020BDE8F0810A24F5E74346324637
:103A700029463846FFF7C2FF072207F10F01284603
:103A800001F054FB0120EDE72DE9F04106460C461C
:103A9000174698464BB955690335204601F050FB4F
:103AA000A84204DA0020BDE8F0810325F5E743468B
:103AB0003A4621463046FEF7F3FF022206F10C019A
:103AC000204601F033FBB17B204601F02AFB0120A8
:103AD000E9E72DE9F04107460D46164698464BB9F1
:103AE00054690A34284601F02BFBA04204DA002076
:103AF000BDE8F0810A24F5E74346324629463846B8
:103B0000FFF7C2FF072207F10F01284601F00EFB65
:103B10000120EDE72DE9F04106460C461746984690
:103B20004BB955690535204601F00AFBA84204DA75
:103B30000020BDE8F0810525F5E743463A462146D9
:103B40003046FEF7ADFF042206F10C01204601F0DD
:103B5000EDFA317C204601F0E4FA0120E9E72DE995
:103B6000F04107460D46164698464BB954690C3449
:103B7000284601F0E5FAA04204DA0020BDE8F08111
:103B80000C24F5E74346324629463846FFF7C2FF84
:103B9000072207F11101284601F0C8FA0120EDE7DC
:103BA0002DE9F04107460D46164698464BB9546933
:103BB0000534284601F0C4FAA04204DA0020BDE82A
:103BC000F0810524F5E74346324629463846FEF79C
:103BD00067FF042207F10C01284601F0A7FA012033
:103BE000EDE72DE9F04107460D46164698464BB9DC
:103BF00054690C34284601F0A3FAA04204DA0020EC
:103C0000BDE8F0810C24F5E74346324629463846A4
:103C1000FFF7C6FF072207F11001284601F086FAD8
:103C20000120EDE72DE9F04107460D46164698467E
:103C30004BB954690734284601F082FAA04204DAED
:103C40000020BDE8F0810724F5E7434632462946C7
:103C50003846FEF725FF072207F10C01284601F040
:103C600065FA0120EDE72DE9F04107460D461646BD
:103C700098464BB954690234284601F061FAA042D3
:103C800004DA0020BDE8F0810224F5E7434632461D
:103C900029463846FEF704FF022207F10C012846A8
:103CA00001F044FA0120EDE710B584682468A047CC
:103CB00010BD08B583685B68984708BD0068704709
:103CC000016070478B5C406901280DDD10B48C18D1
:103CD000647803EB0423022803DD11448A7803EBA4
:103CE0000243184610BC7047022803DD11448A784D
:103CF00003EB02431846704710B5044608461146C8
:103D00001A46FFF7DFFF206010BD2DE9F04188461D
:103D10001646069D9DF81C70044658B13CB197B1FB
:103D2000735D03F00102227303F0F0036373204616
:103D3000BDE8F081102001F0DFFA04460028EDD044
:103D4000FEF7FEFCEAE72B46324641462046FFF7E7
:103D5000D3FFD8F814301D44E2E72DE9F04188463E
:103D60001646069D9DF81C70044648B12CB187B1DB
:103D70006B1C725D2273F35C63732046BDE8F081B7
:103D8000102001F0B9FA04460028EFD0FEF7E0FC5D
:103D9000ECE72B46324641462046FFF7ADFFD8F808
:103DA00014301D44E4E72DE9F843894616461F46C2
:103DB000089D9DF82480044690B174B1B8F1000FBD
:103DC00017D06B1C725D2273F35C6373AB1C3A46B5
:103DD000314604F10E00FEF737FC2046BDE8F883BB
:103DE000182001F089FA04460028E6D0FEF7B8FC56
:103DF000E3E72B46324649462046FFF77DFFD9F8D8
:103E000014301D44DDE72DE9F843894615461F4669
:103E1000089E9DF82480044688B16CB1B8F1000F6B
:103E200016D0731CAA5D2273EA5C62733A46294677
:103E300004F10E00FEF7F7FB2046BDE8F8831420DE
:103E400001F05AFA04460028E7D0FEF791FCE4E7B7
:103E500033462A4649462046FFF74EFFD9F814302C
:103E60001E44DEE72DE9F04188461646069D9DF882
:103E70001C70044658B13CB197B1735D03F0030266
:103E8000227303F0F00363732046BDE8F081102035
:103E900001F032FA04460028EDD0FEF771FCEAE7A3
:103EA0002B46324641462046FFF726FFD8F814300D
:103EB0001D44E2E72DE9F843894616461F46089D52
:103EC0009DF824800446A0B184B1B8F1000F19D048
:103ED000735D03F00302227303F0F00363736B1C42
:103EE0003A46314604F10E00FEF79DFB2046BDE840
:103EF000F883142001F000FA04460028E4D0FEF70D
:103F000047FCE1E72B46324649462046FFF7F4FEE0
:103F1000D9F814301D44DBE72DE9F84389461646ED
:103F20001F46089D9DF824800446A0B184B1B8F1D5
:103F3000000F19D0735D03F00302227303F0F00346
:103F400063736B1C3A46314604F10E00FEF77CFBAE
:103F50002046BDE8F883182001F0CEF90446002879
:103F6000E4D0FEF71DFCE1E72B46324649462046E9
:103F7000FFF7C2FED9F814301D44DBE72DE9F84302
:103F8000894616461F46089D9DF824800446A0B128
:103F900084B1B8F1000F19D0735D03F001022273F0
:103FA00003F0F00363736B1C3A46314604F10E00D4
:103FB000FEF739FB2046BDE8F883142001F09CF998
:103FC00004460028E4D0FEF7F3FBE1E72B46324637
:103FD00049462046FFF790FED9F814301D44DBE730
:103FE0002DE9F843894616461F46089D9DF8248012
:103FF0000446A0B184B1B8F1000F19D0735D03F08D
:104000000102227303F0F00363736B1C3A463146DE
:1040100004F10E00FEF718FB2046BDE8F8831820D7
:1040200001F06AF904460028E4D0FEF7C9FBE1E795
:104030002B46324649462046FFF75EFED9F814303B
:104040001D44DBE72DE9F04188461646069D9DF8A4
:104050001C70044638B11CB177B10435735D23740C
:104060002046BDE8F081142001F046F904460028FE
:10407000F1D0FEF7ADFBEEE72B4632464146204637
:10408000FFF73AFED8F814301D44E6E72DE9F8436F
:10409000894616461F46089D9DF82480044680B137
:1040A00064B1B8F1000F15D02B1DF35C23746B1DA8
:1040B0003A46314604F11100FEF7B5FA2046BDE854
:1040C000F883142001F018F904460028E8D0FEF720
:1040D00087FBE5E72B46324649462046FFF70CFEB4
:1040E000D9F814301D44DFE72DE9F8438946164618
:1040F0001F46089D9DF82480044680B164B1B8F144
:10410000000F15D02B1DF35C23746B1D3A4631460E
:1041100004F11100FEF798FA2046BDE8F883142058
:1041200001F0EAF804460028E8D0FEF761FBE5E775
:104130002B46324649462046FFF7DEFDD9F81430BB
:104140001D44DFE72DE9F04188461646069D9DF89F
:104150001C70044660B144B19FB16B1C725D227348
:104160000235F35C6373735DA3732046BDE8F08191
:10417000102001F0C1F804460028ECD0FEF740FB07
:10418000E9E72B46324641462046FFF7B5FDD8F811
:1041900014301D44E1E710B582B000240194049C62
:1041A0000094FFF7CFFF6E23037102B010BD2DE91D
:1041B000F04188461646069D9DF81C70044648B19D
:1041C0002CB187B16B1C725D2273F35C6373204664
:1041D000BDE8F081102001F08FF804460028EFD0F0
:1041E000FEF716FBECE72B46324641462046FFF72A
:1041F00083FDD8F814301D44E4E72DE9F8438946DF
:1042000016461F46089D9DF824800446A8B18CB12F
:10421000B8F1000F1AD06A1C735D2373AB1CB25C3B
:104220006273F35CA373EB1C3A46314604F10F0052
:10423000FEF7F9F92046BDE8F883142001F05CF898
:1042400004460028E3D0FEF7EBFAE0E72B463246BF
:1042500049462046FFF750FDD9F814301D44DAE7EF
:104260002DE9F843894616461F46089D9DF824808F
:104270000446A8B18CB1B8F1000F1AD06A1C735D66
:104280002373AB1CB25C6273F35CA373EB1C3A4602
:10429000314604F10F00FEF7D7F92046BDE8F88358
:1042A000182001F029F804460028E3D0FEF7C0FAF0
:1042B000E0E72B46324649462046FFF71DFDD9F878
:1042C00014301D44DAE72DE9F04188461646069D74
:1042D0009DF81C70044660B144B19FB16B1C725DC7
:1042E00022730235F35C6373735DA3732046BDE8EC
:1042F000F081102001F000F804460028ECD0FEF711
:104300009FFAE9E72B46324641462046FFF7F4FC88
:10431000D8F814301D44E1E710B582B000240194B0
:10432000049C0094FFF7CFFF6F23037102B010BD10
:104330002DE9F843894616461F46089D9DF82480BE
:104340000446A8B18CB1B8F1000F1AD06A1C735D95
:104350002373AB1CB25C6273F35CA373EB1C3A4631
:10436000314604F10F00FEF75EF92046BDE8F88300
:10437000142000F0C1FF04460028E3D0FEF768FADD
:10438000E0E72B46324649462046FFF7B5FCD9F810
:1043900014301D44DAE72DE9F843894616461F46D6
:1043A000089D9DF824800446A8B18CB1B8F1000F97
:1043B0001AD06A1C735D2373AB1CB25C6273F35C2E
:1043C000A373EB1C3A46314604F10F00FEF73CF9AB
:1043D0002046BDE8F883182000F08EFF0446002830
:1043E000E3D0FEF73DFAE0E72B4632464946204649
:1043F000FFF782FCD9F814301D44DAE7F8B50F4610
:1044000016461D46044640B114B12046FEF730FA68
:104410002760E66025742046F8BD1421012000F0D5
:1044200075FF0446F0E72DE9F04188461646069DE3
:104430009DF81C70044690B174B1CFB16B1C725DD5
:104440002273AA1CF35C6373EB1CB25CA273043589
:10445000F35CE373735D23742046BDE8F0811420A0
:1044600000F04AFF04460028E6D0FEF701FAE3E731
:104470002B46324641462046FFF73EFCD8F8143022
:104480001D44DBE710B582B000240194049C009425
:10449000FFF7C9FF7023037102B010BD2DE9F84387
:1044A000894616461F46089D9DF824800446D8B1CB
:1044B000BCB1B8F1000F20D06A1C735D2373AB1C34
:1044C000B25C6273EA1CF35CA3732B1DB25CE273F3
:1044D000F35C23746B1D3A46314604F11100FEF77C
:1044E000A2F82046BDE8F883142000F005FF04463A
:1044F0000028DDD0FEF7C4F9DAE72B4632464946FC
:104500002046FFF7F9FBD9F814301D44D4E72DE914
:10451000F843894616461F46089D9DF824800446A8
:10452000D8B1BCB1B8F1000F20D06A1C735D237301
:10453000AB1CB25C6273EA1CF35CA3732B1DB25C10
:10454000E273F35C23746B1D3A46314604F11100AB
:10455000FEF77AF82046BDE8F883182000F0CCFE7C
:1045600004460028DDD0FEF793F9DAE72B46324601
:1045700049462046FFF7C0FBD9F814301D44D4E764
:104580002DE9F04188461646069C9DF81C700546AC
:1045900018B1E5B157B1002317E0142000F0ACFECC
:1045A00005460028F5D0FEF77BF9F2E723463246B0
:1045B00041462846FFF7A0FBD8F814301C44EAE730
:1045C000315DEA18117301330134042BF8DD2846FC
:1045D000BDE8F0812DE9F843894616461F46089C40
:1045E0009DF82480054628B12DB3B8F1000F0AD0FC
:1045F000002317E0142000F07FFE05460028F3D0CA
:10460000FEF756F9F0E72346324649462846FFF7BB
:1046100073FBD9F814301C44EAE7315DEA181173D2
:1046200001330134042BF8DD23463A46314605F1C7
:104630001100FDF7F8FF2846BDE8F8832DE9F8439F
:10464000894616461F46089C9DF82480054628B1D9
:104650002DB3B8F1000F0AD0002317E0182000F0A6
:104660004BFE05460028F3D0FEF72AF9F0E7234673
:10467000324649462846FFF73FFBD9F814301C4420
:10468000EAE7315DEA18117301330134042BF8DDD8
:1046900023463A46314605F11100FDF7D5FF28467D
:1046A000BDE8F8832DE9F84317461E46089D9DF89E
:1046B00024905A1B4B6906339A422CDB04468846E9
:1046C000B0B194B1B9F1000F1BD07B5D23736B1CAB
:1046D0003246394604F10D00FDF794FFEB1C3246DB
:1046E000394604F10F00FDF79EFF2046BDE8F88330
:1046F000142000F001FE04460028E2D0FEF7E8F89E
:10470000DFE72B463A4641462046FFF7F5FAD8F850
:1047100014301D44D9E70024E7E72DE9F843174694
:104720001E46089D9DF824905A1B4B6906339A42F9
:104730002CDB04468846B0B194B1B9F1000F1BD010
:104740007B5D23736B1C3246394604F10D00FDF787
:1047500059FFEB1C3246394604F10F00FDF774FF98
:104760002046BDE8F883182000F0C6FD0446002866
:10477000E2D0FEF7B5F8DFE72B463A464146204641
:10478000FFF7BAFAD8F814301D44D9E70024E7E758
:104790002DE9F84316461F46089D9DF824905A1BA4
:1047A0004B6907339A422FDB04468846C8B1ACB147
:1047B000B9F1000F1ED06B1C725D2273F35C637342
:1047C000AB1C3A46314604F10E00FDF71BFF2B1DD2
:1047D0003A46314604F11000FDF725FF2046BDE8BA
:1047E000F883142000F088FD04460028DFD0FEF78F
:1047F0007FF8DCE72B46324641462046FFF77CFA3D
:10480000D8F814301D44D6E70024E7E72DE9F84333
:1048100016461F46089D9DF824905A1B4B69073386
:104820009A422FDB04468846C8B1ACB1B9F1000FFB
:104830001ED06B1C725D2273F35C6373AB1C3A4633
:10484000314604F10E00FDF7DDFE2B1D3A463146E0
:1048500004F11000FDF7F8FE2046BDE8F8831820AB
:1048600000F04AFD04460028DFD0FEF749F8DCE7F7
:104870002B46324641462046FFF73EFAD8F8143020
:104880001D44D6E70024E7E72DE9F84316461F4606
:10489000089D9DF824905A1B4B6907339A422FDBE1
:1048A00004468846C8B1ACB1B9F1000F1ED06B1CEC
:1048B000725D2273F35C6373AB1C3A46314604F1BC
:1048C0000E00FDF79FFE2B1D3A46314604F1100005
:1048D000FDF7A9FE2046BDE8F883142000F00CFD8A
:1048E00004460028DFD0FEF713F8DCE72B463246FB
:1048F00041462046FFF700FAD8F814301D44D6E7A9
:104900000024E7E72DE9F84316461F46089D9DF869
:1049100024905A1B4B6907339A422FDB0446884682
:10492000C8B1ACB1B9F1000F1ED06B1C725D22731F
:10493000F35C6373AB1C3A46314604F10E00FDF79D
:1049400061FE2B1D3A46314604F11000FDF77CFE56
:104950002046BDE8F883182000F0CEFC044600286D
:10496000DFD0FDF7DDFFDCE72B463246414620462F
:10497000FFF7C2F9D8F814301D44D6E70024E7E762
:104980002DE9F0411646069D9DF81C805B1B4A6987
:104990000532934229DB04460F46A0B184B1B8F139
:1049A000000F19D06B1C725D2273AA1CF35C637339
:1049B000EB1CB25CA2730435F35CE373735D237488
:1049C0002046BDE8F081142000F096FC0446002843
:1049D000E4D0FDF7ADFFE1E72B46324639462046ED
:1049E000FFF78AF97B691D44DCE70024E8E7F8B5A6
:1049F0001746069D5B1B4A690132934218DB044649
:104A00000E4660B14CB12B463A4631462046FFF780
:104A100073F973691D447B5D23732046F8BD102034
:104A200000F06AFC04460028ECD0FDF789FFE9E7B6
:104A30000024F2E72DE9F04117469846069D5B1BDE
:104A40004A690132934220DB04460E46A0B184B18C
:104A50002B463A4631462046FFF74EF973692B4400
:104A6000FA5C227301334246394604F10D00FDF72A
:104A7000EBFD2046BDE8F081142000F03DFC04462B
:104A80000028E4D0FDF764FFE1E70024F1E7F8B582
:104A90001746069D5B1B4A690132934218DB0446A8
:104AA0000E4660B14CB12B463A4631462046FFF7E0
:104AB00023F973691D447B5D23732046F8BD1020E4
:104AC00000F01AFC04460028ECD0FDF749FFE9E7A6
:104AD0000024F2E72DE9F04117469846069D5B1B3E
:104AE0004A690132934220DB04460E46A0B184B1EC
:104AF0002B463A4631462046FFF7FEF873692B44B1
:104B0000FA5C227301334246394604F10D00FDF789
:104B10009BFD2046BDE8F081142000F0EDFB04462B
:104B20000028E4D0FDF724FFE1E70024F1E7F8B521
:104B30001746069D5B1B4A690132934218DB044607
:104B40000E4660B14CB12B463A4631462046FFF73F
:104B5000D3F873691D447B5D23732046F8BD102094
:104B600000F0CAFB04460028ECD0FDF709FFE9E796
:104B70000024F2E72DE9F04117469846069D5B1B9D
:104B80004A690832934220DB04460E46A0B184B144
:104B90002B463A4631462046FFF7AEF873692B4460
:104BA000FA5C227301334246394604F10D00FDF7E9
:104BB0004BFD2046BDE8F081142000F09DFB04462B
:104BC0000028E4D0FDF7E4FEE1E70024F1E7F8B5C2
:104BD0001546069E9B1B4A69033293421EDB044620
:104BE0000F4690B17CB133462A4639462046FFF73E
:104BF00083F87B6933445A1CE95C21730233AA5C55
:104C00006273EB5CA3732046F8BD102000F074FBC8
:104C100004460028E6D0FDF7C3FEE3E70024F2E7F0
:104C20002DE9F04115461F46069E9A1B4B690A3333
:104C30009A4227DB04468846D8B1BCB133462A469F
:104C400041462046FFF758F8D8F814303344591C31
:104C5000EA5C22739A1C695C6173AA5CA2730333D9
:104C60003A46294604F10F00FDF7EEFC2046BDE868
:104C7000F081182000F040FB04460028DDD0FDF74D
:104C800097FEDAE70024F1E7F8B51546069E9B1B70
:104C90004A69033293421EDB04460F4690B17CB151
:104CA00033462A4639462046FFF726F87B693344C7
:104CB0005A1CE95C21730233AA5C6273EB5CA37338
:104CC0002046F8BD102000F017FB04460028E6D06F
:104CD000FDF776FEE3E70024F2E72DE9F041154603
:104CE0001F46069E9A1B4B690A339A4227DB0446ED
:104CF0008846D8B1BCB133462A4641462046FEF725
:104D0000FBFFD8F814303344591CEA5C22739A1C18
:104D1000695C6173AA5CA27303333A46294604F1C5
:104D20000F00FDF791FC2046BDE8F081182000F04F
:104D3000E3FA04460028DDD0FDF74AFEDAE7002456
:104D4000F1E7F8B51546069E9B1B4A69053293426A
:104D500024DB04460F46C0B1ACB133462A4639467F
:104D60002046FEF7C9FF7B6933445A1CE95C217376
:104D7000991CAA5C6273DA1C695CA1730433AA5C97
:104D8000E273EB5C23742046F8BD142000F0B4FA03
:104D900004460028E0D0FDF723FEDDE70024F2E71B
:104DA0002DE9F04115461F46069E9A1B4B690A33B2
:104DB0009A422DDB0446884608B3ECB133462A46B6
:104DC00041462046FEF798FFD8F814303344591C6A
:104DD000EA5C22739A1C695C6173D91CAA5CA27399
:104DE0001A1D695CE173AA5C227405333A462946B0
:104DF00004F11100FDF728FC2046BDE8F0811820E1
:104E000000F07AFA04460028D7D0FDF7F1FDD4E788
:104E10000024F1E7F8B51546069E9B1B4A6904324B
:104E2000934221DB04460F46A8B194B133462A468B
:104E300039462046FEF760FF7B693344591CEA5C23
:104E400022739A1C695C61730333AA5CA273EB5CE6
:104E5000E3732046F8BD102000F04EFA0446002807
:104E6000E3D0FDF7CDFDE0E70024F2E72DE9F041C6
:104E700015461F46069E9A1B4B690B339A422ADB46
:104E800004468846F0B1D4B133462A46414620460E
:104E9000FEF732FFD8F8143033445A1CE95C217312
:104EA000991CAA5C6273DA1C695CA173AA5CE27348
:104EB00004333A46294604F11000FDF7C5FB2046AD
:104EC000BDE8F081182000F017FA04460028DAD077
:104ED000FDF79EFDD7E70024F1E7F8B51746069EDB
:104EE0009B1B4A69934214DB04460D4640B12CB12A
:104EF00033463A4629462046FEF7FEFE2046F8BDD8
:104F00000C2000F0F9F904460028F0D0FDF788FDE8
:104F1000EDE70024F2E70C3070472DE9F0419046B0
:104F20001F46069D5A1B4B6907339A421DDB0446F8
:104F30000E4688B16CB12B46424631462046FEF7FC
:104F4000DBFE73692B443A46414604F10C00FDF741
:104F50007BFB2046BDE8F081142000F0CDF904462B
:104F60000028E7D0FDF764FDE4E70024F1E7007BCB
:104F70007047F8B51746069D5B1B4A69013293429C
:104F800018DB04460E4660B14CB12B463A4631461A
:104F90002046FEF7B1FE73691D447B5D23732046F6
:104FA000F8BD102000F0A8F904460028ECD0FDF769
:104FB00047FDE9E70024F2E7007B7047F8B51746A4
:104FC000069D5B1B4A690132934218DB04460E467C
:104FD00060B14CB12B463A4631462046FEF78CFE76
:104FE00073691D447B5D23732046F8BD102000F0DB
:104FF00083F904460028ECD0FDF72AFDE9E70024F8
:10500000F2E7007B7047F8B51746069D5B1B4A69BF
:105010000132934218DB04460E4660B14CB12B4678
:105020003A4631462046FEF767FE73691D447B5DB4
:1050300023732046F8BD102000F05EF904460028D6
:10504000ECD0FDF70DFDE9E70024F2E70C307047E6
:105050002DE9F04190461F46069D5A1B4B690133CE
:105060009A421DDB04460E4688B16CB12B4642467F
:1050700031462046FEF740FE73692B443A464146CE
:1050800004F10C00FDF7BEFA2046BDE8F0811020C7
:1050900000F032F904460028E7D0FDF7E9FCE4E728
:1050A0000024F1E770B50E461546044668B154B1C8
:1050B000049B2A4631462046FEF71EFE7369049A79
:1050C0001344EB5C2373204670BD102000F014F9EC
:1050D00004460028EBD0FDF7D3FCE8E7F8B5174607
:1050E000069D5B1B4A690132934218DB04460E465B
:1050F00060B14CB12B463A4631462046FEF7FCFDE6
:1051000073691D447B5D23732046F8BD102000F0B9
:10511000F3F804460028ECD0FDF7BAFCE9E70024D8
:10512000F2E708B503689B68984708BD08B50368AF
:10513000DB68984708BD08B503681B69984708BD38
:1051400008B503689B69984708BD08B502F056FB8F
:10515000002108BD08B50146002006F0CEFA08BDC2
:1051600008B54FF0FF3106F0DBFA08BD08B506F0D0
:105170000FFB08BD08B506F039FB08BD70B5064643
:105180000D461446102000F0B7F8034610B1066033
:1051900045600473184670BD70B586B00446037B45
:1051A0008BB90F4B0193036802930023ADF80C30C9
:1051B00004934FF400730593416801A806F075FA53
:1051C000A06006B070BD01AD064E0FCE0FC53368AE
:1051D0002B60214601A806F068FAA060F1E700BF45
:1051E0007CC70008E8C6000808B500F0A1F8002058
:1051F00006F075FA08BD10B5044603684068984784
:105200002046FFF7F1FF10BD08B506F06DFA08BDA6
:1052100008B5042000F070F808BD70477047000022
:1052200008B5054B186800F0ADFD012801D000203D
:1052300008BD4FF0FF30FBE7643B002008B500F0ED
:1052400077F808BD08B5082000F056F808BD70478B
:1052500008B5082000F050F84FF0FF33036008BD98
:1052600008B5064B1B683BB9044B01221A60FFF7D7
:10527000EFFF0023036008BD0020FCE7000C0020C6
:1052800008B5054801F036FD034608B1184608BDCB
:105290004FF0FF33FAE700BF5002002010B514466C
:1052A000FF2392B2044804F04BFF08B9204610BD1A
:1052B0004FF0FF30FBE700BFA83C002010B50446CC
:1052C0004FF0FF330360054B00221A600A20FFF7FE
:1052D0009BFF204600F02CF810BD00BF000C002002
:1052E00008B5034B1B6813B1024A1068984708BD04
:1052F000040C0020080C002010B500F079F80446DA
:1053000008B1204610BDFFF7EBFFFAE738B501FB07
:1053100000F5284600F06CF8044630B12A4600211A
:10532000204606F0D9FA204638BDFFF7D9FFF5E749
:1053300008B500F0EBF808BD124A12F0070F1ED0B6
:10534000D11D21F00701C1F5205313440A460E4830
:105350000260002141601344083B23F007030B481F
:10536000036059601960991A51601360084B196005
:10537000084B1960084B4FF000421A6070474FF419
:105380002053E4E7100C00201C3400200C0C0020FB
:1053900018340020143400201034002010B4124BB4
:1053A0001A6882421AD359685C18844203D1406853
:1053B00001445960184641684418A24212D10B4C6E
:1053C0002468A2420CD05268114441601A681268E5
:1053D0000260984200D0186010BC70471346DFE7A7
:1053E0000460F6E70260F4E71C3400200C0C002097
:1053F00070B5044601F06CF83F4B1B68A3B13F4BFE
:105400001B681C4213D001F0F7F8002605F091F953
:1054100016F0070F6ED04FF0500383F31188BFF3DF
:105420006F8FBFF34F8FFEE7FFF786FFE7E794B17B
:10543000083414F0070F0ED024F00704083404F0E9
:10544000070343B14FF0500383F31188BFF36F8F0D
:10545000BFF34F8FFEE734B1294B1B68A34206D33D
:10546000284B1D6809E001F0C7F80026CEE701F0DF
:10547000C3F80026CAE72B4615466A68A24202D244
:105480002A68002AF7D11C4A1268AA4214D01E6862
:1054900008362A681A606B681B1B102B14D9281950
:1054A00010F0070F0CD04FF0500383F31188BFF3B7
:1054B0006F8FBFF34F8FFEE701F09EF80026A5E740
:1054C00043606C60FFF76AFF6A680D490B689B1ABE
:1054D0000B600D4909688B4201D20B490B60074BE9
:1054E0001B6813436B6000232B6001F085F8002ECE
:1054F0008ED18BE7304670BD0C0C0020103400209C
:10550000143400201C3400201834002080B338B537
:105510000446A0F1080550F8042C164909680A420F
:1055200008D14FF0500383F31188BFF36F8FBFF39F
:105530004F8FFEE750F8080C40B14FF0500383F353
:105540001188BFF36F8FBFF34F8FFEE722EA01028E
:1055500044F8042C00F0BCFF54F8041C064A1368FD
:105560000B4413602846FFF719FF01F045F838BDDA
:10557000704700BF103400201434002082B0002394
:1055800001930D4B1B68B3F1FF3F08D04FF0500360
:1055900083F31188BFF36F8FBFF34F8FFEE74FF098
:1055A000500383F31188BFF36F8FBFF34F8F019BBD
:1055B000002BFCD002B070470802002006480068AB
:1055C000006880F3088862B661B6BFF34F8FBFF3FF
:1055D0006F8F00DF00BF000008ED00E04FF0807328
:1055E00040F8043C21F0010140F8081C034B40F84E
:1055F0000C3C40F8202C4038704700BF7D55000817
:10560000074B19680868B0E8F00F80F30988BFF30A
:105610006F8F4FF0000080F311884EF00D0E704731
:105620002C3400204FF0500383F31188BFF36F8FA9
:10563000BFF34F8F0A4A136801331360012B00D068
:105640007047084B1B6813F0FF0FF9D04FF0500361
:1056500083F31188BFF36F8FBFF34F8FFEE700BF57
:105660000802002004ED00E0094B1B6843B94FF02D
:10567000500383F31188BFF36F8FBFF34F8FFEE7A3
:10568000013B034A13600BB983F31188704700BFD5
:1056900008020020000000000000000000000000E0
:1056A000EFF30980BFF36F8F0D4B1A6820E9F00FFD
:1056B00010602DE908404FF0500080F3118801F090
:1056C0003BF84FF0000080F31188BDE808401968EE
:1056D0000868B0E8F00F80F30988BFF36F8F704758
:1056E0002C34002008B54FF0500383F31188BFF32A
:1056F0006F8FBFF34F8F00F0F3FE18B1034B4FF0E5
:1057000080521A60002383F3118808BD04ED00E085
:10571000084A0023136008490B60084B1B680849BE
:10572000A1FB03139B09013B06490B600723136090
:10573000704700BF10E000E018E000E080020020A9
:10574000D34D621014E000E010B582B0274B1A78F8
:10575000D2B20192FF221A701B78DBB28DF80330AF
:105760009DF8033003F05003214A1370214B0722A8
:105770001A6009E01F4A1368013B13609DF803306B
:105780005B00DBB28DF803309DF8033013F0800F1F
:10579000F0D1184B1B68032B08D04FF0500383F354
:1057A0001188BFF36F8FBFF34F8FFEE71B0203F427
:1057B000E063104A1360019BDBB20C4A13700E4B7E
:1057C0001A6842F470021A601A6842F070421A6055
:1057D000FFF79EFF0024094B1C60FFF7EFFE00F06F
:1057E000ABFFFFF7CBFE204602B010BD00E400E0A7
:1057F000243400202834002020ED00E0080200209E
:10580000EFF305830F2B0FD9104A9B5CDBB2104AD4
:1058100012789A4208D94FF0500383F31188BFF3EE
:105820006F8FBFF34F8FFEE70A4B1B6803F4E063F3
:10583000094A1268934208D94FF0500383F3118844
:10584000BFF36F8FBFF34F8FFEE77047F0E300E0C9
:10585000243400200CED00E02834002000F108037F
:1058600043604FF0FF328260C36003610023036036
:10587000704700230361704743684B609A688A60F1
:105880009A6851609960086103680133036070474A
:1058900030B40D68B5F1FF3F02D000F1080202E01C
:1058A000026904E01A4653681C68AC42FAD953688E
:1058B0004B6099608A60516008610368013303603E
:1058C00030BC7047036942688168916082684168B2
:1058D00051605A68824206D0002202611A68013A79
:1058E0001A601868704782685A60F5E7436A23B106
:1058F000036B1868C0F1070070470020704710B5AF
:105900000446FFF78FFEA26BE36B9A4204D000249B
:10591000FFF7AAFE204610BD0124F9E710B50446A2
:10592000FFF780FEA36B23B10024FFF79DFE204606
:1059300010BD0124F9E770B504461646856B026C6C
:105940005AB903681BB100200135A56370BD80689A
:1059500001F072F80023A360F6E76EB9406805F025
:10596000B0FF226C636813446360A268934219D34A
:10597000236863600020E7E7C06805F0A2FF226C9F
:105980005242E3681344E36021688B4202D2A36869
:105990001A44E260022E01D00020D5E725B1013D76
:1059A0000020D1E70020CFE70020CDE7026C72B1E4
:1059B00010B5C3681344C3608468A34201D303686D
:1059C000C3600C46C168204605F07BFF10BD7047E0
:1059D00038B50546FFF726FE95F8454064B203E06A
:1059E00000F0B8FF013C64B2002C08DD6B6A33B1F3
:1059F00005F1240000F01CFF0028F3D0F0E7FF239E
:105A000085F84530FFF730FEFFF70CFE95F844406F
:105A100064B203E000F09EFF013C64B2002C08DD9C
:105A20002B6933B105F1100000F002FF0028F3D01C
:105A3000F0E7FF2385F84430FFF716FE38BD00007D
:105A400038B540B94FF0500383F31188BFF36F8F1F
:105A5000BFF34F8FFEE704460D46FFF7E3FD2168D5
:105A6000E26B236C03FB0210A0600020A063616066
:105A7000013A02FB0313E360FF2384F8443084F807
:105A80004530A5B923691BB9FFF7EEFD012038BDEC
:105A900004F1100000F0CCFE0028F5D0084B4FF0C8
:105AA00080521A60BFF34F8FBFF36F8FECE704F1A2
:105AB0001000FFF7D3FE04F12400FFF7CFFEE3E769
:105AC00004ED00E010B5029B0C4639B11A60D863B2
:105AD0001C6401211846FFF7B3FF10BD1B60F6E7F9
