:020000040804EE
:10000000FFFF012051A60508A1CA0408A5CA0408DB
:10001000A7CA0408A9CA0408ABCA04080000000063
:10002000000000000000000000000000214D050855
:10003000ADCA040800000000B14D0508AFCA0408AD
:10004000A1A60508A1A60508A1A60508A1A6050860
:10005000A1A60508A1A60508A1A60508A1A6050850
:10006000A1A60508A1A60508A1A60508A1A6050840
:10007000A1A60508A1A60508A1A60508A1A6050830
:10008000A1A60508A1A60508A1A60508C9CA0408D5
:10009000C5CA0408C1CA0408B5CA0408CDCA040800
:1000A000A1A60508D5CA0408A1A60508A1A60508A9
:1000B000A1A60508A1A60508A1A60508A1A60508F0
:1000C000A1A60508A1A60508A1A60508A1A60508E0
:1000D000A1A60508F5CA0408A1A60508A1A6050859
:1000E000A1A60508A1A60508A1A60508A1A60508C0
:1000F00001CB040841CB0408A1A60508A1A6050868
:10010000A1A60508A1A60508A1A60508A1A605089F
:10011000A1A60508A1A605084DCB040869CB0408D3
:10012000A1A60508A1A60508A1A60508A1A605087F
:10013000A1A6050885CB0408A1A60508A1A6050867
:10014000A1A60508A1A60508A1A60508A1A605085F
:10015000A1A60508A1A60508A1A6050809AC0408E2
:10016000A1A60508A1A60508A1A60508A1A605083F
:10017000A1A60508A1A60508A1A605080000000083
:08018000A1A60508A1A60508CF
:1001900010B5054C237833B9044B13B10448AFF3C1
:1001A00000800123237010BDF8040020000000002F
:1001B000A4CD05080C4B43B10C480D4910B5AFF365
:1001C00000800C48036823B910BD0A48036833B99E
:1001D0007047094B002BF7D0BDE810401847064B7D
:1001E000002BF5D0184700BF00000000A4CD050883
:1001F000FC040020F40400200000000053B94AB9B8
:10020000002908BF00281CBF4FF0FF314FF0FF301E
:1002100000F07AB9ADF1080C6DE904CE00F006F8F3
:10022000DDF804E0DDE9022304B070472DE9F04772
:100230008C460D460446089E002B51D18A42174633
:100240006DD9B2FA82FEBEF1000F0BD0CEF1200CB8
:1002500001FA0EF520FA0CFC02FA0EF74CEA050C36
:1002600000FA0EF44FEA174A250CBCFBFAF81FFA05
:1002700087F90AFB18CC45EA0C4508FB09F3AB42A9
:100280000AD9ED1908F1FF3280F02381AB4240F228
:100290002081A8F102083D44ED1AA4B2B5FBFAF0A2
:1002A0000AFB105544EA054400FB09F9A14509D9A8
:1002B000E41900F1FF3380F00A81A14540F2078183
:1002C00002383C44A4EB090440EA08400021002E17
:1002D00061D024FA0EF4002334607360BDE8F08727
:1002E0008B4207D9002E54D0002186E82100084611
:1002F000BDE8F087B3FA83F1002940F08E80AB426D
:1003000002D3824200F2FA80841A65EB03050120D1
:10031000AC46002E3FD086E81010BDE8F08712B939
:100320000127B7FBF2F7B7FA87FEBEF1000F34D111
:10033000EB1B3A0C1FFA87FC0121B3FBF2F8250CEA
:1003400002FB183345EA03450CFB08F3AB4207D91F
:10035000ED1908F1FF3002D2AB4200F2D1808046A5
:10036000ED1AA3B2B5FBF2F002FB105543EA0544C7
:100370000CFB00FCA44507D9E41900F1FF3302D2BD
:10038000A44500F2B8801846A4EB0C0440EA0840EB
:100390009DE731463046BDE8F087CEF1200405FAEE
:1003A0000EF307FA0EF720FA04F83A0C25FA04F4D3
:1003B00048EA0308B4FBF2F14FEA184502FB114486
:1003C0001FFA87FC45EA044501FB0CF3AB4200FA37
:1003D0000EF409D9ED1901F1FF3080F08A80AB42AB
:1003E00040F2878002393D44EB1A1FFA88F5B3FBCF
:1003F000F2F002FB103345EA034500FB0CF3AB427D
:1004000007D9ED1900F1FF386FD2AB426DD9023830
:100410003D44EB1A40EA01418FE7C1F1200722FA7F
:1004200007F88B4005FA01F448EA030320FA07FEB7
:100430004FEA134CFD404EEA040EB5FBFCF94FEABF
:100440001E440CFB19551FFA83F844EA054509FBC5
:1004500008F4AC4202FA01F200FA01FA08D9ED18E8
:1004600009F1FF3043D2AC4241D9A9F102091D4440
:100470002D1B1FFA8EFEB5FBFCF00CFB10554EEA4F
:10048000054400FB08F8A04507D9E41800F1FF3542
:1004900029D2A04527D902381C4440EA0940A4EBE0
:1004A0000804A0FB02894C45C6464D4615D312D020
:1004B00056B1BAEB0E0364EB050404FA07F7CB4020
:1004C0001F43CC40376074600021BDE8F0871846B8
:1004D000F8E69046E0E6C245EAD2B8EB020E69EBD8
:1004E00003050138E4E72846D7E7404691E781460F
:1004F000BEE7014678E702383C4445E7084608E78E
:10050000A8F102083D442BE7704700BF10F8012B0B
:1005100011F8013B012A28BF9A42F7D0D01A704740
:10052000034613F8012B002AFBD1181A0138704733
:1005300001F0FF01102A2BDB10F0070F08D010F894
:10054000013B013A8B422DD010F0070F42B3F6D198
:10055000F0B441EA012141EA014122F007047FF0B1
:1005600000070023F0E80256083C85EA010586EA08
:10057000010685FA47F5A3FA87F586FA47F6A5FA44
:1005800087F68EB9EED1F0BC01F0FF0102F0070250
:1005900032B110F8013B013A83EA010313B1F8D1FB
:1005A0000020704701387047002D06BF35460338DC
:1005B000073815F0010F07D1013015F4807F02BF15
:1005C000013015F4C03F0130F0BC0138704700BF66
:1005D0000138C0B202289ABF024B53F820000248EB
:1005E000704700BFF8CF050804D00508B1F1FF3F00
:1005F00008B505D1364B374A242137481AF052F84E
:10060000013203D0354B334A2521F6E7826D52F88B
:100610002120817C59B1127822B913F1FF3018BF23
:10062000012008BD022B0CBF0020022008BD012BB9
:100630002ED1537CE3B91378002B27D1138E002BD6
:1006400042D1107800283FD1137A002B3FD1507E41
:1006500000283CD0536B1B685878C0F380000028FA
:1006600035D092F83930002B0CBF0020032008BD94
:10067000138E002BE2D1137A002BDFD0537E002B98
:10068000DCD0536B1B685B785B07D7D5022008BDB5
:10069000022B0AD1507C08B1137A13B91378ABB18D
:1006A000A8B1107C80F0010008BD032B08D113789D
:1006B00063B9137A53B9537B43B192F83900F1E728
:1006C000074B044A742198E7002008BD012008BDAB
:1006D00010D00508C5D0050820D005085BD0050856
:1006E00037E80508B1F1FF3F08B505D1124B134AB1
:1006F0007C21134819F0D6FF013203D0114B0F4A69
:100700007D21F6E7826D022B52F821204FF0000187
:1007100003D101231374517308BD012B01D111744E
:10072000F9E7032B03D101231174537308BD064B62
:10073000024A9121DDE700BF10D005086BD0050803
:1007400020D005085BD0050837E805080138C0B29D
:1007500009289ABF024B53F820000248704700BF97
:1007600030D1050804D0050870B516464A1C044669
:100770000D46184605D13D4B3D4A32213D4819F002
:1007800091FF731C03D13C4B394A3321F6E7A36D2B
:1007900053F82120536B527C53F8263012B9197943
:1007A000042901D1A17C21B110F1FF3018BF012033
:1007B00070BD012805D15B781C072DD44AB10220F9
:1007C00070BD022807D15A78D20902D09B78190748
:1007D00041D4002070BDC21E052A3AD9092825D16E
:1007E0005A78D20902D09A78120734D41A79032A97
:1007F0000CD1B3F89A204AB99B781B0706D432462D
:100800002946204602F0F4FF0028D8D03246294677
:10081000204602F0EDFF00B970BD32462946204661
:1008200002F0EBFF0028D4D10A2070BD0A280CD1B9
:100830005B79012B11D0022B11D0032B11D0042B8B
:1008400011D0052BC5D1082070BD0C4B084A902152
:1008500094E7092070BD032070BD042070BD052001
:1008600070BD062070BD072070BD00BF10D0050808
:10087000FDD1050858D1050893D1050837E80508CA
:100880002DE9F0414C1C07460E46154605D17E4B1E
:100890007E4A98217E4819F005FF541C03D17D4BF8
:1008A0007A4A9921F6E7846D54F82180D8F83440CB
:1008B000012B54F8224014D12278637802F0FB0215
:1008C0006FF3410203F0F10322700421002243F090
:1008D0004003A4F89A20217162F3C7136370BDE846
:1008E000F081022B06D12371637843F040036FF34C
:1008F000C713F3E7032B3DD1637803F0FD036FF3D8
:10090000820363702378C3F380031BB1012301F0DA
:10091000B7FA034694F802E022781EF0020F63F360
:100920008202227008BF002304F10C0763F3410E1A
:100930000FCF04F150060FC60FCF0FC63B683380B0
:1009400023466FF3C30E53F8722FC4F886205A68FB
:100950001B89A4F88E300123C4F88A2084F802E0B1
:1009600023711DB988F80F30BDE8F08188F82B306D
:10097000BDE8F081042B49D198F81E3088F8283062
:1009800063786FF38203637023786FF382032370BD
:1009900001F04AFF38462A46314602F021F8207815
:1009A000C0F3400028B103232A463146384601F0FF
:1009B00067FA237860F3410323702A4631463846AC
:1009C00001F098FDA378C3F3400313B12378C3F378
:1009D0008003A27863F34102A27031462A4638466A
:1009E00001F0D4FE2A463146384601F073FF2A460C
:1009F0003146384602F0D0FA03232371637843F07E
:100A0000400303F07F036FF3C30367E7052B16D1A1
:100A100098F81E3088F8283001F006FF2A46314643
:100A2000384601F0DDFF2A463146384601F062FDC6
:100A30002A463146384602F0AFFA6378E3E7062BE0
:100A400002D101F0F7FDF8E7072B07D101F052FDC5
:100A50002A463146384601F0C3FFEEE7082BECD0BA
:100A6000092B0FD00A2B09D101F02CFB2A4660710B
:100A700031463846BDE8F04101F02CBE064B034A32
:100A8000F82107E7BDE8F08110D00508A3D10508DB
:100A900058D1050893D1050837E805080138C0B2D8
:100AA00002289ABF024B53F820000248704700BF4B
:100AB000CCD2050804D0050810B54C1C05D1244B38
:100AC000244A2421244819F0EDFD013203D0234BA0
:100AD000204A2521F6E7827C2AB113F1FF3318BFA3
:100AE0000123184610BD826D012B52F8214008D118
:100AF000A28D7AB1032A02D0627C002AF1D00023B1
:100B0000EFE7022B08D1A38D23B1637C13B1A37B44
:100B1000002BF4D00323E4E7032B10D1637E0BB149
:100B2000237D83B9637C83B1A37B73B902F032FE6A
:100B30000028E4D0637E002BE1D1E37CD1E7084BB1
:100B4000044A5F21BEE70223CBE70123C9E700BFC8
:100B500010D0050879D30508D8D205085BD0050860
:100B600037E80508B1F1FF3F10B505D1134B144A22
:100B70006721144819F096FD013203D0124B104A38
:100B80006821F6E7826D012B52F821404FF00002F8
:100B900006D1A27302F0FEFD60760323A38510BD8B
:100BA000022B01D16276F8E7032B02D12275E274A1
:100BB00010BD064B024A7C21DBE700BF10D00508C0
:100BC00019D30508D8D205085BD0050837E8050811
:100BD000012806D0044A054B02280CBF18461046CF
:100BE00070470348704700BF04D00508C1D205080C
:100BF000E3D8050838B54C1C05D11C4B1C4A2521EF
:100C00001C4819F04FFD013203D01B4B184A262116
:100C1000F6E7827C4AB9826D52F82120947C14B99F
:100C2000158E032D1AD0557C25B913F1FF3018BF4E
:100C3000012038BD012B04D10CB1937A63B9002097
:100C400038BD022B0ED1002CF9D0937A002BF6D0B0
:100C500002F03EFD0028F2D1022038BD012BEED07B
:100C6000022BECD0054B024A4E21C9E710D00508F3
:100C700086D40508F9D305085BD0050837E80508D0
:100C800070B54C1C06460D4605D1184B184A592123
:100C9000184819F007FD013203D0174B144A5A21A6
:100CA000F6E7826D012B52F8214008D1002323750D
:100CB000E374A37401F00CF90323238670BD022BA7
:100CC0000FD102F047F92946304601F055F929467F
:100CD000A077304601F066FA0023A374637323748F
:100CE000EAE7064B024A6D21D2E700BF10D00508A3
:100CF00030D40508F9D305085BD0050837E80508A6
:100D0000012806D0044A054B02280CBF184610469D
:100D100070470348704700BF04D00508E2D40508B7
:100D2000D8D4050838B5541C05D1174B174A2621CD
:100D3000174819F0B7FC013103D0164B134A27218D
:100D4000F6E7817C29B113F1FF3318BF0123184660
:100D500038BD012B13D0022B0DD1846C9200A1421F
:100D60000FD0856D55F821506D6BAD586D786D06BF
:100D7000EDD40131F3E7084B044A4921D8E70223B7
:100D8000E5E70023E3E700BF93D105089AD50508FE
:100D9000F1D405082ED5050837E8050838B51446FE
:100DA0000132054605D1134B134A5421134819F05B
:100DB00079FC013103D0124B0F4A5521F6E7012B84
:100DC00004D12146BDE8384002F07CBB022B0CD197
:100DD000214601F092F82146284602F0FDF821460E
:100DE0002846BDE8384001F0C9BD064B024A6221E1
:100DF000DCE700BF93D105083ED50508F1D405080E
:100E00002ED5050837E805080138C0B220289ABF5A
:100E1000024B53F820000248704700BFF4D5050884
:100E200004D005082DE9F0414C1C05460E469046BD
:100E300005D1A34BA34A6B21A34819F033FCB2F1AF
:100E4000FF3F03D1A14B9F4A6C21F5E7827C2AB179
:100E500013F1FF3018BF0120BDE8F081826D52F818
:100E600021707A6B52F828406278D10915D0A078A9
:100E7000000712D4E079052826D194F806E0BEF1E7
:100E8000050F40F0B081A0F1080EBEF1010F04D8AB
:100E900094F806E0864540F0A381012B00F0A38181
:100EA000022B2FD1002900F00082A3781B0700F14C
:100EB000FC812378DB0940F0F88112F0010F40F04B
:100EC000F4810320BDE8F0810A2807D194F806E0F8
:100ED000BEF10A0FD7D00420BDE8F081062807D163
:100EE00094F806E0BEF1060FCDD00C20BDE8F081ED
:100EF0000728C8D194F806E0BEF1070FC3D01C2024
:100F0000BDE8F081032B17D1002900F0CE81A37832
:100F10001F0700F1CA8131462846B4F8927002F0EA
:100F200098FB8742CDD1A378DD07CAD462789406B6
:100F3000C7D413F0020FC2E7042B40D1002900F000
:100F4000B481A378180700F1B081D90701D59B07B8
:100F500007D5900602D5B4F8943013B92378190751
:100F600008D53B7C33B923785A0600F13F819806B7
:100F700000F13C81B4F892302BB92378590609D49A
:100F80000A20BDE8F08142463146284602F0AAFA1E
:100F90000028F2D1B4F892303BB14246314628469F
:100FA00002F0A0FA002800F0578123785A0640F199
:100FB0005381980600F150810920BDE8F081581F47
:100FC000062888D90C2B40F08380002900F06D8121
:100FD000A378190700F16981920703D523789B074D
:100FE00040F1138142463146284602F07BFA2378CD
:100FF00010B19F0740F10C816178880702D59A07EC
:1010000000F1068113F0040FA27802D0970740F197
:101010000281D00702D5920700F1FD809F0605D41A
:10102000B4F8963013B9880640F1F8803146284666
:10103000B4F8947002F0F4FA87427FF456AF237844
:10104000190700F1EE806278920602D59F0600F142
:10105000EB80B4F892302BB92378580610D41220C4
:10106000BDE8F08142463146284602F07DFB38B1AA
:10107000B4F8963023B9284602F08CFB0028EBD157
:10108000B4F8923093B142463146284602F06CFBE8
:10109000002800F00A81B4F89630002B40F005815A
:1010A000284602F077FB002800F0FF8023785906DD
:1010B00040F1FB809A0600F1F8801120BDE8F08134
:1010C00010D0050815D7050878D6050893D105086E
:1010D000A3F10D0007287FF608AF1C2B23D10029B0
:1010E00000F0E380A3781B0700F1DF8023789806E7
:1010F00007D4590705D4530703D43B7C002B00F0D9
:10110000968042463146284602F0ECF9002800F06D
:10111000CF806378980703D42378990700F1C880BB
:101120001620BDE8F081A3F1150006287FF6E7AE92
:10113000212B3DD1002900F0B880A378190700F1D8
:10114000B480920702D523789B077FD5424631466B
:10115000284602F0C7F910B123789F0779D5637844
:10116000980702D52378990773D431462846B4F8F6
:10117000927002F065FA874202D1A378DA0702D5AD
:101180002120BDE8F08162789706F9D49807F7D559
:1011900031462846B4F8967002F04AFAB7EB400F91
:1011A00000F08380A379092B7FD12020BDE8F08156
:1011B000202BE5D0A3F11D000128E1D91F2B0AD176
:1011C000002972D0A37819076FD42378DB096CD17A
:1011D000D207D5D569E0644B644A4FF4C4712BE65D
:1011E0001F20BDE8F0810220BDE8F0810B20BDE8A2
:1011F000F0810520BDE8F0810620BDE8F0810720E0
:10120000BDE8F0810820BDE8F0810D20BDE8F08147
:101210000E20BDE8F0810F20BDE8F0811020BDE870
:10122000F0811420BDE8F0811320BDE8F081152085
:10123000BDE8F0811720BDE8F0811820BDE8F081FD
:101240001B20BDE8F0811A20BDE8F0811D20BDE81B
:10125000F0811E20BDE8F08163789B0702D52378DA
:101260009907C6D542463146284602F03BF9237815
:1012700008B19A07C0D56278960701D59D07BBD4FF
:10128000D909A17801D1D00703D55B0701D43B7CF4
:101290000BB18F07B3D5CE0701D58D07AFD490061C
:1012A00003D5B4F89430002BACD00020BDE8F08119
:1012B0002378A178DA0902D16278D20703D55E07D4
:1012C00001D43A7C0AB18D07B4D511F0010501D0E3
:1012D0008807AFD46278C2F34012002A3CD0B4F839
:1012E00094000028A9D015B1890707D512B1B4F828
:1012F000941019B91E0701D4797B29B1397C19B929
:1013000058069DD499069BD4B4F8920018B15E0794
:1013100001D4397C51B1B4F8941001B1FAB925B9AE
:10132000590602D4797B00298DD020B15E0702D402
:10133000397C0029B9D0B4F8941009B1002AB4D18D
:10134000002DB2D15C06B0D59806AED47B7B002BC5
:10135000ABD11920BDE8F081002DC5D1CAE7002826
:10136000E4D1BDE8F08100BF37E8050815D70508CE
:101370002DE9F7434C1C05460E469046DDF828E063
:1013800006D1B74BB74A4FF4C871B74819F08AF97C
:10139000B2F1FF3F04D1B54BB24A40F29111F4E7EC
:1013A000846D54F821707C6B012B54F8224028D1B5
:1013B000876B0523A37117B1CDF800E0B8472378F8
:1013C000627803F0DF036FF386132370A37803F0D2
:1013D000FD0343F0010342F02002A3706270314626
:1013E000284602F01DF93146A4F89400284602F080
:1013F00030F90023A4F89200A4F8963003B0BDE8B9
:10140000F083022B0CD1856B0523A37115B1CDF8A8
:1014100000E0A847237803F0DF036FF3861332E080
:10142000032B0CD102F015F96178A4F89200002288
:1014300062F34511A378A4F8942061702BE0042B8B
:101440000BD10A23A371846B002CD7D0A446CDF80E
:1014500028E003B0BDE8F0436047052B06D11146F4
:1014600001F0ABFA63786FF341031FE0062B0CD158
:10147000A3786FF30003A37063786FF34103637085
:10148000237843F002032370B8E7072B09D1002229
:10149000A378A4F8942043F0020362F30003A3703E
:1014A000ACE7082B04D163786FF345136370A5E7AD
:1014B000092B09D100222378A4F892207A7E43F0E8
:1014C000200362F38203DEE70A2B08D1237843F07E
:1014D000400323703146284602F0B2F865E00B2B3A
:1014E00005D1237803F0D7036FF38613F1E70C2BB4
:1014F0000DD1876B0623A37117B1CDF800E0B84773
:101500003146284602F08CF8A4F8940076E70D2BBB
:1015100002D141462846A3E70E2B0CD1A3786FF3E6
:101520000003A37063786FF341036370237843F083
:101530000203237072E00F2B05D1A37843F002035E
:101540006FF30003ABE7102B05D1114603B0BDE8E4
:10155000F04301F001BA112B06D10023A4F8923018
:10156000237843F020038EE7122B07D102F068F8AE
:101570002378A4F8920043F0400384E7132B92D021
:10158000142B15D123781B0705D502F051F800EB79
:101590004000A4F89600237803F0D7036FF3861376
:1015A00023703146284602F03BF8A4F8920025E764
:1015B0001C2B21D1D0F838900723A371B9F1000F6B
:1015C00002D0CDF800E0C8474146284602F000F8B6
:1015D00000283FF413AF6378C3F380033BB93A7834
:1015E0002AB93A7A1AB97B7A0BB197F8393062780E
:1015F00063F38202627001E7192B3FF45BAF152B96
:1016000012D1637843F004036370114601F0E0FFE8
:1016100020B13146284602F024F838860123B8F17B
:10162000000F37D1FB73E9E61A2B3FF44FAF162BAF
:101630003FF474AF1B2B3FF454AF172B3FF427AF8D
:10164000182B3FF430AF212B02D101F0F9FFEBE66C
:10165000202B0DD101F0ECFF4000A4F89600CDE660
:1016600010D00508B7D6050878D6050893D1050827
:101670001D2B3FF44EAF1E2B3FF454AF1F2B0CD14C
:10168000876BE379A371002F3FF4C4AECDF800E07F
:10169000B847BFE687F82B30B0E6024B024A4FF45A
:1016A0001F7172E637E80508B7D605080138C0B2E1
:1016B00002289ABF024B53F820000248704700BF2F
:1016C00048D9050804D0050810B54C1C05D11D4BA0
:1016D0001D4A28211D4818F0E5FF541C03D11C4B5E
:1016E000194A2921F6E7847C24B113F1FF3018BF91
:1016F000012010BD806D50F82110496B012B51F86D
:10170000222006D1137813F0400F14BF02200020CE
:1017100010BD022B08D113785A0611D513F0200FF3
:101720000CBF0020032010BD032B05D1107880F0E2
:101730002000C0F3401010BD064B034A5A21C9E7F0
:10174000012010BD10D00508F1D9050854D90508AD
:1017500093D1050837E80508F7B5B1F1FF3F089DBB
:1017600005D11D4B1D4A65211D4818F09BFFB2F1A4
:10177000FF3F03D11B4B194A6621F5E7D0F858E02B
:101780005EF821707F6B012B57F822400BD100953A
:1017900000F0C6FB23786FF3C713237063786FF3F1
:1017A0000003637008E0022B08D1009500F0B8FB3D
:1017B000237843F08003237003B0F0BD032B06D1E0
:1017C000009500F0ADFB637843F00103E9E7064BB9
:1017D000024A8D21C8E700BF10D0050893D905083B
:1017E00054D9050893D1050837E80508012806D023
:1017F000044A054B02280CBF1846104670470348A0
:10180000704700BF04D0050875DA05086ADA0508D4
:10181000B1F1FF3F08B505D1124B134A25211348FA
:1018200018F040FF013203D0114B0F4A2621F6E792
:10183000827C22B113F1FF3018BF012008BD012BBB
:1018400008D1836D53F82130DB7E002B14BF0220BA
:10185000002008BD022B03D0064B034A4621DEE7D9
:10186000012008BD10D0050805DB05087ADA050857
:101870005BD0050837E8050838B54C1C05D1314B5D
:10188000314A5121314818F00DFF013203D0304B5D
:101890002D4A5221F6E7826D012B52F8212002D108
:1018A0000023D37638BD022B46D1D38D0BB1013B3B
:1018B000D385938D0BB1013B9385138E0BB1013B07
:1018C0001386938B0BB1013B9383538E0BB1013B7A
:1018D000538690F860500021022DCABFC36C0123CB
:1018E000013399422CD2536B53F82130B3F898400E
:1018F00014B1013CA3F89840B3F8924014B1013CF4
:10190000A3F89240B3F89A4014B1013CA3F89A406E
:10191000B3F8944014B1013CA3F89440B3F89C4050
:1019200014B1013CA3F89C40B3F8964014B1013CBB
:10193000A3F896400131CFE7064B034A7B21A1E78C
:1019400038BD00BF10D00508B0DA05087ADA0508FE
:101950005BD0050837E805080138C0B205289ABFF2
:10196000024B53F820000248704700BF58DB0508BF
:1019700004D0050870B54C1C05460E4605D1344B05
:10198000344A3321344818F08DFE013203D0334BF2
:10199000304A3421F6E7827C32B9826D52F8214018
:1019A000627C0AB1E27A22B913F1FF3018BF01203C
:1019B00070BD5A1E042A45D9062B3FD101F0ECFD1B
:1019C000B8B1E38D002B3FD0637E63B9E37B53B1A5
:1019D0003146284601F01AFE28B1A38B052B02D808
:1019E000E38D002B32D1637E0BB9E37B1BB9637EA1
:1019F0007BB9002070BD3146284601F0FDFD00286E
:101A0000F5D0A38B052BF2D8E38D002BEFD004206B
:101A100070BDE37B3BB1A38B052BEAD8E38D002B94
:101A2000E7D0052070BD94F82B30002BE1D0314673
:101A3000284601F039FE0028DBD1ECE7084B054AC7
:101A400076219FE7062070BD022070BD032070BD87
:101A500010D00508FFDB050870DB05085BD0050822
:101A600037E8050870B54C1C06460D4605D1314BCC
:101A7000314A8121314818F015FE013203D0304B34
:101A80002D4A8221F6E7826D012B52F8214005D1C3
:101A900084F82B30E3730023A38370BD022B1FD186
:101AA000E37B5BB10120E07394F82B0018B9294661
:101AB000304601F0E0FD84F82B0070BD01F0A6FD7A
:101AC0000028EFD12946304601F096FD0028EAD0E3
:101AD000636B1B68B3F89800003018BF0120E2E781
:101AE000032B09D10025E573049A01F01FF8A38B9D
:101AF000A5760133A38370BD042B07D10023E373C4
:101B0000049A01F0F5F9A38B0133C5E7052B07D142
:101B1000002584F82B50E573049A01F087F8E6E776
:101B2000062B03D101F084FDE08570BD054B024A10
:101B3000AD219FE710D00508A8DB050870DB05087C
:101B40005BD0050837E805080138C0B207289ABFFE
:101B5000024B53F820000248704700BFA4DC050880
:101B600004D0050870B54D1C05D1464B464A3021BE
:101B7000464818F097FD541C03D1454B424A312189
:101B8000F6E7847C2CB1022B0CBF002302231846FD
:101B900070BD846D54F821104C6B012B54F8222039
:101BA0001AD193799C1F012C01D90A2B01D10B7CEE
:101BB0001BB101F027FE0323E9E78B7D002B54D1F5
:101BC0005378D80659D493785B0750D44B7D002BBB
:101BD0000CBF00230823DAE7022B0AD11278C2F3E4
:101BE0008013002BD3D012F0100F14BF0023032357
:101BF000CDE7032B2DD195791478A81FC0B2012809
:101C000001D90A2D08D1A60602D50E7C002E30D0AF
:101C100001280FD90A2D0DD066060BD4E00909D191
:101C20005078C50606D4887D20B9487D10B99078D3
:101C3000440720D55078C006A9D4887D0028A6D1B5
:101C4000497D0029A3D1927812F0040F08BF002328
:101C50009DE7042B13D0052B0FD0063BDBB2022BE4
:101C60000DD90C4B084A872182E705238FE707230C
:101C70008DE704238BE7022389E7062387E7012307
:101C800085E700BF10D0050857DD0508C4DC05084E
:101C900093D1050837E805082DE9F843B1F1FF3F76
:101CA000054688461446DDF820E005D1534B544ADA
:101CB0008F21544818F0F6FC561C03D1524B504A61
:101CC0009021F6E7866D56F82170012B7E6B00F0AF
:101CD0009280022B56F822601BD13B7C7BB9437C5F
:101CE0000BB103F0A9F82846D5F8289001F052FD71
:101CF00080F00103DBB2224641462846C847002354
:101D0000A6F89C30A6F89830002C74D1BC76BDE8BB
:101D1000F883032B0CD10AB97A75BA75B3786FF3CF
:101D20008203B37073786FF304137370BDE8F883A4
:101D3000042B19D101F066FD22464146284600F0E9
:101D400083F922464146284600F096FE2246414647
:101D5000284600F041F9012314B9FB73BDE8F8836C
:101D600087F82B30BDE8F883052B03D1BDE8F84395
:101D700000F06AB9062B16D17246214601F04DFDDE
:101D800004B9BC7573786FF30413737024B9B37915
:101D9000072B04BF0123BB76224641462846BDE8F7
:101DA000F84300F069BE072B19D100F04DF93B7CD8
:101DB0007BB96B7C13B1284603F03EF82846AF6A26
:101DC00001F0E8FC80F00103DBB2224641462846E0
:101DD000B847B3786FF38203B370BDE8F883082B7C
:101DE00005D10023A6F898307B75BDE8F883074B32
:101DF000034AF0215DE7BDE8F88300BF10D0050875
:101E0000FEDC0508C4DC050893D1050837E80508A1
:101E1000437802781B0443EA0263C2788078134354
:101E200043EA0020704738B505460C46FFF7F0FF3F
:101E30002044030E2B70030C6B70030AE870AB7028
:101E4000284638BD02780B789A4207D142784B7801
:101E50009A4203D10231023002F0F8BB00207047F1
:101E600008B50A2202F0E0FB003018BF012008BDCF
:101E700090F86030022BC6BFC06C01300120704763
:101E8000806D50F82110496B032B08B551F82200E2
:101E90000ED10379032B07D100F1500122222E30FD
:101EA00002F0C2FB002801DD002008BD012008BDB2
:101EB000012BF9D10379012BF6D100F15001222237
:101EC0000C3002F0B1FB0028CCBF0020012008BD7F
:101ED00070B505468E0000242846FFF7C9FF8442EE
:101EE0000AD2AB6D9B595B6B53F824305A786FF371
:101EF000C3025A700134EFE770BD30B5856C8900BC
:101F00000023AB420AD0826D52F82320526B525804
:101F100054786FF3861454700133F2E730BD00003B
:101F20002DE9F04116464A1C04460D469846069F88
:101F300005D10D4B0D4A6C210D4818F0B3FB731CF5
:101F400003D10C4B094A6D21F6E7437C0BB102F03B
:101F500073FF0697E7694346324629462046BC464A
:101F6000BDE8F041604700BF10D00508F0E105086A
:101F700008DE050893D1050808B54B1C05D1124BA6
:101F8000124A7A21124818F08DFB836D53F82120F4
:101F9000D0F8A4301BB90F4B0C4A7E21F2E7D27C5B
:101FA0007AB190F8A820042A0BD190F86020022A78
:101FB00007DD00F1610103F12600BDE8084002F0F1
:101FC0002BBB002008BD00BF10D0050801E30508A9
:101FD00008DE050873DF050838B54C1C05D1164B23
:101FE000164A9721164818F05DFB531C03D1154B78
:101FF000124A9821F6E7836D53F821104C6B54F880
:102000002230B3F89C503DB94D7E2DB12468B4F810
:1020100088400134A3F89C40B3F89C405CB9497EE9
:1020200049B9416D51F82210B1F85C20B1F858104F
:102030000A44A3F89C2038BD10D005085EE20508CC
:1020400008DE050893D1050838B54C1C05D1194B9D
:10205000194AB321194818F025FB531C03D1184B1A
:10206000154AB421F6E7836D53F821305C6B54F8C0
:102070002210B1F8985055B95D7E45B12468B4F886
:1020800088400134A1F89840012482B9DC73B1F88A
:1020900098405CB95B7E4BB9436D53F82220B2F88F
:1020A0005C30B2F858201344A1F8983038BD83F85A
:1020B0002B40ECE710D0050830E1050808DE0508E4
:1020C00093D10508F8B5836D53F821305B6B53F855
:1020D0002240A37803F0C003C02B1BD0A37803F0E9
:1020E000C003C02B55D1222204F1500104F12E006F
:1020F00002F09AFA00284CD10A2204F1860104F178
:102100007C0002F091FA002843D12379032B40D1BF
:102110000220F8BD04F12E0504F1500622223146BA
:10212000284602F081FA002801DA0120F8BD04F106
:102130006A0104F1480002F089FA78B92222314696
:10214000284602F071FA0028C8D104F1860104F192
:102150007C00FFF785FE0028E7D1BFE704F14E00C1
:1021600002F0EEFA074604F1700002F0E9FA874245
:10217000DBD0E3E7802B01D0402B11D1222204F1E8
:10218000500104F12E0002F04FFA002808DB042071
:10219000F8BDA37803F0C003C02BEBD10320F8BD3A
:1021A0000520F8BD2DE9F047836D064690F8A8009C
:1021B00053F8218002280D4611D1012488F81640D9
:1021C0003046FFF755FE84426DD2D8F8343053F8CC
:1021D0002420537843F0100353700134F0E70128B2
:1021E00003D0C31E012B00F2CD80D8F834301C6818
:1021F000D6F8A430194604F1460E51F8052FC4F85C
:102200002E204A68C4F832201946D3F80D20C4F8AD
:10221000362051F8112FC4F83A204A68C4F83E20FD
:1022200098F81E20002A67D01F46D3F85910C4F82A
:10223000421057F85D1FC4F846107968CEF80410B4
:10224000B3F81910A4F84E1093F82110A4F87C10DC
:10225000D97FA4F87E10597FA4F88010D97EA4F805
:102260008210002A57D093F8652084F88420012832
:10227000187952D102F046FDA37860F30413A370DD
:10228000D6F8A430187902F04FFDA278E37862F016
:102290003F0260F3C3036FF3451203F0FC03A27027
:1022A0006FF38203E370B36D53F825305B6B1A68EC
:1022B000537843F00803537098F81E20737C002A6B
:1022C00000F0FA8033B14FF0FF32814B11463046B7
:1022D00002F004FED6F8A45095F8242095F8253095
:1022E00043EA0223403B9BB213F00F0951D0794BD4
:1022F000794A40F2811149E084F8422084F8432071
:1023000084F8442084F845200F68C4F846704F686C
:10231000CEF8047094E71422A7E702F0F3FCA37848
:1023200060F30413A370D6F8A430187902F0EDFC22
:10233000A37860F34513A370D6F8A430187902F09F
:10234000E7FCA37860F38713A370D6F8A43018795C
:1023500002F0E1FCE37860F30003E370D6F8A43008
:10236000187902F0DBFCE37860F34103E370D6F800
:10237000A430187902F0D5FCE37860F382036FF3A0
:10238000C3038FE7554B544A4FF4B771544818F0C4
:1023900089F91F096635B94500F09880D8F83430BE
:1023A00009F101092A4653F8294052F8013FC4F8BF
:1023B0003A305368C4F83E30D5F80930C4F842309A
:1023C0006B7B1B0213F4706F1FFA89F205F1100585
:1023D00004D0444B444A45487821D8E713431A12A5
:1023E00084F8462084F84730D6F8A40090F85F308F
:1023F00084F8483090F8603084F8493090F86130C3
:1024000084F84A3090F8623084F84B3090F86330AA
:1024100084F84C3090F8643084F84D30193015F859
:1024200002AC02F08DF90AF0F00A0246514604F1BE
:102430004E0002F04DF915F8013C84F8843015F88F
:10244000100C02F05FFCA37860F30413A37015F87E
:10245000100C02F05AFCA37860F34513A37015F832
:10246000100C02F055FCA37860F38713A37015F8E5
:10247000100C02F050FCE37860F30003E37015F8F1
:10248000100C02F04BFCE37860F34103E37015F8A5
:10249000100C02F046FCE37860F38203E37015F859
:1024A000100C02F043FCE37860F3C303E37063783D
:1024B00043F0080363706EE743B14FF0FF323046DC
:1024C0000B4B1146BDE8F04702F008BDBDE8F087B0
:1024D0004FE005086EE0050817E4050837E8050831
:1024E00008DE05089FE00508ABE40508C7E005081D
:1024F000F3E00508F8B54C1C064606D1474B484AA0
:102500004FF4D971474818F0CDF8501C04D1464B10
:10251000434A40F2B311F5E7D6F8A43023B9434B50
:102520003F4A4FF4DB71EDE7B36D53F821104F6B69
:10253000887F3C6857F8225072B996F86030012BBA
:102540002B7805DD91F8391011B1E978490743D4AA
:102550006FF382032B7046E020B9354B304A40F2CE
:10256000E911CFE791F839302BB304F1500104F1B0
:102570002E00FFF767FCF0B194F8362094F858303D
:102580009A4218D194F8372094F859309A4212D1CF
:1025900094F8382094F85A309A420CD194F83920A3
:1025A00094F85B309A4206D104F15C0104F13A00E0
:1025B000FFF748FC20B92B786FF382032B70F8BD2E
:1025C000EB785B07F7D52B7843F004032B706B781F
:1025D0006FF382036B70F8BD43F004032B706B78CC
:1025E00062F382036B70B8B901253046FFF740FCF7
:1025F000854211D257F8253022781978C2F380022B
:1026000062F38201197062785978C2F3800262F332
:10261000820159700135E8E7F8BD00BF10D0050808
:10262000A8E3050808DE050893D1050873DF05084F
:10263000E9DF050870B54C1C054606D1204B214A40
:1026400040F20921204818F02DF8501C04D11F4BEE
:102650001C4A40F20A21F5E7D5F8A43023B91C4BF7
:10266000184A40F20D21EDE7AB6D53F82100466B9F
:1026700056F82230D978CAB9C9071FD5197841F060
:10268000080162F382011970837FBBB901242846D7
:10269000FFF7EEFB844211D256F82420137843F062
:1026A00008036FF3820313700134F0E7CA0741BFD8
:1026B0001A7842F008026FF382021A7070BD00BFF0
:1026C00010D0050888E2050808DE050893D1050842
:1026D00073DF05082DE9F0430F46013185B006464A
:1026E000154606D1234B244A40F23B21234817F0DC
:1026F000D9FF013204D1224B1F4A4FF40F71F5E785
:10270000D0F8A43023B91F4B1B4A40F23F21EDE71C
:10271000836D53F8274075B9A37FC3B94FF0010803
:10272000A9463046FFF7A4FB804510D284F82A90D2
:1027300008F10108F5E794F83930CBB1636B53F831
:102740002530DB781B0713D5012384F82A30737CEE
:102750005BB194F82A3002937B1C009301950A4BDD
:102760002A463946304602F0B9FB05B0BDE8F08391
:102770000023EAE710D0050827E3050808DE05086E
:1027800093D1050873DF050897DF0508F0B50F46FC
:10279000013185B0064606D11D4B1E4A40F25B2131
:1027A0001D4817F07FFF531C04D11C4B194A4FF4EE
:1027B0001771F5E7D0F8A43023B9194B154A40F248
:1027C0005F21EDE7836D53F827305B6B53F82250A0
:1027D00005F1500405F12E03A4464E3518685968DA
:1027E000A646AEE803000833AB427446F6D11B8818
:1027F000AEF80030737C4BB17B1C0093CDF808C061
:102800000192084B3946304602F068FB05B0F0BD36
:1028100010D0050852E3050808DE050893D1050825
:1028200073DF0508BFDF050870B54C1C064606D1EE
:10283000234B244A40F27621234817F033FF501CE3
:1028400004D1224B1F4A40F27721F5E7D6F8A43095
:1028500023B91F4B1B4A40F27A21EDE7B36D53F8C1
:102860002100456B55F822309978EAB901F0C00291
:10287000C02A23D1890621D55A7842F002025A7023
:10288000837FDBB901243046FFF7F2FA844215D288
:102890002B6855F824205B785178C3F3400363F329
:1028A000410151700134EEE701F0C002C02A05D1A8
:1028B0008A0642BF5A7842F002025A7070BD00BFC9
:1028C00010D005087DE3050808DE050893D105084A
:1028D00073DF050808B54B1C06D11A4B1A4A40F2A3
:1028E0009B211A4817F0DEFE531C04D1184B164AE0
:1028F0004FF42771F5E7D0F8A43023B9154B124AED
:1029000040F29F21EDE7836D53F821305B6B53F864
:10291000223093F884108AB9B3F88220A3F88C206F
:10292000B3F88020A3F88A20B3F87C20A3F886208F
:1029300083F88E100222A3F8882008BD83F88E1039
:1029400008BD00BF10D00508C8E1050808DE05086D
:1029500093D1050873DF050830B5856C8900002325
:10296000AB420AD0826D52F82320526B54586278E1
:1029700042F0200262700133F2E730BD30B5826C64
:1029800089000023934209D0846D54F82340646B7E
:102990006458647864060FD40133F3E7002293424D
:1029A0000AD0846D54F82240646B65586C7844F00A
:1029B00080046C700132F2E730BD30B5856C89005F
:1029C0000023AB420AD0826D52F82320526B545838
:1029D000A27842F00102A2700133F2E730BD00009C
:1029E00070B54D1C064606D11E4B1F4A40F2E3212E
:1029F0001E4817F057FE541C04D11D4B1A4A4FF4C1
:102A00003971F5E7D0F8A43023B91A4B164A40F2D1
:102A1000E721EDE7836D53F821104D6BBAB92B68B0
:102A20008C7FDA78100744BF01224A759A788CB9F6
:102A3000D10611D53046FFF71BFA84420CD255F867
:102A40002420537843F0100353700134F2E755F813
:102A500022309A78D20600D470BD5A7842F0100223
:102A60005A7070BD10D0050879E1050808DE050828
:102A700093D1050873DF050870B54C1C06D1124BC5
:102A8000124A40F20D31124817F00CFE531C04D1CB
:102A9000104B0E4A40F20E31F5E7846D54F82130A8
:102AA0001B7E7BB9866C9200B3420BD08B4207D061
:102AB00054F82300406B8558A87840F00400A870B3
:102AC0000133F1E770BD00BF10D00508B2E2050880
:102AD00008DE050893D105082DE9F041D0F84880BB
:102AE0000646002444451ED0B36D53F8247097F871
:102AF0002830B3B101253046FFF7BAF9854210D22C
:102B00007B6B53F82520137803F0FD036FF38203EA
:102B10001370937803F0FD0343F0010393700135C4
:102B2000E9E70134DEE7BDE8F0810000836D2DE9BF
:102B3000F74353F82180D8F834301E68437C0546AB
:102B40000F4691460BB102F077F92C6A4B462322CF
:102B500039462846A0470446002861D00023037068
:102B600043708370C37006F10C0203CA06F124029D
:102B7000C4F805007069C4F80910C4F80D0003CA50
:102B8000B28D2371B6F89830C4F81100C4F815104E
:102B9000A4F819200BB10123237198F81A301BB146
:102BA000237963F07F03237196F87830E37600236E
:102BB000237796F876206277A37796F8722084F8C8
:102BC000212084F8223096F88820E27784F820309B
:102BD0006B7C43B17B1C00934FF0FF32124B3946A4
:102BE000284602F07BF96B7C13B1284602F046F9C7
:102BF00023464FF0FF323946284601F0D3FE6B7C66
:102C000013B1284602F04EF96B7C13B1284602F04E
:102C100013F96B6A2146284603B0BDE8F043184714
:102C200003B0BDE8F08300BF12E10508836D2DE914
:102C3000F74F53F82190D9F834301E6890F860307F
:102C4000022BC8BFC76C437CC8BF3F0105468846FE
:102C50009246CCBF663724270BB102F0EDF82C6A00
:102C600053463A4641462846A0470446002800F00D
:102C7000388100230370437095F86030022BC8BF81
:102C800003224FF00203D4BF83708270C370B07907
:102C900001F0C0FD8000C0B2207133789A0744BFB4
:102CA00040F04000207173785B0742BF237943F006
:102CB00002032371B6F898301BB1237943F0010366
:102CC00023713378DB091EBF237943F0100323718E
:102CD0007378D80742BF237943F02003237106F1AC
:102CE0000C0303CB06F11803C4F805007069C4F89F
:102CF0000910C4F80D0003CBB38DA4F8193096F871
:102D00007830E3760023237796F876206277A377EE
:102D100096F88820E27784F8203096F8722084F8BC
:102D2000212084F8223084F8233095F86030C4F8EC
:102D30001100022BC4F8151040F38D80263FBFB25E
:102D40003B1284F8243084F8257005F1610304F106
:102D5000260205F1910153F8040B42F8040B8B4253
:102D6000F9D1198811809B789370306AC4F85900A2
:102D700006F1240303CBC4F85D00C4F8611096F893
:102D80007A3084F8653004F176064FF0000AEB6C77
:102D90009A4560D2D9F834300AF1010A4FEA8A0B19
:102DA00053F82A70B87901F035FD8000C0B206F8FA
:102DB000100C3B78990744BF40F0400006F8100C17
:102DC0007B785A0742BF16F8103C43F0020306F81E
:102DD000103CB7F898302BB116F8103C43F00103C3
:102DE00006F8103C99F829302BB116F8103C63F026
:102DF0007F0306F8103C3B78DB091EBF16F8103C39
:102E000043F0100306F8103C7B78DB0742BF16F84E
:102E1000103C43F0200306F8103C07F1180303CBE5
:102E20006B6D46F80F0C53F80B30386A46F8070CF8
:102E300046F80B1C1B7823F00F0306F8033C07F140
:102E4000900001F069FC06F8020C97F87A3006F859
:102E5000013C10369BE795F86030022B6B7C24DC3C
:102E60004BB108F1010300934FF0FF321E4B414676
:102E7000284602F033F86B7C13B1284601F0FEFFC0
:102E800023464FF0FF324146284601F019FD6B7C86
:102E900023B1284602F006F86B7CF3B96B6A214631
:102EA000284603B0BDE8F04F18474BB108F10103C5
:102EB00000934FF0FF320D4B4146284602F00EF8CA
:102EC0006B7C13B1284601F0D9FF23464FF0FF3247
:102ED0004146284601F034FED9E7284601F0ACFF10
:102EE000DCE703B0BDE8F08F17E0050833E0050824
:102EF000437CF7B504460E4617460BB101F09CFF24
:102F0000256A3B46042231462046A8470546E0B1E3
:102F100000230370437083708023C370637C43B1CC
:102F2000731C00934FF0FF32094B3146204601F0ED
:102F3000D5FF637C13B1204601F07EFF636A29460A
:102F4000204603B0BDE8F040184703B0F0BD00BF15
:102F5000FCDF050808B590F8A830013B0122032BDF
:102F60000DD8DFE803F002020707836D53F8213024
:102F70001A7508BD836D53F82130DA7408BD034B10
:102F8000034A044840F22E4117F08CFB37E805084D
:102F9000D4E3050808DE0508836D53F821104B6B58
:102FA00053F822201B6810B5B3F88A00B3F88C40A0
:102FB000844201DA887F28B193F88E00012808DD69
:102FC000897F31B1B3F8883003EB4303A2F89A301C
:102FD00010BD0023FAE700002DE9F04F4B1C95B01F
:102FE00005460E4606D1AF4BAF4A40F2AB41AF4863
:102FF00017F058FB8B000593436D53F82140437C39
:1030000033B100910A46AA4B4FF0FF3101F066FF41
:103010006B7C3BB10094A74B32464FF0FF31284602
:1030200001F05CFF224609AB52F8420F516803C31E
:10303000D4F83E00089004F1080304F1360204F1CC
:10304000280153F8040B42F8040B8B42F9D11B887A
:10305000138004F134031846069301F059FB22460D
:103060004FF0000952F82A1FA16504F122035168AC
:103070001289E165A4F86020CB460793AB6C9945B3
:1030800080F0A280AB6D059A53F829A0DAF83430AD
:103090009F583B79032B40F0888007F1500CBCE827
:1030A0000F000DF12C0EAEE80F00BCE80F00AEE8EB
:1030B0000F00DCF80030AEF800309AF81E30B6B9D8
:1030C000DBB9DAF824100DA8FEF7ADFE6B6D059A9A
:1030D0009A58106851680EAB03C307F16400FEF7FD
:1030E00097FE70B1744B754A40F26C417FE723B98B
:1030F000734B724A40F27E4179E7B96810A8FEF737
:1031000092FE6B7C5BB10BAB019309F10103009361
:1031100032466C4B4FF0FF31284601F0DFFE079935
:103120000DF1460001F09AFA00283ED09AF81730C7
:10313000002B3AD104F13608222241460BA801F0B7
:1031400073FA00280BDB222241460BA801F06CFA2F
:1031500058BB069907F1900001F01CFB28B30BAA9D
:103160000DF14C0E134603CB7345C8F80000C8F8A8
:1031700004101A4608F10808F4D11B88A8F800309A
:103180003A46B7F8903052F8861FA3869AF81E3058
:10319000A16551681289E165A4F8602043B9B4F8CB
:1031A0005E300133A4F85E30BB4609F1010965E7E2
:1031B00094F8603023B9444B3B4A40F2DB4116E7B8
:1031C000013B84F86030EFE76B7C4BB104F13603D0
:1031D000009332463D4B4FF0FF31284601F07EFE12
:1031E0006B7C43B1069B00933246394B4FF0FF3165
:1031F000284601F073FE4FF0000E04F15809AB6C45
:103200009E457FD2AB6D059A53F82EA00599DAF84A
:1032100034309A586B6D5F5802F10C01069107F13A
:10322000560107F136030791DDF818C0002E53D17F
:1032300059681868E046A8E80300079908338B42EC
:10324000C446F5D11B88A8F800303868796802F1C7
:10325000240303C3B2F8903093859AF8193023B948
:103260003868796802F1180303C3D9F80030C2F84E
:103270007230D9F80430C2F87630B9F80830A2F8C4
:103280007A306B7C0EF101074BB1069B01930097DE
:10329000104B32464FF0FF31284601F01FFEBE466C
:1032A000ADE700BF93D10508DCE2050808DE05089C
:1032B0003BDE050847DE05085BDE05085CE4050823
:1032C000E9DF050898DE0508C1DE0508E9DE050826
:1032D0000ADF050820DF050859681868E046A8E8F5
:1032E0000300079908338B42C446F5D11B88A8F820
:1032F00000303868796802F1240303C3B2F89030D3
:103300009385B2E796B904F1420109A8FEF79AFD48
:1033100060B904F13E00FEF77BFD002840F0BD805F
:1033200008A8FEF775FD002840F0B78000274FF091
:103330000708AB6C9F4280F0BC80AB6D53F8270050
:10334000059B416B51F8039099F80420042A15D18C
:10335000052289F807206A7C0137002AE9D099F80C
:10336000070001F083F9019602900097524B324614
:103370004FF0FF31284601F0B1FDDAE706B30968E6
:1033800091F804E0BEF1030F1AD190F82800B8B903
:10339000CA79062A04BF0A2289F80720CA79082AAE
:1033A00001D189F80720222209F10C0109F150000E
:1033B00001F03AF9A0B199F8022042F008023FE08A
:1033C000022A08D199F8022089F8078042F0080201
:1033D00089F80220BFE7012A0ED189F80780E2E7C9
:1033E00009F18600BBF1000F60D00BF18601FEF7FA
:1033F00037FD0028DFD1AEE7032A24D1CB4509D120
:1034000006228BF807209BF802206FF3C3028BF88B
:103410000220A0E7222209F1500109F10C0001F07D
:1034200003F900280FDBA11C09F16A0001F016F96D
:1034300048B1082289F8072099F802206FF3C302E7
:1034400089F8022087E799F8042009F10C03032A80
:10345000069309F1500A0ED1CB450CD022225146D9
:10346000184601F0E1F8002805DBA11C09F16A000B
:1034700001F0ECF8A8B999F80420032A08D1CB454B
:1034800006D022225146069801F0CEF800280ADB29
:103490000A4B0B4A40F29951A9E52846FFF71CFB5D
:1034A00044E70922C6E789F8078084E704F1580158
:1034B0009DE715B0BDE8F08F49DF050837E805083E
:1034C000DCE2050830B5856C890000230524AB4299
:1034D00007D0826D52F82320526B52580133D471B9
:1034E000F5E730BDF8B5876C96000024BC42856DC9
:1034F00010D055F824305B6B9D596B78DB0940D0B8
:1035000095F806E0EB799E453AD1AB781B0737D4A6
:103510000134EBE755F821305B6B53F822309B798F
:10352000062B03D0A3F10802012A0FD800229442EF
:1035300029D055F822305B6B9B599979062903D025
:103540009B78C3F34003E3B10132F0E7072B01D0CE
:103550000A2B0ED10022944215D08A4207D055F88A
:1035600022305B6B9B599B78C3F340034BB1013214
:10357000F1E7064B064A07484FF4BE6117F092F890
:1035800000231846F8BD0123FBE700BF37E8050814
:1035900036E4050808DE050838B50C460546A400E3
:1035A000FEF766FC002282420CD0AB6D1B595B6BB0
:1035B00053F822104B78DB0905D08B781B0704D415
:1035C0000132F0E70123184638BD0023FBE7000075
:1035D00008B54B1C06D1054B054A064840F20F6161
:1035E00017F060F8B1FA81F0400908BD93D10508E1
:1035F000FBE3050808DE0508836D53F821305B6B9B
:103600001B689879831F584258417047836D53F85F
:1036100021305B6B1B689879C31F58425841704733
:10362000836D53F821305B6B1B68B3F872007047F1
:10363000836D53F821305B6B1B68B3F888007047CB
:10364000836D53F821305B7E0BB1FFF7F1BFFFF7BD
:10365000E7BF836D53F821305B6B1B68B3F87600CE
:103660007047836D53F8213093F839300BB9FFF769
:10367000F0BF0320704730B5C56C89000023AB4212
:1036800010D0826D52580133526B52F82320947936
:10369000072C05D0062CF2D1B2F89820002AEED0E3
:1036A000012030BD002030BD10B5C46C890000235E
:1036B000A3420AD0826D52580133526B52F8232034
:1036C00092790A2AF4D1012010BD002010BD00001B
:1036D0004A1C10B506D10D4B0D4A0E4840F27961D7
:1036E00016F0E0FF836D53F82140FEF7C1FB002286
:1036F000824208D0636B53F822305B78C3F3C00377
:1037000013B90132F4E70023184610BD10D00508A4
:1037100057E1050808DE0508836D53F821305B6B1F
:103720001B685878C0F3C0007047000008B532B974
:103730000A4B0B4A0B4840F2946116F0B3FF836DBD
:1037400053F821305B6B1968497809075DBF53F85E
:1037500022305878C0F3C000002008BDF0DD050815
:10376000A0E1050808DE050830B5846C920000234E
:10377000A3420BD08B4207D0856D55F823506D6B5B
:10378000AD58B5F894501DB90133F1E7012030BDB3
:10379000002030BD90F860000128D4BF0020012037
:1037A0007047836D53F821305B6B1B689878C0F3CA
:1037B000C000704708B532B90A4B0B4A0B4840F2BB
:1037C000CD6116F06FFF836D53F821305B6B53F8BA
:1037D00022209078C0F3C00018B91B689878C0F315
:1037E000C00008BDF0DD050835E2050808DE050863
:1037F0000AB9FFF791BFFFF799BF0AB9FFF7D1BF29
:10380000FFF7D8BFB0F8943010B5044623B9036B66
:1038100098470623A4F8943010BD2DE9F0410546E1
:103820000E4690460024AB6C9C420CD2AB6D53F814
:1038300024301B7C2BB96F6B434632462146284609
:10384000B8470134EFE7BDE8F08170B504469CB09D
:1038500002A802F0EFF8226DE16D0132520002A8D9
:103860001CAE02F021F9002326F86A3D256D0135D2
:10387000B5F5805F05DA0222314602A802F014F99C
:10388000F5E702A802F012F9843418AA1CAD134619
:1038900003CBAB42206061601A4604F10804F6D104
:1038A0001CB070BD2DE9F04F85B01E46DFF8DC90EE
:1038B000DFF8DCA000230446884615468DF80F305B
:1038C0000E9BD8F80C701B78324629462046B84724
:1038D000834600284ED06B1C637C34D12BB14B4601
:1038E00032462946204601F0F9FA94F86030022B5E
:1038F00009DD002E32D1637C2BB1214B32462946A3
:10390000204601F0EBFAD8F8083058469847637C17
:103910004BB1D8F80430019000933246194B294638
:10392000204601F0DBFA0F9B009332465B462946A6
:103930002046D8F81070B8470E9B83F800B00123DA
:103940008DF80F30BCE7002BCFD06B1C00933246B4
:103950000D4B2946204601F0C1FAC6E7D3DD637C52
:10396000002BD0D00096534632462946204601F01F
:10397000B5FAC8E79DF80F0005B0BDE8F08F00BFAD
:10398000B9E90508C9E90508AEE90508A5E905088A
:10399000C0E9050808B5034A034B04484FF4147105
:1039A00016F080FE60EC050837E80508D7E9050841
:1039B000F8B5D0F8A05000226F6814464FF0140EEE
:1039C000C36C816CBA4203F1010312D02E680EFB66
:1039D00002FC16F80C60032E18D8DFE806F0080386
:1039E00002060B461C440132EAE74B43FAE7012387
:1039F000F8E7AA681278032A08D8DFE802F009037A
:103A000002050B46E018F8BD4B43FBE7FFF7C2FF8A
:103A10000123F7E708B5C1F30B032BB1054B064AA9
:103A20000648782116F03EFE11430B1203704170D8
:103A300008BD00BF9FE00508B9EC0508EBE90508E3
:103A400002784378016843EA0223C3F30B03426818
:103A50000BB98160C260036803624368416182619F
:103A60004362704738B51D460446FFF7D3FF2B78F5
:103A7000A3706B78E370AB782371EB7863712B796B
:103A8000A3716B79E3712046FFF7DAFF38BD2DE9AA
:103A9000F04385B0984600238DF80F300B7805462B
:103AA0000E461446032B6CD8DFE803F0593D230281
:103AB00000272846FEF7DCF9874262D24FF0000962
:103AC000AB6C994562D2236800934A463B46CDF8D9
:103AD000048031462846FFF7E5FE9DF80F30184375
:103AE0002368C0B201338DF80F00236009F101098A
:103AF000E6E70027AB6C9F4243D2236800933A4627
:103B00004FF0FF33CDF8048031462846FFF7CAFE58
:103B10009DF80F3018432368C0B201338DF80F00B1
:103B200023600137E6E700272846FEF7A1F9874220
:103B300027D223680093CDF804803B464FF0FF3234
:103B400031462846FFF7AEFE9DF80F301843236834
:103B5000C0B201338DF80F0023600137E4E723681A
:103B600000934FF0FF331A46CDF80480FFF79AFE1A
:103B70009DF80F3018432368C0B201338DF80F0051
:103B800023609DF80F0005B0BDE8F083013790E792
:103B90002DE9F34104460D460026D4F89C300193EC
:103BA0008DF8036000274FF01408D4F8A0104B687C
:103BB0009F420FD209682B4608FB071101AA204635
:103BC000FFF765FF9DF803301843C0B28DF803007E
:103BD0000137EAE79DF803305BB92B4601AA8968F3
:103BE0002046FFF754FF9DF803301843C0B28DF80C
:103BF00003009DF80330002BCFD102B0BDE8F08167
:103C0000F8B505461646C9B90C462846FEF730F900
:103C1000844225D2AF6CA0000022BA420CD0AB6D1A
:103C200053F822305B6B19584B7803F07F0343F055
:103C300040034B700132F0E70134E6E7846C890001
:103C40000022A2420CD0AB6D53F822305B6B585867
:103C5000437803F07F0343F0400343700132F0E701
:103C600031462846BDE8F840FFF792BF437C73B564
:103C700004460D4633B14FF0FF3200911B4B114605
:103C800001F02CF9E67C2EB1194B1A4A1A48BA21D8
:103C900016F008FD0123E374A37429462046FFF7BC
:103CA00077FF29462046A674FFF772FFE36B29468B
:103CB00020469847637C33B14FF0FF320F4B1146DB
:103CC000204601F00BF9637C33B14FF0FF320C4B0F
:103CD0001146204601F002F9637C2BB1204602B068
:103CE000BDE8704001F0A8B802B070BD35E9050824
:103CF00053E9050839EA0508D7E905086CE905081C
:103D00007EE90508436D1868023070472DE9F341DC
:103D10001E46437C089F05468846144643B14B1C0B
:103D20004FF0FF3201930097304B114601F0D6F867
:103D3000AB6D53F82820537C33B12D4B2D4A2E48C0
:103D40004FF4967116F0AEFC01235374116A331CC4
:103D500018BF012382F83A30E1B1516292F838106D
:103D600009B982F83930EB7C1BB139462846FFF798
:103D70000FFF6B7C33B14FF0FF32204B11462846CA
:103D800001F0ACF86B7C6BB3284602B0BDE8F041A3
:103D900001F052B8B4B1012C16D90A2C16D9642CF2
:103DA00016D9B4F57A7F15D942F210718C4214D924
:103DB00013498C4214D913498C4294BF1424022411
:103DC0005462CBE7104CFBE7104CF9E7104CF7E7D7
:103DD000104CF5E744F62064F2E74FF4FA64EFE79D
:103DE000C824EDE702B0BDE8F08100BF0DE805088A
:103DF00022E80508EAEA0508D7E905087EE905088A
:103E0000A086010040420F0000C2EB0B002D3101E3
:103E100080841E00400D0300437C73B504460E46AB
:103E2000154643B14B1C00924FF0FF3201931146EF
:103E3000114B01F053F8A36D53F826305A7C3AB178
:103E400000225A74E37C1BB129462046FFF7A0FEEE
:103E5000637C33B14FF0FF32084B1146204601F02E
:103E60003DF8637C2BB1204602B0BDE8704000F005
:103E7000E3BF02B070BD00BFF8E705087EE90508A2
:103E8000C37C37B504460D4673B3437C33B14FF062
:103E9000FF320091154B114601F020F8B4F8943030
:103EA00013B1013BA4F89430A06C0023012183429C
:103EB00005D0A26D52F823200133D176F7E72946C9
:103EC0002046FFF765FE637C33B14FF0FF32084BAD
:103ED0001146204601F002F8637C2BB1204603B066
:103EE000BDE8304000F0A8BF03B030BDE5E70508ED
:103EF0007EE905082DE9F7439846C37C0A9F0446EE
:103F00000D461646002B00F0CC80836D53F821300F
:103F10005A7C437CE2B943B101354FF0FF32019541
:103F20000097614B114600F0D9FF637C33B14FF02D
:103F3000FF325E4B1146204600F0D0FF637C002B21
:103F400000F0AF80204603B0BDE8F04300F074BF3E
:103F500043B14B1C4FF0FF3201930097544B114675
:103F600000F0BCFF4146304600F074FC421E814622
:103F7000637C032A5BD8DFE802F00250263B33B1B2
:103F80004C4B4FF0FF322946204600F0A7FF637CE0
:103F900013B1204600F072FF33464FF0FF3229463E
:103FA000204600F0FFFC637C13B1204600F07AFF4E
:103FB000D4F8A430002B45D03F4B404A4FF4D27187
:103FC0003F4816F06FFB33B13E4B4FF0FF322946AE
:103FD000204600F083FF637C13B1204600F04EFFC3
:103FE00033464FF0FF322946204600F069FCDAE7FD
:103FF00033B1354B4FF0FF322946204600F06EFFBB
:10400000637C13B1204600F039FF33464FF0FF3296
:104010002946204600F094FDC5E7002BC8D02B4B65
:104020004FF0FF322946204600F058FFC0E7002B32
:104030003FF47BAF264B4FF0FF322946204600F07D
:104040004DFF72E794F8A83023B1224B1B4A40F28F
:10405000A511B5E7A36D53F8253093F81280B8F198
:10406000000F04D01C4B154A4FF4D371A8E701226E
:10407000C4F8A46084F8A89039469A742046FFF7E3
:1040800087FDA36DC4F8A48053F8253084F8A88078
:104090009B7C002B3FF449AF0F4B084A4FF4D9717A
:1040A0008EE703B0BDE8F08387E605087EE90508E2
:1040B000DDE60508FFE605085CE7050846EB0508B0
:1040C000D7E905080EE705081BE7050828E70508F6
:1040D00034E7050880E70508B8E70508003118BF90
:1040E000012141747047836D003253F8213018BFAD
:1040F00001221A707047836D003253F8213018BFC7
:1041000001221A7270470000022A7FB514460E463B
:1041100098BF214A417C94BF52F824201F4A05468B
:1041200049B1711C0291019200934FF0FF321C4B78
:10413000314600F0D3FEAB6D53F8263093F83820AB
:10414000A24205D0012C83F8384012D183F83940BF
:104150006B7C33B14FF0FF32124B1146284600F012
:10416000BDFE6B7CB3B1284604B0BDE8704000F0E2
:1041700063BE022C03D1002283F83920E8E714B98A
:1041800093F83A20F8E7084B084A094840F293218F
:1041900016F088FA04B070BDF0E40508F2E80508EE
:1041A000FCE805087EE9050837E8050803EC050882
:1041B000D7E90508F0B51F46C2F30B0387B00446E4
:1041C0000D46164633B1364B364A4FF437713648F2
:1041D00016F068FAC36C8B4204D2344B314A40F279
:1041E000DE21F4E7437C43B102924FF0FF320191AC
:1041F00000972F4B114600F071FE636D53F8252098
:104200001068516804AB03C39DF810209DF811306D
:1042100043EA02239E42637C31D033B14FF0FF3238
:10422000244B1146204600F059FEAAB2314604A89C
:10423000FFF7F0FB636D53F8252004AB03CB106050
:1042400051601046FFF7FCFBE36B39462046984768
:10425000E37C23B12046FDF70BFE854219D3637C36
:1042600033B14FF0FF32144B1146204600F036FEBA
:10427000637C13B1204600F0DFFD07B0F0BD002BDA
:10428000EDD04FF0FF320D4B1146204600F026FED8
:10429000E5E73A4629462046FFF7B2FCDFE700BFD4
:1042A0007CE80508ABEB0508D7E905089BE805089D
:1042B000BAE80508A2E905087EE9050868E80508E6
:1042C00003310138002243781B11092BCABF573331
:1042D00030335BB201F8033C10F8013F03F00F03E9
:1042E000092B8ABF573330335BB2052A02F1010232
:1042F00001F8023C14BF3A230023062A01F8013CCE
:1043000001F10301DFD170472DE9F74FDDF834A04B
:10431000BAF1010F81468B4690461F4605D88B4B5C
:104320008B4A29218B4816F0BDF9402903D98A4BC5
:10433000874A2E21F6E7421E40F6FE739A4203D9C1
:10434000864B834A3221EDE7984503D9844B804A56
:104350003421E7E77B6AAC209847044618B9814BC3
:104360007B4A3721DEE7022380F860303E467E4BF1
:10437000C0F8A03000F11C050FCE0FC50FCE0FC541
:1043800096E8070085E80700C4F84890C4F84CB0E8
:10439000C4F850807B6A50469847206018B9734B28
:1043A0006B4A4321BEE70023A3604FF0FF336361F4
:1043B000A361C4F804A02046FFF7FAFA7B6A984785
:1043C000C4F89C0018B96A4B614A4E21AAE7E06C18
:1043D0007B6A013080009847606518B9654B5C4A7C
:1043E00053219FE77B6A4FEA89009847A06518B977
:1043F000614B574A562195E77B6A656D6220984765
:10440000636D2860186818B95C4B514A5A2189E7D6
:104410000C9B00224FF40041FFF724FB636D1B68E7
:1044200002220F219A8559851422002183F8322017
:10443000DA85198601251646E36C01339D4214D3B3
:10444000DFF850A14FF00009A36C994563D27B6A55
:10445000A56D3C209847A36D45F8290053F82950D5
:10446000FDB9474B3A4A70215CE77B6AD4F8549017
:1044700062209847636D49F8250053F8250018B964
:10448000404B334A67214DE70C9BAAB24FF40041E1
:10449000FFF7E8FA636D53F82530013583F8326091
:1044A000CAE7E06C7B6A0130800098476863C0B15E
:1044B00009F1010900261FFA89FBE36C01339E42D2
:1044C00022D26A6B7B6A0192A0209847019A6B6B9B
:1044D00042F8260053F8260038B92B4B1C4A7B21A2
:1044E00020E72A4B1A4A75211CE75A468021903052
:1044F00000F0EEF86B6B53F826300222A3F8882008
:10450000C3F808A00136D8E701232B72AB72EB7217
:10451000C5F824A098E70023C4F8A43004F1620190
:104520000C98FFF7CDFE08F101007B6A4000984728
:10453000E06518B9164B064A9121F3E62046FFF7CD
:1045400084F9204603B0BDE8F08F00BFFCE4050805
:1045500069EA0508D7E9050814E5050824E5050812
:104560004BE5050861E5050848CF050870E5050835
:104570008AE50508A1E50508B7E50508CDE50508C4
:1045800012E60508F0E5050848E6050834E60508E2
:1045900068E60508400D0300836D53F82130587C10
:1045A000704700002DE9F04190B00DF11C0E9446CB
:1045B00004461A460F46431C764600F12108186847
:1045C0005968354603C5083343452E46F7D10023C5
:1045D0008DF83C307B7CCBB194F83230059394F865
:1045E0003130049394F82430039394F8233094F8F2
:1045F0002110029394F82230CDF800E043EA012321
:1046000001936146034B384600F068FC10B0BDE8EA
:10461000F08100BF08EA050808B5332200F004F86D
:10462000B0FA80F0400908BD30B50023934206DAA5
:10463000C55CCC5CA54204DC05DB0133F6E7002059
:1046400030BD012030BD4FF0FF3030BD08B506222F
:10465000FFF7EAFFB0FA80F0400908BD08B506226E
:10466000FFF7E2FF003018BF012008BD0A2808B597
:104670000FD006280FD007280FD008280FD0092800
:104680000FD005280FD0094B094A0A483D2116F0E2
:1046900009F8094808BD094808BD094808BD094886
:1046A00008BD094808BD094808BD00BF37E805082E
:1046B000ACED050841ED05083AED050820ED0508CB
:1046C00025ED050830ED05088AF1050817ED050808
:1046D0000B0710B505D00A4B0A4A46210A4815F0C7
:1046E000E1FF531E9BB240F6FE74A34203D9074B71
:1046F000044A4721F2E741EA12210170427010BDDD
:1047000060ED0508D7ED050841ED050877ED0508D2
:10471000002303704370704708B543782BB9054BED
:10472000054A0648552115F0BDFF007800F0F0005D
:1047300008BD00BFA2ED05080CEE050841ED050817
:1047400008B542782AB9064B064A0748632115F096
:10475000A9FF037803F00F0342EA030008BD00BF7E
:10476000A2ED050868EE050841ED050808B5437897
:104770002BB9054B054A06486A2115F093FF0078CE
:1047800043EA002008BD00BFA2ED05089AEE050827
:1047900041ED050808B543782BB9094B094A0A4889
:1047A000722115F07FFF00780A7843EA00234878E9
:1047B00040EA02208342ACBF0020012008BD00BFB8
:1047C000A2ED050837EE050841ED050808B558B11A
:1047D00001280BD002280BD003280BD0064B074A28
:1047E00007481F2115F05EFF064808BD064808BDB2
:1047F000064808BD064808BD37E8050811F3050856
:1048000091F105087EF1050886F1050820ED0508FF
:1048100025ED05080A2808B50DD0A0F10803012BE5
:104820000BD906280BD007280BD0074B074A08489E
:104830003A2115F037FF002008BD012008BD0220F5
:1048400008BD032008BD00BF37E80508E3F20508EE
:1048500091F105080278437853EA022310D1C37816
:104860001BB9222905D901207047802B01D10329CA
:1048700022D88278022A05D1022B01D123291DD802
:1048800000207047FCDD022BFAD16529F8D990F899
:10489000242090F8253090F823000028F0D143EA36
:1048A0000223403B9BB21A07EBD103F16600814221
:1048B0000CBF04200020704702207047032070477F
:1048C0002DE9F0411D46437C86B004460F469046D4
:1048D000D3B12E79C6F38100FFF778FFC6F38013BA
:1048E0000593C6F340130493C6F300130393C6F372
:1048F000400306F00106029001930096234B4246C6
:104900003946204600F0EAFA637C3BB16B1D009308
:1049100042461F4B3946204600F0E0FA637C53B113
:1049200005F10D00FDF774FA1A4B00904246394626
:10493000204600F0D3FA637C43B105F111030093E4
:104940004246154B3946204600F0C8FA637C43B115
:1049500005F1190300934246104B3946204600F0FA
:10496000BDFA637C73B195F821300393EB7F02931A
:104970006B7F0193EB7E00934246094B39462046FC
:1049800000F0ACFA06B0BDE8F08100BF5FF00508AA
:10499000B8F00508D3F00508EDF0050808F10508A2
:1049A00023F10508F0B51D46437C85B004460E464C
:1049B000174653B12B794FEAD31E03F0010300933E
:1049C000CDF804E0214B00F089FA637C3BB16B1D0C
:1049D00000933A461E4B3146204600F07FFA637C36
:1049E00053B105F10D00FDF713FA1A4B00903A464A
:1049F0003146204600F072FA637C43B105F11103A1
:104A000000933A46144B3146204600F067FA637C27
:104A100043B105F1190300933A46104B3146204645
:104A200000F05CFA637C73B195F821300393EB7F5F
:104A300002936B7F0193EB7E00933A46084B31461D
:104A4000204600F04BFA05B0F0BD00BF63F1050849
:104A5000B8F00508D3F00508EDF0050808F10508E1
:104A600023F105082DE9F0411F464B7C88B08046B4
:104A70000C461646E3B10578C5F38100FFF7A6FEA4
:104A8000EB090693C5F380130593C5F34013049314
:104A9000C5F300130393C5F3400305F0010502902D
:104AA00001930095204B3A463146204600F016FA15
:104AB000637C43B108F1010300933A461B4B314636
:104AC000204600F00BFA637C53B108F10900FDF7B2
:104AD0009FF9174B00903A463146204600F0FEF908
:104AE000637C43B198F80D3000933A46114B314640
:104AF000204600F0F3F9637C43B198F80E30009340
:104B00003A460D4B3146204600F0E8F9637C43B14C
:104B100098F80F3000933A46084B3146204600F093
:104B2000DDF908B0BDE8F081AAF105080FF205082B
:104B30002EF205084BF205086BF205088BF205080A
:104B40002DE9F0479946437C86B004460E46174649
:104B5000DBB199F80480C8F38100FFF737FEC8F392
:104B600080130593C8F340130493C8F30013039311
:104B7000C8F34003019308F00103029000933A4602
:104B8000534B3146204600F0A9F9637C43B109F14B
:104B9000050300933A464F4B3146204600F09EF9FC
:104BA000637C53B109F10D00FDF732F94A4B0090D7
:104BB0003A463146204600F091F9637C43B109F151
:104BC000110300933A46454B3146204600F086F9E2
:104BD000637C53B109F15900FDF71AF9404B00907D
:104BE0003A463146204600F079F9637C43B109F139
:104BF0005D0300933A463B4B3146204600F06EF988
:104C0000637C43B109F1190300933A46364B3146B0
:104C1000204600F063F9637CA3B199F865300493F2
:104C200099F82130039399F81F30029399F81D30B9
:104C3000019399F81B3000933A462C4B314620469D
:104C400000F04CF93B463246214609F12600FFF7B9
:104C5000A9FC99F8243099F8252042EA03223F2A3A
:104C600005D8234B234A9321234815F01BFD403AD6
:104C700012F00F0303D0214B1E4A9421F4E7DFF812
:104C800080A04FEA221809F1660943451DD0627CD5
:104C90005D1C32B1009553463A463146204600F03D
:104CA0001DF9637C13B1204600F0E8F83B4632461C
:104CB00021464846FFF7D6FE637C13B1204600F03C
:104CC000F1F82B4609F11009DFE706B0BDE8F087DF
:104CD0005FF00508D0EE0508F7EE05081DEF0508A2
:104CE00044EF05086AEF050891EF0508B8EF0508DD
:104CF0000EF00508A8F2050891F105082AF005084C
:104D000053F0050800F001007047C0F34000704701
:104D1000C0F381007047C0F300107047C0F340102B
:104D20007047C0F380107047C0097047C0097047D2
:104D30002DE9F743994643688568023B9D42044646
:104D40000E46174605D9364B364A1F21364815F010
:104D5000A9FCB9F10A0F90F8108027D1B8F1000F23
:104D600003D0324B2F4A2921F0E743698B4202D10D
:104D70008369934203D02E4B2A4A2F21E6E703682A
:104D800003F80590856803682B4483F80180CDF80B
:104D900004808368013300930368C56AA847012330
:104DA000C4F80880237403B0BDE8F083B8F1000FA5
:104DB00012D01DB11F4B1B4A3F21C7E76161A261A1
:104DC0000574E3689D4207D220233A4631462046C7
:104DD000FFF7AEFF0135F4E763699E4202D1A36994
:104DE0009F4203D0124B0F4A5321AFE7A3682268BA
:104DF00002F80390A36862680133013A9342A3600A
:104E0000D1D122680025D554A3680093314601957D
:104E10002368E66A3A462046B047A560C3E700BF6C
:104E2000A1F40508E8F50508DBF4050837E80508EE
:104E3000F3F4050838F5050883684268934273B5B2
:104E4000044605D30A4B0B4A0B48142115F02AFCE3
:104E500002680025D5540123019383680093C66A34
:104E6000036882694169B047A56002B070BD00BFA8
:104E700057F3050874F50508DBF4050808B5037C4D
:104E80002BB9054B054A0648652115F00BFCC36894
:104E90000233C36008BD00BF3FF3050857F505089E
:104EA000DBF4050808B5037C2BB9084B084A6D21D3
:104EB000084815F0F7FBC368012B03D8064B044ADA
:104EC0007021F5E7023BC36008BD00BF3FF3050852
:104ED00093F50508DBF405088CF3050808B42DE903
:104EE000F04F8AB013ABDFF804B353F8044B0693CA
:104EF00005460E46174694F90090B9F1000F00F0F0
:104F0000BE810522A449204616F0D0F990B9069B2F
:104F10001A1D06921A68931C01931178537843EA7C
:104F2000012300933A469D4B31462846FFF7D6FFB2
:104F30000534E0E705229A49204616F0B7F9B0B9E2
:104F4000069B18681A1D437806924BB1FFF70EFCBA
:104F5000944B00903A4631462846FFF7BFFFE7E7FB
:104F6000914B3A4631462846FFF7B8FFE0E7042266
:104F70005946204616F09AF9B8B9069B1A1D1B68C7
:104F800006925A7905921A790492DA7803929A78FD
:104F900002925A7801921B7800933A46834B31462D
:104FA0002846FFF79BFF0434A5E7052280492046E9
:104FB00016F07CF950BB069B1A1D1B68069203F184
:104FC0002002059203F1180204925A7D197D120401
:104FD00042EA0162D97D0A43997D42EA01220392A5
:104FE00003F10C0202925A7A197A120442EA01621F
:104FF000D97A0A43997A009342EA012201926D4BD1
:105000003A4631462846FFF769FF91E702226A498E
:10501000204616F04BF9C0BBA31C80460A211C4653
:1050200013F9010BA0F13002D2B2092A04D801FB16
:105030000808A8F13008F2E77D2805D05F4B604AE8
:10504000B021604815F02EFB069BD3F800A01A1D76
:1050500050460692FBF764FA804504F101040DD92D
:10506000A8EB00084FF0000920233A4631462846B5
:1050700009F10109FFF75CFEC845F5D153463A46F0
:1050800031462846FFF72AFF35E703224E492046DE
:1050900016F00CF998B9069B19681A1D4FF47A732B
:1050A0000692B1FBF3F203FB12138DE80C003146BC
:1050B000464B3A462846FFF711FF03341BE704220C
:1050C0004349204616F0F2F898B9069B1A1D1B6852
:1050D000069233B93F4B3A4631462846FFF7FEFE6B
:1050E00061E700933A463C4B31462846FFF7F6FE0F
:1050F00059E705223949204616F0D8F8A0B9069B91
:105100001A1D1B6806921A7A04921A8803925A880A
:1051100002929A880192DB8800933A46304B3146DE
:105120002846FFF7DBFE03E702222E49204616F051
:10513000BDF8034600285BD194F90220303AD1B281
:1051400009298EBF02340334134694F900207D2AC6
:1051500003D01A4B1A4AE92173E7069A0DF11C098C
:10516000111D1268069100920A211F4A484616F046
:1051700061F801344FF0000819F90830002B3FF4B2
:10518000BAAE3A463146284608F10108FFF7D0FD8D
:10519000B8F10A0FF0D1AEE6BBF30508C1F305087C
:1051A0000BF40508CBF3050804D00508D0F3050877
:1051B000E9F30508EFF3050811F4050814F40508F0
:1051C000B2F50508DBF4050823F4050827F4050803
:1051D00030F4050835F405083AF4050841F40508EB
:1051E00047F4050891F4050894F40508C6F305088A
:1051F00002222549204616F059F8034678BB94F957
:105200000220303AD1B209298EBF0234033413464A
:1052100094F900207D2A03D01C4B1D4AFF2110E782
:10522000069A0DF11C09111D1268069100920A21BF
:10523000184A484615F0FEFF01344FF0000819F9EE
:105240000830002B3FF457AE3A463146284608F165
:105250000108FFF76DFDB8F10A0FF0D14BE6B9F187
:105260007B0F04D10C4B0A4A40F20B11E9E64B4686
:105270003A4631462846FFF75BFD01343BE60AB06B
:10528000BDE8F04F01B0704799F4050814F4050823
:10529000B2F505089CF4050837E805082DE9F04F3C
:1052A000D14AD1F800A00368C46885684668DFF871
:1052B000B4E3DFF8B4B352441A44836863404468EB
:1052C0002340C4686340134442688BB002EB7363AD
:1052D0004A680092009CC54A2244C468224444683B
:1052E000654084681D40654015448A680192019CB0
:1052F000BF4A224484682244446803EB35555C402D
:105300002C4074401444BB4ECA6802921644426852
:1053100005EBF434164483EA050222405A40324435
:105320000E690396039FB44E3E4404EBB2221E4422
:1053300085EA040313406B4033444E690496049F8E
:10534000AE4E3E4402EB73632E4484EA02051D40D8
:10535000654035448E690596059FA94ED1F81C908D
:10536000D1F830C0D1F838803E4403EB355526449F
:1053700082EA03042C4054403444A24E4E4405EBD0
:10538000F434164483EA050222405A4032440E6A3D
:105390000696069F9C4E3E4404EBB2221E4485EACC
:1053A000040313406B4033444E6A0796079F974EA1
:1053B0003E4402EB73632E4484EA02051D406540BF
:1053C00035448E6A0896A6F524474F3F03EB3555C2
:1053D000274482EA03042C4054403C44CF6A099796
:1053E000099E8B4F374405EBF434174483EA0502DA
:1053F00022405A403A44874F009E674404EBB22251
:105400001F4485EA040313406B403B444F6BBE448A
:1054100002EB7363754484EA020E0EEA030E8EEA11
:10542000040E7544DFF844E2C64403EB3555A64448
:1054300082EA03042C4054407444D1F83CE076499D
:10544000714405EBF434114483EA050222405A40CA
:105450000A44724904EBB2223144194484EA02033B
:105460002B406340059E0B446D4902EBF3633144CE
:105470000D4482EA030121405140099E2944694DAF
:1054800003EBF1513544254483EA010414405C40A8
:105490002C44654D049E01EBB4445544154481EA07
:1054A00004021A404A402A44604D04EB323235442B
:1054B0001D4484EA02030B406340089E2B445C4D6C
:1054C00002EBF36335440D4482EA0301214051406D
:1054D0002944584D039E03EBF1517544254483EA5A
:1054E000010414405C402C44534D01EBB44435445A
:1054F000154481EA04021A404A40079E2A444F4D4F
:1055000004EB323235441D4484EA02030B4063400D
:105510002B444B4D029E02EBF36345440D4482EA5B
:105520000301214051402944464D03EBF1513544DC
:105530002C4483EA010515405D40069E2C44424DF3
:1055400001EBB44435442A4481EA04051D404D4032
:105550002A443E4D019E04EB32323D442B4484EA02
:1055600002050D4065402B44394D02EBF363354491
:10557000294482EA0305254055402944354D049EBF
:1055800003EBF1514D442C4483EA010515405D4085
:10559000254401EBB54581EA0504E344934403EA5D
:1055A00004024A405A44A6F5B82B05EB3232ABF25E
:1055B000BE6B54405B44069E2344274C344402EBAC
:1055C00033730C4485EA02015940099E2144234C5F
:1055D000344403EB7151254482EA03044C402544D2
:1055E0001F4C009E444443E078A46AD756B7C7E8EE
:1055F000DB702024EECEBDC1AF0F7CF52AC68747F5
:10560000134630A8019546FDD8988069AFF7448BC2
:10561000BED75C892211906B2108B44962251EF621
:1056200040B340C0515A5E26AAC7B6E95D102FD6D6
:105630005314440281E6A1D8C8FBD3E7E6CDE121AB
:10564000D60737C3870DD5F4ED145A4505E9E3A90C
:10565000F8A3EFFCD9026F6781F6718722619D6D17
:105660000C38E5FD937198FD8A4C2A8D8E4379A6FE
:1056700001EB3545144483EA01026A402244934C0D
:10568000344405EB72221C4481EA05035340039E17
:1056900023448F4C344402EB33730C4485EA0201FB
:1056A000594021448B4C089E4C4403EB71512544D6
:1056B00082EA03044C402C44874D354401EB3444CA
:1056C000154483EA010262402A44844D029E3D440F
:1056D00004EB72221D4481EA040353402B44804DA5
:1056E000554402EB3373294484EA02055D402944A2
:1056F0007C4D354403EB7151254482EA03044C4050
:10570000059E2C44784D354401EB34442A4483EA09
:1057100001056540079E1544744A324404EB752523
:10572000134481EA04026A401A44714B019E6344A7
:1057300005EB32720B4484EA0501514019446D4B6C
:10574000734402EB71511C4485EA02034B401C4434
:10575000694B334401EB34441D4482EA0103634046
:105760002B44664D049E04EB7323554463EA010AFF
:105770008AEA040A2A445244614D03EBB2624D4462
:1057800062EA040989EA0309294449445D4D02EBB0
:10579000B151454461EA030888EA02082C444444B4
:1057A000594D01EB7444354464EA020888EA010863
:1057B0002B444344554D029E04EBF323654463EAB6
:1057C000010C8CEA040C2A44514D624403EBB26292
:1057D000354462EA040C2944089D8CEA030C6144B8
:1057E000A5F5801602EBB151A6F68336264461EA90
:1057F000030454403444474D009E01EB7444354447
:1058000064EA02064E402B443344434D069E04EBAB
:10581000F323354463EA010666402A4432443F4D8F
:1058200003EBB262754462EA04065E4029443144E7
:105830003B4D059E02EBB151354461EA03065640EB
:105840002C44384D344401EB74443D441D4464EA17
:1058500002034B40039E2B44334D04EBF3233544AA
:10586000154463EA01026240099E2A442F4D03EB6E
:10587000B26235440D4462EA04015940019E294454
:105880002B4D02EBB1513544254461EA03045440E9
:105890002C44284E079D01EB74442E4464EA020513
:1058A0001E4485EA01039D1903681A444368026097
:1058B000234403EBF523436083681C44C36884607E
:1058C0001944C1600BB0BDE8F08F00BF44EABEA42C
:1058D000A9CFDE4B604BBBF670BCBFBEC67E9B281B
:1058E000FA27A1EA8530EFD4051D880439D0D4D930
:1058F000E599DBE6F87CA21F6556ACC4442229F486
:1059000097FF2A43A72394AB39A093FCC3595B6547
:1059100092CC0C8FD15D84854F7EA86FE0E62CFE83
:10592000144301A3A111084E827E53F735F23ABD0C
:10593000BBD2D72A91D386EBF0B50E460168044658
:1059400001EBC2008142C1F3C50388BF61682060DA
:1059500084BF01316160616801EB527191B0616097
:10596000B51804F10807AE4220D05A1C234416F89B
:10597000011B1976402A17D1214600228B7EC87E52
:105980001B0443EA0063087E0343487E43EA002386
:105990004DF802300432402A01F10401EED169468B
:1059A0003846FFF77BFC00221346DCE711B0F0BD60
:1059B00070B50268436890B006460E92C2F3C50205
:1059C000372AD4BFC2F13802C2F178020D46184915
:1059D0000F93FFF7B1FF32460021937ED07E1B0468
:1059E00043EA0063107E0343507E43EA00234DF8F0
:1059F00001300431382902F10402EED106F1080425
:105A000020466946FFF74AFC1836204603682B708B
:105A100003681B0A6B70024650F8043B1B0CAB700A
:105A2000D378EB70864205F10405EFD110B070BD5C
:105A300000000020F0B593B001AD044641220021E2
:105A4000284614F099FF164B2E4603F110071868EC
:105A50005968324603C20833BB421646F7D10022CA
:105A6000AB5C83F03603AB540132402AF8D10023FB
:105A7000636023600B4BA36003F18833E36003F1A1
:105A80002943A3F59613A3F68B632361A3F188330F
:105A9000636129462046FFF74FFF13B0F0BD00BFFA
:105AA00014F6050801234567FFF746BFF0B500F17E
:105AB000580693B0314601AD0446FFF779FF412205
:105AC0000021284614F058FF1A4B2F4603F1100E00
:105AD000186859683A4603C2083373451746F7D128
