:020000040800F2
:10000000005000203D450008DD410008E5410008A2
:10001000E7410008E9410008EB410008000000004A
:1000200000000000000000000000000021040008A3
:10003000ED41000800000000C104000805050008AB
:100040008545000885450008854500088545000868
:100050008545000885450008854500088545000858
:100060008545000885450008854500088545000848
:100070008545000885450008854500088545000838
:100080008545000885450008854500088545000828
:100090008545000885450008854500088545000818
:1000A00085450008F14100088545000885450008A0
:1000B00085450008854500088545000885450008F8
:1000C00085450008854500088545000885450008E8
:1000D00085450008854500088545000885450008D8
:1000E000854500088545000885450008000000009A
:1000F0000000000000000000000000000000000000
:0C01000000000000000000005FF808F1A3
:1001100010B5054C237833B9044B13B10448AFF341
:1001200000800123237010BD4C000020000000005F
:100130001446000808B5034B1BB103490348AFF34D
:10014000008008BD00000000500000201446000898
:10015000124A12F0070F1ED0D11D21F00701C1F580
:10016000205313440A460E480260002141601344A4
:10017000083B23F007030B48036059601960991A84
:1001800051601360084B1960084B1960084B4FF021
:1001900000421A6070474FF42053E4E76C000020DF
:1001A0007828002068000020742800207028002093
:1001B0006C28002010B4124B1A6882421AD3596876
:1001C0005C18844203D14068014459601846416874
:1001D0004418A24212D10B4C2468A2420CD052689F
:1001E000114441601A6812680260984200D0186099
:1001F00010BC70471346DFE70460F6E70260F4E7DF
:10020000782800206800002070B5044600F0EAFE5F
:100210003F4B1B68A3B13F4B1B681C4213D000F03F
:1002200075FF002603F05DFD16F0070F6ED04FF04E
:10023000500383F31188BFF36F8FBFF34F8FFEE737
:10024000FFF786FFE7E794B1083414F0070F0ED0EC
:1002500024F00704083404F0070343B14FF05003BF
:1002600083F31188BFF36F8FBFF34F8FFEE734B175
:10027000294B1B68A34206D3284B1D6809E000F0F8
:1002800045FF0026CEE700F041FF0026CAE72B46D7
:1002900015466A68A24202D22A68002AF7D11C4A8F
:1002A0001268AA4214D01E6808362A681A606B6861
:1002B0001B1B102B14D9281910F0070F0CD04FF06E
:1002C000500383F31188BFF36F8FBFF34F8FFEE7A7
:1002D00000F01CFF0026A5E743606C60FFF76AFF93
:1002E0006A680D490B689B1A0B600D4909688B42BF
:1002F00001D20B490B60074B1B6813436B60002353
:100300002B6000F003FF002E8ED18BE7304670BDCE
:10031000680000206C280020702800207828002029
:100320007428002080B338B50446A0F1080550F8C1
:10033000042C164909680A4208D14FF0500383F390
:100340001188BFF36F8FBFF34F8FFEE750F8080C93
:1003500040B14FF0500383F31188BFF36F8FBFF3A9
:100360004F8FFEE722EA010244F8042C00F03AFE27
:1003700054F8041C064A13680B4413602846FFF720
:1003800019FF00F0C3FE38BD704700BF6C28002085
:100390007028002082B0002301930D4B1B68B3F13D
:1003A000FF3F08D04FF0500383F31188BFF36F8FE6
:1003B000BFF34F8FFEE74FF0500383F31188BFF375
:1003C0006F8FBFF34F8F019B002BFCD002B07047A3
:1003D0000000002006480068006880F3088862B6C4
:1003E00061B6BFF34F8FBFF36F8F00DF00BF000018
:1003F00008ED00E04FF0807340F8043C21F001016B
:1004000040F8081C034B40F80C3C40F8202C4038C6
:10041000704700BF950300080000000000000000C6
:10042000074B19680868B0E8F00F80F30988BFF33C
:100430006F8F4FF0000080F311884EF00D0E704763
:10044000882800204FF0500383F31188BFF36F8F8B
:10045000BFF34F8F0A4A136801331360012B00D09A
:100460007047084B1B6813F0FF0FF9D04FF0500393
:1004700083F31188BFF36F8FBFF34F8FFEE700BF89
:100480000000002004ED00E0094B1B6843B94FF069
:10049000500383F31188BFF36F8FBFF34F8FFEE7D5
:1004A000013B034A13600BB983F31188704700BF07
:1004B000000000200000000000000000000000001C
:1004C000EFF30980BFF36F8F0D4B1A6820E9F00F2F
:1004D00010602DE908404FF0500080F3118800F0C3
:1004E000B5FE4FF0000080F31188BDE808401968A0
:1004F0000868B0E8F00F80F30988BFF36F8F70478A
:100500008828002008B54FF0500383F31188BFF30B
:100510006F8FBFF34F8F00F06DFD18B1034B4FF09D
:1005200080521A60002383F3118808BD04ED00E0B7
:10053000084A0023136008490B60084B1B680849F0
:10054000A1FB03139B09013B06490B6007231360C2
:10055000704700BF10E000E018E000E04800002015
:10056000D34D621014E000E010B582B0274B1A782A
:10057000D2B20192FF221A701B78DBB28DF80330E1
:100580009DF8033003F05003214A1370214B0722DA
:100590001A6009E01F4A1368013B13609DF803309D
:1005A0005B00DBB28DF803309DF8033013F0800F51
:1005B000F0D1184B1B68032B08D04FF0500383F386
:1005C0001188BFF36F8FBFF34F8FFEE71B0203F459
:1005D000E063104A1360019BDBB20C4A13700E4BB0
:1005E0001A6842F470021A601A6842F070421A6087
:1005F000FFF79EFF0024094B1C60FFF7EBFE00F0A5
:1006000025FEFFF7C7FE204602B010BD00E400E063
:10061000802800208428002020ED00E00000002039
:1006200000F1080343604FF0FF328260C360036152
:1006300000230360704700230361704743684B60E9
:100640009A688A609A68516099600861036801330A
:100650000360704730B40D68B5F1FF3F02D000F180
:10066000080202E0026904E01A4653681C68AC42C2
:10067000FAD953684B6099608A60516008610368D9
:100680000133036030BC7047036942688168916040
:100690008268416851605A68824206D00022026135
:1006A0001A68013A1A601868704782685A60F5E75C
:1006B000436A23B1036B1868C0F10700704700203C
:1006C000704710B50446FFF7BDFEA26BE36B9A427C
:1006D00004D00024FFF7D8FE204610BD0124F9E71E
:1006E00010B50446FFF7AEFEA36B23B10024FFF75D
:1006F000CBFE204610BD0124F9E770B5044616462E
:10070000856B026C5AB903681BB100200135A563E3
:1007100070BD806800F01AFF0023A360F6E76EB991
:10072000406803F064FF226C636813446360A2684E
:10073000934219D3236863600020E7E7C06803F0A1
:1007400056FF226C5242E3681344E36021688B42F7
:1007500002D2A3681A44E260022E01D00020D5E73D
:1007600025B1013D0020D1E70020CFE70020CDE7F3
:1007700038B50546FFF766FE95F8454064B203E0DC
:1007800000F072FE013C64B2002C08DD6B6A33B1EC
:1007900005F1240000F0D6FD0028F3D0F0E7FF2398
:1007A00085F84530FFF770FEFFF74CFE95F84440A2
:1007B00064B203E000F058FE013C64B2002C08DD96
:1007C0002B6933B105F1100000F0BCFD0028F3D017
:1007D000F0E7FF2385F84430FFF756FE38BD0000F0
:1007E00038B540B94FF0500383F31188BFF36F8FD2
:1007F000BFF34F8FFEE704460D46FFF723FE216847
:10080000E26B236C03FB0210A0600020A063616018
:10081000013A02FB0313E360FF2384F8443084F8B9
:100820004530A5B923691BB9FFF72EFE012038BD5D
:1008300004F1100000F086FD0028F5D0084B4FF0C1
:1008400080521A60BFF34F8FBFF36F8FECE704F154
:100850001000FFF7E5FE04F12400FFF7E1FEE3E7F7
:1008600004ED00E010B5029B0C4639B11A60D86364
:100870001C6401211846FFF7B3FF10BD1B60F6E7AB
:1008800040B94FF0500383F31188BFF36F8FBFF36C
:100890004F8FFEE7F0B583B0054611B101FB00F0C4
:1008A00000E0002017460C464830FFF7ADFC064636
:1008B00038B100903B4600F1480221462846FFF738
:1008C000D1FF304603B0F0BDF0B585B0019260B104
:1008D000044699B9026C8AB14FF0500383F3118832
:1008E000BFF36F8FBFF34F8FFEE74FF0500383F3DB
:1008F0001188BFF36F8FBFF34F8FFEE7022B0BD131
:10090000E26B012A08D04FF0500383F31188BFF344
:100910006F8FBFF34F8FFEE71E460F4600F0AAFD14
:1009200050B9019B53B14FF0500383F31188BFF3CB
:100930006F8FBFF34F8FFEE700253AE0002538E0C8
:10094000324639462046FFF7D8FE636A4BB9A8B154
:100950003B4B4FF080521A60BFF34F8FBFF36F8F46
:100960000CE004F1240000F0EDFC38B1344B4FF002
:1009700080521A60BFF34F8FBFF36F8FFFF784FD74
:10098000012005B0F0BDFFF77FFD0020F9E702A8C8
:1009900000F01EFD012519E0002384F8443021E019
:1009A000002384F8453023E02046FFF7E1FE00F005
:1009B000ADFBFFF747FDA26BE36B9A42C0D3022E5B
:1009C000BED0019B002BDED0002DE0D0FFF75CFDF8
:1009D00000F008FBFFF736FD94F844305BB2B3F14A
:1009E000FF3FD9D094F845305BB2B3F1FF3FD7D089
:1009F000FFF74AFD01A902A800F0F6FCC8B920469D
:100A0000FFF75FFE0028CFD0019904F1100000F03D
:100A100081FC2046FFF7ACFE00F078FB0028C8D12F
:100A2000074B4FF080521A60BFF34F8FBFF36F8FA9
:100A3000BFE72046FFF79CFE00F068FB0020A0E720
:100A400004ED00E048B108B5002181600160C1609B
:100A50000B460A46FFF738FF08BD704710B502463F
:100A600000210120FFF70CFF0446FFF7EBFF2046B3
:100A700010BD000070B584B0019140B94FF0500333
:100A800083F31188BFF36F8FBFF34F8FFEE70446E8
:100A9000036C43B14FF0500383F31188BFF36F8FA2
:100AA000BFF34F8FFEE700F0E5FC50B9019B5BB14F
:100AB0004FF0500383F31188BFF36F8FBFF34F8F55
:100AC000FEE700252E4651E000252E464EE0013B74
:100AD000A363236813B900F0F1FDA060236963B13B
:100AE00004F1100000F02EFC38B1484B4FF080525A
:100AF0001A60BFF34F8FBFF36F8FFFF7C5FC01255F
:100B0000284604B070BD45B14FF0500383F31188FF
:100B1000BFF36F8FBFF34F8FFEE7FFF7B5FCEFE733
:100B200002A800F055FC01262AE0002384F8443096
:100B300032E0002384F8453034E0FFF783FCA068FE
:100B400000F0A8FC0546FFF79FFC3BE02046FFF7BE
:100B50000FFE00F0DBFA09E02046FFF709FE00F087
:100B6000D5FA2046FFF7BCFD002840D1FFF76AFC0C
:100B7000A36B002BABD1019B002BC4D0002ECFD098
:100B8000FFF782FC00F02EFAFFF75CFC94F844308B
:100B90005BB2B3F1FF3FC8D094F845305BB2B3F11C
:100BA000FF3FC6D0FFF770FC01A902A800F01CFCB3
:100BB0000028D1D12046FFF793FD0028C6D0236836
:100BC000002BBAD0019904F1240000F0A3FB2046C9
:100BD000FFF7CEFD00F09AFA0028C7D10B4B4FF07B
:100BE00080521A60BFF34F8FBFF36F8FBEE7002DA7
:100BF00086D0FFF727FC2046FFF75AFD0146A06884
:100C000000F0FCFCFFF740FC002579E704ED00E074
:100C1000084B1B681B683BB1064B1B68DB68DB6835
:100C20005A68054B1A607047034B4FF0FF321A6049
:100C3000704700BF8C2800206429002010B50446AE
:100C4000006BFFF76FFB2046FFF76CFB10BD2DE933
:100C5000F04781460D4617469A46089EDDF82480E7
:100C60000A9C9200A521206B03F0CCFC236B07F1BA
:100C70008042013A03EB820727F0070785B3002380
:100C80000F2B07D8E956E21882F83410EA560AB159
:100C90000133F5E7002384F84330062E00D90626F9
:100CA000E66266640025A564201DFFF7C4FC04F11C
:100CB0001800FFF7C0FC2461C6F10706A661646254
:100CC000E56484F85050524649463846FFF792FB97
:100CD0002060B8F1000F01D0C8F80040BDE8F087EF
:100CE000002384F83430D8E738B5002407E004EB5B
:100CF000840293000E481844FFF792FC0134062C3E
:100D0000F5D90C4D2846FFF78BFC0B4C2046FFF71E
:100D100087FC0A48FFF784FC0948FFF781FC094873
:100D2000FFF77EFC084B1D60084B1C6038BD00BF00
:100D300094280020382900204C2900206C2900200C
:100D400098290020842900208C2800209028002049
:100D500010B50446FFF776FB204A13680133136091
:100D60001F4B1B685BB11F4B1B686BB91C4B1B688F
:100D7000DA6AE36A9A4207D8194B1C6004E0184B00
:100D80001C601368012B26D0174A136801331360C7
:100D9000E36A01229A401549086802430A6003EB9E
:100DA00083039A00211D12481044FFF747FCFFF708
:100DB0006BFB0C4B1B686BB1094B1B68DA6AE36A6F
:100DC0009A4207D20B4B4FF080521A60BFF34F8FFD
:100DD000BFF36F8F10BDFFF787FFD5E720290020F5
:100DE0008828002080290020302900203429002074
:100DF0009428002004ED00E00F4B1B68D3B110B520
:100E0000FFF720FB0D4BDB68DC68201DFFF73CFC87
:100E10000B4A1368013B1360074A1368013B1360D8
:100E2000FFF732FB2046FFF709FF034B1B68002B3F
:100E3000E6D110BD704700BF24290020982900206A
:100E40002029002008B5FFF7D7FF064B1B68012BB0
:100E5000F9D9054B4FF080521A60BFF34F8FBFF3A3
:100E60006F8FF0E79428002004ED00E070B5044691
:100E70000E461D4B1D681D4B18680430FFF704FC1F
:100E800050B91A4B1B68DA6A012303FA02F21849B7
:100E90000B6823EA02030B60B4F1FF3F13D02C442C
:100EA000124B1B685C60A54216D8124B18680F4B9A
:100EB00019680431FFF7CEFB0F4B1B68A34212D910
:100EC0000D4B1C600FE0002EE9D0084B196804316F
:100ED0000A48FFF7B3FB06E0094B1868034B196893
:100EE0000431FFF7B7FB70BDAC2900208828002033
:100EF000342900208C280020642900208429002027
:100F0000902800202DE9F04385B007468846154615
:100F100099469000FFF778F9F8B106465420FFF79C
:100F200073F90446A8B10663D4B100230393029475
:100F30000D9B01930C9B00934B462A464146384635
:100F4000FFF785FE2046FFF703FF012005B0BDE84F
:100F5000F0833046FFF7E6F9E6E74FF0FF30F5E7BC
:100F60004FF0FF30F2E7000000B583B0174B01935C
:100F700000230093802216491648FFF7C3FF01287B
:100F800005D0B0F1FF3F17D003B05DF804FB4FF080
:100F9000500383F31188BFF36F8FBFF34F8F0E4B56
:100FA0004FF0FF321A600D4B01221A600C4B0022E9
:100FB0001A60FFF7D9FAE7E74FF0500383F311887F
:100FC000BFF36F8FBFF34F8FFEE700BF6029002094
:100FD00068460008450E000864290020802900208A
:100FE000AC290020024A136801331360704700BF28
:100FF0002C290020F8B53A4B1B68002B64D1394BE3
:101000001D6801351D60C5B9374B1B681B6843B1AE
:101010004FF0500383F31188BFF36F8FBFF34F8FEF
:10102000FEE7314A1168314B186810601960304A88
:10103000136801331360FFF7EBFD2E4B1B68AB42C7
:1010400038D900242C4B1B68DB6A03EB83039A001E
:101050002A4B9B58012B3CD901243AE00124224B16
:101060001B681B6843B3204B1B68DB68DE68736832
:101070009D4226D3371D3846FFF706FBB36A1BB1E6
:1010800006F11800FFF700FBF36A01229A401C49A1
:10109000086802430A6003EB83039A003946174845
:1010A0001044FFF7CBFAF26A134B1B68DB6A9A42D3
:1010B000D4D2D4E70024D2E70E4B4FF0FF321A60AF
:1010C000C0E70C4A1360BDE70E4A13680133136092
:1010D00000240D4B1B6803B101242046F8BD00BF5E
:1010E0002C290020AC2900208C28002090280020EA
:1010F00068290020642900208828002094280020E6
:101100003429002028290020B029002038B5334B8D
:101110001B6843B94FF0500383F31188BFF36F8FFF
:10112000BFF34F8FFEE7FFF78DF92C4B1A68013A9A
:101130001A601B68002B4DD1294B1B6823B9002472
:10114000FFF7A2F9204638BD0024264B1B681BB3CD
:10115000244BDB68DC6804F11800FFF795FA251DC5
:101160002846FFF791FAE36A01229A401E4908686F
:1011700002430A6003EB83039A0029461B4810448C
:10118000FFF75CFAE26A1A4B1B68DB6A9A42DCD30F
:10119000184B01221A60D8E70CB1FFF739FD164B46
:1011A0001C6854B1FFF726FF10B1124B01221A60E0
:1011B000013CF7D1104B00221A600E4B1B685BB14B
:1011C0000E4B4FF080521A60BFF34F8FBFF36F8FFB
:1011D0000124B5E70024B3E70024B1E72C2900205F
:1011E000202900206C290020342900209428002088
:1011F00088280020B02900202829002004ED00E0E4
:1012000010B5A8B104460F4B1B6843B14FF0500313
:1012100083F31188BFF36F8FBFF34F8FFEE7FFF7A4
:10122000E1FE00212046FFF721FEFFF76FFF38B9EE
:10123000054B4FF080521A60BFF34F8FBFF36F8F93
:1012400010BD00BF2C29002004ED00E02C4B1B68D2
:101250001BB12C4B01221A60704710B5294B00229C
:101260001A60294B1B681B6B1A68B2F1A53F03D1AA
:101270005A68B2F1A53F1BD0234B18681968343166
:1012800002F02EFD214B1B68B3FA83F3DBB2C3F1EE
:101290001F0303EB83018A001D498A588AB94FF066
:1012A000500383F31188BFF36F8FBFF34F8FFEE7B7
:1012B0009A68B2F1A53FDFD1DB68B3F1A53FDBD17E
:1012C000E0E713489A00D418A10001444C68646810
:1012D0004C601A44910008310844844209D003EB61
:1012E00083039A000A4B13445B68DA68064B1A6062
:1012F00010BD61680648142202FB03025160EEE74C
:101300002C290020B0290020882800203429002022
:101310009428002040B94FF0500383F31188BFF3A5
:101320006F8FBFF34F8FFEE710B50C46044B196863
:101330001831FFF78FF901212046FFF797FD10BD07
:101340008828002038B5C368DC6844B94FF05003E2
:1013500083F31188BFF36F8FBFF34F8FFEE704F164
:1013600018052846FFF790F9134B1B68E3B9251DB4
:101370002846FFF789F9E36A01229A400F49086875
:1013800002430A6003EB83039A0029460C48104489
:10139000FFF754F9E26A0B4B1B68DB6A9A4208D9E3
:1013A0000120094B186038BD29460848FFF746F967
:1013B000F0E70020F7E700BF2C29002034290020A7
:1013C0009428002088280020B02900206C290020C3
:1013D000034B1B680360034B1B684360704700BFEF
:1013E00068290020AC290020F8B550B1054689B91C
:1013F0004FF0500383F31188BFF36F8FBFF34F8F0C
:10140000FEE74FF0500383F31188BFF36F8FBFF3F4
:101410004F8FFEE70C46FFF715F8114B1968686807
:101420000A1A2368B3F1FF3F16D02F680D4E3668B5
:10143000B74201D0884211D9934203D800232360D8
:10144000012405E09B1A23602846FFF7C1FF002412
:10145000FFF71AF82046F8BD0024F9E70124F7E762
:10146000AC29002068290020014B01221A60704736
:10147000B0290020054B1B6833B1054B1B680BB12D
:10148000002070470220704701207047802900200B
:101490002C290020002850D038B50446C26A2849BB
:1014A0000968C96A8A423ED28169002905DB24495C
:1014B0000968C96AC1F107018161606902EB8202B2
:1014C0009100204A0A44904205D01D4A1268D26A0F
:1014D000E262012038BD251D2846FFF7D5F868B91E
:1014E000E36A03EB83018A0016498A5832B9012264
:1014F0009A4015490B6823EA02030B60104B1B68E6
:10150000DB6AE362012404FA03F20F49086802432C
:101510000A6003EB83039A0029460A481044FFF748
:101520008DF82046D6E7426C054B1B68DB6A9A4271
:1015300001D20120CEE70020CCE70020704700BF99
:10154000882800209428002034290020002849D031
:1015500038B50446264A1268824208D04FF050033C
:1015600083F31188BFF36F8FBFF34F8FFEE7826C59
:1015700042B94FF0500383F31188BFF36F8FBFF36D
:101580004F8FFEE7013A8264C06A616C88422BD0BB
:1015900062BB251D2846FFF777F870B9E26A14236D
:1015A00003FB02F31349CB583BB9012303FA02F2C0
:1015B00011490B6823EA02030B60636CE362C3F119
:1015C0000702A261012404FA03F20B4908680243EE
:1015D0000A602946074A142000FB0320FFF72EF873
:1015E000204638BD002070470020FAE70020F8E7C9
:1015F000882800209428002034290020002855D075
:1016000038B50346806C40B94FF0500383F311881E
:10161000BFF36F8FBFF34F8FFEE75A6C8A4200D241
:101620000A46D96A914201D0012800D038BD20482D
:101630000068984208D14FF0500383F31188BFF33C
:101640006F8FBFF34F8FFEE7DA629869002802DBE5
:10165000C2F107029A615A691648142404FB010179
:101660008A42E3D11C461D1D2846FFF70DF870B9CC
:10167000E26A142303FB02F30E49CB583BB9012362
:1016800003FA02F20C490B6823EA02030B60E26AD8
:10169000012393400849086803430B602946054B22
:1016A000142000FB0230FEF7C9FFBFE7704700BF00
:1016B000882800209428002034290020054B1B682E
:1016C00023B1044B1A68936C01339364014B18687F
:1016D000704700BF8828002070B50568048A0E0C8A
:1016E00006FB045489B2C06945682D682144A847A7
:1016F00070BD08B50823FFF7EFFF08BD0B6803F5C1
:1017000080330B60428AB2EB134F00D07047A3EBDB
:1017100002430B60FAE72DE9F04389B081460E469B
:1017200017461D4690F81480C8F1000808F02008FC
:10173000ADB12C46454528BF444623466A4631464E
:101740004846FFF7C9FF034650B922466946384666
:1017500002F03EFF40B92D1B26442744E8E7002352
:10176000184609B0BDE8F0830123F9E72DE9F041FF
:1017700088B080460E4611461C46077D7F4207F022
:1017800020073A46684602F03DFF74B12546BC4248
:1017900028BF3D462B466A4631464046FFF7BBFF11
:1017A000034618B9641B2E44EFE70023184608B01F
:1017B000BDE8F08170B504460D0C2D04038AFF22AC
:1017C0002946FFF7D3FF061E18DD2368218A2D0C5A
:1017D00005FB0135E0694368DB6800219847064650
:1017E00060B9E06943689B68228A294698470646A3
:1017F00020B9E0694368DB6801219847304670BD35
:10180000F8B505460C46037D012B0AD9DE1D5B4267
:101810001E4021682846FFF76CFF074638B138465E
:10182000F8BD0826F5E722686B689A42F7D023686E
:101830003344236099B22A8A9142F0D11A0C03D121
:101840006A8A03EB024323602368A3F58033236095
:101850002168891B21600823FF222846FFF786FFA5
:101860000028E0D00823002221682846FFF77EFFE9
:101870000028D8D02388002BEAD1D4E710B504463D
:1018800007220146FF2000F073FDE379834201D077
:10189000012010BD0020FCE770B586B00446037D32
:1018A000012B10D9DD1D5B421D400023E3600123A5
:1018B000628A9A4209D9228A511BE2680A44E2608C
:1018C00001339BB2F4E70825EFE76368019307E073
:1018D000009A019B9A421ED06268019B9A4231D0C5
:1018E00004AA01A92046FFF78BFF064650BB636898
:1018F000009302AA69462046FFF782FF064608BB0E
:10190000BDF80820BDF810309A42E1D06268009B13
:101910009A42EED1DCE7BDF81430002BDCD004A8ED
:10192000FFF7ACFF0028D7D1BDF81420217D012995
:1019300003D98B18013B4A421A40E3689B1A5B1B90
:10194000E360C9E7304606B070BD10B50446072213
:101950000146FF2000F00CFDE07110BD2DE9F047BD
:1019600088B0002B42D0064690461F460368048A82
:101970000A0C02FB043489B20C44A146C0694368D6
:10198000DB68002198478246B8B9357D6D423D40FD
:101990000DD0F0694368D3F804902B4642462146A7
:1019A000C847824620B97F1B04EB0509A84447B904
:1019B000F0694368DB6801219847504608B0BDE8EC
:1019C000F0873A464146684602F011FE327DD21B4E
:1019D000FF210DEB070002F015FEF06943685C681B
:1019E000337D6A464946A0478246E1E74FF0000A48
:1019F000E3E738B50546144613460A468168FFF703
:101A0000ADFF2B7D012B03D91C44013C5B421C40E4
:101A1000AB681C44AC6038BD2DE9F04188B0074686
:101A20000E46154690F81480C8F1000808F020080A
:101A3000ADB12C46454528BF444623466A4631464B
:101A40003846FFF749FE034650B9224669463846F4
:101A5000FFF7CFFF034618B92D1B2644E8E7002304
:101A6000184608B0BDE8F08110B5044608230A46C0
:101A70004168FFF773FF237D012B06D9DA1D5B4216
:101A800013406268D21A626010BD0823F9E7F0B50E
:101A900087B00446037D012B43D9DE1D5B421E4007
:101AA000E288238A03EB02439B1B06A941F8143DFD
:101AB0002046FFF723FE019F0823FF2201992046BD
:101AC000FFF754FE00284DD008230022019920463C
:101AD000FFF74CFE002845D004AA01992046FFF7E5
:101AE00008FE0346002842D163680093009D02AAC5
:101AF00069462046FFF784FE0346002837D1BDF82B
:101B00000820BDF810309A42F0D102A8FFF7B6FEC7
:101B10000028EBD1019BAB4205D0019B9B1B01939D
:101B2000CAE70826BCE7BDF81420002AF5D01B0C34
:101B30001B04BDF812501D442389ADF8123004A8CF
:101B4000FFF703FFBDF8142029462046FFF764FF86
:101B5000034660B904A92046FFF786FF0346002824
:101B6000DBD004E039462046FFF724FE0346184642
:101B700007B0F0BDF0B583B0044616461D46037DA0
:101B8000012B1AD9DA1D5B4202EA0307ADF80010F7
:101B90002289ADF80220ADF80450FF228DF806200E
:101BA0006846FFF7D2FE2A4631462046FFF721FF5E
:101BB000024620B1104603B0F0BD0827E6E76946AB
:101BC0002046FFF751FF02460028F3D1002DF1D047
:101BD000237D012B03D91D44013D5B421D40E36879
:101BE0005B1BDB1BE360E5E770B582B00446037D59
:101BF000012B12D9DD1D5B421D402A46002168469B
:101C000002F000FD08236A4661682046FFF7A6FE41
:101C1000064620B1304602B070BD0825EDE7E288E7
:101C2000238A5B1B03EB0243214641F8043F204615
:101C3000FFF764FDE3881B04A360EBE7F0B585B014
:101C400004464FF0FF318069FEF714FF237D012B1E
:101C500004D9DE1D5B421E40002503E00826FBE799
:101C60000135ADB2638AAB421FD9238A03EB05432A
:101C70009B1B0193636002AA01A92046FFF7C0FDE8
:101C80000746002876D1082300220199891B2046A7
:101C9000FFF76CFD0028E3D00823FF220199891B80
:101CA0002046FFF763FD0028DAD1019961600B0C33
:101CB0001B04A3600823FF222046FFF757FD071EE1
:101CC00058DB17B363689B1B636002AA0199204627
:101CD000FFF70FFD074600284CD102A8FFF7CEFD05
:101CE00098B9BDF80A30A2681344BDF80C20217DD4
:101CF000012903D90A44013A49420A401344A36026
:101D000003E0227DA3681344A3606368A1685B1AA3
:101D100007D0FF222046FFF729FD071E2ADB002FF0
:101D2000EFD1E3881B0404A941F80C3D2046FFF7DE
:101D3000E5FC238AFF2201992046FFF717FD071EC5
:101D400018DB9FB161682046FFF734FD074688B96C
:101D5000E288238A9B1B03EB024363601B0C1B047A
:101D6000A3602046FFF793FE074618B92046FFF709
:101D700093FD074600231A461946A069FEF7A4FD05
:101D8000384605B0F0BD000010B504460120FEF74E
:101D900065FEA0610A4BE3615B681B7D2375202B08
:101DA00008D8638A012B08D9002363752046FFF702
:101DB00045FF10BD6FF01500FBE76FF01500F8E769
:101DC0000C0000202DE9F04F85B0057D012D22D9B2
:101DD00005F107086C4208EA0408012D1ED905EB3D
:101DE000030A0AF1FF3A6D420AEA050A048AA4EBE3
:101DF00048049C42C0F0978013B1002A00F09680FE
:101E0000447D002C40F09580994693460E4604464A
:101E10004368019308E04FF00808DEE79A46E5E7DB
:101E20006268019B9A4211D0019F02AA01A9204633
:101E3000FFF7E6FC054600283AD1BDF80830B3426A
:101E4000EED102A8FFF71AFD0028E9D16268019BD4
:101E50009A423AD03F0C3F04BDF80A103944B9F118
:101E6000000F29D1BDF80C30002B65D0BDF80C70E7
:101E7000237D012B03D91F44013F5B421F40474490
:101E80004FF0FF31A069FEF7F5FDE3683B44E360E6
:101E9000D044434527D26FF01B0500231A4619464C
:101EA000A069FEF711FD002D36DB15F11E0F37D0AE
:101EB000284605B0BDE8F08F4B465A462046FFF74E
:101EC0002AFC0028D2DC0546F2E70027D8E74B467B
:101ED0005A4631462046FFF74DFE05460028DCD124
:101EE0004D46DAE70135638AAB4210D0A3882289D8
:101EF0009B1A9BB29845EAD92046FFF775FE48B970
:101F00002046FFF7C4FD0028ECD00546C5E76FF07A
:101F10001D05C2E70546C0E7E368DB1BE360C4E7D5
:101F200001236375C4E76FF01505C1E76FF0150570
:101F3000BEE76FF01D05BBE70025B9E72DE9F047C7
:101F400084B0BDF83080057D012D0FD9EC1D6D42A8
:101F50002C40058AA5EB44059D4247D399469246FD
:101F60000F46044645680395002605E00824F0E77F
:101F700063680398834215D0464513D8039D01AA90
:101F800003A92046FFF73CFC034620BBBDF8043004
:101F9000BB42EDD101A8FFF771FC0028E8D1013662
:101FA000B6B2E5E76268039B9A4218D0BDF80830E4
:101FB000FBB1464520D32D0C2D04BDF806104B4532
:101FC00028BF4B46524629442046FFF785FB03466F
:101FD00008B9BDF80830184604B0BDE8F087BDF870
:101FE0000430BB42E2D06FF00103F4E76FF0150359
:101FF000F1E76FF00103EEE76FF00103EBE710B5D7
:1020000082B000240094FFF799FF02B010BDF0B534
:1020100083B00C4615461E4643681B696A4601A9F3
:1020200098470022944610460CE0019B1B681A4416
:10203000A24213DC019B19685F6807FB01CC0844CE
:1020400008330193009B591E0091D3B1002DECD0B1
:10205000019B19685B6803FB0122E9E7019B5A6851
:10206000726065B1A4EB0C045A68B4FBF2F45B68CF
:1020700004FB03C333602044B060002003E0241A53
:10208000F5E76FF0150003B0F0BD08B51346012267
:10209000FFF7BDFF08BD83681B68DB6813F0140FF2
:1020A00001D1002070476FF00400704770B50546FD
:1020B0000E461446012300F0F0F8B8B114B900241C
:1020C000204670BDAB684FF0FF315868FEF7D2FC78
:1020D00022463146284600F008F90446A868002345
:1020E0001A4619464068FEF7EFFBE9E76FF0150462
:1020F000E6E7F8B505460E4617461C46012322467C
:1021000000F0CBF8C0B114B900242046F8BDAB688C
:102110004FF0FF315868FEF7ADFC23463A46314692
:10212000284600F0FDF80446A86800231A46194620
:102130004068FEF7C9FBE8E76FF01504E5E770B506
:102140000E4615461C460023224600F0A6F850B164
:102150000CB9002070BD224606F10061284602F04D
:1021600046FA0020F6E76FF01500F3E710B50446D5
:10217000FFF791FF002811DB4FF4302300E0013B13
:10218000A2681268D26812F0010F01D0002BF6D1BC
:102190000BB1002010BD6FF00400FBE76FF00400EE
:1021A000F8E738B504460D4683684FF0FF315868AC
:1021B000FEF760FCBDB12046FFF7D8FF054650B9D9
:1021C00000F0B4F9A06800231A4619464068FEF7EB
:1021D0007BFB284638BDA06800231A461946406894
:1021E000FEF772FBF5E700F087F90025EAE738B55E
:1021F000044685680120FEF731FC68600021204616
:10220000FFF7CFFF38BD800A704770B583681E683E
:10221000336913F0800F15D10D460446FFF7A6FF72
:1022200000280EDBA90201F100613369716143F0FE
:10223000420333612046FFF799FF336923F002031D
:10224000336170BD6FF00400FBE7F8B583681D686B
:102250002B6913F0800F1AD101F10067164604466E
:10226000FFF784FF002811DB3B889BB24FF6FF721B
:1022700093420FD12B6943F001032B613E8020462E
:10228000FFF774FF2B6923F001032B61F8BD6FF09A
:102290000400FBE76FF00400F8E72BB111F0010F29
:1022A0001FD112F0010F1ED1F0B585B016460C46B5
:1022B000054601AAFFF7E9FE074630B1002717F0EF
:1022C000010F0CD1002005B0F0BDA11901AA013900
:1022D0002846FFF7DAFE0028F1D10127EFE70120B9
:1022E000F1E700207047002070472DE9F04180465B
:1022F0000D4617460846FFF786FF04460026E819F4
:102300000138FFF780FFA04207D321464046FFF780
:102310007CFF061E01DB0134F1E73046BDE8F081A9
:102320002DE9F04180460D4617461E460020044622
:10233000B4420BD2631037F8132029464046FFF70A
:1023400084FF002802DB02340235F1E7BDE8F081AA
:10235000064B1B682BB9054B402018604FF480607A
:102360005860024B0B60012313607047B4290020B2
:1023700030B400240DE00B5D43401809074D28568A
:1023800080EA0310C0B20309EB5683EA0010C0B222
:1023900001349442EFD330BC704700BF8846000838
:1023A00008B5074A136843F010031360032000F0D8
:1023B0001BF8002001F0D6FE01F0AAFE002008BDA7
:1023C00000200240034A1168034B1B780B44136042
:1023D000704700BFBC29002024000020014B186872
:1023E000704700BFBC290020074AD36823F4E0638C
:1023F0001B041B0C000200F4E060184340F0BF60B7
:1024000040F40030D060704700ED00E030B4174B6E
:10241000DB68C3F30223C3F10704042C28BF0424A0
:102420001D1D062D18D9033B4FF0FF3505FA04F4A6
:1024300021EA0401994005FA03F322EA0303194350
:1024400000280BDB0901C9B200F1604000F56140D2
:1024500080F8001330BC70470023E5E700F00F0060
:102460000901C9B2024B1954F4E700BF00ED00E0C6
:1024700014ED00E000F01F02400901239340024ADE
:1024800042F82030704700BF00E100E060B310B4B4
:1024900002460168154B0B441548A0FB03031B09BA
:1024A0009B001364134BD363022382F82130086826
:1024B00020F47F5020F03000536894682343D468A0
:1024C0002343146923435469234394692343D46900
:1024D000234303430B6000209063012382F82130E3
:1024E00082F8200010BC704701207047F8FFFDBF44
:1024F000CDCCCCCC000002400A4B1B6913F0800FFE
:102500000DD0084B084A5A6002F188325A601B69A4
:1025100013F0800F01D00120704700207047002089
:10252000704700BF0020024023016745034A13693A
:1025300043F0800313610020704700BF0020024079
:10254000F0B482B000263546A1E0002C59D0012C11
:1025500000D1CE68FF2B68D88446FF2B68D8AC002A
:10256000DCF800200F27A74022EA070206FA04F44D
:102570002243CCF800204A6812F0805F00F0868089
:102580005E4A946944F001049461926902F0010288
:102590000192019AAC08A71C594A52F8272005F06D
:1025A0000307BF004FF00F0C0CFA07FC22EA0C0CDB
:1025B000544A904242D002F5806290427FD002F5A8
:1025C000806290427DD002F58062904234D0042235
:1025D00035E04D4FBC4214D00BD94C4FBC4210D00B
:1025E00007F58037BC420CD0A7F58017BC42B1D1AB
:1025F00007E0A7F58017BC4203D007F58037BC423F
:10260000A8D18C687CB1012C08D042610826A1E7D2
:10261000CE6808369EE7CE680C369BE70261082636
:1026200098E7002696E7042694E700F1040C94E767
:10263000A5F10804A40093E7032200E00022BA40B9
:1026400042EA0C0202342E4F47F824204A6812F462
:10265000803F38D02E4C22681A4322604A6812F418
:10266000003F36D02A4C62681A4362604A6812F40E
:10267000801F34D0264CA2681A43A2604A6812F424
:10268000001F32D0224CE2681343E36001350F2D66
:1026900031D80122AA400B6813409A42F6D14C6807
:1026A000122CB8D095D8022CB2D07FF64EAF032CA6
:1026B000B7D0112C7FF44EAFCE6804364AE7012222
:1026C000BDE70222BBE7124C226822EA0302226025
:1026D000C4E70F4C626822EA03026260C6E70C4C52
:1026E000A26822EA0302A260C8E7094CE26822EA73
:1026F0000303E360CAE702B0F0BC70470010024079
:1027000000000140000801400000211000003110CD
:102710000004014012B9090401617047016170476A
:10272000002800F0A28038B5044690F83D30002B18
:102730004FD0242384F83D302268136823F001032E
:10274000136000F0BDFB62684A4B9A4246D84A4B80
:1027500098428CBF00230123002B40F08880474B18
:10276000A3FB00239B0C226853606168414A91429D
:102770003AD801332268136261683E4B99423DD8D2
:10278000431E4900B3FBF1F30133C3F30B03042BE6
:1027900038BF04232268D361E369216A22680B43AE
:1027A00013602369E16822680B4393606369A16940
:1027B00022680B43D3602268136843F0010313605F
:1027C00000202064202384F83D30206384F83E00FC
:1027D00038BD80F83C3001F043FBAAE7284B984213
:1027E0008CBF00230123B7E74FF4967202FB03F37B
:1027F000244AA2FB03239B090133BBE7A368BBB9AF
:10280000421E01EB4105B2FBF5F20132C2F30B02AD
:10281000B2FA82F2520932BBC3B9013801EB41036B
:10282000B0FBF3F30133C3F30B0343F40043B1E70D
:10283000421E01EB810505EB8505B2FBF5F2013285
:10284000C2F30B02B2FA82F25209E4E7013801EB5B
:10285000810303EB8303B0FBF3F30133C3F30B03F7
:1028600043F4404396E7012394E701207047012099
:10287000AEE700BFA08601007F841E0083DE1B43FD
:10288000FF083D00D34D6210014B01221A607047D2
:1028900020000E4282B0084B1B68084AA2FB0323AB
:1028A0005B0A00FB03F0019000BF019B5A1E0192DE
:1028B000002BF9D102B0704748000020D34D6210C0
:1028C00070B582B00446036813F0010F2CD0AB4BF7
:1028D0005B6803F00C03042B1DD0A84B5B6803F06E
:1028E0000C03082B12D06368B3F5803F41D0002B56
:1028F00055D103F1804303F504331A6822F4803282
:102900001A601A6822F480221A6037E09B4B5B68D9
:1029100013F4803FE7D0994B1B6813F4003F03D0BA
:102920006368002B00F0AE81236813F0020F76D0AD
:10293000924B5B6813F00C0F5FD0904B5B6803F019
:102940000C03082B54D02369002B00F08A808C4B99
:1029500001221A60FFF742FD0546884B1B6813F001
:10296000020F75D1FFF73AFD401B0228F5D903206D
:102970008BE1824A136843F480331360636843B386
:10298000FFF72CFD05467D4B1B6813F4003FCBD1B0
:10299000FFF724FD401B6428F5D9032075E1B3F54A
:1029A000A02F09D0754B1A6822F480321A601A6879
:1029B00022F480221A60E1E703F18043A3F53C335F
:1029C0001A6842F480221A601A6842F480321A604F
:1029D000D4E7FFF703FD0546684B1B6813F4003F7F
:1029E000A2D0FFF7FBFC401B6428F5D903204CE183
:1029F000624B5B6813F4803FA5D1604B1B6813F0FA
:102A0000020F04D02369012B01D001203DE15B4A74
:102A1000136823F0F803616943EAC1031360236874
:102A200013F0080F32D0A369002B5BD0554B012265
:102A30001A60FFF7D3FC0546504B5B6A13F0020F98
:102A400021D1FFF7CBFC401B0228F5D903201CE164
:102A50004A4A136823F0F803616943EAC10313602B
:102A6000DDE7474B00221A60FFF7B8FC0546434BF1
:102A70001B6813F0020FD2D0FFF7B0FC401B0228F6
:102A8000F5D9032001E10120FFF704FF236813F0CB
:102A9000040F00F09780394BDB6913F0805F33D16E
:102AA000364BDA6942F08052DA61DB6903F0805319
:102AB0000193019B0125344B1B6813F4807F25D0C3
:102AC000E368012B36D0002B4CD103F1804303F592
:102AD00004331A6A22F001021A621A6A22F004020E
:102AE0001A622CE0274B00221A60FFF777FC05469C
:102AF000224B5B6A13F0020FC8D0FFF76FFC401B3C
:102B00000228F5D90320C0E00025D4E71E4A136847
:102B100043F480731360FFF761FC06461A4B1B6891
:102B200013F4807FCCD1FFF759FC801B6428F5D9C2
:102B30000320AAE0114A136A43F001031362E36819
:102B400073B3FFF74BFC06460C4B1B6A13F0020FE6
:102B500037D1FFF743FC801B41F288339842F3D909
:102B6000032092E0052B11D0044B1A6A22F00102D7
:102B70001A621A6A22F004021A62E0E700100240A8
:102B8000000042428004424200700040414B1A6AF9
:102B900042F004021A621A6A42F001021A62CEE797
:102BA000FFF71CFC06463B4B1B6A13F0020F08D0D4
:102BB000FFF714FC801B41F288339842F3D90320BD
:102BC00063E0E5B9E369002B5ED0324A526802F057
:102BD0000C02082A5BD0022B17D02F4B00221A6060
:102BE000FFF7FCFB04462B4B1B6813F0007F47D01C
:102BF000FFF7F4FB001B0228F5D9032045E0254A26
:102C0000D36923F08053D361DCE7234B00221A60A1
:102C1000FFF7E4FB05461F4B1B6813F0007F06D04F
:102C2000FFF7DCFB401B0228F5D903202DE0236AC7
:102C3000B3F5803F1AD017494B6823F47413226A06
:102C4000606A024313434B60134B01221A60FFF783
:102C5000C5FB04460F4B1B6813F0007F0ED1FFF736
:102C6000BDFB001B0228F5D903200EE0094A53687A
:102C700023F40033A1680B435360DCE7002004E039
:102C8000002002E0012000E0002002B070BD012021
:102C9000FBE700BF0010024060004242014B0122EE
:102CA0001A6070474C00424210B487B0164C94E84A
:102CB0000F000DF1180C0CE90F00238AADF8043059
:102CC000124B5B6803F00C02082A1AD1C3F383424B
:102CD000624412F8102C13F4803F05D10C4800FB1D
:102CE00002F007B010BC7047084B5B68C3F3404369
:102CF000634413F8143C074800FB02F0B0FBF3F008
:102D0000EFE70448EDE700BF2C4600080010024042
:102D100000093D0000127A00624B1B6803F00703B4
:102D20008B420CD25F4A136823F007030B431360F6
:102D3000136803F007038B4201D00120704770B580
:102D4000036813F0020F17D013F0040F04D0564A93
:102D5000536843F4E0635360036813F0080F04D032
:102D6000514A536843F4605353604F4A536823F009
:102D7000F0038468234353600D460446036813F050
:102D8000010F52D04368012B23D0022B28D0464A92
:102D9000126812F0020F00F0828043494A6822F064
:102DA000030213434B60FFF719FB06466368012BD0
:102DB0001DD0022B2AD03C4B5B6813F00C0F34D093
:102DC000FFF70CFB801B41F288339842F3D90320B4
:102DD00064E0354A126812F4003FDED101205DE064
:102DE000314A126812F0007FD7D1012056E02E4BF5
:102DF0005B6803F00C03042B17D0FFF7EFFA801B7E
:102E000041F288339842F2D9032047E0264B5B68B1
:102E100003F00C03082B08D0FFF7E0FA801B41F207
:102E200088339842F2D9032038E01E4B1B6803F028
:102E30000703AB420CD91B4A136823F007032B434B
:102E40001360136803F00703AB4201D0012025E0B3
:102E5000236813F0040F06D0134A536823F4E06389
:102E6000E1680B435360236813F0080F07D00E4A44
:102E7000536823F46053216943EAC1035360FFF7A9
:102E800013FF094B5B68C3F30313084AD35CD840B4
:102E9000074B1860002001F065F9002070BD01208B
:102EA000FCE700BF0020024000100240A4460008DA
:102EB00048000020014B1868704700BF4800002000
:102EC00008B5FFF7F7FF044B5B68C3F30223034A1F
:102ED000D35CD84008BD00BF00100240B4460008D3
:102EE00008B5FFF7E7FF044B5B68C3F3C223034A4F
:102EF000D35CD84008BD00BF00100240B4460008B3
:102F00000F2303600B4B5A6802F0030242605A68B9
:102F100002F0F00282605A6802F4E062C2605B680C
:102F2000DB0803F4E0630361034B1B6803F0070352
:102F30000B60704700100240002002407047000004
:102F400008B5064B9B6813F0800F00D108BDFFF752
:102F5000F5FF034B80221A70F8E700BF0010024013
:102F60000A10024070B582B00446036813F0010FE6
:102F700034D03E4BDB6913F0805F48D13B4BDA69BC
:102F800042F08052DA61DB6903F080530193019BC8
:102F90000125374B1B6813F4807F3AD0334B1B6AF3
:102FA00013F4407311D0626802F440729A420CD05C
:102FB0002E4A136A23F440702E4901260E60002623
:102FC0000E60106213F0010F37D1284A136A23F400
:102FD000407361680B431362002D3FD1236813F0E7
:102FE000020F06D0214A536823F44043A1680B43E3
:102FF0005360236813F0100F35D01C4A536823F434
:103000008003E1680B435360002002B070BD0025CF
:10301000BFE7174A136843F480731360FFF7DEF9C4
:103020000646134B1B6813F4807FB7D1FFF7D6F920
:10303000801B6428F5D90320E7E7FFF7CFF90646A0
:103040000A4B1B6A13F0020FBFD1FFF7C7F9801BB1
:1030500041F288339842F3D90320D6E7D36923F0AD
:103060008053D361BAE70020CFE700BF00100240D1
:10307000007000404004424230B587B00546384CED
:1030800094E80F000DF1180C0CE90F00238AADF83D
:103090000430022D50D0102D03D0012D2BD0002054
:1030A00054E0304B5A681B6813F0807F50D0C2F355
:1030B000834306A90B4413F8100C12F4803F16D07A
:1030C000284B5B68C3F340430B4413F8142C264B86
:1030D000B3FBF2F300FB03F0224B5B6813F4800FA9
:1030E00034D14000214BA3FB003040082EE0204BA0
:1030F00003FB00F0F0E71B4B1B6A40F202321A4060
:10310000B2F5817F26D003F44073B3F5007F04D07D
:10311000B3F5407F09D0002018E0124A526A12F03D
:10312000020FF5D049F6404010E00E4B1B6813F437
:10313000003F12D1002009E0FFF7D2FE094B5B6887
:10314000C3F3813301335B00B0FBF3F007B030BD54
:103150000020FBE74FF40040F8E74FF22440F5E78A
:10316000404600080010024000127A00ABAAAAAA4A
:1031700000093D0030B402689469A5B2D369916931
:1031800088B2854205D0D06980B240EA014030BCA7
:10319000704798B240EA0440F9E70368186A5B6A2E
:1031A0009BB243EA00407047030903EB83035A00D4
:1031B00000F00F001044C0B27047000010B400F5DA
:1031C000FA64022920D901EB4103C1EBC3011F4B73
:1031D000A3FB011302EB5303234403EB94031C4AA8
:1031E000A2FB0424A3EB541303EBD41302331948BA
:1031F000A0FB03201A1A00EB52008008C0EBC000AD
:10320000181AC0B210BC704701EB4103C1EBC301F7
:103210000E4BA3FB011302EB5303234400F2CF70C8
:1032200003EB90030A4AA2FB0020A3EB501303EB2D
:10323000D01304330748A0FB03201A1A00EB5200F6
:103240008008C0EBC000181ADBE700BF398EE338F6
:103250001F85EB512549922438B50446FFF7BEF887
:10326000054623685A6812F0200F07D1FFF7B6F819
:10327000401BB0F57A7FF4D9032004E05A6842F08D
:1032800010025A60002038BD38B504460268536801
:1032900023F010035360FFF7A1F8054623685B682D
:1032A00013F0200F07D1FFF799F8401BB0F57A7F94
:1032B000F4D9032000E0002038BD38B505460C469F
:1032C000FFF7CAFF10B10123184638BD2B68220C46
:1032D0009A612B68A4B2DC612846FFF7D5FF03464C
:1032E0000028F1D00123EFE738B505460C46FFF77B
:1032F000B3FF10B10123184638BD2B68220C1A62A7
:103300002B68A4B25C622846FFF7BEFF0346002884
:10331000F1D00123EFE770B5002857D0044600290B
:1033200056D0037C012B55D00E4601230374022393
:103330004374BAB90D784B78C3EB03139A004FF47A
:10334000616303FB05258B781D4429462046FFF762
:10335000B4FF0646C8B10423637400232374012616
:10336000304670BD0878FFF71FFF4FF4616505FB1D
:1033700000F57078FFF718FFC0EB001083001D44C4
:10338000B078FFF711FF0544DFE72268536823F0A8
:10339000050353602046FFF700FFB0F1FF3F01D067
:1033A000854204D80123637400232374D8E700F511
:1033B000A83101F5C0712046FFF796FF0028F1D033
:1033C00004236374002323740126C9E70126C7E799
:1033D0000126C5E70226C3E700285DD038B50446BC
:1033E00000295BD0037C012B5AD00D4601230374C6
:1033F00002234374D2B9CB78C3734B7843738B7871
:103400008373A27B617BE07BFFF7D8FE207328707B
:103410002046FFF7AFFE234BA3FB0023B3F5484F35
:1034200011D2012363740020207438BDC878FFF7DF
:10343000BBFEE0736878FFF7B7FE6073A878FFF70C
:10344000B3FEA073DDE7184DA5FB00352D0C174B1F
:1034500003FB150529462046FFF72FFF28B104235B
:103460006374002323740120DFE72046FFF795FEF5
:10347000B0F1FF3FD5D08542D3D900F5A83101F591
:10348000C0712046FFF730FF0028CAD004236374C0
:10349000002323740120C8E7012070470120C4E7FE
:1034A0000220C2E7C5B3A29107452EC28051010098
:1034B000C0B138B504460268536823F0080353606E
:1034C000FEF78CFF054623685B6813F0080F07D1F1
:1034D000FEF784FF401BB0F57A7FF4D9032000E0AB
:1034E000002038BD0120704700285AD010B504468E
:1034F000437C53B1022363742046FFF7D9FF40B1E8
:10350000042363740123184610BD037400F084FD86
:10351000F0E72046FFF7A0FE002830D1226853686C
:1035200023F007035360A36823B11F4A136B23F0F2
:10353000010313631C4AD36A23F46073A1680B432D
:10354000D3626268B2F1FF3F1DD021688B6823F01F
:103550000F0343EA12438B602168CB681B0C1B04EA
:1035600092B21343CB602046FFF78EFE0346A0B90C
:103570000022E27301226273A2736274C3E7042320
:1035800063740123BFE70120FFF776FD08B1421EF7
:10359000DBE7042363740123B5E704236374012389
:1035A000B1E7012318467047006C004000283CD06A
:1035B00010B504460023836290F85130002B31D0BF
:1035C000022384F851302268136823F0400313600B
:1035D0006368A2681343E268134322691343626974
:1035E0001343A26902F400721343E2691343226A8F
:1035F0001343A16A22680B431360638B03F0040337
:10360000616A22680B4353602368E26A1A61226888
:10361000D36923F40063D36100206065012384F83B
:10362000513010BD00F03AFDCAE70120704710B4D8
:10363000036A046A24F001040462846924F0F0043B
:1036400044EA021223F00A030B438261036210BCB6
:10365000704710B4036A23F0100303628469036A9D
:1036600024F4704444EA023223F0A00343EA011335
:103670008261036210BC7047836823F0700341F0DD
:10368000070119438160704710B4846824F47F44B3
:1036900042EA03230B432343836010BC7047026854
:1036A000D36843F00103D3600268136843F0010359
:1036B00013600020704790F83C30012B7DD010B58E
:1036C0000446012380F83C30022380F83D30026834
:1036D000936823F47F4323F0770393600B68402BB8
:1036E00057D010D9702B3ED01FD8502B47D0602B0D
:1036F00032D1CA6849680068FFF7ABFF60212068D3
:10370000FFF7BAFF28E0102B4DD008D9202B4FD05F
:10371000302B21D130210068FFF7AEFF1CE0DBB970
:1037200000210068FFF7A8FF16E0B3F5805F0ED018
:10373000B3F5005F10D1CB684A6889680068FFF76D
:10374000A3FF2268936843F48043936004E0026817
:10375000936823F007039360012384F83D30002031
:1037600084F83C0010BDCB684A6889680068FFF7A0
:103770008BFF2268936843F077039360ECE7CA6895
:1037800049680068FFF753FF50212068FFF774FF76
:10379000E2E7CA6849680068FFF749FF40212068EE
:1037A000FFF76AFFD8E710210068FFF765FFD3E74E
:1037B00020210068FFF760FFCEE7022070477047C6
:1037C00070477047704710B5044603681A6912F0D5
:1037D000020F11D0DA6812F0020F0DD06FF0020262
:1037E0001A610123037703689B6913F0030F70D0FC
:1037F000FFF7E6FF0023237723681A6912F0040F0E
:1038000012D0DA6812F0040F0ED06FF004021A61C1
:103810000223237723689B6913F4407F5FD02046FF
:10382000FFF7CEFF0023237723681A6912F0080FF1
:1038300012D0DA6812F0080F0ED06FF008021A6189
:10384000042323772368DB6913F0030F4ED020464F
:10385000FFF7B6FF0023237723681A6912F0100FD1
:1038600012D0DA6812F0100F0ED06FF010021A6149
:10387000082323772368DB6913F4407F3DD020467B
:10388000FFF79EFF0023237723681A6912F0010FC8
:1038900003D0DA6812F0010F36D123681A6912F0EA
:1038A000800F03D0DA6812F0800F34D123681A69D0
:1038B00012F0400F03D0DA6812F0400F32D12368C3
:1038C0001A6912F0200F03D0DA6812F0200F30D1FD
:1038D00010BDFFF774FF2046FFF773FF8AE720460D
:1038E000FFF76DFF2046FFF76CFF9BE72046FFF7D1
:1038F00066FF2046FFF765FFACE72046FFF75FFF56
:103900002046FFF75EFFBDE76FF001021A61204617
:1039100000F0D8FAC1E76FF080021A61204600F08B
:103920008CF8C3E76FF040021A612046FFF74AFFA8
:10393000C5E76FF020021A61204600F07DF8C7E766
:1039400003681B4A90420AD0B0F1804F07D0A2F51D
:103950009432904203D002F58062904203D123F06A
:1039600070034A681343124A90420AD0B0F1804F64
:1039700007D0A2F59432904203D002F580629042C3
:1039800003D123F44073CA68134323F080034A69C8
:10399000134303608B68C3620B688362044B9842D5
:1039A00002D00123436170470B690363F9E700BF4D
:1039B000002C0140A8B110B5044690F83D305BB131
:1039C000022384F83D30211D2068FFF7B9FF012351
:1039D00084F83D30002010BD80F83C3000F06AFCD7
:1039E000EEE70120704790F83C30012B22D030B434
:1039F000012280F83C20022380F83D30046863688F
:103A000023F070036360046863680D682B43636090
:103A10000468A36823F08003A3600468A36849686E
:103A20000B43A36080F83D20002380F83C3018460B
:103A300030BC704702207047704770472DE9F8434B
:103A400005460268136923F44053C1680B431361B0
:103A5000836802691343426913430168CA6822F408
:103A6000B05222F00C021343CB600268536923F476
:103A7000407381690B4353610268594B9A4257D096
:103A8000FFF71EFA00EB800000EB80006C68A400DA
:103A9000B0FBF4F4534FA7FB043464092601FFF78D
:103AA0000FFA00EB800000EB80006C68A400B0FB14
:103AB000F4F9FFF705FA00EB800000EB80006C687A
:103AC000A400B0FBF4F4A7FB043464094FF06408CD
:103AD00008FB149424013234A7FB0434640904F075
:103AE000F0043444FFF7ECF900EB800000EB8000B9
:103AF0006E68B600B0FBF6F6FFF7E2F900EB800067
:103B000000EB80006B689B00B0FBF3F0A7FB00307C
:103B1000400908FB10684FEA081808F13208A7FBB3
:103B20000837C7F343172B6827449F60BDE8F88325
:103B3000FFF7D6F900EB800000EB80006C68A40072
:103B4000B0FBF4F4274FA7FB043464092601FFF708
:103B5000C7F900EB800000EB80006C68A400B0FBAC
:103B6000F4F9FFF7BDF900EB800000EB80006C6812
:103B7000A400B0FBF4F4A7FB043464094FF064081C
:103B800008FB149424013234A7FB0434640904F0C4
:103B9000F0043444FFF7A4F900EB800000EB800050
:103BA0006E68B600B0FBF6F6FFF79AF900EB8000FE
:103BB00000EB80006B689B00B0FBF3F0A7FB0030CC
:103BC000400908FB10684FEA081808F13208A7FB03
:103BD0000837C7F343172B6827449F60A6E700BF49
:103BE000003801401F85EB5158B310B5044690F8DA
:103BF00039300BB3242384F839302268D36823F496
:103C00000053D3602046FFF719FF2268136923F49D
:103C1000904313612268536923F02A035361226899
:103C2000D36843F40053D3600020E063202384F87A
:103C3000393084F83A3010BD80F8383000F09CFB01
:103C4000D8E701207047000000B583B00A4B5A69DD
:103C500042F001025A615B6903F001030193019B89
:103C6000002205211020FEF7D1FB1020FEF702FCF8
:103C700003B05DF804FB00BF0010024070B582B0D5
:103C8000002602AC44F8046D134803685B6898474B
:103C9000124D31462846FEF777F8042322460121CB
:103CA0002846FEF7ACF9B0420CDD02AA162342F812
:103CB000043D042301212846FEF784F8012000F08A
:103CC00034FCFBE702AA212342F8043D042301212E
:103CD0000248FEF777F8F1E70C00002028000020EA
:103CE0007047704730B587B001AC064D0FCD0FC49B
:103CF0002B682360002101A800F0FDFB024B186037
:103D000007B030BD54460008C02900202DE9F0411D
:103D100088B0002404940594069407943D4B9A6956
:103D200042F010029A619A6902F010020092009A21
:103D30009A6942F020029A619A6902F02002019287
:103D4000019A9A6942F004029A619A6902F00402A7
:103D50000292029A9A6942F008029A619B6903F002
:103D600008030393039B2C4D012212212846FEF7E2
:103D7000D1FC2A4E012202213046FEF7CBFC22461E
:103D80004FF400412846FEF7C5FC2246102130467C
:103D9000FEF7C0FC022704971123059306940797AA
:103DA00004A92846FEF7CCFB48F2100304934FF019
:103DB0000108CDF814800694079704A92846FEF759
:103DC000BFFBCDF81080164B0593069404A930462E
:103DD000FEF7B6FB12230493CDF8148006940797E0
:103DE00004A93046FEF7ACFB4FF40043049305945E
:103DF000069404A93046FEF7A3FB4FF4C053049386
:103E00000594069404A92846FEF79AFB08B0BDE87D
:103E1000F08100BF0010024000080140000C01408A
:103E20000000111008B50B480B4B03600B4B4360AF
:103E300000238360C3604FF4804202614361836169
:103E4000C3610362FEF76CFC00B908BD00F046F8E0
:103E5000FBE700BFC429002000540040A0860100F9
:103E600010B586B000230293039304930593026870
:103E7000114B9A4201D006B010BD104CA36943F01B
:103E80000803A361A36903F008030093009BC02308
:103E90000293122303930323059302A90848FEF714
:103EA0004FFBE36943F40013E361E36903F4001398
:103EB0000193019BDFE700BF005400400010024067
:103EC000000C014008B50268034B9A4200D008BDBF
:103ED000FEF778FAFBE700BF002C0140FEE700B5D3
:103EE00095B000230C930F931093059306930793BB
:103EF00008930993019302930393049305230A9370
:103F00004FF480330B9301220D920E9202221192F4
:103F100012934FF4E01313930AA8FEF7D1FCD8B91B
:103F20000F23059302210691002307934FF480622B
:103F30000892099305A8FEF7EFFE78B901230193D3
:103F40004FF48073029301A8FFF70CF840B9FEF715
:103F5000A5FE15B05DF804FBFFF7C0FFFFF7BEFF3D
:103F6000FFF7BCFF08B5FEF71BFAFFF7B8FFFFF736
:103F7000CDFEFFF769FEFFF755FF00F00FF800F0E8
:103F80006BF800F0ABF900F0C3F900F0DBF900F0DA
:103F90005DF9FFF7A7FE00F0A9FAFEE700B583B0D0
:103FA0000023ADF804308DF8063000931848194A04
:103FB00002604FF0FF3242608360FFF795FAE8B984
:103FC00000228DF804208DF805208DF8062001A927
:103FD0000F48FFF7A0F9A0B901238DF800308DF844
:103FE00001308DF8023000228DF803206946084820
:103FF000FFF7F2F940B903B05DF804FBFFF76EFF7D
:10400000DEE7FFF76BFFE7E7FFF768FFF3E700BFC7
:10401000182A00200028004002680C4B9A4200D069
:10402000704700B583B0FEF72FFC094BDA6942F008
:104030000062DA61DB6903F000630193019B054BC9
:1040400001221A6003B05DF804FB00BF00280040A5
:10405000001002403C04424208B50E480E4B03607B
:104060004FF48273436000238360C3600361436144
:104070004FF4007282610822C2610362436283626C
:104080000A23C362FFF792FA00B908BDFFF726FFC3
:10409000FBE700BF2C2A00200030014010B586B09D
:1040A000002302930393049305930268164B9A42EC
:1040B00001D006B010BD03F560439A6942F4805206
:1040C0009A619A6902F480520092009A9A6942F0C9
:1040D00004029A619B6903F004030193019BA023EE
:1040E00002930223039303230593084C02A920465D
:1040F000FEF726FA4023029300230393049302A9B8
:104100002046FEF71DFAD4E70030014000080140C8
:1041100000B583B0114B9A6942F001029A619A6925
:1041200002F001020092009ADA6942F08052DA61EC
:10413000DB6903F080530193019B00220F216FF094
:104140000100FEF763F9064A536823F0E06343F089
:104150000073536003B05DF804FB00BF0010024021
:104160000000014000B589B0002201461920FEF789
:104170004DF91920FEF77EF9144B9A6942F400625A
:104180009A619B6903F400630193019B02A903A850
:10419000FEF7B6FEFEF7A4FE0D4BA3FB00239B0C1F
:1041A000013B0C480C4A026040F2E732C2604360B7
:1041B000002303618360FFF7FDFB18B1012009B004
:1041C0005DF804FB0348FFF76AFAF8E700100240C5
:1041D00083DE1B43842A0020002C014008B5FEF733
:1041E000AFFE08BDFEE7FEE7FEE7FEE77047000012
:1041F00008B50248FFF7E7FA08BD00BF842A00208F
:104200000F4B1A6842F001021A6059680D4A0A40C1
:104210005A601A6822F0847222F480321A601A6896
:1042200022F480221A605A6822F4FE025A604FF487
:104230001F029A60044B4FF000629A60704700BF03
:10424000001002400000FFF800ED00E000B587B06C
:10425000002302930393049305930093019314485E
:104260004FF08042026043608360C36003618361FA
:10427000FFF7A0FB98B906A94FF4805341F8103D11
:104280000B48FFF718FA68B90023009301936946B9
:104290000748FFF7A8FB40B907B05DF804FBFFF73C
:1042A0001DFEE8E7FFF71AFEEEE7FFF717FEF3E75C
:1042B000C42A00200368B3F1804F00D0704782B059
:1042C00003F50433DA6942F00102DA61DB6903F0D5
:1042D00001030193019B02B07047000008B50A4832
:1042E0000A4B03604FF4E133436000238360C360F3
:1042F00003610C2242618361C361FFF775FC00B961
:1043000008BDFFF7EBFDFBE7882B002000380140DC
:1043100008B50A480A4B03604FF4E13343600023B9
:104320008360C36003610C2242618361C361FFF754
:104330005BFC00B908BDFFF7D1FDFBE7C82B0020EF
:104340000044004008B50A480A4B03604FF4E133CB
:10435000436000238360C36003610C224261836178
:10436000C361FFF741FC00B908BDFFF7B7FDFBE7EC
:10437000482B00200048004070B58AB00023069307
:1043800007930893099303684D4A934208D0044663
:104390004C4A93422ED04C4A934267D00AB070BD2B
:1043A0004A4B9A6942F480429A619A6902F48042C7
:1043B0000092009A9A6942F004029A619B6903F0A4
:1043C00004030193019B4FF40073069302230793A8
:1043D000032309933E4C06A92046FEF7B1F84FF49B
:1043E0008063069300230793089306A92046FEF7EF
:1043F000A7F8D3E7354BDA6942F40032DA61DA69BB
:1044000002F400320292029A9A6942F004029A611E
:104410009B6903F004030393039B04230693022385
:104420000793032309932A4E06A93046FEF788F81E
:104430000823069300250795089506A93046FEF740
:104440007FF82448244B0360456085608023C36067
:10445000056145618561C561FEF718F818B91D4B06
:1044600063635C629AE7FFF739FDF8E7174BDA6997
:1044700042F48022DA61DA6902F480220492049A1A
:104480009A6942F008029A619B6903F00803059358
:10449000059B4FF48063069302230793032309933C
:1044A0000E4C06A92046FEF74BF84FF40063069326
:1044B00000230793089306A92046FEF741F86DE70D
:1044C0000038014000440040004800400010024015
:1044D00000080140042B00206C000240000C014049
:1044E000842801D0033070470020704708B5FCF7DE
:1044F0003BFD002008BDF0B585B00F464468056857
:104500000669B0F90800FFF7EBFF03AB01930090D9
:104510003B46B2B229462046FCF7F4FC012802D102
:10452000039805B0F0BD0020FBE708B5034600B9CD
:1045300001231846FCF764FE002008BD002103E0BB
:104540000B4B5B58435004310A480B4B42189A42BC
:10455000F6D30A4A02E0002342F8043B084B9A4291
:10456000F9D3FFF74DFE00F00FF8FFF7FBFC7047A3
:10457000C4460008000000204C0000204C00002031
:10458000082C0020FEE7000070B500250C4E0D4CF5
:10459000A41BA410A54209D100F03CF800250A4E46
:1045A0000A4CA41BA410A54205D170BD56F82530B5
:1045B00098470135EEE756F8253098470135F2E780
:1045C000BC460008BC460008BC460008C0460008BF
:1045D00030B50024A24201D1002007E0035D013480
:1045E0000D1915F8015CAB42F4D0581B30BD10B565
:1045F000431E0A44914200D110BD11F8014B03F84B
:10460000014FF7E703460244934200D1704703F895
:10461000011BF9E7F8B500BFF8BC08BC9E4670471F
:0C462000F8B500BFF8BC08BC9E4670470F
:10462C0002030405060708090A0B0C0D0E0F1010E7
:10463C000102000002030405060708090A0B0C0D11
:10464C000E0F101001020000984600087D3C000877
:10465C0000000000000000000001000049444C452F
:10466C00000000003F210008F3200008AD200008E6
:10467C00A3210008512300080200000000070E09C6
:10468C001C1B1215383F363124232A2D64656661B4
:10469C00756C745461736B00000000000000000026
:1046AC0001020304060708090000000001020304CC
:0446BC0035010008BC
:0446C00011010008DC
:1046C400AAAAAAAA002002400000000018000020A4
:1046D400704600080400002000000000EF210008DC
:1046E400000000000100000000F0000000000000D5
:1046F40000000000000000000004040000000000AE
:0C470400000000000000000000A24A04B9
:040000050800453D6D
:00000001FF
