:020000040800F2
:1000000000500020757000080555000807550008CD
:10001000095500080B5500080D55000800000000A8
:100020000000000000000000000000000F55000864
:100030001155000800000000135500081555000870
:10004000BD700008BD700008BD700008BD700008DC
:10005000BD700008BD700008BD700008BD700008CC
:10006000BD700008BD700008BD700008BD700008BC
:1000700025550008315500083D5500084955000830
:100080005555000861550008BD700008BD70000896
:10009000BD700008BD700008BD700008BD7000088C
:1000A000BD700008BD700008BD700008BD7000087C
:1000B0006D55000879550008BD700008BD70000836
:1000C000BD700008BD700008BD700008BD7000085C
:1000D000BD70000885550008D95500086D56000808
:1000E000BD700008BD700008BD7000080000000071
:1000F0000000000000000000000000000000000000
:0C01000000000000000000005FF808F1A3
:1001100010B5054C237833B9044B13B10448AFF341
:1001200000800123237010BD100300200000000098
:10013000BC84000808B5034B1BB103490348AFF367
:10014000008008BD0000000014030020BC840008EB
:10015000034613F8012B002AFBD1181A0138704707
:10016000D0400B1CD1409C46203AD3401843524209
:10017000634693401843704781F0004102E000BF9E
:1001800083F0004330B54FEA41044FEA430594EA57
:10019000050F08BF90EA020F1FBF54EA000C55EA92
:1001A000020C7FEA645C7FEA655C00F0E2804FEA63
:1001B0005454D4EB5555B8BF6D420CDD2C4480EA45
:1001C000020281EA030382EA000083EA010180EA75
:1001D000020281EA0303362D88BF30BD11F0004FC3
:1001E0004FEA01314FF4801C4CEA113102D04042F9
:1001F00061EB410113F0004F4FEA03334CEA133334
:1002000002D0524263EB430394EA050F00F0A7804B
:10021000A4F10104D5F1200E0DDB02FA0EFC22FA46
:1002200005F2801841F1000103FA0EF2801843FA3A
:1002300005F359410EE0A5F120050EF1200E012A2B
:1002400003FA0EFC28BF4CF0020C43FA05F3C01869
:1002500051EBE37101F0004507D54FF0000EDCF1E2
:10026000000C7EEB00006EEB0101B1F5801F1BD38B
:10027000B1F5001F0CD349085FEA30004FEA3C0C8F
:1002800004F101044FEA445212F5800F80F09A8085
:10029000BCF1004F08BF5FEA500C50F1000041EB89
:1002A000045141EA050130BD5FEA4C0C404141EB8D
:1002B000010111F4801FA4F10104E9D191F0000FB4
:1002C00004BF01460020B1FA81F308BF2033A3F137
:1002D0000B03B3F120020CDA0C3208DD02F1140C2E
:1002E000C2F10C0201FA0CF021FA02F10CE002F169
:1002F0001402D8BFC2F1200C01FA02F120FA0CFC62
:10030000DCBF41EA0C019040E41AA2BF01EB0451AA
:10031000294330BD6FEA04041F3C1CDA0C340EDCA8
:1003200004F11404C4F1200220FA04F001FA02F3EB
:1003300040EA030021FA04F345EA030130BDC4F1A9
:100340000C04C4F1200220FA02F001FA04F340EA9E
:100350000300294630BD21FA04F0294630BD94F04F
:10036000000F83F4801306BF81F480110134013D36
:100370004EE77FEA645C18BF7FEA655C29D094EAA7
:10038000050F08BF90EA020F05D054EA000C04BF25
:100390001946104630BD91EA030F1EBF0021002010
:1003A00030BD5FEA545C05D14000494128BF41F0AF
:1003B000004130BD14F580043CBF01F5801130BD13
:1003C00001F0004545F0FE4141F470014FF000009E
:1003D00030BD7FEA645C1ABF194610467FEA655C4F
:1003E0001CBF0B46024650EA013406BF52EA0335F1
:1003F00091EA030F41F4002130BD00BF90F0000FDF
:1004000004BF0021704730B54FF4806404F132041A
:100410004FF000054FF0000150E700BF90F0000FD3
:1004200004BF0021704730B54FF4806404F13204FA
:1004300010F0004548BF40424FF000013EE700BFCA
:1004400042004FEAE2014FEA31014FEA02701FBF5A
:1004500012F07F4393F07F4F81F06051704792F02C
:10046000000F14BF93F07F4F704730B54FF46074A6
:1004700001F0004521F0004120E700BF50EA0102F1
:1004800008BF704730B54FF000050AE050EA01029E
:1004900008BF704730B511F0004502D5404261EB0E
:1004A00041014FF4806404F132045FEA915C3FF44F
:1004B000DCAE4FF003025FEADC0C18BF03325FEAE8
:1004C000DC0C18BF033202EBDC02C2F1200300FA9D
:1004D00003FC20FA02F001FA03FE40EA0E0021FAC2
:1004E00002F11444C1E600BF70B54FF0FF0C4CF4AC
:1004F000E06C1CEA11541DBF1CEA135594EA0C0F62
:1005000095EA0C0F00F0DEF82C4481EA030621EA9C
:100510004C5123EA4C5350EA013518BF52EA0335D7
:1005200041F4801143F4801338D0A0FB02CE4FF089
:100530000005E1FB02E506F00042E0FB03E54FF0B9
:100540000006E1FB03569CF0000F18BF4EF0010EB1
:10055000A4F1FF04B6F5007F64F5407404D25FEAAD
:100560004E0E6D4146EB060642EAC62141EA555160
:100570004FEAC52040EA5E504FEACE2EB4F1FD0CA2
:1005800088BFBCF5E06F1ED8BEF1004F08BF5FEA20
:10059000500E50F1000041EB045170BD06F00046D2
:1005A00046EA010140EA020081EA0301B4EB5C047F
:1005B000C2BFD4EB0C0541EA045170BD41F4801177
:1005C0004FF0000E013C00F3AB8014F1360FDEBF9C
:1005D000002001F0004170BDC4F10004203C35DA78
:1005E0000C341BDC04F11404C4F1200500FA05F3FB
:1005F00020FA04F001FA05F240EA020001F000429C
:1006000021F0004110EBD37021FA04F642EB060111
:100610005EEA430E08BF20EAD37070BDC4F10C043B
:10062000C4F1200500FA04F320FA05F001FA04F2FF
:1006300040EA020001F0004110EBD37041F10001EB
:100640005EEA430E08BF20EAD37070BDC4F12005F6
:1006500000FA05F24EEA020E20FA04F301FA05F25E
:1006600043EA020321FA04F001F0004121FA04F206
:1006700020EA020000EBD3705EEA430E08BF20EAD6
:10068000D37070BD94F0000F0FD101F00046400010
:1006900041EB010111F4801F08BF013CF7D041EA92
:1006A000060195F0000F18BF704703F00046520096
:1006B00043EB030313F4801F08BF013DF7D043EA67
:1006C0000603704794EA0C0F0CEA135518BF95EA1D
:1006D0000C0F0CD050EA410618BF52EA4306D1D1A4
:1006E00081EA030101F000414FF0000070BD50EAC3
:1006F000410606BF1046194652EA430619D094EA4D
:100700000C0F02D150EA013613D195EA0C0F05D136
:1007100052EA03361CBF104619460AD181EA03018A
:1007200001F0004141F0FE4141F470014FF0000042
:1007300070BD41F0FE4141F4780170BD70B54FF0DD
:10074000FF0C4CF4E06C1CEA11541DBF1CEA13555D
:1007500094EA0C0F95EA0C0F00F0A7F8A4EB05043F
:1007600081EA030E52EA03354FEA013100F0888036
:100770004FEA03334FF0805545EA131343EA1263FF
:100780004FEA022245EA111545EA10654FEA0026B4
:100790000EF000419D4208BF964244F1FD0404F56D
:1007A000407402D25B084FEA3202B61A65EB0305C9
:1007B0005B084FEA32024FF480104FF4002CB6EB86
:1007C000020E75EB030E22BFB61A754640EA0C0006
:1007D0005B084FEA3202B6EB020E75EB030E22BF46
:1007E000B61A754640EA5C005B084FEA3202B6EB87
:1007F000020E75EB030E22BFB61A754640EA9C0046
:100800005B084FEA3202B6EB020E75EB030E22BF15
:10081000B61A754640EADC0055EA060E18D04FEAD3
:10082000051545EA16754FEA06164FEAC30343EA73
:1008300052734FEAC2025FEA1C1CC0D111F4801F40
:100840000BD141EA00014FF000004FF0004CB6E739
:1008500011F4801F04BF01430020B4F1FD0C88BFD8
:10086000BCF5E06F3FF6AFAEB5EB030C04BFB6EBE3
:10087000020C5FEA500C50F1000041EB045170BDD6
:100880000EF0004E4EEA113114EB5C04C2BFD4EB03
:100890000C0541EA045170BD41F480114FF0000E87
:1008A000013C90E645EA060E8DE60CEA135594EA03
:1008B0000C0F08BF95EA0C0F3FF43BAF94EA0C0F06
:1008C0000AD150EA01347FF434AF95EA0C0F7FF47B
:1008D00025AF104619462CE795EA0C0F06D152EACF
:1008E00003353FF4FDAE1046194622E750EA4106B3
:1008F00018BF52EA43067FF4C5AE50EA41047FF4C4
:100900000DAF52EA43057FF4EBAE12E74FF0FF3C28
:1009100006E000BF4FF0010C02E000BF4FF0010CF9
:100920004DF804CD4FEA410C7FEA6C5C4FEA430C72
:1009300018BF7FEA6C5C1BD001B050EA410C0CBFC1
:1009400052EA430C91EA030F02BF90EA020F002023
:10095000704710F1000F91EA030F58BF994208BF8A
:1009600090422CBFD8176FEAE37040F00100704747
:100970004FEA410C7FEA6C5C02D150EA013C07D19E
:100980004FEA430C7FEA6C5CD6D152EA033CD3D0E9
:100990005DF8040B704700BF8446104662468C46E3
:1009A0001946634600E000BF01B5FFF7B7FF002816
:1009B00048BF10F1000F01BD4DF808EDFFF7F4FF3F
:1009C0000CBF012000205DF808FB00BF4DF808EDCA
:1009D000FFF7EAFF34BF012000205DF808FB00BFED
:1009E0004DF808EDFFF7E0FF94BF012000205DF80F
:1009F00008FB00BF4DF808EDFFF7CEFF94BF0120C4
:100A000000205DF808FB00BF4DF808EDFFF7C4FFBC
:100A100034BF012000205DF808FB00BF4FEA41020F
:100A2000B2F1E04324BFB3F5001CDCF1FE5C0DD94C
:100A300001F0004C4FEAC0024CEA5070B2F1004F96
:100A400040EB830008BF20F00100704711F0804F99
:100A500021D113F13872BCBF01F00040704741F45E
:100A600080114FEA5252C2F11802C2F1200C10FA62
:100A70000CF320FA02F018BF40F001004FEAC12346
:100A80004FEAD32303FA0CFC40EA0C0023FA02F3EA
:100A90004FEA4303CCE77FEA625307D150EA0133C0
:100AA0001EBF4FF0FE4040F44000704701F0004090
:100AB00040F0FE4040F40000704700BF80F000406E
:100AC00002E000BF81F0004142001FBF5FEA410326
:100AD00092EA030F7FEA226C7FEA236C6AD04FEA26
:100AE0001262D2EB1363C1BFD2184140484041406B
:100AF000B8BF5B42192B88BF704710F0004F40F41D
:100B0000000020F07F4018BF404211F0004F41F438
:100B1000000121F07F4118BF494292EA030F3FD004
:100B2000A2F1010241FA03FC10EB0C00C3F1200317
:100B300001FA03F100F0004302D5494260EB4000A6
:100B4000B0F5000F13D3B0F1807F06D340084FEA11
:100B5000310102F10102FE2A51D2B1F1004F40EB06
:100B6000C25008BF20F0010040EA0300704749006E
:100B700040EB000010F4000FA2F10102EDD1B0FA39
:100B800080FCACF1080CB2EB0C0200FA0CF0AABF2E
:100B900000EBC25052421843BCBFD04018437047CC
:100BA00092F0000F81F4000106BF80F400000132D2
:100BB000013BB5E74FEA41037FEA226C18BF7FEAA9
:100BC000236C21D092EA030F04D092F0000F08BFEB
:100BD0000846704790EA010F1CBF0020704712F0D2
:100BE0007F4F04D1400028BF40F00040704712F111
:100BF00000723CBF00F50000704700F0004343F076
:100C0000FE4040F4000070477FEA226216BF0846AB
:100C10007FEA23630146420206BF5FEA412390EA6E
:100C2000010F40F4800070474FF0000304E000BF64
:100C300010F0004348BF40425FEA000C08BF704715
:100C400043F0964301464FF000001CE050EA0102D9
:100C500008BF70474FF000030AE000BF50EA0102EE
:100C600008BF704711F0004302D5404261EB4101DB
:100C70005FEA010C02BF84460146002043F0B64300
:100C800008BFA3F18053A3F50003BCFA8CF2083A25
:100C9000A3EBC25310DB01FA02FC634400FA02FC2E
:100CA000C2F12002BCF1004F20FA02F243EB020035
:100CB00008BF20F00100704702F1200201FA02FC97
:100CC000C2F1200250EA4C0021FA02F243EB02008A
:100CD00008BF20EADC7070474FF0FF0C1CEAD052CE
:100CE0001EBF1CEAD15392EA0C0F93EA0C0F6FD08F
:100CF0001A4480EA010C400218BF5FEA41211ED06D
:100D00004FF0006343EA501043EA5111A0FB013158
:100D10000CF00040B1F5000F3EBF490041EAD3712D
:100D20005B0040EA010062F17F02FD2A1DD8B3F1A9
:100D3000004F40EBC25008BF20F00100704790F018
:100D4000000F0CF0004C08BF49024CEA502040EA6A
:100D500051207F3AC2BFD2F1FF0340EAC250704730
:100D600040F400004FF00003013A5DDC12F1190F6E
:100D7000DCBF00F000407047C2F10002410021FAE0
:100D800002F1C2F1200200FA02FC5FEA310040F1F8
:100D9000000053EA4C0308BF20EADC70704792F071
:100DA000000F00F0004C02BF400010F4000F013AA9
:100DB000F9D040EA0C0093F0000F01F0004C02BFA4
:100DC000490011F4000F013BF9D041EA0C018FE713
:100DD0000CEAD15392EA0C0F18BF93EA0C0F0AD019
:100DE00030F0004C18BF31F0004CD8D180EA01003F
:100DF00000F00040704790F0000F17BF90F0004FD8
:100E0000084691F0000F91F0004F14D092EA0C0FB9
:100E100001D142020FD193EA0C0F03D14B0218BF4C
:100E2000084608D180EA010000F0004040F0FE4092
:100E300040F40000704740F0FE4040F4400070472E
:100E40004FF0FF0C1CEAD0521EBF1CEAD15392EAAD
:100E50000C0F93EA0C0F69D0A2EB030280EA010C9D
:100E600049024FEA402037D04FF0805343EA111136
:100E700043EA10130CF000408B4238BF5B0042F194
:100E80007D024FF4000C8B4224BF5B1A40EA0C0039
:100E9000B3EB510F24BFA3EB510340EA5C00B3EB6B
:100EA000910F24BFA3EB910340EA9C00B3EBD10F59
:100EB00024BFA3EBD10340EADC001B0118BF5FEAAB
:100EC0001C1CE0D1FD2A3FF650AF8B4240EBC250D4
:100ED00008BF20F0010070470CF0004C4CEA502095
:100EE0007F32C2BFD2F1FF0340EAC250704740F4E4
:100EF00000004FF00003013A37E792F0000F00F0D6
:100F0000004C02BF400010F4000F013AF9D040EA53
:100F10000C0093F0000F01F0004C02BF490011F4E7
:100F2000000F013BF9D041EA0C0195E70CEAD153DF
:100F300092EA0C0F08D142027FF47DAF93EA0C0FC6
:100F40007FF470AF084676E793EA0C0F04D14B02AA
:100F50003FF44CAF08466EE730F0004C18BF31F05C
:100F6000004CCAD130F000427FF45CAF31F0004356
:100F70007FF43CAF5FE700BF4FF0FF3C06E000BFEF
:100F80004FF0010C02E000BF4FF0010C4DF804CD12
:100F90004FEA40024FEA41037FEA226C18BF7FEA22
:100FA000236C11D001B052EA530C18BF90EA010F24
:100FB00058BFB2EB030088BFC81738BF6FEAE170B3
:100FC00018BF40F0010070477FEA226C02D15FEA4F
:100FD000402C05D17FEA236CE4D15FEA412CE1D0BB
:100FE0005DF8040B704700BF844608466146FFE782
:100FF0000FB5FFF7C9FF002848BF10F1000F0FBD64
:101000004DF808EDFFF7F4FF0CBF012000205DF85C
:1010100008FB00BF4DF808EDFFF7EAFF34BF0120E1
:1010200000205DF808FB00BF4DF808EDFFF7E0FF7A
:1010300094BF012000205DF808FB00BF4DF808EDCB
:10104000FFF7D2FF94BF012000205DF808FB00BF2E
:101050004DF808EDFFF7C8FF34BF012000205DF810
:1010600008FB00BF42000ED2B2F1FE4F0BD34FF08F
:101070009E03B3EB126209D44FEA002343F000430E
:1010800023FA02F070474FF00000704712F1610F31
:1010900001D1420202D14FF0FF3070474FF0000003
:1010A000704700BF38B50E4B054618784FF47A7379
:1010B000B3FBF0F30B4A1068B0FBF3F000F0CEF88E
:1010C000044658B90F2D09D8024629464FF0FF3083
:1010D00000F064F8044B20461D6038BD012038BD87
:1010E000000000201C02002004000020074A08B570
:1010F0001368032043F01003136000F03DF8002054
:10110000FFF7D0FF04F0B8F9002008BD002002402E
:10111000034A044B11681B780B441360704700BFEF
:101120007005002000000020014B1868704700BFC8
:101130007005002038B50446FFF7F6FF0546631C2E
:101140001EBF044B1B78E418FFF7EEFF401B8442E0
:10115000FAD838BD00000020044B1B680360044B24
:101160001B684360034B1B6883607047E8F7FF1FF1
:10117000ECF7FF1FF0F7FF1F074A0002D36800F4E7
:10118000E06023F4E0631B041B0C43F0BF6343F4F3
:1011900000330343D360704700ED00E0174B30B5D8
:1011A000DC68C4F30224C4F10703251D042B28BF07
:1011B0000423062D4FF0010598BF002405FA03F320
:1011C00003F1FF3388BF033C1940A14005FA04F442
:1011D000013C2240002842EA01024FEA0212AFBF5E
:1011E00000F16040064B00F00F00D2B2A5BFD2B2B2
:1011F00000F561401A5480F8002330BD00ED00E096
:1012000014ED00E00123420900F01F0003FA00F092
:10121000014B43F82200704700E100E0012243093E
:1012200000F01F0002FA00F0024A203342F82300C7
:10123000704700BF00E100E0BFF34F8F0549064B48
:10124000CA6802F4E0621343CB60BFF34F8F00BF64
:10125000FDE700BF00ED00E00400FA050138B0F141
:10126000807F0AD2F021064B064A586082F823108C
:101270000020072298601A6070470120704700BF65
:1012800010E000E000ED00E0044B04281A680CBFF9
:1012900042F0040222F004021A60704710E000E0FD
:1012A000704708B5FFF7FCFF08BD000010B550B34C
:1012B00014220168154B84680B44B3FBF2F39B00C6
:1012C0000364134B0A68C363436822F47F522343C9
:1012D000C46822F030022343046923434469234352
:1012E00084692343C469234313430B600122002311
:1012F00080F821208362C36203634363836380F8C1
:101300002030184610BD012010BD00BFF8FFFDBF02
:101310000000024010B5E8B101680F4A0B680A44AA
:1013200023F001030B6000230B604B608B60CB60EC
:101330001421B2FBF1F20121084C9200026401FA7F
:1013400002F2C4636260836380F8213080F8203049
:10135000184610BD012010BDF8FFFDBF000002407F
:10136000F0B590F82040012C35D0012490F82150A0
:1013700080F82040A5424FF000064FF0020428D12B
:1013800080F82140046886632668076C26F0010611
:101390002660C66BBD407560636043680568102BAE
:1013A000C36A0BBFA260A160E160E2604BB1236839
:1013B00043F00E0323602B68002043F001032B60F1
:1013C000F0BD236823F004032360236843F00A037D
:1013D000F0E780F820600220F0BD02680346116843
:1013E000C06B21F00E011160116821F00101116044
:1013F00001211A6C01FA02F24260002083F82110E8
:1014000083F820007047000090F8213010B5022BBF
:1014100003D004238363012010BD03681A6822F0FF
:101420000E021A601A6822F001021A60184A9342EA
:101430001FD0143293421ED0143293421DD0143266
:1014400093421DD0143293421DD0143293420CBFEC
:101450004FF480134FF080730E4A00245360012331
:1014600080F82130436B80F820407BB198472046BC
:1014700010BD0123F0E71023EEE74FF48073EBE794
:101480004FF48053E8E74FF48033E5E7184610BD8A
:10149000080002400000024070B40425C66B026CD4
:1014A0003468036895402542196832D04D0730D51D
:1014B0001A6896065EBF1A6822F004021A603E4A55
:1014C000934219D01432934218D01432934217D059
:1014D0001432934217D01432934217D014329342ED
:1014E0000CBF4FF480034FF08063344A5360C36AEB
:1014F000002B5ED070BC18470423F6E74023F4E7C6
:101500004FF48063F1E74FF48043EEE74FF480231C
:10151000EBE702259540254235D08D0733D51A6873
:10152000940606D41A6822F00A021A60012280F892
:101530002120214A934219D01432934218D01432F8
:10154000934217D01432934217D01432934217D0DB
:10155000143293420CBF4FF400134FF00073174A3C
:101560005360002380F82030836AC1E70223F6E746
:101570002023F4E74FF40073F1E74FF40053EEE754
:101580004FF40033EBE708259540254211D00907B9
:101590000FD5196821F00E011960012303FA02F238
:1015A0007260836380F82130002380F82030036B61
:1015B0009EE770BC704700BF080002400000024078
:1015C000114AD36813F0100305D01049CB6943F0DA
:1015D0000203CB611023D268500706D50B4943F0B4
:1015E0000403CA6942F00102CA61074AD169C90706
:1015F00008D50648C16941F00401C161D16921F0F3
:101600000101D161D36070470020024078050020BD
:10161000064B186910F0800007D0054A5A6002F1A5
:1016200088325A601869C0F3C01070470020024029
:1016300023016745034A0020136943F080031361C7
:10164000704700BF00200240F8B50646FFF76CFD6A
:10165000114C07462546E368D80712D4E36899067B
:1016600044BF2023E360EB68DA0606D4EB69DB07AE
:1016700003D4E86810F0040002D0FFF7A1FF0120B6
:10168000F8BD731CE7D00EB90320F8BDFFF74CFD81
:10169000C01B8642DFD2F7E7002002402DE9F84F59
:1016A0001F4C9946237E0546012B0F46904633D0AA
:1016B00001234CF250302376FFF7C6FF40BB012DCB
:1016C00003D0022D0CBF022504250026B246DFF808
:1016D00054B0320140464946FEF742FDC4F81CA012
:1016E000DBF8103080B243F00103CBF8103027F85C
:1016F00016004CF25030FFF7A7FFDBF8103023F054
:101700000103CBF8103018B90136F3B29D42E0D88E
:1017100000232376BDE8F88F0220BDE8F88F00BFD4
:1017200078050020002002400022064BDA61064BBB
:101730001A6942F004021A611A6942F040021A6101
:10174000704700BF78050020002002400022064BB1
:10175000DA61064B1A6942F002021A6158611A698D
:1017600042F040021A6170477805002000200240D4
:101770002DE9F041234D07462B7E8846012B3DD0B5
:10178000012403682C76022B4CF2503013D1FFF762
:101790005BFF20B1012000232B76BDE8F081FFF72D
:1017A000C3FF4CF25030FFF74FFF174A136923F085
:1017B00004031361EFE7FFF747FF0028EAD14FF07A
:1017C000FF33C8F800302046BE680F4CFA68BB688B
:1017D00003EB82239E42DED23046FFF7B7FF4CF286
:1017E0005030FFF731FF236923F00203236110B16A
:1017F000C8F80060CFE706F58066E7E70220BDE89D
:10180000F08100BF78050020002002402DE9F74F4D
:1018100000221646654BDFF8A4E1DFF8A4C14FF0C3
:1018200001080C6808FA06F808EA0404A0457FD10C
:101830004D68122D00F0AF8000F28880022D00F07C
:10184000A7807CD8002D00F08E80012D00F09E80B6
:101850004FF00F09FF2C93BF824606F18045083DEB
:10186000D0F800B092BFB500D0F804B0AD0009FACE
:1018700005F82BEA080802FA05F588BF00F1040A0A
:1018800048EA0505CAF80050D1F804A01AF0805FB4
:101890004ED0474D464FAD6926F0030845F001058F
:1018A000BD61BD6908F1804805F00105019508F5A5
:1018B000803806F0030B019D4FEA8B0BD8F80850D7
:1018C00009FA0BF925EA09093A4DA84268D005F54D
:1018D0008065A84266D005F58065A84264D005F50C
:1018E0008065A8420CBF0325042505FA0BF545EADF
:1018F0000905C8F808501D681AF4803F14BF254335
:10190000A5431D605D681AF4003F14BF2543A5433D
:101910005D609D681AF4801F14BF2543A5439D6038
:10192000DD681AF4001F14BF2C4325EA0404DC60B0
:101930000136102E7FF473AF03B0BDE8F08F032D96
:1019400022D0112D84D1CA68043281E71A4FBD42DA
:1019500009D012D8DFF86C904D4504D009F58039D4
:101960004D457FF475AF8A68C2B1012A0CBFC0F83B
:101970001080C0F8148008226AE77545F3D06545E9
:10198000F1D0DFF84490EBE7002261E7CA685FE737
:10199000CA6808325CE7CA680C3259E7042257E784
:1019A0000025A2E70125A0E702259EE700040140EB
:1019B000001002400008014000002110000031101A
:1019C0000000321000001110000022102DE9F04F2D
:1019D00000224FF001094FF00F0C4FF0040A304C79
:1019E000DFF8C4B031FA02F301D1BDE8F08F09FA93
:1019F00002F30B404CD0FF2B98BF07466FEA03035E
:101A000085BF02F18045083DD0F800E0D0F804E041
:101A100094BF9500AD000CFA05F62EEA06060AFA08
:101A200005F588BF071D2E433E60C56802F0030719
:101A30001D40C56022F0030505F1804505F58035A0
:101A4000AE68BF000CFA07F806EA080E154EB04261
:101A500020D006F58066B0421ED006F58066B04202
:101A60001CD058450CBF03260426BE40B6450FD1F6
:101A7000AE6826EA0806AE6025681D4025606568E8
:101A80001D406560A5681D40A560E5682B40E360CA
:101A90000132A7E70026E8E70126E6E70226E4E7A9
:101AA000000401400008014000140140836819420D
:101AB00014BF0120002070470AB10161704709047A
:101AC000FBE7C3685940C160704738B50446D8B1D8
:101AD0004CF6CC4203681A6045F255521A604268CF
:101AE0005A6082689A60FFF71FFB05462368D86832
:101AF00018B94AF6AA221A6038BDFFF715FB401B39
:101B00003028F3D9032038BD012038BD4AF6AA2277
:101B1000036800201A60704703682DE9F341DB0772
:101B2000054610D42B689F075ED42B68190700F177
:101B300095802B685A0700F1BF80EA69002A40F0BF
:101B40002D81002014E0904C636803F00C03042BFB
:101B500007D0636803F00C03082B0CD16368DE0325
:101B600009D523689C03DDD56B68002BDAD10120F1
:101B700002B0BDE8F0816B68B3F5803F10D12368F7
:101B800043F480332360FFF7CFFA064623689803B7
:101B9000C8D4FFF7C9FA801B6428F7D90320E7E708
:101BA0009BB9236823F480332360236823F48023C4
:101BB0002360FFF7B9FA064623689903B2D5FFF709
:101BC000B3FA801B6428F7D9E8E7B3F5A02F2368A0
:101BD00003D143F480232360D1E723F480332360CF
:101BE000236823F48023CDE7674C636813F00C0F60
:101BF00007D0636803F00C03082B10D16368DA0385
:101C00000DD423689B0702D52B69012BAFD1236824
:101C10006A6923F0F80343EAC203236085E72A696F
:101C20005A4B6AB101221A60FFF77EFA0646236812
:101C30009F07ECD4FFF778FA801B0228F7D9ADE7AD
:101C40001A60FFF771FA0646236898077FF56DAFB3
:101C5000FFF76AFA801B0228F6D99FE7AA694A4C67
:101C60004B4BDAB101221A60FFF75EFA0646636A4F
:101C70009B070DD54FF4FA52464B1B68B3FBF2F3AA
:101C8000019300BF019B5A1E0192002BF9D150E72E
:101C9000FFF74AFA801B0228E9D97FE71A60FFF7AD
:101CA00043FA0646636A9F077FF543AFFFF73CFAA6
:101CB000801B0228F6D971E7334CE369D80024D49D
:101CC0000127E36943F08053E361E36903F0805344
:101CD0000093009B304E3368D90518D5EB68012B73
:101CE00026D1236A43F001032362FFF71DFA41F274
:101CF00088368046236A9B073FD5002F3FF41DAFEF
:101D0000E36923F08053E36117E70027E2E73368D4
:101D100043F480733360FFF707FA80463368DA05CF
:101D2000DCD4FFF701FAA0EB08006428F6D935E708
:101D3000ABB9236A41F2883823F001032362236A96
:101D400023F004032362FFF7EFF90646236A98079E
:101D5000D3D5FFF7E9F9801B4045F7D91EE7052BDE
:101D6000236A03D143F004032362BAE723F001039B
:101D70002362236A23F00403B6E7FFF7D5F9A0EB4B
:101D80000800B042B6D909E7001002400000424204
:101D9000800442421C02002000700040224C636814
:101DA00003F00C03082B3FF4E2AE00231F4E022A7F
:101DB00033602BD1FFF7B8F90746236899011FD488
:101DC0002B6AB3F5803F05D16268A96822F400321E
:101DD0000A436260696A62680B4322F47412134317
:101DE000636001233360FFF79FF9054623689A017A
:101DF0003FF5A7AEFFF798F9401B0228F6D9CDE6CC
:101E0000FFF792F9C01B0228D7D9C7E6FFF78CF974
:101E1000054623689B017FF594AEFFF785F9401BCB
:101E20000228F6D9BAE600BF001002406000424224
:101E300030B5194B87B002AC03F110052246186883
:101E40005968083303C2AB421446F7D101238DF819
:101E50000430022311498DF805304B6803F00C0261
:101E6000082A17D1C3F3834206A80244DB0312F801
:101E7000102C0CD54B680A48C3F34043504306AAC4
:101E8000134413F8143CB0FBF3F007B030BD054821
:101E90005043FAE70248F8E7D484000800100240F3
:101EA00000127A0000093D004D4A2DE9F041136807
:101EB000054603F007038B420E4628D32A68910794
:101EC00032D4D20738D4464A136803F007039E423F
:101ED00073D32A68434C12F0040F79D1130706D547
:101EE00063682A6923F4605343EAC2036360FFF71F
:101EF0009FFF63683C4AC3F30313D35CD8403B4B5A
:101F000018600020FFF7CEF80020BDE8F0811368CC
:101F100023F007030B431360136803F00703994290
:101F2000CCD00120BDE8F0812E49A8684B6823F091
:101F3000F00303434B60C4E76A682A4C012A236814
:101F40001CD113F4003FECD0636841F2883823F0D1
:101F5000030313436360FFF7E7F86B680746012B41
:101F600014D1636803F00C03042BACD0FFF7DCF84A
:101F7000C01B4045F5D90320BDE8F081022A02D1FB
:101F800013F0007FDFE713F0020FDCE7022B0FD125
:101F9000636803F00C03082B95D0FFF7C5F8C01B4E
:101FA0004045F5D9E7E7FFF7BFF8C01B4045E2D849
:101FB000636813F00C0FF6D185E7136823F007036D
:101FC00033431360136803F007039E42A9D180E7EF
:101FD0006368E96823F4E0630B4363607EE700BF56
:101FE0000020024000100240608600081C02002011
:101FF000014B1868704700BF1C020020044B054AC3
:102000005B68C3F30223D35C034A1068D84070476F
:1020100000100240708600081C020020044B054A94
:102020005B68C3F3C223D35C034A1068D84070478F
:1020300000100240708600081C02002003682DE991
:10204000F341D907054620D5354CE369DA0032D48F
:102050000127E36943F08053E361E36903F08053B0
:102060000193019B2F4E3368DB0526D5236A13F4B9
:10207000407336D1236A6A6823F4407313432362A2
:102080001FB1E36923F08053E3612868830706D515
:10209000234AA968536823F440430B43536010F06C
:1020A00010001BD01E4AE9685368002023F4800307
:1020B0000B43536012E00027D4E7336843F4807386
:1020C0003360FFF731F880463368D805CED4FFF788
:1020D0002BF8A0EB08006428F6D9032002B0BDE875
:1020E000F0816A6802F440729342C3D001200E4A24
:1020F000236A1060002023F4407110602162D90728
:10210000B8D5FFF711F841F288380646236A9A07D6
:10211000B0D4FFF709F8801B4045F7D9DDE700BFD1
:102120000010024000700040400442422DE9F0419E
:102130000446884617461D46069E2268936838EA7C
:1021400003030CBF012300239F4202D10020BDE8FE
:10215000F0816B1CF2D055BB23685A6822F0E00274
:102160005A606268B2F5827F0AD1A268B2F5004F68
:1021700002D0B2F5806F03D11A6822F040021A60D3
:10218000A26AB2F5005F09D11A6822F40052120463
:10219000120C1A601A6842F400521A60012384F883
:1021A00051300023032084F85030BDE8F081FEF761
:1021B000BBFF801B8542C0D8CEE713B50B4600920B
:1021C000802100220446FFF7B1FF20B10320636D98
:1021D00043F02003636502B010BD2DE9FF411E46A8
:1021E00090F850300446012B0D46904600F09C803C
:1021F000012380F85030FEF797FF074694F851000E
:10220000C0B2012840F08E80002D4ED0B8F1000FF2
:102210004BD0032384F8513000236365A363A4F8F3
:102220003680A387E38763642364A3682563B3F5DB
:10223000004F2368A4F8348002BF1A6842F4804239
:102240001A601A6852065EBF1A6842F040021A60AD
:10225000E268B2F5006F626838D11AB1E28E92B2CC
:10226000012A06D135F8022BDA60E38E013B9BB2DE
:10227000E386E38E9BB293B9009733460122022195
:102280002046FFF753FF78B93A4631462046FFF71C
:1022900094FF002838D020230120636505E02368DF
:1022A0009A689007DED44EB90320012384F8513098
:1022B000002384F8503004B0BDE8F081711CD8D000
:1022C000FEF732FFC01B8642D3D8EDE71AB1E28E8B
:1022D00092B2012A06D115F8012B1A73E38E013B45
:1022E0009BB2E386E38E9BB2002BC5D023689A682D
:1022F0009207F0D4002ED7D0731CF3D0FEF714FF52
:10230000C01B8642EED8CFE7A36833B90393236896
:10231000DA6803929B680393039B606D003018BFDB
:102320000120C2E70220C0E70220C4E72DE9F04304
:10233000994690F8503085B0012B04460D4616465C
:102340000C9F00F0EE80012380F85030FEF7ECFE89
:1023500094F851308046DBB2012B61680AD0B1F5A8
:10236000827F40F0DC80A268002A40F0D880042BF5
:1023700040F0D580002D4ED0002E4CD0B9F1000F8A
:1023800049D094F85130A663012B04BF052384F88B
:10239000513000236365236463642368A4F83E908E
:1023A000A4F836901A68A4F83C90500658BF1A68F2
:1023B000256358BF42F04002A4F8349058BF1A6019
:1023C000E268B2F5006F5DD119B1E28E92B2012AD6
:1023D00006D135F8022BDA60E38E013B9BB2E3862F
:1023E0004FF00109E38E9BB2BBB9E38F9BB2A3B957
:1023F000CDF800803B46012202212046FFF796FEE1
:10240000002835D1424639462046FFF7D6FE00283F
:102410007AD02023636501202BE0B9F1000F0FD0A3
:10242000E38E9BB263B123689A68910708D54FF099
:10243000000935F8022BDA60E38E013B9BB2E3869C
:10244000E38F9BB263B123689A68D20708D54FF037
:102450000109DB6826F8023BE38F013B9BB2E3876F
:10246000781CBFD0FEF760FEA0EB08008742B9D809
:102470000320012384F85130002384F8503005B044
:10248000BDE8F08319B1E28E92B2012A06D115F8A7
:10249000012B1A73E38E013B9BB2E3864FF00109D7
:1024A000E38E9BB21BB9E38F9BB2002BA0D0B9F196
:1024B000000F0FD0E38E9BB263B123689A68910737
:1024C00008D54FF000092A7801351A73E38E013BD5
:1024D0009BB2E386E38F9BB26BB123689A68D20705
:1024E00009D54FF00109DB68013606F8013CE38F9E
:1024F000013B9BB2E3877B1CD2D0FEF715FEA0EB1D
:1025000008008742CCD8B3E7A368002BB1D1236879
:102510000390DA6803929B680393039BA9E7022068
:10252000A7E70220ABE72DE9F3411E4643680446C6
:10253000B3F5827F0D4690460CD1836853B90423CE
:1025400080F85130134600960A46FFF7EFFE02B0BE
:10255000BDE8F08194F85030012B00F08180012318
:1025600084F85030FEF7E0FD074694F85100C0B201
:10257000012873D1002D58D0B8F1000F55D0042395
:1025800084F85130002363652363A4F83E80A3865A
:10259000E38623646364A368A563B3F5004F2368EF
:1025A000A4F83C8002BF1A6822F480421A601A68BC
:1025B00052065EBF1A6842F040021A60E368CBB16F
:1025C000E38F9BB2D3B123689A68D2073CD5DB680E
:1025D00025F8023BE38F013B9BB2E387F0E72368DA
:1025E0009A68D0071FD51B7B05F8013BE38F013BA1
:1025F0009BB2E387E38F9BB2002BF0D16368B3F506
:10260000827F0BD1A368B3F5004F02D0B3F5806F82
:1026100004D12268136823F040031360606D00301A
:1026200018BF012001E03EB90320012384F8513096
:10263000002384F850308AE7711CDBD0FEF774FD6C
:10264000C01B8642D6D8EFE7002EEDD0731CB7D062
:10265000FEF76AFDC01B8642B2D8E5E70220E4E738
:10266000022074E710B50446002834D000238362AA
:1026700090F851300BB902F00FFA0223216884F868
:1026800051300B68A06823F040030B606368A269B7
:102690000343E06803432069034360690343E0693F
:1026A0000343206A0343A06A034302F40070034318
:1026B0000B60120C636A02F004021A43E36A4A6078
:1026C0000B61CB69002023F40063CB6101236065BB
:1026D00084F8513010BD012010BD0223026880F83B
:1026E0003D30136843F001031360012380F83D304F
:1026F00000207047022341F2111280F83D30036838
:10270000196A114208D140F24442196A114202BFCB
:102710001A6822F001021A60012380F83D3000207F
:10272000704703680020DA6842F00102DA601A6834
:1027300042F001021A60704790F83C3070B5012BEE
:102740004FF002031CD0012280F83D30036880F86E
:102750003C209A6822F47F4222F077029A600A684D
:10276000402A79D019D8102A00F093800AD8002A7C
:1027700000F08980012380F83D30002380F83C3050
:10278000184670BD202A00F08A80302AF2D19A685B
:1027900022F0700242F0370236E0702A36D01BD8A1
:1027A000502A42D0602AE5D11C6A4D6824F01004FA
:1027B000CE681C6299691A6A21F4704122F0A00265
:1027C00042EA051241EA063199611A629A6822F0DA
:1027D000700242F0670217E0B2F5805F11D0B2F5E7
:1027E000005FC7D18A684D689C68C9682A4324F491
:1027F0007F4442EA012222439A609A6842F480426E
:1028000002E09A6822F007029A60B3E78A684D688E
:102810009C68C9682A4324F47F4442EA0122224387
:102820009A609A6842F07702EEE74C68CE68196ABF
:102830001D6A21F00A0125F001051D629A692143F4
:1028400022F0F00242EA06129A6119629A6822F0B6
:10285000700242F05702D7E74C68CE68196A1D6AC9
:1028600021F00A0125F001051D629A69214322F039
:10287000F00242EA06129A6119629A6822F0700226
:1028800042F04702C0E79A6822F0700242F0070265
:10289000BAE79A6822F0700242F01702B4E79A6829
:1028A00022F0700242F02702AEE77047704770478F
:1028B0007047036810B51A69044691070ED5DA68A7
:1028C00092070BD56FF002021A6101229B69027711
:1028D0009B0777D0FFF7EAFF0023237723681A6965
:1028E000500710D5DA6851070DD56FF004021A6150
:1028F00002229B69227713F4407F204668D0FFF7BD
:10290000D5FF0023237723681A6912070FD5DA68E9
:1029100010070CD56FF008021A610422DB692277D8
:10292000990720465AD0FFF7C1FF00232377236879
:102930001A69D20610D5DA68D0060DD56FF01002EC
:102940001A610822DB69227713F4407F20464BD0BE
:10295000FFF7ACFF0023237723681A69D10708D556
:10296000DA68D20705D56FF0010220461A6102F03D
:1029700037F823681A69100608D5DA68110605D5F4
:102980006FF0800220461A6100F0ABF823681A69E4
:10299000520608D5DA68500605D56FF04002204689
:1029A0001A61FFF785FF23681A69910622D5DA6854
:1029B00092061FD56FF020022046BDE810401A6134
:1029C00000F08EB8FFF771FF2046FFF770FF83E736
:1029D000FFF76BFF2046FFF76AFF92E7FFF765FFFF
:1029E0002046FFF764FFA0E7FFF75FFF2046FFF7F1
:1029F0005EFFAFE710BD00001A4A036890420AD09C
:102A0000B0F1804F07D0A2F59432904203D002F586
:102A10008062904215D14A6823F070031343114A33
:102A200090420AD0B0F1804F07D0A2F59432904284
:102A300003D002F58062904203D1CA6823F4407348
:102A400013434A6923F08003134303608B68C36216
:102A50000B688362034B984204BF0B690363012335
:102A600043617047002C014010B50446A0B190F8B6
:102A70003D3003F0FF021BB980F83C2002F05EFFFE
:102A80000223206884F83D30211DFFF7B5FF0123A4
:102A9000002084F83D3010BD012010BD90F83C307E
:102AA00010B5012B4FF0020318D080F83D300368B9
:102AB0000C685A68496822F070025A605A682243CA
:102AC0005A609A6822F080029A609A680A439A6073
:102AD000012380F83D30002380F83C30184610BDBB
:102AE000704770470368DA6822F49072DA605A69B6
:102AF00022F001025A61202380F83A30704700002A
:102B00002DE9F0470568C2682B69016923F4405339
:102B100013432B618368EA680B43416922F4B05286
:102B200022F00C020B431343EB606B69826923F4C0
:102B3000407313436B61404B81469D424FF0190433
:102B400046D1FFF76BFA04FB00F3D9F804604FF0AD
:102B50006408B600B3FBF6F3B3FBF8F31E01FFF70E
:102B60005DFA6043D9F804309B00B0FBF3F7FFF740
:102B700055FA6043D9F804309B00B0FBF3F3B3FB84
:102B8000F8F308FB13731B013233B3FBF8F303F0C4
:102B9000F007FFF743FA6043D9F804209200B0FB36
:102BA000F2FAFFF73BFA6043D9F804309B00B0FB20
:102BB000F3F3B3FBF8F308FB13A31B013233B3FBAE
:102BC000F8F303F00F033B433344AB60BDE8F087F9
:102BD000FFF714FA04FB00F3D9F804604FF064081F
:102BE000B600B3FBF6F3B3FBF8F31E01FFF706FAEA
:102BF0006043D9F804309B00B0FBF3F7FFF7FEF910
:102C00006043D9F804309B00B0FBF3F3B3FBF8F357
:102C100008FB13731B013233B3FBF8F303F0F00727
:102C2000FFF7ECF96043D9F804209200B0FBF2FA08
:102C3000FFF7E4F9B7E700BF00380140F8B50446F4
:102C40000E4617461D4621680B6836EA030301D17C
:102C50000020F8BD6B1CF7D095B923680320DA6813
:102C600022F4D072DA605A6922F001025A612023FC
:102C700084F8393084F83A30002384F83830F8BDCD
:102C8000FEF752FAC01B8542DDD2E6E710B50446D6
:102C900040B390F8393003F0FF021BB980F83820B8
:102CA00002F0F0FE2423226884F83930D3682046ED
:102CB00023F40053D360FFF723FF236800201A6931
:102CC00022F490421A615A6922F02A025A61DA68A3
:102CD00042F40052DA602023E06384F8393084F84B
:102CE0003A3010BD012010BD2DE9F0411F4690F88B
:102CF00039300446202B0D4690464ED1002949D04C
:102D0000002A47D090F83830012B46D0012380F8B4
:102D100038300023C363212380F83930FEF704FAEA
:102D20000646A4F82480A4F82680E38C9BB26BB9F5
:102D30003B46324640212046FFF780FFA8B92023BA
:102D400084F8380084F83930BDE8F081E38C3246ED
:102D5000013B9BB2E384A3688021B3F5805F2046EA
:102D60003B460ED1FFF76AFF10B10320BDE8F081AA
:102D70002B882268C3F308035360236943B90235E3
:102D8000D3E7FFF75BFF0028EFD123682A785A606A
:102D90000135CAE70120BDE8F0810220BDE8F081DD
:102DA0002DE9F0411F4690F83A300446202B0D469D
:102DB000904651D100294CD0002A4AD090F83830A2
:102DC000012B49D0012380F838300023C36322232C
:102DD00080F83A30FEF7A8F90646A4F82C80A4F84B
:102DE0002E80E08D80B230B9202384F8380084F83A
:102DF0003A30BDE8F081E38D3246013B9BB2E3857A
:102E0000A3682021B3F5805F20463B4612D1FFF72F
:102E100015FF10B10320BDE8F081236822695B68CB
:102E200022B9C3F3080325F8023BDAE7DBB225F841
:102E3000013BD6E7FFF702FF0028EBD123682169A9
:102E40006A1C5B6811B92B701546CAE703F07F0353
:102E5000F9E70120BDE8F0810220BDE8F081000023
:102E600038B50446134694F83920202A2AD139B3BC
:102E700033B394F83820012A24D00122002584F8A5
:102E800038202122E384206BE56384F839200E4A40
:102E9000A384216282620D4A4563C2620C4A0263C6
:102EA00022680432FEF75CFA6FF04002236828467D
:102EB0001A605A6984F8385042F080025A6138BD6D
:102EC000012038BD022038BDC32F0008F12F0008B3
:102ED000BF300008134690F83A2073B5202A054603
:102EE00038D1002934D0002B32D090F83820012A74
:102EF00030D00122002480F838202222816283858C
:102F0000C46380F83A20406B134A2E688262134AE9
:102F10004463C262124A02630A46311DFEF720FA78
:102F200020462B6801941A6801925A6885F8384047
:102F30000192019ADA6842F48072DA605A6942F0CA
:102F400001025A615A6942F040025A6102B070BDF2
:102F50000120FBE70220F9E7FD2F0008B33000084D
:102F6000BF300008036810B55A6990F8391004465C
:102F7000212911D111060FD55A69006B22F0800268
:102F80005A6108B1FEF729FA2268D36823F0C0031A
:102F9000D360202384F8393023685A6994F83A10B2
:102FA00022290CD152060AD55A69606B22F04002E0
:102FB0005A6108B1FEF711FA2046FFF793FD002091
:102FC00010BD08B50368426A1B6813F020030AD1DC
:102FD000D38413685A6922F080025A61DA6842F099
:102FE0004002DA6008BD104600F092FF08BD70474D
:102FF00008B5406AFFF7FBFF08BD704708B50368D6
:10300000426A1B6813F0200310D1D3851368D96876
:1030100021F48071D960596921F001015961596920
:1030200021F040015961202382F83A301046FFF721
:10303000E4FF08BD90F83A3010B5222B36D18368F2
:103040000169B3F5805F0268836A23D15268E9B9E8
:10305000C2F3080223F8022B8362C48D013CA4B2A0
:10306000C4858CB90368DA6822F02002DA60DA6875
:1030700022F48072DA605A6922F001025A61202338
:1030800080F83A30FFF7B9FF002010BDD2B223F824
:10309000012BE1E721B9591C526881621A70DCE703
:1030A0005268591C816202F07F02F7E7022010BDCE
:1030B000704708B5406AFFF7FBFF08BD7047416ADB
:1030C00008B50B685A6991F8390021280AD112060F
:1030D00008D50022CA84DA6822F0C002DA60202211
:1030E00081F839205B6991F83A20222A06D15B06E3
:1030F00004D500230846CB85FFF7F4FCCB6B0846CC
:1031000043F01003CB63FFF7D9FF08BD036870B528
:103110001A6804461607D9685D6907D196065AD51C
:103120008D0658D5BDE87040FFF784BF15F0010546
:1031300002D111F4907F4ED0D30705D5CE0542BF02
:10314000E36B43F00103E363500704D51DB1E36B68
:1031500043F00203E363930704D51DB1E36B43F02F
:103160000403E363160704D51DB1E36B43F00803C2
:10317000E363E36B002B66D0950604D5880602D581
:103180002046FFF757FF236820465D69E26B110771
:1031900002D415F040051AD0FFF7A4FC23685A6941
:1031A000520610D55A69606B22F040025A6150B144
:1031B000254B4363FEF728F9002844D0606BBDE837
:1031C0007040436B18472046FFF778FF70BDFFF74C
:1031D00075FFE56370BD160627D50D0625D594F855
:1031E0003920212A2FD1A268B2F5805F226A17D137
:1031F0001188C1F308015960216979B9023222624C
:10320000E28C013A92B2E284EAB9DA6822F08002F2
:10321000DA60DA6842F04002DA6070BD0132EEE74F
:10322000511C216212785A60EAE750060BD54A0613
:1032300009D5DA68204622F04002DA60202384F8BB
:10324000393000F065FE70BD4D32000808B500232E
:10325000406AC385C384FFF731FF08BD70B50546DA
:103260000E46074C0A460146D4F8A801FFF7F8FDC0
:1032700032462946D4F8B001BDE87040FFF7F0BDF2
:10328000A8050020F8B506460A4C237AB3420DD0B3
:1032900025686DB90C2003F067FF20600560276882
:1032A0003E72FDF741FF236878605D720120F8BD32
:1032B0002C46EAE730060020054B1A7A824204D0F9
:1032C0001B68002BF9D1184670470120704700BFDA
:1032D000300600202DE9F041134CD4F8885004F159
:1032E000A70604F1A50704F1A6080DB9BDE8F08111
:1032F00094F8A4102B7A023989B2304684F8A730AA
:1033000003F012FE94F8A4300849D85594F8A4307C
:10331000000A03F8080094F8A420FA23D4F8A801BE
:10332000FFF7E2FC2D68E0E7A80500204F0600202B
:10333000024608B5064B186838B1017A914205D1AA
:1033400002681A6003F018FF012008BD0346F2E787
:103350003006002010B5084C237A834206D1FDF7D1
:10336000E3FE002360606372012010BD2468002C1E
:10337000F2D1204610BD00BF300600202DE9F041FB
:10338000294C2A4D2A4E2B4FFDF7CEFE63689842FA
:1033900046D9237A002B43D0FDF7C6FE6368C01AD6
:1033A000A84237D9637A73B9F52323480321037000
:1033B000224B5B784370237A8370FFF74FFF012025
:1033C0006072BDE8F081FDF7AFFE6368C01AB042DD
:1033D00014D994F80980B8F1010F0FD1F5231648DC
:1033E00003210370154B5B784370237A8370FFF7DA
:1033F00035FF022340466372BDE8F081FDF794FE7D
:103400006368C01AB84205D9637A022B02D1207AC8
:10341000FFF78EFF2468002CB6D12046BDE8F0816E
:10342000FDF782FE6060F5E730060020C027090046
:1034300080FC0A00A0BB0D0098050020A805002014
:103440002DE9F84F924E934C33786578042B13D8BE
:10345000DFE813F00500150050008700F900012394
:1034600033700A23B5FBF3F003FB10556420EDB273
:1034700068430130FDF75EFE3078BDE8F88FF12338
:10348000854F03213B70EB433846BB707D70FFF7DF
:10349000E5FEFDF749FEDFF80492824640F6B83BB0
:1034A000C846FDF741FE99F80030A0EB0A0003FB87
:1034B0000BB398420ED23B78F22BF2D17B78AB4221
:1034C000EFD1BB782B40ECD103223270012289F876
:1034D0000030A2803378032BCED098F8003001332F
:1034E000DBB20A2B88F80030C6D1022333700023E8
:1034F00088F80030F323684F03213B70EB433846D4
:10350000BB707D70FFF7AAFEFDF70EFE40F6B738E0
:103510008146FDF709FEA0EB0900404514D83A7832
:10352000F42AF6D17B78AB42F3D1BB7803215A4819
:1035300084F898303A707B70BD70FFF78FFE0423DB
:1035400000223370554B1A703378042B94D0534AB1
:1035500013780133DBB2012B137002BF00233370E9
:1035600013700023DFF8308188F80030A3884746C5
:10357000012B41D194F89C308BB1FFF7FFFE98F8F6
:103580000030F62B07D198F80130AB4203D198F800
:103590000200FFF7DFFEA388012B7FF46DAF97F8E1
:1035A0000080B8F1F30F11D17A78BB781A427FF41A
:1035B00063AF94F89C30022B3FF65EAFF423BD70EE
:1035C0003B7003213448FFF749FE55E7B8F1F40F8B
:1035D0007FF452AF7B78AB427FF44EAFB878FFF701
:1035E00051FE00283FF448AF94F89C3087F80080E3
:1035F000013384F89C30E4E7022B7FF43DAFFDF704
:1036000093FDD4F89430984218D9FDF78DFDD4F885
:103610009430C01A224B98427FF62EAFF42388F8DC
:10362000003094F898300321404688F8013088F83B
:103630000250FFF713FE042333701DE7FDF774FDFE
:10364000C4F8940018E7FDF76FFD40F6B7388146DF
:10365000114FFDF769FDA0EB0900404512D83B78FA
:10366000F42BF6D1BB78AB42F3D17A7894F898304A
:103670009A42EED103233370FDF756FD0223C4F8BE
:103680009400A3803378032B3FF4F6AE0223D3E7F4
:103690002D030020A8050020980500202C03002001
:1036A000804F12001FB54FF4807211238DE80C007B
:1036B0000323694603480393FEF7A8F805B05DF8B5
:1036C00004FB00BF000801401FB5002201234FF496
:1036D000807104488DE80E006946FEF797F805B042
:1036E0005DF804FB0008014038B50B4DC0F5725081
:1036F0002B682F3084B25C622846FEF7EEFF43F65B
:10370000AE432A689C4204D90348BDE83840FEF71E
:10371000F1BF546AA4B2F5E7F8070020FFF7E4BF51
:1037200010B50C4CFFF7BEFF00224FF4807120460D
:10373000FEF7C2F940F2EE20FFF7F0FF204601222B
:103740004FF48071FEF7B8F9BDE810400F20FFF785
:10375000E5BF00BF0008014070B5FFF7B5FF0024CA
:10376000134E4FF480713046E5B2FEF79FF940B139
:103770000134652C01D1012070BD0120FFF7CEFF7F
:10378000EFE7642DF7D00446094E4FF480713046C0
:10379000E5B2FEF78BF930B90134F12CEBD0012002
:1037A000FFF7BCFFF1E7A5F1F0035842584170BDA7
:1037B0000008014070B506460824FFF773FF164D58
:1037C00006F001027608B2B100224FF4807128465B
:1037D000FEF772F90820FFF7A1FF284601224FF4F7
:1037E0008071FEF769F93A20013CFFF797FF14F06A
:1037F000FF04E5D170BD4FF480712846FEF75CF9F7
:103800004620FFF78BFF284601224FF48071FEF718
:1038100053F90220E8E700BF00080140F8B5002591
:103820002C46114FFFF73EFF00224FF480713846BF
:10383000FEF742F90A20FFF771FFFFF745FF4FF44B
:1038400080713846FEF732F906462D20FFF766FFF5
:10385000731E5E425E41AE4001353443082DE4B232
:10386000E0D12046F8BD00BF000801400C4B07B571
:103870009A6942F004029A619B6903F00403019380
:10388000019BFFF70FFF01224FF480710548FEF7FF
:1038900013F9FFF745FFFFF75FFF03B05DF804FB87
:1038A000001002400008014010B5012383F3108886
:1038B000FFF736FFFFF750FFCC20FFF77BFF4420D8
:1038C000FFF778FFFFF72CFFFFF746FFCC20FFF74D
:1038D00071FFBE20FFF76EFFFFF7A0FF0446FFF762
:1038E0009DFF002383F3108840B244EA002000B219
:1038F0009842B8BF4042FCF791FD0022024BFCF712
:10390000F3FDFDF78BF810BD0000B03F7FB501AEB1
:1039100005463046FDF720FC00231C46F05C0133D1
:1039200004440C2BA4B2F9D1FDF7FEFB00F00F000C
:10393000204480B203F0E2FF04F008F890FBF5F3B6
:1039400003FB15000A30FDF7F5FB04B070BD000065
:10395000424A434BD188B1F5965F3DD020D8B1F5AE
:10396000966F2DD0B1F5166F30D0B1F5967F03D19B
:10397000D97821F00701D9701189481E1E288ABF05
:1039800019791971118137490978302951893FD145
:103990001B2954D030D8152935D0182955D0704757
:1039A000B1F5964F1ED04FF6FF70814220D0B1F591
:1039B000165FE1D1D97821F0070141F00401DAE77F
:1039C000D97821F0070141F00101D4E7D97821F03D
:1039D000070141F00201CEE7D97821F0070141F05B
:1039E0000301C8E7D97821F0070141F00501C2E7DA
:1039F0004FF49651D180BFE71E291CD04FF6FF73BC
:103A0000994228D070475A7942F003025A717047A0
:103A10001B2910D004D8152917D018290FD07047AA
:103A20001E2904D04FF6FF73994214D070475A797B
:103A300022F003025A715A7922F00302E6E75A791A
:103A400022F0030242F00102E0E75A7922F0030279
:103A500042F00202DAE71E2353817047A8050020D6
:103A6000080000209B0500200023F7B50093ADF867
:103A70000430FDF759FB064601F0C4FF4FF416531E
:103A8000474C484DD4F8A801474F4360FFF7FEF874
:103A90002620FDF7C3FB01224FF440514248FEF7B8
:103AA0000BF83220FDF746FBFF2303223F49D4F8F1
:103AB000A801FFF719F96420FDF73CFB4FF44051D2
:103AC00001223948FDF7F8FF6420FDF733FB30226F
:103AD000374B1A70FFF73CFFFF2303223549D4F818
:103AE000A801FFF701F94FF47A7306226946D4F86A
:103AF000A801FFF755F906222946684603F044FB62
:103B0000E8B1002204213846FDF7D6FF40F2FF134A
:103B100006222946D4F8A801FFF7E6F806226946EE
:103B200041F28833D4F8A801FFF73AF90622294672
:103B3000684603F029FB30BB012384F884304FF43E
:103B40007A70FDF7F7FAFF2303221849D4F8A80189
:103B5000FFF7CAF86420FDF7EDFA00224FF4405158
:103B60001148FDF7A9FFD4F8A80102F0C7F8002218
:103B7000D4F8A831042183F839200B480122FDF73D
:103B80009BFF03B0F0BDFDF7CFFA06F51C531033D1
:103B9000984201D90023D0E76420FDF7CBFAAAE7C9
:103BA000A805002008000020000C0140E784000860
:103BB0009B050020E484000870B500240122402108
:103BC0001B48FDF779FF002220211948FDF774FFFB
:103BD000012220211648FDF76FFF0120FDF7AAFA08
:103BE0002546134E402130460022FDF765FF802117
:103BF0003046FDF75BFF08B144F00104072D05F1E5
:103C0000010518BF64004FF001024FF0400130463B
:103C1000EDB218BFE4B2FDF74FFF082DE2D101224B
:103C200020210348FDF748FF84F0F80070BD00BF75
:103C3000000C014070B500262D4D2E4B2846C5F8CE
:103C4000A8312D4B9AB0C5F8B03185F8B46185F82C
:103C5000AC6100F0DDF9FFF707FF287800283ED0BF
:103C60004FF4165300960122FA21304603F07EF8F5
:103C70000123AB80FA236B70EB68013304D1782207
:103C80001E491F4803F08FFA1E4C1F4B22681F4E1F
:103C90005A61A28830461A83FDF75EFAAB88B38179
:103CA000FFF78AFF1A4B1870FFF7E0FD04F11601C9
:103CB000682268460A3403F076FA94E80E00154844
:103CC00001F07EF901F0BEFE01F09CFE03F094F8D5
:103CD000002101201AB0BDE8704002F009BE6978E9
:103CE00000904FF41653012203F040F8C4E700BFE0
:103CF000A8050020C00D002040090020EC84000829
:103D0000B4050020AE0500207807002064070020DD
:103D10002F030020A0070020F7B5744C94F8A5707D
:103D2000012F6BD194F8A41004F1A70003F0FCF864
:103D3000D0B994F8A4606E4B324604F1A70118463E
:103D400003F031FA627801780546914258D1037840
:103D5000FA2B55D0384602F0AFFD94F8A7301BB9C6
:103D600041F28830FFF7D2FD94F88430012B1FD147
:103D7000D4F8A0305F4A93426ED15D4B62781B78D5
:103D80009A4215D094F8B431012B07D1D4F8B03150
:103D90001B6B1B6858680130FDF7CCF994F8A42020
:103DA0005549D4F8B001FFF75BF8012384F8B4312A
:103DB00094F8A530012B21D194F8A4204E494F4806
:103DC000FFF74EF80023D4F8A0104A4A84F8A53033
:103DD00091427BD1D4F8A8010093036848491A683E
:103DE00000925B68FA220093009BFFF773F8D4F807
:103DF000A8311A68D36843F01003D36003B0F0BD54
:103E00002B78DBB9B11E89B239482A7003F08CF8DF
:103E100094F8A430C1B29A1EC0F30720013BA95404
:103E2000E854012002F048FDA388012B95D1D4F875
:103E30008830002B91D0FFF74DFA8EE72878FFF7F6
:103E40003BFA012889D1FA2394F8A4202A49D4F80E
:103E5000A801FEF749FF80E72A4A9342A8D1244BE4
:103E600062781B789A42A3D094F8AC31012B07D129
:103E7000D4F8A8311B6B1B6858680130FDF75AF95C
:103E800094F8A4303A2B16D93A221B49D4F8A80149
:103E9000FEF7E6FF94F8AC31012B00D1FEE7C82015
:103EA000FDF748F994F8A42017493A3A92B2D4F8A9
:103EB000A801FEF7D5FF94F8A4200F49D4F8A80173
:103EC000FEF7CEFF012384F8AC3171E7D4F8B001DE
:103ED000019303680D491A6801925B68FA22019305
:103EE000019BFEF7F7FFD4F8B03182E7A805002068
:103EF000780E0020004400404F060020840C002073
:103F00008009002000480040890600207A0A00202D
:103F1000094BD3F8B021824204BF002283F8B421B8
:103F2000D3F8A821904204BF002283F8AC216FF09F
:103F3000400203681A607047A80500201E4B07B5B1
:103F40005A69012142F001025A615B69002203F0C3
:103F5000010301930C20019BFDF720F90C20FDF7D4
:103F600051F900220D201146FDF718F90D20FDF73B
:103F700049F900220E201146FDF710F90E20FDF739
:103F800041F9002201210F20FDF708F90F20FDF76C
:103F900039F9002201211020FDF700F91020FDF76A
:103FA00031F9002211201146FDF7F8F81120FDF734
:103FB00029F903B05DF804FB0010024070B500243D
:103FC00086B005460194FDF723FB0E4B01A904932F
:103FD000012302A802940593FDF7CAFB10B10A4819
:103FE00003F074FC074C094E214635F8022B0023E0
:103FF00001200234FDF752FBB442F5D1FDF71AFB64
:1040000006B070BD00F800086485000884F8000858
:104010008422014903F0C7B800F80008444B2DE999
:10402000F0419A6988B042F010029A619A69414E53
:1040300002F010020092009A9A693F4C42F020026E
:104040009A619A69304602F020020192019A9A69B7
:1040500040F2131142F004029A619A69032502F0BA
:1040600004020292029A9A69112742F008029A61A8
:104070009B69002203F008030393039BFDF71CFDDB
:104080002046002243F20501FDF716FD20460122DD
:1040900040F26A31FDF710FD012230464FF418411D
:1040A000FDF70AFD4FF4005304A924480493059535
:1040B000FDF7ACFB49F6010304A9304604934FF029
:1040C000010805970795FDF7A1FB4FF4897304A933
:1040D00030460493CDF814800795FDF797FB43F223
:1040E000670304A920460493CDF814800795FDF7D3
:1040F0008DFB4CF280030493002304A92046059312
:104100000693FDF783FB4FF4427304A92046049302
:1041100005970795FDF77AFB102320460DEB030169
:1041200004930595FDF772FB08B0BDE8F08100BF70
:104130000010024000080140000C01400010014046
:1041400010B50E4C002220460221FDF7B5FC20469A
:1041500000220121FDF7B0FC012202212046FDF7DB
:10416000ABFC0520FFF7C0FA012220461146FDF7FF
:10417000A3FCBDE810400520FFF7B6BA00080140D7
:10418000012210B511461448FDF796FC0221124891
:104190000122FDF791FC01210F48FDF787FC08B9CA
:1041A000002010BD0520FFF79FFA002201210A48D8
:1041B000FDF782FC01210848FDF778FC0446002841
:1041C000EED10520FFF790FA224602210248FDF7C2
:1041D00073FC012010BD00BF0008014038B500226B
:1041E00002211648FDF768FC0220FFF77DFA012244
:1041F00012481146FDF760FC0220FFF775FA012214
:1042000002210E48FDF758FC0120FFF76DFAFB254F
:1042100001210A48FDF74AFC044630B90246022152
:104220000648FDF749FC204638BD013D15F0FF0565
:10423000EED1FFF785FF012038BD00BF0008014027
:1042400070B50022022105461348FDF735FC022017
:10425000FFF74AFA0824104E2B064CBF0122002219
:1042600001213046FDF728FC012202213046FDF7EE
:1042700023FC0220FFF738FA002202213046FDF726
:104280001BFC013C02206D00FFF72EFA14F0FF0426
:10429000EDB2E1D170BD00BF00080140012270B550
:1042A00011461548FDF708FC08250024124E00228F
:1042B00002213046FDF700FC0220FFF715FA02212B
:1042C00001223046FDF7F8FB0220FFF70DFA6400EB
:1042D00001213046E4B2FDF7E9FB08B144F00104E6
:1042E000013D15F0FF05E2D12A4602210248FDF703
:1042F000E3FB204670BD00BF00080140F8B5CB09C4
:10430000154F03F00E0363F05F0304460E46154697
:104310003B70FFF735FFB8B13878FFF791FFFFF733
:104320005DFF18B1FFF70CFF0020F8BDF0B2FFF7FA
:1043300087FFFFF753FF2544AC4206D1FFF700FF8C
:104340000A20FCF7F7FE0120F8BD14F8010BFFF777
:1043500077FFFFF743FFEFE72E030020F8B5CB0907
:10436000374D03F00E0363F05F0306460F46144615
:104370002B70FFF705FFE8B12878FFF761FFFFF723
:104380002DFF18B1FFF7DCFE0020F8BDF8B2FFF7F3
:1043900057FFFFF723FFFFF7F3FE2878294D40F082
:1043A0000100FFF74DFFFFF719FF013E1CB9FFF7B2
:1043B000C7FE0120F8BDFFF771FF012C06F8010FC1
:1043C0004FF000024FF0020128461CD1FDF774FBAC
:1043D000224621462846FDF76FFB0220FFF784F9AD
:1043E000224602212846FDF767FB0520FFF77CF9EE
:1043F000284600220221FDF75FFB2046013CFFF723
:1044000073F9A4B2D2E7FDF757FB0220FFF76CF96E
:10441000002201212846FDF74FFB0220FFF764F937
:10442000012202212846FDF747FB0520FFF75CF932
:10443000284600220221FDF73FFB0220DEE700BFF5
:104440002E0300200008014008B5062240F6FF7345
:104450000648074980E80E00FDF737FB28B1BDE8A4
:1044600008403A21034800F0BDB808BD9C05002073
:1044700000300040858500080D2330B595B00A93C3
:104480004FF4803301240B930022022512934FF442
:10449000E0130AA80C920D940E94109411951393A6
:1044A000FDF73AFB00B1FEE70F2305934FF480635D
:1044B00007900990294605A806950893FDF7F4FC96
:1044C00000B1FEE74FF4807301A801940293FDF759
:1044D000B5FD044600B1FEE7FDF78AFD4FF47A739F
:1044E000B0FBF3F0FCF7BAFE0420FCF7CDFE224649
:1044F00021464FF0FF30FCF751FE15B030BD0000F3
:1045000008B5FCF7F3FDFFF7B7FFFFF787FDFFF7EF
:1045100015FD01F0A5F900F097FA01F0D9F9012293
:104520004FF418412748FDF7C7FA01224FF44271B2
:104530002548FDF7C1FA01224FF440512248FDF70A
:10454000BBFAFFF777FB01F053F92048FEF7E9F8D3
:1045500002F08CF81E491F4803F066FA1D48FBF76D
:10456000F7FD1D4C82B21B491C48FEF779FCFFF792
:104570006BFF00F015FC02F03FFC0021012002F06F
:10458000B7F92546164E6378FA2B03D0FEF758FF8D
:1045900084F88500FFF7C0FB02F038FC95F8B531D0
:1045A000012B0BD13046FDF7B1FA04210648FDF787
:1045B00088FA00F0F5FB002385F8B53102F0C0F869
:1045C000E1E700BF00080140000C0140780800202E
:1045D00093850008000E0020A8050020840C002010
:1045E0009C050020FEE738B50C4611469DF81020CA
:1045F0001D4642B9FDF760FA012229462046BDE872
:104600003840FDF759BA0122FDF756FA0022F4E7C7
:1046100038B542F2117398421BD1164D0C2229462F
:10462000154802F0B1FD044610BB2B7B1348144A19
:1046300043701370AB7B04708380FFF7BFFC11489D
:10464000FEF76FF82246BDE8384004210E48FDF71A
:1046500033BA42F21B7398420AD10C4B07481A68CE
:104660009B88C0F806204381BDE83840FFF7A6BC10
:1046700038BD00BF7807002064070020A80500208F
:104680005905002038080020000C01408C0700204C
:1046900070B51B4C1B4AD4F8A030054693420E4619
:1046A00015D194F8B431012B07D1D4F8B0311B6B7C
:1046B0001B6858680130FCF73DFD32462946D4F8A6
:1046C000B001FEF7CDFB012384F8B43170BD0E4A72
:1046D000934214D194F8AC31012B07D1D4F8A8310E
:1046E0001B6B1B6858680130FCF724FD32462946D5
:1046F000D4F8A801FEF7B4FB012384F8AC3170BDF7
:10470000A805002000480040004400402DE9F84F73
:1047100000274FF6FF793C46264DDFF8A4A0264E31
:10472000DFF8988017F80A30013B052B18D8DFE82E
:1047300003F0333303332B3341462868FCF7CCFABC
:10474000FCF790FC04F1010B5FFA8BFB80B2B0FB2D
:10475000F9F326F8143018440234E4B226F81B00AA
:1047600001371A2F05F10405DCD1FFF79DF8134935
:10477000FCF7AAF91149FCF7AFFAFCF773FC0E4BF2
:10478000A3F85400BDE8F88F04F1010B28685FFA24
:104790008BFBFCF767FCDAE741462868FCF79CFADC
:1047A000FCF760FC04F1010B5FFA8BFB26F81400A8
:1047B0005C46D5E788030020320300200000C84291
:1047C000A285000842F20F73994210B535D942F222
:1047D0001B745318A34214DC194B1B88C91A194BBC
:1047E00003EB410102300AB9002010BD4B88013AA9
:1047F0001B0A00F8023C31F8023F92B200F8013C7B
:10480000F0E742F6F724A14217D942F62434A34236
:1048100013DC0D4B03EB4101A1F5AB4174390230C0
:10482000002AE1D04B88013A1B0A00F8023C31F81B
:10483000023F92B200F8013CF1E7012010BD00BF39
:1048400010000020600700203203002038B5144615
:1048500042F20F72914232D942F2257265189542A6
:104860002DDC184A15884A1B5BB1012B0ED103467B
:10487000154D05EB42050233ACB90846FFF7C8FEFB
:1048800004E0114D05EB420502300CB9002038BDA3
:104890006B88013C1B0A00F8023C35F8023FA4B2C9
:1048A00000F8013CF0E713F8022C013C12026A8088
:1048B00013F8010CA4B2024325F8022FDBE7012014
:1048C00038BD00BF0E000020740700202DE9F7431B
:1048D000064642F20F70814274D98818154642F29A
:1048E000217290426EDCA1F51C5111398CB2002B63
:1048F00035D0012B3ED1354F013E002D53DC334CDA
:1049000033492378084603F0040300934FF48052A0
:104910004FF40063FFF767FE2378082203F00103DA
:1049200000932B494FF400432A48FFF75CFE23789D
:104930000024284903F00203084600934FF4007254
:104940004FF48073FFF74FFE234803685C62FDF766
:10495000E8FE224604211F48FDF7AEF80AE0FFF703
:104960002BF91A4FDFF86C80DFF86C903870013E3D
:10497000002D01DC002026E0082D2A46A8BF0822D1
:104980002146D2B2384602F0D7F9002206F8010FCC
:1049900004214046FDF790F808344846083DA4B28B
:1049A000FDF7BFFEE4E7082D2A46A8BF08222146EE
:1049B00016F8013FD2B23846083402F0A1F9083D9A
:1049C000A4B29AE7012003B0BDE8F0832F030020D2
:1049D00000080140000C0140380800200120704709
:1049E000036810B5B3F1804F04D10122114B83F855
:1049F000B52110BD104A93421AD101224FF418413B
:104A00000E48FDF759F80E4C01224FF442710D4843
:104A1000FDF752F8012204210A48FDF74DF820461F
:104A2000FDF768FE6FF0010223681A6100225A62E6
:104A300010BD00BFA8050020000400400008014090
:104A400038080020000C014008B501224FF4827E96
:104A50000E480F4B426180E808404FF4007200237B
:104A600082618360C36003612022036243628362C8
:104A70000A23C261C362FDF7F5FD28B1BDE8084015
:104A800045210448FFF7AEBD08BD00BFA0070020C8
:104A900000300140BC8500087FB50268114B9A4286
:104AA0001DD103F560439A6902A942F480529A61CC
:104AB0009B690D4803F480530193019BA02302934B
:104AC0000223039303230593FCF7A0FE40230293E4
:104AD000002302A9044803930493FCF797FE07B050
:104AE0005DF804FB00300140000801402DE9F04F63
:104AF0001D46013BDBB287B0032B81468A469346B5
:104B0000019303D9002007B0BDE8F08F0B0903F033
:104B1000F00383F08003039303234FF00008444F16
:104B2000444E0293002210213846FCF7C5FF9DF841
:104B30000C30414A7370019B86F800A002330BEBE6
:104B4000050133440139087802F8010F9A42F9D17E
:104B500000236A1C591CDBB29A425DDA6FEA080234
:104B6000002473199A70314640F6FF73EA1C4846D8
:104B7000FDF733FB012210213846FCF79DFF22464A
:104B8000102138460494ADF81440FCF795FF8D23AE
:104B90008DF810304FF0100302228DF8113004A967
:104BA000FF234846FDF719FBFF2304220DF11201F4
:104BB0004846FDF7B8FC0BF10203C4F10302D2B280
:104BC000954205D304AA224491781A78914229D1BA
:104BD0000134032C03F1FF33EFD1012100221346EE
:104BE00004A8805C01320344052ADBB2F8D1D9B1B4
:104BF000DB439DF81540DBB2E31A5C425C410122C5
:104C000010213846FCF758FF84B9029B013B13F092
:104C1000FF03029386D175E7F35C98445FFA88F846
:104C20000B4697E70021D9E70024E8E701206AE76F
:104C30000008014062040020630400202DE9F04FC9
:104C40009A460B0987B003F0F003039303238146D0
:104C5000934601270025DFF844814D4E02910193D0
:104C6000002210214046FCF727FF9DF80830022261
:104C700033709DF80C30464973704846FF230AF1A3
:104C80000104FDF7AAFAFF23A2B242494846FDF704
:104C90004AFC414A0BEB0A039B451BD100235A1CDB
:104CA000DBB29C421BDAED4306EB0A039B78EDB2C4
:104CB000AB4219D0019B0027013B13F0FF03019386
:104CC000CED1012210213548FCF7F6FE384607B058
:104CD000BDE8F08F12F8011F013B1970DCE7F35CAF
:104CE0001D44EDB21346DAE7002FE3D000243A4624
:104CF00010214046FCF7E0FE224610214046049475
:104D0000CDF81340FCF7D8FE8C238DF8103010231B
:104D100002228DF8113004A9FF234846FDF75DFA01
:104D2000FF2305220DF112014846FDF7FCFB0BF1B4
:104D30000303C4F10402D2B2924505D304AA22446B
:104D400091781A7891421ED10134042C03F1FF337B
:104D5000EFD101210022134604A8805C01320344F4
:104D6000062ADBB2F8D181B1DB439DF81640DBB2F5
:104D7000E31A5C425C41012210214046FCF79CFE94
:104D8000002C97D09DE70021E4E70024F3E700BF63
:104D9000580400205A040020590400200008014053
:104DA0002DE9F04F002500274FF07E59744C754EC9
:104DB00087B000230393744BEB5CABB97349744821
:104DC00002F032FE7248FBF7C3F9714982B27148B2
:104DD000FEF746F8704BEB5C013B052B7AD8DFE819
:104DE00003F00D2E4F71A0866C4903AA31F81510FF
:104DF0006B48FFF723FF0028ECD1DFE7DC2096F8B3
:104E000000A0DFF8B88108EB8A031B6D08EB8A0865
:104E10005843FBF709FF6349FCF712F883460398F0
:104E2000FBF702FF01465846FBF756FFD8F81C1067
:104E30002060FCF7EFF800284CD027604AE096F895
:104E400000A0DFF8788108EB8A03586CFBF7D6FAEC
:104E50000022554BFBF748FB0022544BFBF76EFC3E
:104E6000FBF7DCFD83460398FBF7DEFE0146584660
:104E7000FBF732FF08EB8A082060D8F82810D8E743
:104E800096F800A0DFF83481DDF80CB008EB8A0357
:104E9000D86DFBF7B3FA38A3D3E90023FBF724FB63
:104EA000FBF7BCFD01908BEAEB70A0EBEB70FBF71E
:104EB000BBFE0199FBF710FF08EB8A082060D8F8C9
:104EC0003410B6E70398FBF7AFFE4FF05051FBF7F5
:104ED00003FF206001351A2D04F1040406F10106D8
:104EE0007FF467AFFFF712FC07B0BDE8F08F4DF21B
:104EF0005650039A2E49A2F5D533AA3B834294BF5C
:104F000010460846FBF790FE01462A48FBF798FF3B
:104F100049468046FCF79CF800B1C846C4F80080BA
:104F2000D8E7254B06A82B4413F8158C04224146DC
:104F300040F8087DDDF80CA0FFF710FA32781F4B1F
:104F400003EB8203D86DFBF76FFE0590DDF814B01C
:104F50005046FBF769FE5946FBF7BEFE0499FBF786
:104F6000B3FD4146206004222046FFF7C7F94946B9
:104F700020685EE7AFF30080000000801E44C43E5E
:104F800088030020468600081C8600083686000834
:104F9000000E0020840C0020CD850008E885000864
:104FA000A00700206CB02D4C0000F83F00007841B5
:104FB0000100140000007A4CC9850008A8050020F3
:104FC00084B02DE9F3414FF0E5080446A227FA2604
:104FD00009AD85E80E0002AD05F8088D2A460123CB
:104FE0004FF4C071FFF782FD2A46012340F2811180
:104FF00020468DF80070FFF779FD2A4601234FF413
:10500000C17120468DF80060FFF770FD1420FCF799
:1050100091F82A4601234FF4C07120468DF8008094
:10502000FFF764FD2A46012340F2811120468DF8E6
:105030000070FFF75BFD77232A468DF800308DF86E
:1050400001308DF802304FF4B17103232046FFF791
:105050004DFDBDF87C302A46ADF800304FF480712C
:1050600002232046FFF742FD4DF6D6032A46ADF84F
:10507000003040F2011102232046FFF737FD0DF109
:105080007E02022340F213112046FFF72FFD20AAD3
:1050900002234FF48A712046FFF728FD0DF18202AA
:1050A000022340F215112046FFF720FD21AA02231A
:1050B0004FF48B712046FFF719FD0DF18602022394
:1050C00040F217112046FFF711FD22AA02234FF4E8
:1050D0008C712046FFF70AFD0DF18A02022340F28F
:1050E00019112046FFF702FD40F233132A46ADF8AE
:1050F000003040F2051102232046FFF7F7FC41F291
:10510000B6532A46ADF800304FF482710223204690
:10511000FFF7ECFC32238DF80130072310278DF8C0
:1051200002302A4603234FF4B07120468DF80070F8
:10513000FFF7DCFC40238DF8003000232A468DF871
:1051400001308DF8023040F2611103232046FFF751
:10515000CDFC2A46012340F2631120468DF80070F1
:10516000FFF7C4FCDC232A468DF800304FF4C071F1
:1051700001232046FFF7BAFC3046FBF7DBFF02B005
:10518000BDE8F04104B07047E5232DE9F04F00255C
:1051900000278BB00AAA02F8143D009101234FF4B6
:1051A000C07104460497079508950995FFF79EFC82
:1051B00040F23E634FF00508009A0AAE22F8583FCD
:1051C0004FF4807102232046FFF790FC46F8187DCB
:1051D0000223324640F213112046FFF787FC0223D8
:1051E00032464FF48A712046FFF780FC0223324694
:1051F00040F215112046FFF779FC022332464FF4A6
:105200008B712046FFF772FC0223324640F21711E1
:105210002046FFF76BFC022332464FF48C71204688
:10522000FFF764FC0223324640F219112046FFF7D3
:105230005DFCDFF83C924FF47A70FBF77BFF07AF21
:1052400001950025E91D0423324689B22046FFF767
:10525000F5FC0498FBF7ECFC4946FBF733FC4946A8
:10526000FBF7EEFD57F82510FBF72EFC47F825005D
:105270000135032DE6D1FA2008F1FF38FBF75AFF7C
:1052800018F0FF08DDD1BB46B94640F21315009B6C
:1052900003F15A0A7449D9F80000FBF7D1FD8046A2
:1052A000FBF7CEF86CA3D3E90023CDE90201FBF7AD
:1052B0008DFB90B36AA3D3E90023DDE90201FBF77C
:1052C000A3FB50B308F100434FF07E5140460293D8
:1052D000FBF7FAFB029B01461846FBF7B1FD0021E4
:1052E000C9F800008046FBF7B3FE4FF08E4100285E
:1052F00000F0A3804046FBF7EFFCFBF7B3FE022370
:10530000AAF80000524629462046FFF7EFFB022389
:1053100004AA29462046FFF791FC0135019BADB256
:10532000B5F58B7F49F8043B0AF1020AB2D14FF080
:105330000509DFF840A14FF0000808F10B01042334
:10534000324689B22046FFF779FC0498FBF770FCDF
:105350005146FBF7B7FB5146FBF772FD57F8281093
:10536000FBF7B2FB47F8280008F10108B8F1030F7A
:10537000E3D1FA2009F1FF39FBF7DCFE19F0FF0950
:10538000D9D1009BDFF8E0A003F160085146DBF8BB
:105390000000FBF755FD8146FBF752F82EA3D3E939
:1053A000002306460F46FBF711FB70B32CA3D3E98D
:1053B000002330463946FBF727FB30B34FF07E51D0
:1053C0004846FBF781FB09F1004601463046FBF7F2
:1053D00037FD0021CBF800000646FBF739FE4FF001
:1053E0008E4188B33046FBF777FCFBF73BFE022388
:1053F000A8F80000424629462046FFF777FB022323
:1054000004AA29462046FFF719FC019B01354BF8F9
:10541000043B40F21913ADB29D4208F10208B5D128
:10542000DC230AAA02F8143D4FF4C0710123204680
:10543000FFF75CFB0BB0BDE8F08F4046FBF74CFC80
:105440000A49FBF741FB58E73046FBF745FC0749A3
:10545000FBF73AFBC9E700BF9A9999999999C93F17
:105460009A9999999999C9BF0000A04000FF7F4778
:105470006CB02D4C0000C04B204B07B59A6903203F
:1054800042F001029A619B6903F001030193019BC1
:10549000FBF772FE00226FF00B001146FBF77EFE59
:1054A00000226FF00A001146FBF778FE00226FF031
:1054B00009001146FBF772FE00226FF0040011464E
:1054C000FBF76CFE00226FF003001146FBF766FE4F
:1054D00000226FF001001146FBF760FE00224FF042
:1054E000FF301146FBF75AFE054A536823F0E0638C
:1054F00043F00073536003B05DF804FB00100240FA
:10550000000001407047FEE7FEE7FEE7FEE7704758
:105510007047704708B5FBF7FBFDBDE80840FBF797
:10552000C0BE00000148FBF7B7BF00BF740B0020EE
:105530000148FBF7B1BF00BFFC0800200148FBF7A2
:10554000ABBF00BFB80B00200148FBF7A5BF00BFF1
:10555000FC0B00200148FBF79FBF00BFB8080020EC
:105560000148FBF799BF00BF400C00200148FDF740
:10557000A0B900BF780800200148FDF79AB900BF24
:105580003808002013B5104C23681B68DB0616D5BD
:105590002046FDF7E7FC0023019323680B491A68B6
:1055A000204601925B680A4A0193019B094B1B68E4
:1055B0005B68C3F1FA031370FA22FDF78BFC024813
:1055C000FDF7A4FD02B010BD840C0020C40C002027
:1055D00028050020FC0B002037B51E4C23681B68F3
:1055E000DB0631D52046FDF7BDFC0023019323687F
:1055F0001A6801925B680193019B174B1B685C68FA
:10560000C4F1FA04E4B2022C1ED9144D95F8A53069
:10561000D3B9134B2246C5F8A030012385F8A53035
:1056200005F1A7030F49184685F8A44001F0BBFD1A
:10563000032C09D195F8A8106A78914204D10A4A3E
:1056400001888378118093700248FDF75FFD03B0F5
:1056500030BD00BFC00D0020B8080020A805002004
:1056600000440040800900209805002037B51E4CFA
:1056700023681B68DB0631D52046FDF773FC002349
:10568000019323681A6801925B680193019B174B91
:105690001B685C68C4F1FA04E4B2022C1ED9144DF4
:1056A00095F8A530D3B9134B2246C5F8A030012395
:1056B00085F8A53005F1A7030F49184685F8A440E1
:1056C00001F071FD032C09D195F8A8106A78914278
:1056D00004D10A4A01888378118093700248FDF74B
:1056E00015FD03B030BD00BF40090020FC080020BC
:1056F000A8050020004800407A0A002098050020F4
:10570000012070471622024B4FF0FF301A6070479D
:10571000780F00201622014B1A60FEE7780F002058
:1057200070B50E4615460C46A31B9D4201DC28466B
:1057300070BDAFF3008004F8010BF5E770B50E46BD
:1057400015460C46A31B9D4201DC284670BD14F88B
:10575000010B00F025FBF5E7094B0246196809B972
:10576000084919606946186802448A4281BF0C22C0
:10577000054B4FF0FF301A6098BF1A60704700BFAA
:105780006C0400207C0F0020780F00204FF0FF30C9
:1057900070474FF4005300204B6070470120704762
:1057A000002070470F4B1A6842F001021A605968D6
:1057B0000D4A0A405A601A6822F0847222F480323C
:1057C0001A601A6822F480221A605A6822F4FE02D3
:1057D0005A604FF41F029A604FF00062034B9A60C8
:1057E000704700BF001002400000FFF800ED00E02D
:1057F0007FB543F63F034FF0804117484CF25032DB
:1058000080E80A000023836003618023C260836113
:10581000FDF72AF918B141211048FEF7E3FE4FF4D5
:10582000805306A941F8103D0B48FCF785FF18B1DD
:1058300047210A48FEF7D6FE002369460648009332
:105840000193FDF72BF918B14E210448FEF7CAFE6B
:1058500007B05DF804FB00BF7808002078860008D8
:105860007FB541F61F431748174941F2883280E857
:105870000A000023C260836003618361FDF7F4F8CE
:1058800018B160211148FEF7ADFE4FF4805306A910
:1058900041F8103D0B48FCF74FFF18B166210B484B
:1058A000FEF7A0FE00236946064800930193FDF72A
:1058B000F5F818B16D210548FEF794FE07B05DF8C4
:1058C00004FB00BF38080020000400407886000870
:1058D0007FB5472316481749012280E80A000023B4
:1058E000836003618023C2608361FDF7BDF818B156
:1058F0007F211148FEF776FE4FF4805306A941F848
:10590000103D0B48FCF718FF18B185210A48FEF737
:1059100069FE00236946064800930193FDF7BEF82F
:1059200018B18C210448FEF75DFE07B05DF804FB5A
:10593000F807002000080040788600081FB50368BB
:10594000B3F1804F15D103F50433DA691C2042F01E
:105950000102DA61DB69002203F0010301930521F2
:10596000019BFBF71BFC1C20FBF74CFC05B05DF812
:1059700004FB114A934210D1104B1D20DA69052116
:1059800042F00202DA61DB69002203F002030293B3
:10599000029BFBF703FC1D20E6E7094A9342E5D191
:1059A000064BDA6942F00402DA61DB6903F00403B2
:1059B0000393039BDAE700BF00040040001002409D
:1059C0000008004008B54FF4E13E0B480B4B0C2299
:1059D00080E80840002342618360C3600361836103
:1059E000C361FDF753F928B1BDE808404F210448D1
:1059F000FEF7F8BD08BD00BF840C00200038014050
:105A00008586000808B54FF4E13E0B480B4B0C228D
:105A100080E80840002342618360C36003618361C2
:105A2000C361FDF733F928B1BDE80840622104489D
:105A3000FEF7D8BD08BD00BFC00D002000440040E7
:105A40008586000808B54FF4E13E0B480B4B0C224D
:105A500080E80840002342618360C3600361836182
:105A6000C361FDF713F928B1BDE80840752104486A
:105A7000FEF7B8BD08BD00BF400900200048004047
:105A80008586000870B50368894A88B09342044649
:105A90005CD1884B04A99A69874842F480429A6194
:105AA0009B69002603F480430193019B4FF400732C
:105AB00004930223059303230793FBF7A7FE4FF4F8
:105AC00080637D4804A97D4D049305960696FBF7F7
:105AD0009DFE7B4B284685E848008023EB60202311
