:020000040800F2
:1000000000500020859E0008699A00086D9A00083B
:100010006F9A0008719A0008739A000800000000A7
:10002000000000000000000000000000614800081F
:10003000759A000800000000F148000835490008E2
:10004000CD9E0008CD9E0008CD9E0008CD9E0008E4
:10005000CD9E0008CD9E0008CD9E0008CD9E0008D4
:10006000CD9E0008779A0008CD9E0008CD9E00081E
:10007000CD9E00087D9A0008CD9E0008CD9E000808
:10008000CD9E0008CD9E0008CD9E0008CD9E0008A4
:10009000CD9E0008CD9E0008CD9E0008CD9E000894
:1000A000CD9E0008899A0008CD9E0008CD9E0008CC
:1000B000959A0008CD9E0008CD9E0008CD9E0008B0
:1000C000CD9E0008CD9E0008CD9E0008CD9E000864
:1000D000CD9E0008CD9E0008CD9E0008698F0008C7
:1000E000CD9E0008CD9E0008CD9E000800000000B7
:1000F0000000000000000000000000000000000000
:0C01000000000000000000005FF808F1A3
:1001100010B5054C237833B9044B13B10448AFF341
:1001200000800123237010BDE002002000000000C9
:1001300050AD000808B5034B1BB103490348AFF3AA
:10014000008008BD00000000E402002050AD00085F
:1001500080F0004002E000BF81F0004142001FBF7C
:100160005FEA410392EA030F7FEA226C7FEA236C85
:100170006AD04FEA1262D2EB1363C1BFD21841407A
:1001800048404140B8BF5B42192B88BF704710F010
:10019000004F40F4000020F07F4018BF404211F0B3
:1001A000004F41F4000121F07F4118BF494292EA1B
:1001B000030F3FD0A2F1010241FA03FC10EB0C0047
:1001C000C3F1200301FA03F100F0004302D54942D4
:1001D00060EB4000B0F5000F13D3B0F1807F06D381
:1001E00040084FEA310102F10102FE2A51D2B1F179
:1001F000004F40EBC25008BF20F0010040EA03006E
:100200007047490040EB000010F4000FA2F101021A
:10021000EDD1B0FA80FCACF1080CB2EB0C0200FAA4
:100220000CF0AABF00EBC25052421843BCBFD040F2
:100230001843704792F0000F81F4000106BF80F46C
:1002400000000132013BB5E74FEA41037FEA226C2F
:1002500018BF7FEA236C21D092EA030F04D092F0FA
:10026000000F08BF0846704790EA010F1CBF00202E
:10027000704712F07F4F04D1400028BF40F000408B
:10028000704712F100723CBF00F50000704700F0AB
:10029000004343F0FE4040F4000070477FEA2262D2
:1002A00016BF08467FEA23630146420206BF5FEAA3
:1002B000412390EA010F40F4800070474FF00003A3
:1002C00004E000BF10F0004348BF40425FEA000C6A
:1002D00008BF704743F0964301464FF000001CE012
:1002E00050EA010208BF70474FF000030AE000BF68
:1002F00050EA010208BF704711F0004302D54042A6
:1003000061EB41015FEA010C02BF84460146002017
:1003100043F0B64308BFA3F18053A3F50003BCFA32
:100320008CF2083AA3EBC25310DB01FA02FC6344DF
:1003300000FA02FCC2F12002BCF1004F20FA02F2E6
:1003400043EB020008BF20F00100704702F12002D9
:1003500001FA02FCC2F1200250EA4C0021FA02F23A
:1003600043EB020008BF20EADC7070474FF0FF0C3F
:100370001CEAD0521EBF1CEAD15392EA0C0F93EA3A
:100380000C0F6FD01A4480EA010C400218BF5FEADC
:1003900041211ED04FF0006343EA501043EA51114F
:1003A000A0FB01310CF00040B1F5000F3EBF490049
:1003B00041EAD3715B0040EA010062F17F02FD2A4D
:1003C0001DD8B3F1004F40EBC25008BF20F0010030
:1003D000704790F0000F0CF0004C08BF49024CEA47
:1003E000502040EA51207F3AC2BFD2F1FF0340EAD9
:1003F000C250704740F400004FF00003013A5DDC4A
:1004000012F1190FDCBF00F000407047C2F100028A
:10041000410021FA02F1C2F1200200FA02FC5FEA77
:10042000310040F1000053EA4C0308BF20EADC70C1
:10043000704792F0000F00F0004C02BF400010F433
:10044000000F013AF9D040EA0C0093F0000F01F0E0
:10045000004C02BF490011F4000F013BF9D041EA02
:100460000C018FE70CEAD15392EA0C0F18BF93EA04
:100470000C0F0AD030F0004C18BF31F0004CD8D12E
:1004800080EA010000F00040704790F0000F17BFB5
:1004900090F0004F084691F0000F91F0004F14D0FB
:1004A00092EA0C0F01D142020FD193EA0C0F03D153
:1004B0004B0218BF084608D180EA010000F0004056
:1004C00040F0FE4040F40000704740F0FE4040F431
:1004D000400070474FF0FF0C1CEAD0521EBF1CEAD0
:1004E000D15392EA0C0F93EA0C0F69D0A2EB0302EE
:1004F00080EA010C49024FEA402037D04FF0805388
:1005000043EA111143EA10130CF000408B4238BF4C
:100510005B0042F17D024FF4000C8B4224BF5B1A5A
:1005200040EA0C00B3EB510F24BFA3EB510340EAA8
:100530005C00B3EB910F24BFA3EB910340EA9C0056
:10054000B3EBD10F24BFA3EBD10340EADC001B01C6
:1005500018BF5FEA1C1CE0D1FD2A3FF650AF8B426A
:1005600040EBC25008BF20F0010070470CF0004C77
:100570004CEA50207F32C2BFD2F1FF0340EAC250A2
:10058000704740F400004FF00003013A37E792F063
:10059000000F00F0004C02BF400010F4000F013AC1
:1005A000F9D040EA0C0093F0000F01F0004C02BFBC
:1005B000490011F4000F013BF9D041EA0C0195E725
:1005C0000CEAD15392EA0C0F08D142027FF47DAFBE
:1005D00093EA0C0F7FF470AF084676E793EA0C0FAE
:1005E00004D14B023FF44CAF08466EE730F0004CAC
:1005F00018BF31F0004CCAD130F000427FF45CAF3C
:1006000031F000437FF43CAF5FE700BF034613F8CF
:10061000012B002AFBD1181A013870477047C368B4
:100620008360704710B5D0E901235C1C8460D1540D
:1006300010BD30B5D0E9013423441D4601395C1B9F
:10064000A24203DC83681344836030BD11F8014F7C
:1006500003F8014BF3E78068704740687047C36850
:100660008068F933181A704710B5034CC0E90222AC
:10067000C0E9004110BD00BF00000020026B511C0A
:100680000AD0436BC16A013393FBF1F001FB1030D8
:10069000831A584258417047002070472DE9184886
:1006A000044603F0CBFE6368D3F8E0284FF47A7376
:1006B000534310EB030B41EBE37CC4E908BCBDE8FA
:1006C00018882DE9F84F0546C06B8A4603F0BFFE37
:1006D0002B6B5A1C0AD1EC68A4EB0A035C425C4108
:1006E000E86B03F0B8FE2046BDE8F88FAA6B696B93
:1006F00002EB431302EB41129B699469A3421EDC97
:10070000534524DC5445B4BF002401240026013B9A
:100710005942C1F30E01C3F30E0358BF4B429A4531
:1007200001D0002CDCD04FF4887B2B6BA86B00EB46
:100730004310836986B99A4518DA0124D0E75345F6
:1007400008DD5445B4BF002401240126DFE700265C
:100750003446DCE70126FBE7013B5942C1F30E01B9
:10076000C3F30E0358BF4B42534572D08768002F26
:100770002DDB6C68A16B8F4229DCD0E90089D4F8AD
:10078000880403F064FEE16B00291CDD0BFB0741CC
:1007900091F85401022816D1D1E91201894508BF08
:1007A000804510D1BC464FF0000E2DE0606C8445B2
:1007B00022D1A36B07F1010C9CFBF3F003FB10C3E8
:1007C0000129636434D0D4F8880403F044FED5E9E9
:1007D0000B03013393FBF0F16C6B00FB113304F15D
:1007E000010C9CFBF0F100FB11C18B422B6321D16A
:1007F0004FF0FF332B63A0E7BCF1010C44BFA16BAA
:1008000001F1FF3C6745DED00BFB0C4191F8540130
:100810000228D8D10022002381F854E1C1E9122333
:10082000E16B0139E1630029C0D14FF0FF3363640C
:100830002364C8E7A96B01EB4311896951457FF433
:1008400074AFA342D4D0013393FBF0F200FB123318
:10085000D0E7344644E7000007B50D4B0093036929
:100860000068594201F07F0103F07F0258BF4A42FD
:1008700052008DF80420802293FBF2F36946062291
:100880008DF8053003F06CFE03B05DF804FB00BF8B
:10089000680401002DE9F84F0546D0F8F008D5F8B6
:1008A000EC1868B103F034FE074658B92D4809F03A
:1008B0005BFB85F8E4782B48BDE8F84F09F054BBA2
:1008C0002948EFE703F027FE012385F8E5380023E8
:1008D0004FF0FF384FF0FF39DFF890A085F8E4388B
:1008E00095F8E66838463EB103F04AFE002385F8E5
:1008F000E53885F8E638DEE703F016FE834660B398
:10090000482003F05BFE044608B34FF0FF33C0E914
:1009100000B506724672C0E903664661C0E9068901
:1009200080F84060D5F8CC08C4E90C33E06240019F
:1009300003F044FEA063012003F085FD0122E06383
:100940002146A662504603F08AFD03F095FDD5F8D6
:10095000E8380133C5F8E838C2E70A2003F0C0FDE3
:10096000BEE700BFD8AD0008D0AD0008390B0008C5
:10097000F8B50446006B4FF0800C013017BF656B73
:100980000025681CE56A0EBFC4E90C5590FBF5F61E
:1009900005FB1605A66B6F013E44C6E90023069BC6
:1009A000D1F80021B36068230B70931E4B70E3688D
:1009B000584200F07F0003F07F0358BF43425B00C2
:1009C0008B70E06890FBFCF0C8702369584200F01F
:1009D0007F0003F07F0358BF43425B000B71236924
:1009E00093FBFCF34B71206803F0BAFD013020D07B
:1009F000E36801335A42C2F30E02C3F30E0358BF39
:100A00005342E36000236361E368B361A36B1F4457
:100A100003F014FD236BC7E904015A1C65630BD076
:100A20009D4209D0E26A013393FBF2F102FB1133DC
:100A3000F6E700236372E5E7F8BD70B5C8B0044679
:100A400006220E4603A807A9FFF70EFE054601463B
:100A5000304600F08FFC284603F0EAFC4FF0FF33ED
:100A6000479000930022002307A92046FFF780FF4C
:100A7000E06B03F0F0FC012048B070BD2DE9FF41B0
:100A8000057A04460F4665B1C06B03F0E0FC2046D2
:100A9000FFF7F4FD054640B939462046FFF7CDFF84
:100AA0000546284604B0BDE8F081E06B03F0D3FCB6
:100AB0006468D4F8B00803F0CAFCD4F89424D4F8DD
:100AC00090148A4229D022BB1346C4F89C24994230
:100AD00008BF00234FF482765E43013206F594612D
:100AE000C4F89834C4F89424214406226846FFF7D9
:100AF000BBFD80460146384600F03CFC404603F012
:100B000097FCA319C3F8A005D4F8B00803F0A3FC20
:100B1000C7E7D4F898340133D9E70025F4E738B5AE
:100B200005460C462D2100F056FC29462046BDE81E
:100B30003840FFF7A3BF000001232DE9F04F4372B7
:100B4000C5B00446FFF7AAFD03F0CCFC814694F83B
:100B50000980B8F1000F1AD0484603F0C6FC21689E
:100B6000484603F0C3FCC821484603F0C1FC0028F6
:100B700000F022812668012203A9304603F0E4FC3C
:100B8000002840F3AC829DF80C30682B19D0484601
:100B900003F0BCFC002362686372D2F8E838206876
:100BA000013BC2F8E83803F0EBFCA06B03F020FD3A
:100BB000E06B03F052FC204603F01AFD45B0BDE89F
:100BC000F08F01220DF10D01304603F0BDFC01282C
:100BD000DDD19DF80D500DF10E012A46304603F08F
:100BE000B3FC8542D3D103F029FC9DF80E30AE1C36
:100BF000DA0700F17F81062E40F3BF8194F8402090
:100C000022B90122C4E9060184F840209DF80F2092
:100C100003F0FE0303EB02232269B2EB530F40F013
:100C2000AC819DF810109DF8113001F0FE0101EB30
:100C3000032149082046FFF744FD002800F09D816C
:100C4000236901335A42C2F30E02C3F30E0358BFA5
:100C500053422361636901336361237A002B00F0FF
:100C6000998060682A1F0DF1120100F6B40000F0AF
:100C700089FB6668054600F0A9FB0746284600F098
:100C8000B3FB6438062800F22A81DFE810F0070081
:100C9000250041005B007500F4000B01062F02D017
:100CA000082F40F018813368002B00F018810021D4
:100CB000284600F0BFFBD6E9007B824603F0D2FA5B
:100CC0002A46034621465846B8470746504601F093
:100CD0004CF9002F5BD102E1062F02D0082F40F023
:100CE000FA80B368002B00F0FA800021284600F05B
:100CF000A1FBD6E9027B824603F0DAFA2A460346D4
:100D000021465846B8470746504601F030F9E0E71B
:100D1000052F40F0E0803369002B00F0E0800021D7
:100D2000284600F087FBD6E9047B824602F034F9BE
:100D30002A46034621465846B8470746504601F022
:100D400010F9C6E7062F40F0C680B369002B00F00B
:100D5000C6800021284600F06DFBD6E9067B82465E
:100D600003F052FA2A46034621465846B84707463A
:100D7000504601F0F8F8ACE7062F14BF2D210721EB
:100D8000284600F028FB29462046FFF777FE284634
:100D900000F0ECFA2046FFF781FC63686269D3F843
:100DA000D0389A4208DB03F049FB0023C4E906016E
:100DB00063612046FFF750FD03F040FBD4E90823B0
:100DC0008B4208BF824282468B4612D2A36A022B14
:100DD00000F3D6800622C449206803F0C1FB01302D
:100DE00004BF00236372A36A20460133A362FFF7A6
:100DF00055FC6369002B17DDD4E906014FF47A72C4
:100E00006368BAEB0005D3F8DC386BEB01065A4394
:100E1000D3179E4208BF954206D30023C4E906AB10
:100E200063612046FFF718FDE06B03F010FB216BB8
:100E30004B1C00F0AA80A36B03EB4113D3E90423FE
:100E4000BAEB02064FF47A726BEB03076368D3F8D0
:100E5000D8385A43D3179F4208BF9642C0F09580B6
:100E6000606B884200F08F80E36A013191FBF3F2FE
:100E700003FB1211F5E7062F2DD1336A7BB3002156
:100E8000284600F0D7FAD6E9087B824603F036FA06
:100E90002A46034621465846B8470746504601F0C1
:100EA00068F816E7062F01D0032F14D1B36AB3B147
:100EB0000021284600F0BEFAD6E90A7B824603F0FC
:100EC00043FA2A46034621465846B8470746504645
:100ED00001F051F8FDE621462846FFF720FE336B6E
:100EE00033B12A462146706B984700287FF44FAFF4
:100EF0002C2145E703F04302432A05D106227B4912
:100F0000206803F02DFB45E703F00702072A14D100
:100F1000012365682372D5F8B00803F098FA00231E
:100F2000D5F8B008C5F89C34C5F89834C5F89434A1
:100F300003F091FA06226E49E2E703F01302132A46
:100F400004D10023062223726A49D9E703F0830201
:100F5000832A02D10023A3621CE7012B7FF41DAF7B
:100F60009DF811309DF81010204601EB032149082F
:100F7000FFF7A7FB00287FF40DAF002363720CE797
:100F80004FF0000835E74FF00008E06B03F063FA1C
:100F9000B8F1000F01D184F80980637A002B3FF487
:100FA000D6AD267A002E3FF4D2AD4FF482774FF0C3
:100FB000FF35D4F80480D8F8B00803F048FAD8F820
:100FC00094A4D8F8B00803F046FABAF1000FE06B29
:100FD0003EDC03F03CFA2046FFF750FBA0BB636801
:100FE000D3F8880403F033FA6568EB6B3BB36B6CA2
:100FF0004FF48871184601FB005292F85421012ADF
:1010000007D9AA6B013090FBF2F602FB160083426F
:10101000F1D14FF488734343EA1892F8541101292F
:101020000DD1022182F8541103F15001009002F118
:101030004803D3E9002329442046FFF799FC63685D
:10104000D3F8880403F007FAE06B03F004FA7EE5B6
:1010500003F0FDF92046FFF711FB804600283BD145
:101060006368D3F8B00803F0F2F96168D1F89434FA
:10107000A3B1012BD1F89C2421D1C1F89484C1F8EB
:101080009C54C1F8985407FB0211009500220023DC
:1010900001F594612046FFF76BFCB0466368D3F816
:1010A000B00803F0D8F9E06B03F0D5F9B8F1000F00
:1010B0003FF44DAD637A002B7FF47BAF47E5D1F869
:1010C00090C4501C90FBFCFE0CFB1E00013BC1F8C1
:1010D0009C04C1F89434D6E74FF00008E3E70130F0
:1010E0007FF46AAE53E500BF280000202E000020E8
:1010F0001C00002022000020F8B500260427234C05
:1011000005460120E663C4E91066A76303F09BF976
:10111000C4F888040120C4F89464C4F89C64C4F83A
:101120009864C4F8907403F08EF9C4F8B0080DB355
:101130000FCD04F6B4060FC60FCD0FC695E80F000D
:1011400086E80F00002340F6641223632360A36047
:101150002361A3612362A36284F8E53884F8E6384A
:10116000C4F8F038C4F8EC28C4F8E838C4F8F43807
:101170000648F8BD064E04F6B4050FCE0FC50FCED7
:101180000FC596E80F0085E80F00DBE7000300209D
:10119000A0AD000838B50546D0F8F0080C4608B1F7
:1011A00003F026FA2046FFF731FA013003F006FA81
:1011B000C5F8F00820B12146BDE8384008F0ECBE83
:1011C00038BDC0E900127047C0E90C127047C0E991
:1011D0000612704700F6B400704738B50C46FFF7AA
:1011E0004DFC0546204600F0C3F810B9204600F03B
:1011F000BDF8284638BD70B50C4616460546072191
:10120000204600F0E8F83146204600F0D5F82146A7
:101210002846BDE87040FFF7E0BF38B50C460546EC
:101220000A21204600F0D7F82046002100F0C4F83B
:1012300021462846BDE83840FFF7CFBF90F8E528A3
:1012400010B504468AB9012380F8E52880F8E4380F
:1012500080F8E6280146074803F001F9C4F8F408CD
:1012600003F00AF994F8E43803B910BD012003F043
:1012700037F9F7E79508000890F8E50870477047D8
:1012800010B54368D3E90402541C5C61815410BD5D
:1012900030B544680139D4E9043423441D465C1B4D
:1012A000A24204DC41684B6913444B6130BD11F824
:1012B000014F03F8014BF2E743685869DB68C0F15E
:1012C000F900C01A70472DE9F84F06464FF48C70AC
:1012D0008A4690461D460B9C9DF830B09DF8349090
:1012E00003F06CF9002839D00023B268D6F810C09A
:1012F0000370931C03EB0C0780F818A0B8F1000FE3
:101300002ED08023437605F03F03BBF1000F2AD196
:101310008376B9F1000F03D0837E43F040038376D8
:10132000012AC9BF0A9B0323C37604236142C9B2C1
:10133000E2B2034458BF4A42BCF1010F1A76C2BF61
:101340004FF4807294FBF2F45C7600F11803C0E96C
:1013500002373B440361002346604361BDE8F88FD8
:1013600080F81980CFE763F07F03D1E703F040B93D
:1013700000787047034608465A69D9680A44996854
:1013800003F053B8F8B51546846802690234144472
:10139000AC4207460E460DDC182003F00FF940B1B1
:1013A0000123C0E90176C46026442C1B037006614A
:1013B0004461F8BD0020FCE78268937819B143F0DE
:1013C00040039370704723F04003FAE783689878EE
:1013D00000F03F007047826801F03F01937803F00E
:1013E000C0030B4393707047836818787047836815
:1013F0005878C0097047000037B50D4B0446CDE959
:101400000030D0E901235B780D4613F07F030AD149
:101410006946284601F0B7FD18B1A2685378013338
:10142000537003B030BDFFF7E2FF0346F0E700BFA3
:1014300034000020F7B5836804461B780D46013B55
:10144000702B00F27184DFE813F071009400AB00A0
:10145000C100D800EF0007011F0136014E016601EF
:101460007E019601AE01C501DD01F4010C022402EA
:101470003C0254026F046F046F046F046F046F0426
:101480006F046F046B0282029902B102C902E10289
:10149000F90211032903410359036F046F046F0418
:1014A0006F0471037C03870392039D03A803B303B6
:1014B0006F046F046F046F046F046F04BE03C903ED
:1014C000D403DF03EA03F50300046F046F046F0421
:1014D0006F046F040B046F046F046F046F046F04D8
:1014E0006F046F046F046F046F046F046F046F0464
:1014F0006F046F046F046F046F046F046F046F0454
:101500006F046F046F046F046F046F046F046F0443
:1015100013041B0423042B046F0433043B046F04E3
:101520006F046F0443044E0459046404FFF75FFF23
:10153000D4E9042361684E6998B101202E440190DA
:101540000096002001F044FD0646216900226068F3
:1015500001F026FD4119304601F020FD304603B070
:10156000F0BD06FB05550190009501F031FD0646E2
:10157000F4E7FFF73CFFD4E9042361684E6940B10A
:10158000012006EB850601900096002001F05EFE2A
:10159000DAE7043675430190009501F057FEE6E75F
:1015A000FFF725FFD4E9042361684E6938B10120B3
:1015B0002E4401900096002001F0BAFDC4E706FB1E
:1015C00005550190009501F0B3FDD0E7FFF70FFF3F
:1015D000D4E9042361684E6940B1012006EB850619
:1015E00001900096002001F0CDFDADE70436754373
:1015F0000190009501F0C6FDB9E7FFF7F8FED4E9C8
:10160000042361684E6940B1012006EB4506019054
:101610000096002001F006FD96E702367543019022
:10162000009501F0FFFCA2E7FFF7E1FED4E90423F7
:1016300061684E6948B10120019005EB85000644C0
:101640000096002001F046FD7EE7053675430190C7
:10165000009501F03FFD8AE7FFF7C9FED4E90423B6
:1016600061684E6948B10120019005EB8500064490
:101670000096002001F04EFE66E7053675430190A6
:10168000009501F047FE72E7FFF7B1FED4E90423AD
:1016900061684E6940B1012006EBC50601900096D5
:1016A000002001F05DFE4FE708367543019000957C
:1016B00001F056FE5BE7FFF79AFED4E90423616868
:1016C0004E6948B10120019005EB450006440096A3
:1016D000002001F0A1FE37E7033675430190009525
:1016E00001F09AFE43E7FFF782FED4E90423616824
:1016F0004E6948B101200190062000FB05660020DC
:10170000009601F0E7FE1FE706367543019000954D
:1017100001F0E0FE2BE7FFF76AFED4E904236168DD
:101720004E6948B10120019005EB45000644009642
:10173000002001F033FF07E7033675430190009561
:1017400001F02CFF13E7FFF752FED4E90423616890
:101750004E6948B101200190062000FB056600207B
:10176000009601F051FFEFE60636754301900095B3
:1017700001F04AFFFBE6FFF73AFED4E90423616873
:101780004E6948B10120019005EB850006440096A2
:10179000002001F0B3FFD7E60536754301900095B0
:1017A00001F0ACFFE3E6FFF722FED4E90423616811
:1017B0004E6940B1012006EBC5060190009600205D
:1017C00001F0D6FFC0E6083675430190009501F0A0
:1017D000CFFFCCE6FFF70BFED4E9042361684E6926
:1017E00048B10120019005EB8500064400960020D9
:1017F00002F02AF8A8E6053675430190009502F03C
:1018000023F8B4E6FFF7F3FDD4E9042361684E69D9
:1018100040B1012006EBC50601900096002002F0C1
:1018200041F891E6083675430190009502F03AF8C8
:101830009DE6FFF7DCFDD4E9042361684E6948B1F9
:1018400001200190062000FB05660020009602F0B2
:1018500091F879E6063675430190009502F08AF812
:1018600085E6FFF7C4FDD4E9042361684E6948B1F9
:1018700001200190C5EBC50006440096002002F04F
:10188000F1F861E6073675430190009502F0EAF839
:101890006DE6FFF7ACFDD4E9042361684E6948B1F9
:1018A00001200190C5EBC50006440096002002F01F
:1018B00059F949E6073675430190009502F052F94F
:1018C00055E6FFF794FDD4E9042361684E6948B1F9
:1018D0000120019005EB850006440096002002F0EF
:1018E000C1F931E6053675430190009502F0BAF969
:1018F0003DE6FFF77CFDD4E9042361684E6940B101
:10190000012006EB450601900096002001F0BAFD8B
:101910001AE6023675430190009501F0B3FD26E604
:10192000FFF765FDD4E9042361684E6940B10120E9
:1019300006EBC50601900096002001F0B9FC03E615
:10194000083675430190009501F0B2FC0FE6FFF7F1
:101950004EFDD4E9042361684E6940B1012006EBD5
:10196000C50601900096002001F03EFCECE508362B
:1019700075430190009501F037FCF8E5FFF737FD5E
:10198000D4E9042361684E6948B10120019005EB58
:10199000C50006440096002001F06CFBD4E5093632
:1019A00075430190009501F065FBE0E5FFF71FFD31
:1019B000D4E9042361684E6948B1012001900C20EC
:1019C00000FB05660020009601F0F8FCBCE50C3633
:1019D00075430190009501F0F1FCC8E5FFF707FDA4
:1019E000D4E9042361684E6948B1012001900A20BE
:1019F00000FB05660020009601F09EFDA4E50A3676
:101A000075430190009501F097FDB0E5FFF7EFFCFD
:101A1000D4E9042361684E6948B1012001900A208D
:101A200000FB05660020009601F020FE8CE50A36DA
:101A300075430190009501F019FE98E5FFF7D7FC7A
:101A4000D4E9042361684E6948B1012001900C205B
:101A500000FB05660020009601F0C0FE74E50C3620
:101A600075430190009501F0B9FE80E5FFF7BFFCDA
:101A7000D4E9042361684E6948B1012001900C202B
:101A800000FB05660020009601F040FF5CE50C3687
:101A900075430190009501F039FF68E5FFF7A7FC59
:101AA000D4E9042361684E6948B1012001900A20FD
:101AB00000FB05660020009601F098FF44E50A3619
:101AC00075430190009501F091FF50E5FFF78FFC01
:101AD000D4E9042361684E6948B1012001900B20CC
:101AE00000FB05660020009601F0FCFF2CE50B369C
:101AF00075430190009501F0F5FF38E5FFF777FC9D
:101B0000D4E9042361684E6948B1012001900B209B
:101B100000FB05660020009602F064F814E50B3621
:101B200075430190009502F05DF820E541684B692E
:101B300003FB05550095D0E90423002002F0C8F806
:101B400015E541684B6903FB05550095D0E9042371
:101B5000002002F00FF90AE541684B6903FB0555C7
:101B60000095D0E90423002002F056F9FFE4416813
:101B70004B6903335D430095D0E90423002002F054
:101B80009FF9F4E441684B6903335D430095D0E964
:101B90000423002002F0F2F9E9E441684B690533BF
:101BA0005D430095D0E90423002002F045FADEE40D
:101BB00041684B6904335D430095D0E9042300205C
:101BC00002F0A0FAD3E441684B6908335D43009505
:101BD000D0E90423002002F09FF8C8E441684B6973
:101BE00008335D430095D0E90423002002F0E6F8B5
:101BF000BDE441684B6908335D430095D0E9042397
:101C0000002002F02DF9B2E441684B690A335D43CC
:101C10000095D0E90423002002F07CF9A7E4416894
:101C20004B690A335D430095D0E90423002002F09C
:101C3000CFF99CE441684B690C335D430095D0E9D2
:101C40000423002002F026FA91E441684B690B332B
:101C50005D430095D0E90423002002F07FFA86E47A
:101C60000020D4E904230090616802F0B7FB7EE411
:101C70000020D4E904230090616802F0F5FA76E4CC
:101C80000020D4E904230090616802F013FB6EE4A5
:101C90000020D4E904230090616802F095FA66E41C
:101CA0000020D4E904230090616802F0AFFA5EE4FA
:101CB0000020D4E904230090616802F021FB56E47F
:101CC0000020D4E904230090616802F03FFB4EE459
:101CD00041684B6903335D430095D0E9042300203C
:101CE00001F0C4FB43E441684B6903335D43009555
:101CF000D0E90423002001F07BFC38E441684B6903
:101D000005335D430095D0E90423002001F024FD54
:101D10002DE441684B6903FB05550095D0E9042388
:101D2000002002F03DFB22E4002617E410B55C1C05
:101D30009442B7BFCB5C002003700B5DBCBF437007
:101D4000012010BD10B59C1C944208DACA5C0B44FB
:101D500002705B7843700B5D8370012010BD002022
:101D6000FCE710B59C1D94420ADA1944431E063064
:101D700011F8012B03F8012F8342F9D1012010BD86
:101D80000020FCE74278037803EB02234FF47A72D9
:101D900093FBF2F002FB103070472DE9F0474378D7
:101DA0000478817904EB03244FF47A7394FBF3F401
:101DB000437901F07F0103F00F035D1E012DCEBFBB
:101DC000643103F10B0563318678C77890F804809D
:101DD000FFF7D8FF40F26D1C8A10A1F1450ED31712
:101DE000CCFB0E234FF0640C91FBFCF101EB4101A5
:101DF0008910521A63EBE173A91C99254D43052103
:101E000095FBF1F5182112EB050943EBE57A08F093
:101E10001F08B9F5DF724AF1FF3312EB080943F1ED
:101E2000000AA9FB012301FB0A333C2107F01F072D
:101E300012EB070843F10009A8FB012306F03F0657
:101E400012EB060801FB0933A8FB015643F1000918
:101E500001FB09664FF47A712A1946EBE473A2FB81
:101E6000014501FB03550346201845EBE371BDE82E
:101E7000F087427803784FF47A7003EB022393FBE8
:101E8000F0F07047807800F03F007047C07800F0B5
:101E90001F007047007940097047007900F01F006B
:101EA0007047407900F00F007047807900F07F00A4
:101EB000704702F09DBB02F09BBB02F099BB02F0A1
:101EC00097BB02F095BB02F093BB02F091BB02F00E
:101ED0008FBB02F08DBB02F08BBB02F089BB02F01E
:101EE00087BB02F085BB02F083BB02F081BB02F02E
:101EF0007FBB02F07DBB02F07BBB02F079BB02F03E
:101F000077BB02F075BB02F073BB02F071BB02F04D
:101F10006FBB02F06DBB02F06BBB02F069BB02F05D
:101F200067BB02F065BB02F063BB02F061BB02F06D
:101F30005FBB02F05DBB02F05BBB02F059BB02F07D
:101F400057BB02F055BB02F053BB02F051BB02F08D
:101F50004FBB02F04DBB02F04BBB02F049BB02F09D
:101F600047BB02F045BB02F043BB02F041BB02F0AD
:101F70003FBB02F03DBB02F03BBB02F039BB02F0BD
:101F800037BB70B505460C461646EBB901782046BE
:101F900002F048FA3368012B08DD4FF4807329689A
:101FA000204691FBF3F1C9B202F03CFA3368022BF0
:101FB0000ADD4FF4803329682046BDE8704091FB6C
:101FC000F3F1C9B202F02EBA70BD2DE9F04180469E
:101FD0000C4615461E467BB95769204602F02BFA7F
:101FE000B8420BDB4046334605F114022146FFF7A9
:101FF000C8FF0120BDE8F0810027EEE70020F9E7E7
:102000002DE9F04106460D4617469846C3B9546976
:102010000134284602F00FFAA04213DB434629465A
:1020200007F114023046FFF7ACFF337B717B0BB135
:102030000131C9B2284602F0F5F90120BDE8F0816E
:102040000124E6E70020F9E72DE9F04106460C46B9
:1020500017469846C3B955690235204602F0EBF998
:10206000A84213DB434607F1140221463046FFF72E
:1020700088FF317B204602F0D5F92046717B02F0C3
:10208000D1F90120BDE8F0810225E6E70020F9E75B
:102090002DE9F04106460D4617469846BBB95469EE
:1020A0000134284602F0C7F9A04212DB434607F18B
:1020B000140229463046FFF764FF717B337B2846C4
:1020C0001944C9B202F0AEF90120BDE8F081012443
:1020D000E7E70020F9E72DE9F04106460C461746F0
:1020E00098468BBB55690535204602F0A4F9A842F5
:1020F0002CDB434607F1140221463046FFF741FF2F
:10210000F5682046E9B202F08DF94FF4807195FB35
:10211000F1F12046C9B202F085F94FF4803195FB08
:10212000F1F12046C9B202F07DF94FF0807195FBC4
:10213000F1F12046C9B202F075F92046317C02F077
:1021400071F90120BDE8F0810525CDE70020F9E710
:102150002DE9F04105460C4617469846E3B9566905
:102160000336204602F067F9B04217DB434607F119
:10217000140221462846FFF704FF297B204602F07F
:1021800051F9697B204602F04DF92046A97B02F007
:1021900049F90120BDE8F0810326E2E70020F9E7D4
:1021A000FFF7D6BF2DE9F04106460C461746984684
:1021B000C3B955690235204602F03DF9A84213DB48
:1021C000434607F1140221463046FFF7DAFE317B21
:1021D000204602F027F92046717B02F023F9012006
:1021E000BDE8F0810225E6E70020F9E72DE9F0419E
:1021F00006460D4617469846A3B954690134284649
:1022000002F019F9A0420FDB434607F114022946F8
:102210003046FFF7B6FE2846317B02F003F9012075
:10222000BDE8F0810124EAE70020F9E72DE9F0415B
:1022300006460D4617469846A3B954690134284608
:1022400002F0F9F8A0420FDB434607F114022946D9
:102250003046FFF796FE2846317B02F0E3F8012076
:10226000BDE8F0810124EAE70020F9E72DE9F0411B
:1022700006460D4617469846A3B9546901342846C8
:1022800002F0D9F8A0420FDB434607F114022946B9
:102290003046FFF776FE2846317B02F0C3F8012076
:1022A000BDE8F0810124EAE70020F9E72DE9F041DB
:1022B00006460D4617469846A3B954690134284688
:1022C00002F0B9F8A0420FDB434607F11402294699
:1022D0003046FFF756FE2846317B02F0A3F8012076
:1022E000BDE8F0810124EAE70020F9E72DE9F0419B
:1022F00006460D4617469846A3B954690134284648
:1023000002F099F8A0420FDB434607F11402294678
:102310003046FFF736FE2846317B02F083F8012075
:10232000BDE8F0810124EAE70020F9E72DE9F0415A
:1023300006460D4617469846A3B954690134284607
:1023400002F079F8A0420FDB434607F11402294658
:102350003046FFF716FE2846317B02F063F8012075
:10236000BDE8F0810124EAE70020F9E72DE9F0411A
:1023700006460D4617469846A3B9546901342846C7
:1023800002F059F8A0420FDB434607F11402294638
:102390003046FFF7F6FD2846317B02F043F8012076
:1023A000BDE8F0810124EAE70020F9E72DE9F041DA
:1023B00006460D4617469846A3B954690134284687
:1023C00002F039F8A0420FDB434607F11402294618
:1023D0003046FFF7D6FD2846317B02F023F8012076
:1023E000BDE8F0810124EAE70020F9E72DE9F0419A
:1023F00005460C4617469846F3B9566909362046F5
:1024000002F019F8B04214DB07F1140243462146EA
:102410002846FFF7B6FD297B204602F003F8697BCA
:10242000204601F0FFFF072205F10E01204601F0D2
:10243000FCFF0020BDE8F0810926E0E72DE9F0412E
:1024400005460C4617469846F3B9566905362046A8
:1024500001F0F1FFB04219DB434607F114022146B7
:102460002846FFF78EFD297B204601F0DBFF697BC4
:10247000204601F0D7FF2046032205F10E0101F0AE
:10248000D4FF0120BDE8F0810526E0E70020F9E750
:102490002DE9F04105460C4617469846EBB95669BA
:1024A0000436204601F0C7FFB04218DB07F11402E2
:1024B000434621462846FFF764FD2B7B697B204677
:1024C0001944C9B201F0AEFF2046032205F10E0106
:1024D00001F0ABFF0120BDE8F0810426E1E7002018
:1024E000F9E72DE9F04105460C4617469846EBB949
:1024F00056690836204601F09EFFB04218DB07F10E
:102500001402434621462846FFF73BFD2B7B697B9F
:1025100020461944C9B201F085FF2046072205F183
:102520000E0101F082FF0120BDE8F0810826E1E7FD
:102530000020F9E72DE9F04105460C46174698467C
:10254000F3B956690436204601F075FFB04219DB35
:102550004346214607F114022846FFF712FD2B7B64
:10256000697B0BB10131C9B2204601F05BFF204607
:10257000032205F10E0101F058FF0120BDE8F081B2
:102580000426E0E70020F9E72DE9F04105460C4676
:1025900017469846F3B956690836204601F04BFFB6
:1025A000B04219DB4346214607F114022846FFF7E3
:1025B000E8FC2B7B697B0BB10131C9B2204601F0ED
:1025C00031FF2046072205F10E0101F02EFF012008
:1025D000BDE8F0810826E0E70020F9E72DE9F041A9
:1025E00006460C4617469846BBBB5569083520463B
:1025F00001F021FFA84232DB434607F114022146D5
:102600003046FFF7BEFCF5682046E9B201F00AFF4C
:102610004FF4807195FBF1F12046C9B201F002FF41
:102620004FF4803195FBF1F12046C9B201F0FAFE7A
:102630004FF0807195FBF1F12046C9B201F0F2FE36
:10264000317C204601F0EEFE2046032206F1110106
:1026500001F0EBFE0120BDE8F0810825C7E700206E
:10266000F9E72DE9F04106460C4617469846BBBBF4
:1026700055690C35204601F0DEFEA84232DB4346A8
:1026800007F1140221463046FFF77BFCF56820462F
:10269000E9B201F0C7FE4FF4807195FBF1F12046DD
:1026A000C9B201F0BFFE4FF4803195FBF1F1204635
:1026B000C9B201F0B7FE4FF0807195FBF1F12046F1
:1026C000C9B201F0AFFE317C204601F0ABFE2046DE
:1026D000072206F1110101F0A8FE0120BDE8F081FA
:1026E0000C25C7E70020F9E72DE9F04106460D4625
:1026F00017469846ABB954690634284601F09BFE4C
:10270000A04210DB43463A4629463046FFF720FDFB
:102710002846032206F10F0101F087FE0120BDE8E3
:10272000F0810624E9E70020F9E72DE9F0410646AB
:102730000D4617469846ABB954690A34284601F04D
:102740007AFEA04210DB43463A4629463046FFF760
:10275000FFFC2846072206F10F0101F066FE01206A
:10276000BDE8F0810A24E9E70020F9E72DE9F0410E
:1027700006460D4617469846ABB9546906342846B6
:1027800001F059FEA04210DB43463A462946304646
:10279000FFF7DEFC2846032206F10F0101F045FE9B
:1027A0000120BDE8F0810624E9E70020F9E72DE9E2
:1027B000F04106460D4617469846ABB954690A34AF
:1027C000284601F038FEA04210DB43463A4629462F
:1027D0003046FFF7BDFC2846072206F10F0101F045
:1027E00024FE0120BDE8F0810A24E9E70020F9E792
:1027F0002DE9F04106460C4617469846D3B955696F
:102800000535204601F017FEA84215DB434607F1C7
:10281000140221463046FFF7B4FB042206F10C01F6
:10282000204601F002FE2046317C01F0FBFD012034
:10283000BDE8F0810525E4E70020F9E72DE9F04146
:1028400006460D4617469846ABB9546908342846E3
:1028500001F0F1FDA04210DB43463A4629463046DE
:10286000FFF7C6FF2846032206F1110101F0DDFD46
:102870000120BDE8F0810824E9E70020F9E72DE90F
:10288000F04106460D4617469846ABB954690C34DC
:10289000284601F0D0FDA04210DB43463A462946C7
:1028A0003046FFF7A5FF2846072206F1110101F087
:1028B000BCFD0120BDE8F0810C24E9E70020F9E728
:1028C0002DE9F04106460D4617469846B3B95469BE
:1028D0000534284601F0AFFDA04211DB434607F165
:1028E000140229463046FFF74CFB2846052206F124
:1028F0000C0101F09AFD0120BDE8F0810524E8E714
:102900000020F9E72DE9F04106460D4617469846A6
:10291000ABB954690834284601F08DFDA04210DBA4
:1029200043463A4629463046FFF7CAFF2846032267
:1029300006F1110101F079FD0120BDE8F0810824C4
:10294000E9E70020F9E72DE9F04106460D46174674
:102950009846ABB954690C34284601F06CFDA0428E
:1029600010DB43463A4629463046FFF7A9FF284682
:10297000072206F1110101F058FD0120BDE8F081A8
:102980000C24E9E70020F9E72DE9F04105460C4663
:102990001746984603BB56690636204601F04BFDA4
:1029A000B0421BDB434607F1140221462846FFF7DD
:1029B000E8FA297B204601F035FD022205F10D01E0
:1029C000204601F032FD2046032205F10F0101F0FF
:1029D0002CFD0120BDE8F0810626DEE70020F9E7A6
:1029E0002DE9F04105460C461746984603BB56694B
:1029F0000A36204601F01FFDB0421BDB434607F1BB
:102A0000140221462846FFF7BCFA297B204601F034
:102A100009FD022205F10D01204601F006FD2046C8
:102A2000072205F10F0101F000FD0120BDE8F08152
:102A30000A26DEE70020F9E72DE9F04105460C46BD
:102A40001746984623BB56690736204601F0F3FC2B
:102A5000B0421FDB434607F1140221462846FFF728
:102A600090FA297B204601F0DDFC697B204601F0CD
:102A7000D9FC022205F10E01204601F0D6FC2046C9
:102A8000032205F1100101F0D0FC0120BDE8F08126
:102A90000726DAE70020F9E72DE9F04105460C4664
:102AA0001746984623BB56690B36204601F0C3FCF7
:102AB000B0421FDB434607F1140221462846FFF7C8
:102AC00060FA297B204601F0ADFC697B204601F0CD
:102AD000A9FC022205F10E01204601F0A6FC2046C9
:102AE000072205F1100101F0A0FC0120BDE8F081F2
:102AF0000B26DAE70020F9E72DE9F04105460C4600
:102B00001746984623BB56690736204601F093FCCA
:102B1000B0421FDB434607F1140221462846FFF767
:102B200030FA297B204601F07DFC697B204601F0CC
:102B300079FC022205F10E01204601F076FC2046C8
:102B4000032205F1100101F070FC0120BDE8F081C5
:102B50000726DAE70020F9E72DE9F04105460C46A3
:102B60001746984623BB56690B36204601F063FC96
:102B7000B0421FDB434607F1140221462846FFF707
:102B800000FA297B204601F04DFC697B204601F0CC
:102B900049FC022205F10E01204601F046FC2046C8
:102BA000072205F1100101F040FC0120BDE8F08191
:102BB0000B26DAE70020F9E72DE9F04106460C463E
:102BC00017469846D3B955690535204601F033FCC0
:102BD000A84215DB434607F1140221463046FFF7B1
:102BE000D0F9042206F10C01204601F01EFC20461B
:102BF000317C01F017FC0120BDE8F0810525E4E7F8
:102C00000020F9E72DE9F04106460D4617469846A3
:102C1000ABB954690834284601F00DFCA04210DB22
:102C200043463A4629463046FFF7E0FA284607224F
:102C300006F10D0101F0F9FB0120BDE8F081082447
:102C4000E9E70020F9E72DE9F04106460D46174671
:102C50009846ABB954690834284601F0ECFBA04211
:102C600010DB43463A4629463046FFF7DFFA28464E
:102C7000072206F10D0101F0D8FB0120BDE8F0812B
:102C80000824E9E70020F9E72DE9F04106460D4662
:102C900017469846ABB954690834284601F0CBFB77
:102CA000A04210DB43463A4629463046FFF7DEFA9B
:102CB0002846072206F10D0101F0B7FB0120BDE80F
:102CC000F0810824E9E70020F9E72DE9F041064604
:102CD0000C4617469846D3B955690335204601F08E
:102CE000AAFBA84215DB434607F1140221463046F1
:102CF000FFF747F9022206F10C01204601F095FB8F
:102D00002046B17B01F08EFB0120BDE8F081032558
:102D1000E4E70020F9E72DE9F04106460D461746A5
:102D20009846ABB954690A34284601F084FBA042A6
:102D300010DB43463A4629463046FFF7C6FF284691
:102D4000072206F10F0101F070FB0120BDE8F081C0
:102D50000A24E9E70020F9E72DE9F04106460C4690
:102D600017469846D3B955690335204601F063FBF1
:102D7000A84215DB434607F1140221463046FFF70F
:102D800000F9022206F10C01204601F04EFB20461C
:102D9000B17B01F047FB0120BDE8F0810325E4E7AA
:102DA0000020F9E72DE9F04106460D461746984602
:102DB000ABB954690A34284601F03DFBA04210DB50
:102DC00043463A4629463046FFF7C6FF28460722C3
:102DD00006F10F0101F029FB0120BDE8F0810A2472
:102DE000E9E70020F9E72DE9F04106460C461746D1
:102DF0009846D3B955690535204601F01CFBA84219
:102E000015DB434607F1140221463046FFF7B9F8B7
:102E1000042206F10C01204601F007FB2046317C1C
:102E200001F000FB0120BDE8F0810525E4E700206A
:102E3000F9E72DE9F04106460D4617469846ABB92D
:102E400054690C34284601F0F6FAA04210DB4346E0
:102E50003A4629463046FFF7C6FF2846072206F1C4
:102E6000110101F0E2FA0120BDE8F0810C24E9E74C
:102E70000020F9E72DE9F04106460D461746984631
:102E8000B3B954690534284601F0D5FAA04211DBE4
:102E9000434607F1140229463046FFF772F82846E8
:102EA000042206F10C0101F0C0FA0120BDE8F08116
:102EB0000524E8E70020F9E72DE9F04106460D4634
:102EC00017469846ABB954690C34284601F0B3FA5A
:102ED000A04210DB43463A4629463046FFF7CAFF78
:102EE0002846072206F1100101F09FFA0120BDE8F3
:102EF000F0810C24E9E70020F9E72DE9F0410646CE
:102F00000D4617469846B3B954690734284601F070
:102F100092FAA04211DB434607F1140229463046DB
:102F2000FFF72FF82846072206F10C0101F07DFA81
:102F30000120BDE8F0810724E8E70020F9E72DE94A
:102F4000F04106460D4617469846B3B95469023417
:102F5000284601F070FAA04211DB434607F1140243
:102F600029463046FFF70DF82846022206F10C01EB
:102F700001F05BFA0120BDE8F0810224E8E70020BF
:102F8000F9E701F035BB10B484682468A44610BC8E
:102F9000604783685B681847006870470160704746
:102FA00040698B5C012808DD11444A78022803EB54
:102FB00002231CBF8A7803EB02431846704710B502
:102FC0000446084611461A46FFF7EAFF206010BD86
:102FD0002DE9F041069D0E4617469DF81C800446DB
:102FE00040B9102001F0EAFA0446A8B10C4B836006
:102FF00001230371B8F1000F07D12B463A46314641
:103000002046FFF7DCFF73691D447B5D03F001027E
:1030100023F00F03227363732046BDE8F08100BFE5
:10302000C00100202DE9F041DDF818800E4615465C
:103030009DF81C70044640B9102001F0BFFA044608
:1030400090B10B4B8360052303713FB943462A4679
:1030500031462046FFF7B3FF7369984415F80830EE
:10306000454423736B7863732046BDE8F08100BF4D
:10307000E80100202DE9F843089D0F4616469846C2
:103080009DF82490044640B9182001F097FA0446B0
:10309000D0B10F4B836020230371B9F1000F07D12A
:1030A0002B46324639462046FFF789FF7B691D448F
:1030B000735D4246237373195B783146637304F181
:1030C0000E00AB1CFEF74DFE2046BDE8F88300BFA6
:1030D000F80100202DE9F843089D0F461646984652
:1030E0009DF82490044640B9142001F067FA044684
:1030F000C8B10E4B836006230371B9F1000F07D1ED
:103100002B46324639462046FFF759FF7B691D445E
:10311000725D6B1C2273F25C3146627304F10E0027
:103120004246FEF70FFE2046BDE8F883F00100207E
:103130002DE9F041069D0E4617469DF81C80044679
:1031400040B9102001F03AFA0446A8B10C4B836054
:1031500003230371B8F1000F07D12B463A463146DD
:103160002046FFF72CFF73691D447B5D03F00302CB
:1031700023F00F03227363732046BDE8F08100BF84
:10318000A80000202DE9F843089D0F4616469846F2
:103190009DF82490044640B9142001F00FFA04462B
:1031A000E0B1104B836004230371B9F1000F07D124
:1031B0002B46324639462046FFF701FF7B691D4406
:1031C000735D314603F0030223F00F032273637330
:1031D00042466B1C04F10E00FEF7B4FD2046BDE82C
:1031E000F88300BFB00000202DE9F843089D0F468A
:1031F000164698469DF82490044640B9182001F0E0
:10320000DDF90446E0B1104B83601F230371B9F16F
:10321000000F07D12B46324639462046FFF7CFFE36
:103220007B691D44735D314603F0030223F00F03F5
:103230002273637342466B1C04F10E00FEF791FD8E
:103240002046BDE8F88300BFB80000202DE9F84310
:10325000089D0F46164698469DF82490044640B9AE
:10326000142001F0ABF90446E0B1104B8360022357
:103270000371B9F1000F07D12B463246394620467B
:10328000FFF79DFE7B691D44735D314603F001022B
:1032900023F00F032273637342466B1C04F10E008C
:1032A000FEF750FD2046BDE8F88300BFC8010020AE
:1032B0002DE9F843089D0F46164698469DF8249040
:1032C000044640B9182001F079F90446E0B1104BEA
:1032D00083601E230371B9F1000F07D12B463246DC
:1032E00039462046FFF76BFE7B691D44735D31460E
:1032F00003F0010223F00F032273637342466B1C39
:1033000004F10E00FEF72DFD2046BDE8F88300BF56
:10331000D00100202DE9F041069E0F4615469DF88C
:103320001C80044640B9142001F048F9044688B1D5
:103330000A4B836007230371B8F1000F07D13346AE
:103340002A4639462046FFF73AFE7B691E4435443B
:103350002B7923742046BDE8F08100BF6000002077
:103360002DE9F843089D0F46164698469DF824908F
:10337000044640B9142001F021F90446C0B10E4BB7
:10338000836008230371B9F1000F07D12B46324641
:1033900039462046FFF713FE7B691D4473191B79DC
:1033A0004246237431466B1D04F11100FEF7CAFC3E
:1033B0002046BDE8F88300BF780000202DE9F843DF
:1033C000089D0F46164698469DF82490044640B93D
:1033D000142001F0F3F80446C0B10E4B83602123A2
:1033E0000371B9F1000F07D12B463246394620460A
:1033F000FFF7E5FD7B691D4473191B794246237471
:1034000031466B1D04F11100FEF7ABFC2046BDE810
:10341000F88300BF800000202DE9F041069F0E4692
:1034200015469DF81C80044640B9102001F0C6F8EE
:103430000446A8B10C4B836009230371B8F1000F57
:1034400007D13B462A4631462046FFF7B8FD73694F
:103450001F44EB5D3D4423736B786373AB78A373B8
:103460002046BDE8F08100BFF000002013B5002425
:103470000194049C0094FFF7CFFF6E23037102B008
:1034800010BD00002DE9F041DDF818800E4615460C
:103490009DF81C70044640B9102001F08FF80446D6
:1034A00090B10B4B8360152303713FB943462A4605
:1034B00031462046FFF783FD7369984415F80830BC
:1034C000454423736B7863732046BDE8F08100BFE9
:1034D000080100202DE9F843089D0F46164698463E
:1034E0009DF82490044640B9142001F067F8044682
:1034F000E0B1104B83600A230371B9F1000F07D1CB
:103500002B46324639462046FFF759FD7B691D445C
:10351000735D3146237373195A7804F10F00627397
:103520009B784246A373EB1CFEF70CFC2046BDE8DB
:10353000F88300BFF80000202DE9F843089D0F46EE
:10354000164698469DF82490044640B9182001F08C
:1035500035F80446E0B1104B836022230371B9F1C2
:10356000000F07D12B46324639462046FFF727FD8C
:103570007B691D44735D3146237373195A7804F1D6
:103580000F0062739B784246A373EB1CFEF7E9FBC6
:103590002046BDE8F88300BF000100202DE9F0417E
:1035A000069F0E4615469DF81C80044640B9102023
:1035B00001F004F80446A8B10C4B83600B2303719F
:1035C000B8F1000F07D13B462A4631462046FFF7A7
:1035D000F6FC73691F44EB5D3D4423736B786373A2
:1035E000AB78A3732046BDE8F08100BF1001002036
:1035F00013B500240194049C0094FFF7CFFF6F23C0
:10360000037102B010BD00002DE9F843089D0F467C
:10361000164698469DF82490044640B9142000F0C0
:10362000CDFF0446E0B1104B83600C230371B9F168
:10363000000F07D12B46324639462046FFF7BFFC24
:103640007B691D44735D3146237373195A7804F105
:103650000F0062739B784246A373EB1CFEF772FB6C
:103660002046BDE8F88300BF180100202DE9F8438B
:10367000089D0F46164698469DF82490044640B98A
:10368000182000F09BFF0446E0B1104B8360232319
:103690000371B9F1000F07D12B4632463946204657
:1036A000FFF78DFC7B691D44735D314623737319ED
:1036B0005A7804F10F0062739B784246A373EB1CA7
:1036C000FEF74FFB2046BDE8F88300BF2001002035
:1036D00070B50E4615461C4630B91421012000F085
:1036E00076FF08B90060FFDE034B047483600D238E
:1036F00006600371C56070BD280100202DE9F0410E
:10370000069E0F4615469DF81C80044640B91420BD
:1037100000F054FF0446C8B10E4B83600D230371C3
:10372000B8F1000F07D133462A4639462046FFF745
:1037300046FC7B691E44AB5DAA19237353786373FF
:103740009378A373D378E373137923742046BDE889
:10375000F08100BF2801002013B500240194049CCF
:103760000094FFF7CBFF7023037102B010BD00007F
:103770002DE9F843089D0F46164698469DF824907B
:10378000044640B9142000F019FF044600B3124B60
:1037900083600E230371B9F1000F07D12B46324627
:1037A00039462046FFF70BFC7B691D44735D3146AB
:1037B000237373195A7804F1110062739A78A27313
:1037C000DA78E2731B79424623746B1DFEF7BAFA6E
:1037D0002046BDE8F88300BF300100202DE9F84302
:1037E000089D0F46164698469DF82490044640B919
:1037F000182000F0E3FE044600B3124B836024233C
:103800000371B9F1000F07D12B46324639462046E5
:10381000FFF7D5FB7B691D44735D31462373731934
:103820005A7804F1110062739A78A273DA78E2731D
:103830001B79424623746B1DFEF793FA2046BDE8C0
:10384000F88300BF380100202DE9F041069E0F46A5
:1038500015469DF81C80044640B9142000F0AEFEC9
:103860000446C8B10E4B83600F230371B8F1000FFB
:1038700007D133462A4639462046FFF7A0FB7B692D
:103880001E44354404F10C0304F1110215F8011B28
:1038900003F8011B9342F9D12046BDE8F08100BF37
:1038A000D00000202DE9F843089D0F4616469846A3
:1038B0009DF82490044640B9142000F07FFE044691
:1038C000F0B1114B836010230371B9F1000F07D1E0
:1038D0002B46324639462046FFF771FB7B691D4473
:1038E000731904F10C0004F1110213F8011B00F824
:1038F000011B9042F9D16B1D42463146FEF722FA78
:103900002046BDE8F88300BFD80000202DE9F84329
:10391000089D0F46164698469DF82490044640B9E7
:10392000182000F04BFE0446F0B1114B83602523B4
:103930000371B9F1000F07D12B46324639462046B4
:10394000FFF73DFB7B691D44731904F10C0004F182
:10395000110213F8011B00F8011B9042F9D16B1DF5
:1039600042463146FEF7FDF92046BDE8F88300BF28
:10397000E00000202DE9F8439846089D4B69164663
:103980000533A8EB0502934204460F469DF82490A8
:1039900003DB00242046BDE8F88348B9142000F07A
:1039A0000DFE04460028F4D00F4B836011230371F1
:1039B000B9F1000F07D12B46324639462046FFF7B2
:1039C000FEFA7B691D44735D4246237331466B1CCE
:1039D00004F10D00FEF7AAF9EB1C4246314604F152
:1039E0000F00FEF7AFF9D5E7C00000202DE9F8433E
:1039F0009846089D4B6916460533A8EB050293428D
:103A000004460F469DF8249003DB00242046BDE8C1
:103A1000F88348B9182000F0D1FD04460028F4D0FE
:103A20000F4B836026230371B9F1000F07D12B469A
:103A3000324639462046FFF7C2FA7B691D44735D62
:103A40004246237331466B1C04F10D00FEF76EF9FC
:103A5000EB1C4246314604F10F00FEF782F9D5E730
:103A6000C80000202DE9F8439846089D4B6916468A
:103A70000633A8EB0502934204460F469DF82490B6
:103A800003DB00242046BDE8F88348B9142000F089
:103A900095FD04460028F4D0114B83601223037176
:103AA000B9F1000F07D12B46324639462046FFF7C1
:103AB00086FA7B691D44735D4246237373195B78F4
:103AC0003146637304F10E00AB1CFEF72FF92B1D7A
:103AD0004246314604F11000FEF734F9D2E700BF48
:103AE000580100202DE9F8439846089D4B69164679
:103AF0000633A8EB0502934204460F469DF8249036
:103B000003DB00242046BDE8F88348B9182000F004
:103B100055FD04460028F4D0114B83602723037120
:103B2000B9F1000F07D12B46324639462046FFF740
:103B300046FA7B691D44735D4246237373195B78B3
:103B40003146637304F10E00AB1CFEF7EFF82B1D3A
:103B50004246314604F11000FEF703F9D2E700BFF8
:103B6000600100202DE9F8439846089D4B691646F0
:103B70000633A8EB0502934204460F469DF82490B5
:103B800003DB00242046BDE8F88348B9142000F088
:103B900015FD04460028F4D0114B836013230371F4
:103BA000B9F1000F07D12B46324639462046FFF7C0
:103BB00006FA7B691D44735D4246237373195B7873
:103BC0003146637304F10E00AB1CFEF7AFF82B1DFA
:103BD0004246314604F11000FEF7B4F8D2E700BFC8
:103BE000400100202DE9F8439846089D4B69164690
:103BF0000633A8EB0502934204460F469DF8249035
:103C000003DB00242046BDE8F88348B9182000F003
:103C1000D5FC04460028F4D0114B8360282303719F
:103C2000B9F1000F07D12B46324639462046FFF73F
:103C3000C6F97B691D44735D4246237373195B7833
:103C40003146637304F10E00AB1CFEF76FF82B1DB9
:103C50004246314604F11000FEF783F8D2E700BF78
:103C6000480100202DE9F041069E15464A699B1B3C
:103C700004329A4204460F469DF81C8003DB002460
:103C80002046BDE8F08148B9142000F097FC0446B6
:103C90000028F4D00D4B836014230371B8F1000F9A
:103CA00007D133462A4639462046FFF788F97B6913
:103CB0001E44AB5DAA192373537863739378A3737F
:103CC000D378E37313792374DAE700BF500100203F
:103CD000F8B5069E15464A699B1B9A4204460F4654
:103CE00014DA40B9102000F069FC044670B1094BA9
:103CF00083602D23037133462A4639462046FFF759
:103D00005EF97B693544EB5C237300E000242046B8
:103D1000F8BD00BFB00100202DE9F041069D164618
:103D20004A6998465B1B9A4204460F461BDA40B923
:103D3000142000F043FC0446A8B10D4B83603A23E5
:103D400003712B46324639462046FFF738F97B6926
:103D500031462B44F25C04F10D00227301334246DC
:103D6000FDF7FFFF00E000242046BDE8F08100BF22
:103D7000B8010020F8B5069E15464A699B1B9A4279
:103D800004460F4614DA40B9102000F017FC044630
:103D900070B1094B83602E23037133462A4639469E
:103DA0002046FFF70CF97B693544EB5C237300E098
:103DB00000242046F8BD00BF980000202DE9F04106
:103DC000069D16464A6998465B1B9A4204460F4672
:103DD0001BDA40B9142000F0F1FB0446A8B10D4BEA
:103DE00083603B2303712B46324639462046FFF75A
:103DF000E6F87B6931462B44F25C04F10D00227336
:103E000001334246FDF7ADFF00E000242046BDE847
:103E1000F08100BFA0000020F8B5069E15464A6953
:103E20009B1B9A4204460F4614DA40B9102000F05A
:103E3000C5FB044670B1094B83602F2303713346E1
:103E40002A4639462046FFF7BAF87B693544EB5CD1
:103E5000237300E000242046F8BD00BFD8010020F5
:103E60002DE9F0419846069D4B6916460733A8EBAD
:103E70000502934204460F461BDA40B9142000F0B5
:103E80009DFB0446A8B10D4B83603C2303712B4678
:103E9000324639462046FFF792F87B6931462B447B
:103EA000F25C04F10D00227301334246FDF759FF25
:103EB00000E000242046BDE8F08100BFE0010020C2
:103EC000F8B5069E15464A699B1B02329A42044683
:103ED0000F4619DA40B9102000F070FB044698B183
:103EE0000B4B83603023037133462A463946204604
:103EF000FFF765F87B691E44AB5D354423736B782F
:103F00006373AB78A37300E000242046F8BD00BFC4
:103F1000800100202DE9F0419846069D4B69164628
:103F20000933A8EB0502934204460F4620DA40B954
:103F3000182000F043FB0446D0B10F4B83603D23B3
:103F400003712B46324639462046FFF738F87B6925
:103F500004F10F002B44F25C2273F2185178033302
:103F6000617392783146A2734246FDF7FAFE00E093
:103F700000242046BDE8F08188010020F8B5069EA7
:103F800015464A699B1B02329A4204460F4619DACB
:103F900040B9102000F012FB044698B10B4B83602F
:103FA0003123037133462A4639462046FFF707F886
:103FB0007B691E44AB5D354423736B786373AB78C8
:103FC000A37300E000242046F8BD00BF900100204C
:103FD0002DE9F0419846069D4B6916460933A8EB3A
:103FE0000502934204460F4620DA40B9182000F03B
:103FF000E5FA0446D0B10F4B83603E2303712B4694
:10400000324639462046FEF7DAFF7B6904F10F009D
:104010002B44F25C2273F218517803336173927867
:104020003146A2734246FDF79CFE00E00024204684
:10403000BDE8F08198010020F8B5069E15464A6952
:104040009B1B04329A4204460F461DDA40B91420E5
:1040500000F0B4FA0446B8B10D4B8360322303710B
:1040600033462A4639462046FEF7A9FF7A6932448C
:10407000AB5C2A442373537863739378A373D37828
:10408000E3731379237400E000242046F8BD00BFD9
:10409000A00100202DE9F0419846069D4B69164687
:1040A0000933A8EB0502934204460F4624DA40B9CF
:1040B000182000F083FA0446F0B1114B83603F23CF
:1040C00003712B46324639462046FEF778FF7B695E
:1040D00004F111002B44F25C2273F218517805337D
:1040E00061739178A173D178E173127931462274AA
:1040F0004246FDF736FE00E000242046BDE8F08190
:10410000A8010020F8B5069E15464A699B1B03329C
:104110009A4204460F461BDA40B9102000F04EFACE
:104120000446A8B10C4B83603323037133462A46FF
:1041300039462046FEF743FF7B691E44AB5D35449C
:1041400023736B786373AB78A373EB78E37300E04E
:1041500000242046F8BD00BF680000202DE9F04192
:104160009846069D4B6916460A33A8EB0502934212
:1041700004460F4622DA40B9182000F01FFA044620
:10418000E0B1104B8360402303712B463246394621
:104190002046FEF714FF7B6904F110002B44F25C0B
:1041A0002273F2185178043361739178A173D27835
:1041B0003146E2734246FDF7D4FD00E0002420467C
:1041C000BDE8F08170000020F8B5069E17464A69E8
:1041D0009B1B934204460D4610DB40B90C2000F0B7
:1041E000EDF9044650B1074B8360662303713346F3
:1041F0003A4629462046FEF7E2FE00E0002420462B
:10420000F8BD00BF700100200C3070472DE9F0416F
:104210009846069D4B6917460633A8EB0502934264
:1042200004460E4618DA40B9142000F0C7F90446D7
:1042300090B10B4B8360672303712B463A4631469E
:104240002046FEF7BCFE736942462B44394604F112
:104250000C00FDF786FD00E000242046BDE8F0815B
:1042600088000020007B7047F8B5069E15464A6915
:104270009B1B9A4204460F4614DA40B9102000F006
:104280009DF9044670B1094B836064230371334682
:104290002A4639462046FEF792FE7B693544EB5CA0
:1042A000237300E000242046F8BD00BFE800002092
:1042B000007B7047F8B5069E15464A699B1B9A42DB
:1042C00004460F4614DA40B9102000F077F904468E
:1042D00070B1094B83606523037133462A46394622
:1042E0002046FEF76CFE7B693544EB5C237300E0EF
:1042F00000242046F8BD00BF90000020007B7047DE
:10430000F8B5069E15464A699B1B9A4204460F461D
:1043100014DA40B9102000F051F9044670B1094B8D
:1043200083606923037133462A4639462046FEF7E7
:1043300046FE7B693544EB5C237300E00024204695
:10434000F8BD00BF780100200C3070472DE9F04126
:10435000069D17464A6998465B1B9A4204460E46DC
:1043600018DA40B9102000F029F9044690B10B4B3F
:1043700083606A2303712B463A4631462046FEF796
:104380001EFE736942462B44394604F10C00FDF7CA
:10439000CDFC00E000242046BDE8F0815000002064
:1043A000F8B5069E0F461546044640B9102000F0A9
:1043B00005F9044668B1084B8360712303713346E5
:1043C0002A4639462046FEF7FAFD7B693544EB5C08
:1043D00023732046F8BD00BF68010020F8B5069E93
:1043E00015464A699B1B9A4204460F4614DA40B9A7
:1043F000102000F0E3F8044670B1094B83604623B7
:10440000037133462A4639462046FEF7D8FD7B69BC
:104410003544EB5C237300E000242046F8BD00BF68
:104420005800002003689B6818470368DB6818473A
:1044300003681B69184703689B69184708B502F0B1
:1044400071F9002108BD0146002005F0DDBC4FF0E8
:10445000FF3105F0EDBC05F011BD05F011BD70B5E3
:10446000064610200D46144600F0A8F810B1C0E929
:104470000065047370BD000070B5037B86B006460E
:1044800063B10C4D01AC0FCD0FC431462B682360D6
:1044900001A805F064FCB06006B070BDADF80C304A
:1044A00004934FF40073044A059301920268416833
:1044B0000292EDE768AD0008F5AD000808B500F020
:1044C00097F8BDE80840002005F062BC10B504462E
:1044D000D0E9003098472046BDE81040FFF7EEBF16
:1044E00005F05BBC042000F069B87047704700001D
:1044F00008B5054B186800F01BFD01284FF0FF3090
:1045000018BF002008BD00BF5C3B002000F070B861
:10451000082000F053B8704708B5082000F04EF8A6
:104520004FF0FF33036008BD08B5064B1A6832B977
:1045300001221A60FFF7F0FF0023036008BD00208E
:10454000FCE700BFF80B002008B5044801F00DFCA3
:10455000002808BF4FF0FF3008BD00BF4802002010
:1045600010B5FF231446054892B204F035FA00282E
:104570000CBF20464FF0FF3010BD00BFA03C002014
:104580004FF0FF3310B5002204460360044B0A20AD
:104590001A60FFF7A5FF2046BDE8104000F028B8DC
:1045A000F80B0020034B1B6813B1034A106818472F
:1045B000704700BFFC0B0020000C002010B500F07D
:1045C0003DF8044608B9FFF7EDFF204610BD38B5A9
:1045D00001FB00F5284600F031F8044608B9FFF762
:1045E000E1FF2A460021204605F0B6FC204638BDF2
:1045F00000F0B6B810B50F4B1A68824218D35C6849
:104600001919884201BF4168184609195960446860
:1046100001198A4207D1084909688A421FBF5168B7
:104620001268091941609842026018BF186010BDF5
:104630001346E1E714340020040C00202DE9F0417A
:10464000414D044600F0BEFF2B684048FBB940498D
:1046500000234E0701F520520FBF4FF420520731BF
:1046600021F00701521A0A443A4E083A22F0070292
:1046700073603160C2E90033531AC1E900232A6034
:10468000354A1360354A13604FF0004303600768F2
:10469000274205D001F030F804F051FC002545E038
:1046A000002CF7D004F1080358071CBF23F00703C0
:1046B0000833002BEED0294A166890469E42E9D373
:1046C000244A14686068984201D22168A1B9296817
:1046D000A142DFD0216815681160C21A102A12D9D0
:1046E000E01841070BD04FF0500383F31188BFF35C
:1046F0006F8FBFF34F8FFEE722460C46E2E7426022
:104700006360FFF777FF0023134962680868B61AF1
:104710001743864205F108056760236038BF0E60C5
:10472000C8F8006000F0E8FF002DB5D06B0708D096
:104730004FF0500383F31188BFF36F8FBFF34F8F98
:10474000FEE72846BDE8F081040C00200834002074
:10475000080C002014340020103400200C340020F9
:1047600010B5044670B3184A50F8043C126813425E
:1047700008D14FF0500383F31188BFF36F8FBFF35D
:104780004F8FFEE750F8081C41B14FF0500383F300
:104790001188BFF36F8FBFF34F8FFEE723EA020349
:1047A00040F8043C00F00EFF084A54F8043C11683D
:1047B000A4F108000B441360FFF71CFFBDE8104094
:1047C00000F09ABF10BD00BF083400200C34002058
:1047D000002382B001930D4B1B68013308D04FF0CA
:1047E000500383F31188BFF36F8FBFF34F8FFEE742
:1047F0004FF0500383F31188BFF36F8FBFF34F8FD8
:10480000019B002BFCD002B0704700BF00020020CB
:1048100006480068006880F3088862B661B6BFF396
:104820004F8FBFF36F8F00DF00BF000008ED00E087
:104830004FF0807340F8043C054B21F0010140F833
:10484000081C40F80C3C40F8202C4038704700BF52
:10485000D147000800000000000000000000000038
:10486000074B19680868B0E8F00F80F30988BFF3B8
:104870006F8F4FF0000080F311884EF00D0E7047DF
:10488000243400204FF0500383F31188BFF36F8F5F
:10489000BFF34F8F0A4A13680133012B13600DD108
:1048A000084B1B6813F0FF0F08D04FF0500383F341
:1048B0001188BFF36F8FBFF34F8FFEE7704700BFC4
:1048C0000002002004ED00E0084A136843B94FF0ED
:1048D000500383F31188BFF36F8FBFF34F8FFEE751
:1048E000013B13600BB983F311887047000200206D
:1048F000EFF30980BFF36F8F0D4B1A6820E9F00FBB
:1049000010602DE908404FF0500080F3118800F04E
:104910008DFF4FF0000080F31188BDE80840196852
:104920000868B0E8F00F80F30988BFF36F8F704715
:104930002434002008B54FF0500383F31188BFF3EF
:104940006F8FBFF34F8F00F045FE18B14FF08052CC
:10495000024B1A60002383F3118808BD04ED00E0C8
:104960000023084A084913600B604FF47A71074B23
:104970001B68B3FBF1F30649013B0B60072313608F
:10498000704700BF10E000E018E000E0780200206F
:1049900014E000E013B5274B00211A78D2B201923F
:1049A000FF221A701B78244ADBB28DF803309DF881
:1049B000033003F0500313700722204B1A609DF858
:1049C0000300541E00060DD401B11A601A68032AB0
:1049D00011D04FF0500383F31188BFF36F8FBFF3F3
:1049E0004F8FFEE79DF8032001215200D2B28DF8CF
:1049F00003202246E3E70024120202F4E0621A6078
:104A0000019B0C4ADBB213700D4B1A6842F4700222
:104A10001A601A6842F070421A60FFF7A1FF094B52
:104A20001C60FFF7F5FE00F001FFFFF7D1FE204606
:104A300002B010BD00E400E01C340020203400204F
:104A400020ED00E000020020EFF305830F2B0ED9CC
:104A5000104A9B5C104A12789A4208D94FF05003D2
:104A600083F31188BFF36F8FBFF34F8FFEE70B4BBC
:104A70000B4A1B68126803F4E063934208D94FF0B5
:104A8000500383F31188BFF36F8FBFF34F8FFEE79F
:104A9000704700BFF0E300E01C3400200CED00E0A4
:104AA000203400204FF0FF3200F108034360C0E9DA
:104AB00002230361002303607047002303617047F2
:104AC00043689A684B608A609A685160996003688D
:104AD00008610133036070470A6830B5531C0AD17E
:104AE00003695A684A6091608B6059600368086185
:104AF0000133036030BD00F108035C68256895420E
:104B0000EFD82346F9E70369D0E901128A60826889
:104B100051605968814208BF5A60002202611A68D8
:104B2000013A1A601868704710B50446FFF7AAFEEC
:104B3000A46BFFF7C9FEB4FA84F0400910BD70B54C
:104B40001546026C0446866B42B905689DB98068BB
:104B500000F0CAFFA5600136A66370BD6DB940685C
:104B600005F0EFF96368226C1344A2686360934216
:104B700001D3236863600020EDE7C06805F0E1F928
:104B8000236CE2685B4221681A448A42E2603EBFBD
:104B9000A2689B18E360022DEDD10EB1013EEAE759
:104BA0003046D8E703461A6C10B4084662B1D9689B
:104BB0009C681144A142D96028BF196810BC28BF65
:104BC000D960D96805F0BDB910BC704770B504460E
:104BD000FFF758FE94F8455004F124066DB2002DFD
:104BE00014DCFF2384F84530FFF76EFEFFF74AFE22
:104BF00094F8445004F110066DB2002D12DCFF232E
:104C000084F84430BDE87040FFF75EBE636A002B55
:104C1000E7D0304600F076FE08B100F0FDFE013D21
:104C20006DB2DCE72369002BE9D0304600F06AFE64
:104C300008B100F0F1FE013D6DB2DEE738B50D467A
:104C4000044640B94FF0500383F31188BFF36F8FD0
:104C5000BFF34F8FFEE7FFF715FED4E90F30434354
:104C60002268D1181B1A1344A160E3600021FF23BE
:104C7000A163626084F8443084F8453095B92369B3
:104C800063B104F1100000F03DFE38B14FF08052E6
:104C9000094B1A60BFF34F8FBFF36F8FFFF714FEFE
:104CA000012038BD04F11000FFF7FCFE04F12400E0
:104CB000FFF7F8FEF2E700BF04ED00E070B50D4627
:104CC000064640B94FF0500383F31188BFF36F8F4E
:104CD000BFF34F8FFEE748434830FFF7AFFC044671
:104CE00038B145B92060C4E90F6501212046FFF7BE
:104CF000A5FF204670BD00F148030360F3E7000004
:104D00002DE9FF47884601921F46044640B94FF0FF
:104D1000500383F31188BFF36F8FBFF34F8FFEE70C
:104D200051B9036C43B14FF0500383F31188BFF3C3
:104D30006F8FBFF34F8FFEE7022F0BD1E36B012B79
:104D400008D04FF0500383F31188BFF36F8FBFF388
:104D50004F8FFEE700F066FE50B9019E4EB14FF056
:104D6000500383F31188BFF36F8FBFF34F8FFEE7BC
:104D700000264FF00009DFF8E8A037E0019D1DB9DB
:104D8000FFF7A2FD002050E016B902A800F0FCFDDC
:104D9000FFF79AFD00F016FCFFF774FD94F844301D
:104DA000FF2B08BF84F8449094F84530FF2B08BFD0
:104DB00084F84590FFF788FD01A902A800F0F0FDF6
:104DC000002846D1FFF75EFDA26BE36B9A422FD11C
:104DD000FFF77AFD019904F1100000F079FD2046FB
:104DE000FFF7F4FE00F088FC50B30126FFF74AFD00
:104DF000A26BE36B9A4201D3022FBFD13A464146E0
:104E00002046FFF79CFE636A1BB104F1240000F00A
:104E100079FD38B14FF08052114B1A60BFF34F8FBC
:104E2000BFF36F8FFFF750FD012004B0BDE8F0879E
:104E3000FFF74AFD2046FFF7C9FE00F05DFCD4E70E
:104E40004FF08053CAF80030BFF34F8FBFF36F8F1E
:104E5000CBE72046FFF7BAFE00F04EFC92E700BF1A
:104E600004ED00E010B5024600210120FFF726FF07
:104E7000044638B1002383600360C3601A461946B4
:104E8000FFF73EFF204610BD70B50D46044640B901
:104E90004FF0500383F31188BFF36F8FBFF34F8F31
:104EA000FEE7036C43B14FF0500383F31188BFF367
:104EB0006F8FBFF34F8FFEE7036853B9836843B129
:104EC0004FF0500383F31188BFF36F8FBFF34F8F01
:104ED000FEE7FFF7B9FDEFF311864FF0500383F3C0
:104EE0001188BFF36F8FBFF34F8FA26BE36B9342B9
:104EF0001CD994F8453001325BB2A2635A1C10D120
:104F0000636A0BB9012009E004F1240000F0FAFC07
:104F10000028F7D0002DF5D00120286086F31188F5
:104F200070BD01335BB284F84530EBE70020F5E754
:104F30002DE9FF410446019140B94FF0500383F33E
:104F40001188BFF36F8FBFF34F8FFEE7056C45B13C
:104F50004FF0500383F31188BFF36F8FBFF34F8F70
:104F6000FEE700F05FFD50B9019D45B14FF05003E1
:104F700083F31188BFF36F8FBFF34F8FFEE72E4689
:104F80000027DFF82C814FE0019B63B945B14FF05A
:104F9000500383F31188BFF36F8FBFF34F8FFEE78A
:104FA000FFF792FC5EE016B902A800F0EDFCFFF7F7
:104FB0008BFC00F007FBFFF765FC94F84430FF2BF7
:104FC00008BF84F8447094F84530FF2B08BF84F87C
:104FD0004570FFF779FC01A902A800F0E1FC002868
:104FE0004AD12046FFF7A0FD00283FD023683BB9F7
:104FF000FFF748FCA06800F025FD0546FFF764FCBC
:10500000019904F1240000F063FC2046FFF7DEFD67
:1050100000F072FB38B94FF08053C8F80030BFF38E
:105020004F8FBFF36F8F0126FFF72CFCA36B002B74
:10503000AAD0013BA363236813B900F0FDFDA06073
:10504000236963B104F1100000F05CFC38B14FF04B
:105050008052174B1A60BFF34F8FBFF36F8FFFF76C
:1050600033FC0125284604B0BDE8F0812046FFF757
:10507000ADFD00F041FBD6E72046FFF7A7FD00F0AD
:105080003BFB2046FFF750FD0028CCD0002DE9D097
:10509000FFF7F8FB616A19B1236B1968C1F10701C9
:1050A000A06800F071FD0025FFF70EFCDAE700BFF5
:1050B00004ED00E02DE9F84389469046054640B9E5
:1050C0004FF0500383F31188BFF36F8FBFF34F8FFF
:1050D000FEE751B9036C43B14FF0500383F31188DD
:1050E000BFF36F8FBFF34F8FFEE7FFF7ADFCEFF31A
:1050F00011874FF0500383F31188BFF36F8FBFF315
:105100004F8FAC6B1CB395F84460494676B2284685
:10511000FFF748FD013C731CAC6313D12B690BB93D
:1051200001200BE005F1100000F0ECFB0028F7D0A7
:10513000B8F1000FF4D00120C8F8000087F31188FF
:10514000BDE8F883013676B285F84460E8E720468A
:10515000F4E70000002310B5074A02EBC3014C68D6
:10516000844204D1002042F83300486010BD01336E
:10517000082BF2D1FAE700BF143B002010B504461B
:1051800040B94FF0500383F31188BFF36F8FBFF323
:105190004F8FFEE7FFF7DEFF2046BDE81040FFF728
:1051A000DFBA0000064A13681968064B19B94FF0B8
:1051B000FF321A6070471268D268D2685268F8E706
:1051C0002834002000350020F8B51B4B1B4E1C680E
:1051D000054630680F460430FFF795FC334640B96A
:1051E00001203168164EC96A3268884022EA0002FE
:1051F00032606A1C07D137B1196812480431BDE822
:10520000F840FFF75DBC1A686419546007D30E4A72
:1052100010681968BDE8F8400431FFF75DBC0B4A1F
:10522000106819680431FFF757FC094B1A68A2424D
:1052300088BF1C60F8BD00BF483500202434002022
:10524000D0340020203500202C34002028340020C9
:105250000035002080B5DFF86480144F144C154EE3
:10526000236863B9144B1B68012BF8D94FF08053A6
:10527000C8F80030BFF34F8FBFF36F8FEEE7FFF733
:1052800001FBFB68DD68281DFFF73DFC3368013B2F
:1052900033602368013B2360FFF716FB286BFFF7A1
:1052A0005FFA2846FFF75CFADAE700BF34350020E2
:1052B000C0340020BC3400203034002004ED00E075
:1052C0002DE9F84F4FEA820A804650460D4699462E
:1052D0000B9EFFF7B3F90746B8B15420FFF7AEF9BC
:1052E000044678B107635246A521384604F034FEDF
:1052F000236BAAF1040A9A442AF0070A45B984F8F4
:10530000345015E03846FFF72BFA4FF0FF3586E0B2
:105310006B1E04F134020F3513F9011F02F8011B53
:1053200093F9001009B1AB42F6D1002384F8433061
:105330000A9D4FF0000B062D28BF0625271DE562AC
:1053400065643846C4F848B0FFF7B7FBC5F10705F8
:1053500004F11800FFF7B1FBC4F84CB02461A5615B
:10536000646284F850B04A4641465046FFF760FAFE
:10537000206006B13460FFF785FA304B304E1A6872
:10538000DFF8E88001321A603568002D4AD13460B8
:105390001B68012B1FD14FF0140909FB0580013553
:1053A000FFF780FB072DF8D1DFF8C490254D484664
:1053B000FFF778FB2846FFF775FB2348FFF772FBE2
:1053C0002248FFF76FFB2248FFF76CFB214BC3F825
:1053D0000090214B1D600125204A2149136808686F
:1053E00001331360E26A05FA02F3034314200B60F1
:1053F00000FB02803946FFF763FBFFF765FA194BA4
:105400001B6863B13368DA6AE36A9A4207D24FF0E5
:105410008052154B1A60BFF34F8FBFF36F8F284632
:10542000BDE8F88F0F4B1B68002BD4D13368E26ABC
:10543000DB6A9A4228BF3460CDE700BFBC3400204D
:1054400024340020E83400200835002034350020C2
:1054500020350020283400202C340020CC340020BB
:10546000D03400201C35002004ED00E03034002052
:10547000D434002070B504462A4DFFF703FA04B96E
:105480002C68261D3046FFF73EFB60B91421E06A08
:10549000254B41435B5833B90122244982400B68B4
:1054A00023EA02030B60A36A1BB104F11800FFF7A3
:1054B0002AFB1F4A1368013313602B68A3421BD1D8
:1054C00031461C48FFF7FCFA1B4A1368013313608E
:1054D000FFF7FAF9194B1B681BB32B68A34220D1C5
:1054E000174B1B68ABB14FF0500383F31188BFF328
:1054F0006F8FBFF34F8FFEE7124A206B1368013B9B
:105500001360FFF72DF92046FFF72AF9FFF74AFE4F
:10551000DEE74FF080520C4B1A60BFF34F8FBFF3A2
:105520006F8F70BD2434002030340020D034002030
:10553000CC34002034350020C03400201C3500203D
:10554000C8340020BC34002004ED00E013B5002472
:10555000164B009401938022234615491548FFF706
:10556000AFFE012814D14FF0500383F31188BFF32D
:105570006F8FBFF34F8F4FF0FF320F4B1A600F4BFF
:1055800018600F4B1C6002B0BDE81040FFF702BA74
:10559000013008D14FF0500383F31188BFF36F8FB0
:1055A000BFF34F8FFEE702B010BD00BFFC340020F8
:1055B00013AE000855520008003500201C350020AD
:1055C00048350020024A136801331360704700BF5A
:1055D000C83400202DE9F84F3C4B1B68002B6ED1DE
:1055E0003B4B1C6801341C60BCB93A4B1A6812680A
:1055F00042B14FF0500383F31188BFF36F8FBFF3B5
:105600004F8FFEE7344A1968106818601160334AFA
:10561000136801331360FFF7C5FD314D4FF0000BE8
:105620002B68304FA34211D93A682F4BD16A14220C
:105630004A439A58022A28BF4FF0010B2B4A12689E
:10564000002A0CBF58460120BDE8F88FDFF884A07F
:10565000DFF8A090DAF8002012681AB94FF0FF3294
:105660002A60E1E7DAF80020D268D66871688C42D7
:1056700001D22960D8E706F104084046FFF743FA53
:10568000B16A19B106F11800FFF73DFA01224FF097
:10569000140CF06AD9F8003002FA00F11943124BE9
:1056A000C9F800100CFB00304146FFF709FA3868D2
:1056B000F16AC26A914228BF4FF0010BCAE70C4A57
:1056C0004FF0000B136801331360B7E7C8340020B4
:1056D00048350020283400202C34002004350020D8
:1056E0000035002024340020303400204C350020C8
:1056F000C4340020D03400202DE9F843304C236816
:1057000043B94FF0500383F31188BFF36F8FBFF39A
:105710004F8FFEE7FFF7B6F82368013B236024684C
:105720002CB10024FFF7D0F82046BDE8F883254BC4
:105730001B68002BF5D0244D244EDFF8A4801FE019
:10574000EB680127DC6804F1040904F11800FFF795
:10575000DAF94846FFF7D7F91420E26A316807FA08
:1057600002F30B4300FB028049463360FFF7A8F9C0
:10577000174BE26A1B68DB6A9A4201D3154B1F6024
:105780002B68002BDCD10CB1FFF70CFD124D2C68FF
:1057900044B101270F4EFFF71DFF00B13760013CF8
:1057A000F9D12C600B4B1B68002BBAD04FF0805204
:1057B0000A4B1A60BFF34F8FBFF36F8F0124B1E71D
:1057C000C8340020BC34002008350020D03400202C
:1057D000243400204C350020C434002004ED00E0C7
:1057E0003034002008B540B94FF080520D4B1A609C
:1057F000BFF34F8FBFF36F8F08BD0B4B196841B1DB
:105800004FF0500383F31188BFF36F8FBFF34F8FB7
:10581000FEE7FFF7D7FEFFF7D7FCFFF76DFF002885
:10582000E2D0E9E704ED00E0C834002038B5234BAE
:105830001A68234B12B101221A6038BD214C1A603C
:1058400023681B6B1A68B2F1A53F0BD15A68B2F1FD
:10585000A53F07D19A68B2F1A53F03D1DB68B3F148
:10586000A53F04D020682168343103F067FB164B54
:105870001B68B3FA83F31422DBB2C3F11F035A434C
:1058800012498D58881845B94FF0500383F3118899
:10589000BFF36F8FBFF34F8FFEE7456808326D6827
:1058A0000A44954208BF6A68456008BF42601422F6
:1058B00002FB03135B68DB682360BEE7C83400208B
:1058C0004C35002024340020D03400203034002017
:1058D00010B50C4640B94FF0500383F31188BFF365
:1058E0006F8FBFF34F8FFEE7054B19681831FFF735
:1058F000F3F82046BDE810400121FFF765BC00BF6A
:105900002434002038B5C368DC6844B94FF0500334
:1059100083F31188BFF36F8FBFF34F8FFEE704F15E
:1059200018052846FFF7EFF8114B1B68E3B9251D52
:105930002846FFF7E8F801230E49E26A0868934019
:10594000034314200B6029460B4B00FB0230FFF78A
:10595000B7F80A4BE26A1B68DB6A9A4285BF0120EE
:10596000074B0020186038BD29460648EFE700BF06
:10597000C8340020D03400203034002024340020EB
:105980004C35002008350020034B1B680360034B97
:105990001B684360704700BF043500204835002075
:1059A000F8B50C46054640B94FF0500383F3118813
:1059B000BFF36F8FBFF34F8FFEE741B94FF0500336
:1059C00083F31188BFF36F8FBFF34F8FFEE7FEF7AE
:1059D00059FF0F4B6868196823680A1A5E1C0DD0BE
:1059E0000C4E2F683668B74201D088420DD99342D9
:1059F00009D99B1A23602846FFF7C6FF0024FEF74B
:105A000063FF2046F8BD002323600124F7E700BFB1
:105A100048350020043500200122014B1A607047F0
:105A20004C350020054B1B6833B1054B1B68002B20
:105A30000CBF022000207047012070471C35002059
:105A4000C83400202DE9F0410446002836D0234A0E
:105A5000C36A11681746C96A8B4237D21426826915
:105A60001F4D002AA8BF3A6806FB0353A2BFD26AA3
:105A7000C2F10702826142699A4221D100F1040811
:105A80004046FFF740F8174B48B9E06A4643AA5929
:105A90002AB901211A68814022EA01021A603A6893
:105AA0001968D26AE262012404FA02F0084318601D
:105AB0001420414600FB0250FFF702F8204603E0A5
:105AC0003B68DB6AC3620120BDE8F0811368406C6B
:105AD000DC6AA0422CBF00200120F5E7243400201E
