:020000040804EE
:10000000000002205D180508AD180508AD180508A8
:10001000AD180508AD180508AD180508000000006A
:10002000000000000000000000000000AD180508FE
:10003000AD18050800000000AD180508AD1805084A
:10004000AD180508AD180508AD180508AD18050868
:10005000AD180508AD180508AD180508AD18050858
:10006000AD180508AD180508AD180508AD18050848
:10007000AD180508AD180508AD180508AD18050838
:10008000AD180508AD180508AD180508AD18050828
:10009000AD180508AD180508AD180508AD18050818
:1000A000AD180508AD180508AD180508AD18050808
:1000B000AD180508AD180508AD180508AD180508F8
:1000C000AD180508AD180508AD180508AD180508E8
:1000D000AD180508AD180508AD180508AD180508D8
:1000E000AD180508AD180508AD180508AD180508C8
:1000F000AD180508AD180508AD180508AD180508B8
:10010000AD180508AD180508AD180508AD180508A7
:10011000AD180508AD180508AD180508AD18050897
:10012000AD180508AD180508AD180508AD18050887
:10013000AD180508AD180508AD180508AD18050877
:10014000AD180508AD180508AD180508AD18050867
:10015000AD180508AD180508AD180508AD18050857
:10016000AD180508AD180508AD180508AD18050847
:10017000AD180508AD180508AD1805080000000009
:08018000AD180508AD180508D3
:1001900010B5054C237833B9044B13B10448AFF3C1
:1001A00000800123237010BD4804002000000000DF
:1001B000883A050808B5034B1BB103490348AFF360
:1001C000008008BD000000004C040020883A0508AB
:1001D000034613F8012B002AFBD1181A0138704787
:1001E00010F8012B11F8013B012A28BF9A42F7D0E1
:1001F000D01A70470000000000000000000000005E
:1002000001F0FF01102A2BDB10F0070F08D010F8C7
:10021000013B013A8B422DD010F0070F42B3F6D1CB
:10022000F0B441EA012141EA014122F007047FF0E4
:1002300000070023F0E80256083C85EA010586EA3B
:10024000010685FA47F5A3FA87F586FA47F6A5FA77
:1002500087F68EB9EED1F0BC01F0FF0102F0070283
:1002600032B110F8013B013A83EA010313B1F8D12E
:100270000020704701387047002D06BF354603380F
:10028000073815F0010F07D1013015F4807F02BF48
:10029000013015F4C03F0130F0BC0138704700BF99
:1002A0007BB972B90029BEBF00204FF0004106E0C3
:1002B00008BF00281CBF6FF000414FF0FF3000F076
:1002C000A5B9ADF1080C6DE904CE002909DB002BBE
:1002D0001ADB00F035F8DDF804E0DDE9022304B0B4
:1002E0007047404261EB4101002B1BDB00F028F816
:1002F000DDF804E0DDE9022304B0404261EB410196
:10030000524263EB43037047524263EB430300F0F6
:1003100017F8DDF804E0DDE9022304B0404261EBA8
:1003200041017047524263EB430300F009F8DDF8E6
:1003300004E0DDE9022304B0524263EB430370475B
:100340002DE9F047089E04468846002B4BD18A428F
:10035000154667D9B2FA82F24AB1C2F1200701FA12
:1003600002F320FA07F7954047EA030894404FEA62
:10037000154E230CB8FBFEF71FFA85FC0EFB178801
:1003800043EA084307FB0CF1994209D9EB1807F13E
:10039000FF3080F01B81994240F21881023F2B44CC
:1003A0005B1AA4B2B3FBFEF00EFB103344EA034425
:1003B00000FB0CFCA44509D92C1900F1FF3380F097
:1003C0000781A44540F2048102382C4440EA0740EA
:1003D000A4EB0C0400271EB1D4400023C6E900435F
:1003E0003946BDE8F0878B4209D9002E00F0EB803A
:1003F0000027C6E9000138463946BDE8F087B3FA60
:1004000083F7002F47D18B4202D3824200F2FA8059
:10041000841A61EB030301209846002EE0D0C6E960
:100420000048DDE702B9FFDEB2FA82F2002A40F0AE
:100430008F80491B4FEA154E1FFA85F80127B1FB43
:10044000FEFC230C0EFB1C1143EA014308FB0CF1DC
:10045000994207D9EB180CF1FF3002D2994200F211
:10046000CD808446591AA3B2B1FBFEF00EFB1014E6
:1004700043EA044408FB00F8A04507D92C1900F111
:10048000FF3302D2A04500F2B6801846A4EB080460
:1004900040EA0C409FE7C7F1200CBB4022FA0CFE5B
:1004A0004EEA030E01FA07F420FA0CF521FA0CF3D8
:1004B0004FEA1E482543B3FBF8F92C0C08FB19330F
:1004C0001FFA8EFA44EA034309FB0AF49C4202FA3B
:1004D00007F200FA07F10BD91EEB030309F1FF3015
:1004E00080F087809C4240F28480A9F10209734425
:1004F0001B1BADB2B3FBF8F008FB103345EA034415
:1005000000FB0AFAA24508D91EEB040400F1FF33F0
:100510006BD2A24569D90238744440EA0940A0FB75
:100520000289A4EB0A044C45C2464B4654D351D031
:10053000002E69D0B1EB0A0564EB030404FA0CFC4D
:10054000FD40FC404CEA0505C6E90054002747E79A
:10055000C2F1200320FA03F7954001FA02F021FAD4
:1005600003F34FEA154E3843010CB3FBFEF71FFAB5
:1005700085F80EFB173341EA034107FB08F38B4272
:1005800004FA02F407D9691807F1FF3C2FD28B4215
:100590002DD9023F2944CB1A81B2B3FBFEF00EFBEA
:1005A000103341EA034100FB08F38B4207D9691875
:1005B00000F1FF3C17D28B4215D902382944C91AE1
:1005C00040EA07473BE73746304609E70746E7E694
:1005D0001846FBE64145ABD2B8EB020A69EB0E02C6
:1005E00001381346A4E76046E9E7184695E76746F1
:1005F000D1E781467CE702382C4447E7ACF1020C96
:100600002B442FE7384608E73746E9E6704700BF36
:1006100053B94AB9002908BF00281CBF4FF0FF3169
:100620004FF0FF30FFF7F2BFADF1080C6DE904CEDB
:10063000FFF786FEDDF804E0DDE9022304B0704731
:100640000B4B0C4918680B885A1C30B592B20D46FA
:1006500018B1094C24889C4205D908492A800968A8
:100660000B44187D30BD1B1BDBB20A80C05CF9E770
:10067000A4BF002096BF0020A0BF00209CBF002088
:10068000F8B51A4E3388074633B1194D00232B8035
:1006900034882B88A34200D3F8BDFFF7D1FF01288F
:1006A000F6D0F9D3022817D1FFF7CAFF0428F3D1F7
:1006B0002B880133A342EFDAFFF7C2FF000284B2B6
:1006C000FFF7BEFF204380B2431EB3F5067F28BF6D
:1006D0004FF406703880DBE7FFF7B2FF0128DBD963
:1006E0002B88023B18442880D2E700BFA8BF002017
:1006F00096BF002030B5C16A058D446A02466B1A68
:100700001819538EB3F5866F94BFC31AA0F586638C
:10071000002B01DB558530BD631A002B4FF0000024
:10072000D6BF091B50855185F5E7002970B58CB2FD
:1007300006DA65424389ADB2AB4202D2012012E033
:100740002546067B43680EB1032E0DD15B1A00F1DE
:1007500010029342F2D343604389234443810389C7
:100760001C440481002070BD013E012EE6D8002902
:1007700004DA4289AA42E1D35B1AECE7DED0002A10
:10078000FAD1DBE720B14389994202D243685A5437
:100790007047C91A89B20068F4E748B143899942A1
:1007A00002D24368585C7047C91A89B20068F4E7FE
:1007B0004FF0FF307047431E033311D891F82B30B0
:1007C00013F002030ED04A6890420BD08B6842406F
:1007D0001A4207D1DB4383430CBF0120002070473E
:1007E00001207047002070472DE9F04188461446EB
:1007F0000546C0B1B9B10389934217D3002614B995
:100800002046BDE8F0816F896868A74228BF274667
:1008100008EB06013A46E41B3E4411F070F9A4B21D
:10082000B6B22D68EBE76FF00F00EAE74FF0FF304C
:10083000E7E72DE9F04105460E46174635B16989CF
:100840008B4206D22889DA19904206DA4FF0FF303F
:100850001AE05B1A9BB22D68F0E7CC1ABC42A8BF25
:100860003C4668681FFA84F842463146184411F045
:1008700046F93A1B92B232B106EB08012868BDE88E
:10088000F041FFF7B1BF1046BDE8F0812DE9F0411E
:100890000C46054618B96FF00F00BDE8F08100293D
:1008A000F9D002890B899A42F5D34FF000084746E8
:1008B00063896E8961686868F61BA3EB08039E4232
:1008C000ACBF9EB2B6B232464144384411F017F97B
:1008D000374462896B8946441FFA86F84245BFB2A5
:1008E0009CBF24684FF000089F4206D12D681DB9B7
:1008F000002CD0D12046D0E700272CB16289238973
:100900009A4201D1236843B96A892B899A4201D15D
:100910002B6813B9002CCBD1ECE76FF00500BCE7D6
:100920002DE9F041224D4FF488764643044688462F
:1009300005F1300710362B684BB12A7AA24206D156
:100940001C486A6841463044984700232B600C35A8
:10095000BD42F0D117494FF48872002302FB041006
:10096000DDB2AC421FD002FB0315AE7A022E1AD1C3
:10097000EF7BC57BAF4216D10423C3730D4B4FF4FD
:10098000887202FB0434E37B032B0AD80A4D55F826
:1009900023000CF067F9E37B002245F823200423B1
:1009A000E373BDE8F0810133042BD9D1E6E700BF42
:1009B000A4090120E00901209409012038B5002193
:1009C000054601200EF004FC04460BF03CF8B4FA96
:1009D00084F040092C60404238BD00008FB5644D62
:1009E000644E00232B71644B07785A7FD3F8248020
:1009F0009C7F531EDBB2F62B61D8604B1A70002F20
:100A00005DD15F4B5F4A1A605F4B604A1A60604B72
:100A1000604A1A60604B614A1A600BF08BFA604BB7
:100A2000604AC3E90277C3E90028ACB91C6100221F
:100A30000C215B48DA61C3E9051210F011F8044695
:100A4000A8B90BF063FA012108460EF0C1FB564B22
:100A5000186078B9032010E0022C03D14FF48062B3
:100A60001A61E4E7012CE2D14FF4C062F8E70BF021
:100A70004DFAEFE701233370204633782871012BBC
:100A80001FD13F4B1B68984700233370DFF8188154
:100A9000464F2B713478002C67D14FF0FF32D8F8D5
:100AA000001001A80BF0D6F8019B102B05D19DF882
:100AB0000830022B07D0042B1DD02C71EAE702204E
:100AC000DBE70623E2E7DFF8F090314B384A1B689A
:100AD000394648469847044608B10024EDE7274ABE
:100AE00099F8003012789A4201D0002BF5D10420F9
:100AF0000BF050F9E1E73868DFF8C0A0DFF8C090EC
:100B0000027889F8002001238AF80030294B13F875
:100B100034104FEAC40C39B18A4222D163442449CB
:100B20005B6898478AF80000234B1B78002BD4D0D1
:100B30009AF800001E4B60B199F800203968012432
:100B400062F07F021C800A701A88396814191C80B0
:100B500088540D4A396814681A88084B1878A047D9
:100B6000BBE70134102CD2D1DEE70624A5E700BF95
:100B70007406002000000020280E0120B1BF0020D4
:100B80005497002089C10408449700206DC00408D0
:100B90004097002031C104080811012061B5040804
:100BA000981001200010014088090120B4BF0020E6
:100BB000BEBF00202C3E0508BCBF00204C370020E3
:100BC000B0BF0020038D194489B2B1F5066F10B58E
:100BD000044611D94FF4066323852046FFF78AFDAA
:100BE000B0F5067F11DBA37E43F00203A376204617
:100BF000BDE810400CF000BB037D09B12185ECE796
:100C0000072BE7D0092BF9D1E4E710BD2DE9F0411E
:100C10000F469046064618B321B30025B8F1000FE1
:100C200000D016B92846BDE8F08172892BB19342F5
:100C300003D39B1A9BB23668F0E7D21A94B24445AC
:100C4000716828BF44462246194478192544A8EB08
:100C5000040410F054FFADB21FFA84F80023EAE751
:100C60000546DFE70D46DDE710B500B109B910BD57
:100C700010460B890489026823449BB20381002A31
:100C8000F6D10160F3E70346002290B2013203B9C6
:100C900070471B68F9E719B110B10022FFF745BD95
:100CA0000020704700BA704730B5134B1B686BB912
:100CB000124A1268EAB192F82B1001F005010529D9
:100CC00017D15168002918BF134612E093F82B1072
:100CD000CD07EBD54C07E9D55A68002AE6D0046861
:100CE0009D6862402A4204D08A07DFD4DA689442C1
:100CF000DCD1184630BD00BF389700203497002063
:100D000010B504460846FFF7CFFF30B1438C23B13E
:100D1000283B9BB29C4228BF1C46204610BD0000C9
:100D200007B5024600F125030432019100921946ED
:100D3000024A0AF02DFA03B05DF804FB0A3C0508EC
:100D40002DE9F047BDF820400D462402074644F047
:100D500008040E21284690469946A4B2FFF79BFF4F
:100D600088B96E684946B4810622304610F0C7FE45
:100D700006224146B01810F0C2FEBB69294638462B
:100D8000BDE8F04718476FF00100BDE8F0870000AC
:100D90002DE9F74388461A49182505FB021502EB91
:100DA00042042B7DE40004F10C06022B07460E449E
:100DB00000F125090AD16B8AB3F58E7F12D904346C
:100DC0002144FFF7ADFF08B903232B754FF40063EF
:100DD00000934A46334641463846FFF7B1FF03B019
:100DE000BDE8F083B3F5877FF0D304340C44031DD2
:100DF000009301944B46324649460AF0C9F9E2E7AE
:100E00005436002008B5034B186810F0FFFC012091
:100E100008BD00BF4817012010B5044640B1FFF7D8
:100E2000F1FFE3890133E381BDE810400EF00EB914
:100E300010BD000038B50C4661B1074B53F8205087
:100E4000FFF7E0FFAB681A6822601C60BDE838401D
:100E50000EF0FCB838BD00BFD43D0508074B10B5F7
:100E600053F82040FFF7CEFFA3681C680CB122683E
:100E70001A600EF0EBF8204610BD00BFD43D050807
:100E8000006810F0C3BC70B505460E460BF028F89C
:100E9000044646B1314628680AF0FCFF58B90BF009
:100EA0001FF8001B70BD4FF0FF3128680AF0F2FFF9
:100EB0000028F8D1F3E74FF0FF30F3E7F0B585B045
:100EC00006460D4617460BF00BF8044677B13A4636
:100ED000316801A80AF0BEFE019B102B0DD1029BC8
:100EE0002B600AF0FDFF001B05B0F0BD4FF0FF3294
:100EF000316801A80AF0AEFEF1E74FF0FF30F3E7EA
:100F000008B5002200680AF0DFFE003018BF01209B
:100F1000404208BD70B5134DFFF774FF2E780123D2
:100F2000F6B22B700EF092F8D6B90820FFF796FFB4
:100F3000044668B1032303700B4B0146C0E9013638
:100F40000A48FFF7DDFF58B121460820FFF772FF7E
:100F5000FFF758FF00232B70BDE870400EF076B805
:100F600070BD00BF3D97002059180408EC10012007
:100F700010B504460068EFF3058343B108B90AF0E1
:100F800029FD836B2068BDE810400BF019BB0BF006
:100F90008DFAF7E70E49D1F8883043F47003C1F8B1
:100FA00088300C4B1A68002042F001021A609860E9
:100FB0001A6822F0847222F480321A60064A5A605B
:100FC0001A6822F480221A60D860044B8B60704744
:100FD00000ED00E00038024010300024000004085A
:100FE00070B50E4615460C46A31B9D4201DC2846F3
:100FF00070BDAFF3008004F8010BF5E700207047E7
:10100000012070474FF400534B60002070474FF0B1
:10101000FF30704770B50E4615460C46A31B9D4227
:1010200001DC284670BD14F9010BAFF30080F5E731
:101030000B4B1968024609B90A4919600A49186830
:10104000096809680244A1F500518A4289BF074B2B
:101050001A600C224FF0FF3088BF1A60704700BF43
:101060005C370020381A012008ED00E0341A012016
:101070000A460146014810F0BDBD00BFDD3B050832
:1010800038B5074B53F82050064B33F8104024B9BD
:1010900040F2AF110448FFF7EBFF2404AC6138BD08
:1010A000743B05085C3B0508A43B050838B5074BB5
:1010B00053F82050064B33F8104024B940F2AF11DA
:1010C0000448FFF7D5FFAC6138BD00BF743B05088D
:1010D0005C3B0508A43B050880B5A24AA24E88B037
:1010E000002120200CF06CFB04AD0746002841D104
:1010F0009E4B69221A604FF0FF3333604FF48062D9
:1011000000219B48DFF89C92DFF89CA210F002FDC2
:101110004F46DFF85C829649306808AC102344F8EB
:10112000143D4FF480620023CDE900540CF0ECFB39
:1011300080B2BDF81230A9F800300C28EBD998F82D
:101140000C30013B082BE6D801A252F823F000BF77
:10115000BF11040809120408551204089D1204085E
:10116000DF120408EB1204082F13040817110408F7
:101170004713040800210BF057FC431C044607D119
:1011800038460CF0CBFA794B346017221A60B5E779
:101190000028B8613060B1DB10220021284610F031
:1011A000B9FC02238DF8113000230593294645F23E
:1011B000C3033068ADF812300FF0AAF99EE7102291
:1011C0000021284610F0A6FC02238DF811304FF0C4
:1011D000FF3305934FF001083B8866496448ADF83A
:1011E00012300C228DF80C8010F089FC424621460A
:1011F000614810F084FC102300930D222B465C49BB
:1012000030680DF077FF84E70C225A49584810F0F7
:1012100067FC00287FF47DAF0AF0A8FB574C584BC1
:10122000F322DA600121204607F0D4F840B955488E
:1012300055490460632207F06BF8544B38B91870B5
:1012400007F07AF900287FF464AF0AF0A1FB0122CD
:101250001A70F5E70C224749454810F041FC044656
:1012600000287FF456AF01461022284610F052FCA9
:1012700002238DF811304FF0FF33059344493B882A
:10128000ADF812302301CA5C08EB04030134102CC2
:101290005A73F7D100942B461D22B0E70C22354932
:1012A000334810F01DFC044600287FF432AF394B60
:1012B00001221A714FF40073CAF8183064200AF042
:1012C00079FB08EB0403E0B25B7B2BB1FFF7EEFE8A
:1012D00001340C2CF5D11CE7FFF7D2FEF8E70C2205
:1012E0002449234810F0FCFBACE7224920480C229B
:1012F00010F0F6FB014600287FF40BAF10222846C1
:1013000010F008FC02238DF811304FF0FF330593E5
:101310004FF4C6723B881F491B48ADF8123010F0DD
:10132000EEFB1023009340F299122B4667E71A4B0D
:101330000193042300934FF4807200231749184847
:101340000BF060FAE5E60C220A49094810F0C8FBE8
:1013500000287FF4DEAE0D4BFF221A7007F0ECF888
:1013600073E700BF05D8040890BF0020341A01209D
:10137000C8BF002040360020D4BF002000800008F5
:10138000003C0240C4BF0020D5BF00205C1E0020EE
:1013900070050020280E012050370020203E05084F
:1013A0004D5D0408509700200010024000680AF0CC
:1013B00007BD00002DE9F843044600287ED0404ECA
:1013C000404F0025FFF71EFDB4F80E8008F1FF38EE
:1013D0001FFA88F8A4F80E800DF038FEB8F1000F5F
:1013E0000DD1637BD4F8008013F002090AD0236981
:1013F0002046984701354446EDB2002CE2D12846FC
:10140000BDE8F883237B032B04D121460D20FFF791
:1014100011FDEFE7013B012B02D821460C20F6E736
:101420003368A34202D83B68A34204D8FFF7EAFC22
:101430000DF00CFEDEE72448FFF722FD234834F8C8
:1014400008EC036804F8049CA4F108029A4233688B
:1014500038BF026003EB0E0C624514D09CF80410F8
:1014600089B9396861450ED001688C4533F80E1092
:1014700024F8081C33F80E1008BF02601944A2EBD0
:10148000030CA1F802C034F806CC03EB0C0E724535
:1014900010D09EF8041069B901688A4234F8082C0B
:1014A00023F80C2034F8082C08BFC0F800E01344DF
:1014B000A3F802C00448FFF779FF9BE705469EE7C3
:1014C0005C97002060970020C0370020BC370020C8
:1014D00010B5044648B1406808B1FFF76BFF2146DC
:1014E0000320BDE81040FFF7A5BC10BD2DE9F84F63
:1014F000814603209DF828A00E4617469846FFF720
:10150000ADFC4FEA8A0B5FFA8BF5044628B93046EA
:10151000FFF750FF2046BDE8F88F80F80AA0338916
:101520004FF0000AA3EB0B03C0E900A603811421CE
:101530003046FFF7B0FB024620B12046FFF7C8FF58
:101540005446E7E7B9F816006368010A5B68E36090
:1015500041EA0021B9F818001980010A41EA002186
:1015600059804046AD02FFF79DFB05F5A0453D4380
:101570006DBA58609D819A74DA74CBE710B500B9E2
:1015800010BD0468FFF7A4FF2046F8E738B5037DD7
:10159000012B044619D90A2B17D0406F18B1FFF759
:1015A00009FF00236367206FFFF7E8FF00254FF670
:1015B000FF732386A06E2567FFF7E0FFE06EFFF75D
:1015C000DDFFC4E91A55A4F8645038BD03688B42A6
:1015D00010B50C4619D1CB6803600023E3602046A8
:1015E000FFF7D4FF237D0A2B0AD0012B08D0A37E5E
:1015F000DA0705D543F00203A37620460BF0FCFD85
:1016000000232375E38210BD1346002BE5D0DA6872
:10161000A242F9D1E268DA60DFE700002DE9F34782
:10162000037D0A2B04460E460AD101462A48FFF7DD
:10163000CDFF2146012002B0BDE8F047FFF7FABB1D
:10164000D0F84C90D0F824A0D0F88C70D0F810804E
:10165000C58A9BB93DB1214A1368834206D1C3684C
:1016600013600025E5602E460FE01346002BF8D0EE
:10167000DA68A242F9D1E268DA60F2E70146184876
:10168000FFF7A4FF174B01221A70E06E08B1FFF7B5
:1016900075FFA06E08B1FFF771FF206F08B1FFF76B
:1016A0006DFF46B1238B2246CDE900535146231DE1
:1016B00048460BF05BFD21460120FFF7BBFB3FB125
:1016C0006FF00C0140463B4602B0BDE8F0471847BA
:1016D00002B0BDE8F08700BF3411012024110120C1
:1016E0002011012094BF00200C4B19680C4B30B422
:1016F00000241D68224621B972B1104630BCFFF7A4
:101700008DBF0B7D834205D10B6AEB1AA34224BF28
:101710001C460A46C968EEE730BC7047201101201C
:10172000301101200121FFF779BF0000F8B506460E
:101730000120FFF793FB3B4D044690BB3A4B2868D2
:101740001B682146002B58D114B12046FFF7EAFF51
:101750000120FFF783FB044618BB0920FFF7C4FFF5
:101760000120FFF77BFB0446D8B90820FFF7BCFF38
:101770000120FFF773FB044698B92C4BD5F800C045
:101780001B6816F0800F0CBF31467F21002B3CD127
:1017900014B12046FFF7C6FF0120FFF75FFB0446A8
:1017A00048B398220021204610F0B4F94FF4866324
:1017B000A4F860301E4BA362FF23A37206231D49C9
:1017C000A4F84030E3871C4B236301232A68A4F864
:1017D00048300B68667513440B606365E3646364AB
:1017E000A365164B22621B786377154BC4F88030D3
:1017F000144BC4F890302046F8BD1A6A821A8A4207
:1018000024BF1C461146DB689CE75F7D8F4207D8EA
:101810001A6AACEB0202824222BF394610461C46CD
:10182000DB68B3E7301101203411012020110120C1
:101830006008600804000020FFFF180299BF002024
:101840005137040800DD6D0008B50846FFF76AFF50
:101850006FF00C0008BD000010B5FFF7D3FA084B7D
:1018600000221A700DF0F2FB064B1C682CB1206FA1
:1018700020B1FFF783FE0023236710BDE468F5E77E
:101880003D970020201101202DE9F04F9946138942
:101890000F2B8BB0154640F2258100230C2207A99F
:1018A0002846FFF7B3F90C28044640F01B81BDF829
:1018B0001C208E48130A43EA02239BB200264FF4F1
:1018C0008871074601FB06F808EB00025FFA86FA0A
:1018D00092F80AC0BCF1020F40F00081B2F808C0D3
:1018E0009C4540F0FB809DF91E30002B80F2FA8071
:1018F000BDF820100B0A43EA01231BB2012B40F074
:10190000F180D17A7A4BD9F8002053F821309A42ED
:1019100040F0E88008F11002024421462846FEF714
:101920003CFF04F1010B00281FFA8BFBC0F2DA80A8
:1019300000F0C003C02B00F0D58002EB00095C462C
:101940009145934648D12146284609F10102FEF708
:1019500024FF0028C0F2C680DFD1631C9BB24FF683
:10196000FF794B4500F0BE80042202A92846BDF84D
:1019700022B0FFF74BF9042840F0B480BDF80A30DC
:10198000B3F5807F40F0AE80BDF80830B3F5807FBE
:1019900040F0A8809DF81F3005341B07A4B20BD17E
:1019A0004FEA1B2343EA0B2B1FFA8BFBBBF1000F03
:1019B00002D02A89A2421FD82846FFF7FBFC00214B
:1019C0005046FEF7ADFF4FF4887303FB0676002305
:1019D000B3720BB0BDE8F08F21462846FEF7DDFE5E
:1019E00000287FDB9BF90030C0B2834202F1010284
:1019F00078D10134A4B2A3E7631C9BB221462846E8
:101A00000193FEF7CAFE041E6CDB04F0C001C0297E
:101A1000019B55D01C44944264DAA4B22146284666
:101A2000FEF7BBFE00285DDBE6D1631C9BB24B4595
:101A300058D00A2204A92846FFF7E8F80A2851D10D
:101A4000BDF81210BDF818200B34B1F5807FA3B299
:101A500038D1BDF81010B1F5807F33D1B2F5806F69
:101A600030D1042203A92846FFF7D0F8042839D141
:101A70004FF48874744307EB0409039BC9F80430DE
:101A80002846FFF797FC0598FFF70CF9032389F820
:101A90000A30184B3851984208F1040188BF3B5175
:101AA00039445046FEF73CFF4FF488735E43BB1940
:101AB000BA59002A8DD1997A03298AD19A7288E776
:101AC0001C46B2E7140A44EA022413FA84F4B4F57B
:101AD000803F07DAA4B20BF1FF3B65E70136042E25
:101AE0007FF4F0AE2846FFF765FC72E7E0090120BD
:101AF000D8090120803A090010B50446406908B1B0
:101B0000FFF758FC21460520BDE81040FFF792B9C9
:101B100070B51826074C46430546A05918B1FFF783
:101B200049FC0023A351182303FB0544002323751C
:101B300070BD00BF543600202DE9F74F2C4B0191AA
:101B40000A2280460020164615468146864684466F
:101B500014469A460A2C1F7D3ED1002F3ED144B236
:101B600001300A2803F11803F4D1019B012B30D175
:101B70000A2C1FD0E4B2182303FB04A3D8F80020DA
:101B80005A6000225A8260B22FE0012FB3F812B0DF
:101B90000BD11F6827B1E345E2D342B2DC46DFE751
:101BA000F345DDD345B2DE46DAE7CB4524BF46B286
:101BB000D946D5E70A2E04D0F4B22046FFF7A8FF95
:101BC000D9E70A2D01D0ECB2F7E70A2A01D0D4B246
:101BD000F3E74FF0FF3008E0002FC1D0D8F8001035
:101BE0008B4659688B45D0D140B203B0BDE8F08F29
:101BF000543600202DE9F041154C0025022604271B
:101C0000A4F10408227B6AB1638901339BB2B3F566
:101C1000967F638103D2012A0BD1042B0DD928466C
:101C2000FFF776FF01350A2D04F11804EAD1BDE86B
:101C3000F081032A08D12773F4E7182101FB0581FD
:101C40002068FFF76DF8EDE7042AEBD12673E9E78A
:101C50005C360020714B724C1A6842F400722DE918
:101C600080481A601A6842F480621A601A6842F466
:101C70008072A7B01A6009F04BFB09F0DDFC09F097
:101C800047FB00216FF00B000EF072FD00216FF09A
:101C90000A000EF06DFD00216FF009000EF068FDE6
:101CA00000216FF004000EF063FD00216FF00300CF
:101CB0000EF05EFD0F216FF001000EF059FD0F21B7
:101CC0004FF0FF300EF054FD564B00210B911A6C73
:101CD00042F080521A641A6C02F080520B920B9AF6
:101CE000514A0A91116841F480411160126802F46E
:101CF00080420A920A9A9A6802F00C02042A07D0DB
:101D00009A6802F00C02082A58D15B68590255D52E
:101D1000444B1B68454B01221A602168414B5A6FA6
:101D2000970759D500220C921A6C42F080521A641F
:101D30001B6C03F080530C930C9B3B4B1A6842F4D2
:101D400080721A6021681A68D6054AD5354B1A6F19
:101D500042F001021A67216841F288301A6F950734
:101D600044D59B6803F00C03082B34D0304B2D492D
:101D700000221A6020680A6892013CD42D4A4A6009
:101D800001221A60274920680B460A68970137D557
:101D9000224A116801F00F01042936D99A6842F4E9
:101DA000E0529A609A6842F460429A609A6822F01F
:101DB000F0029A601A6896013ED4FEE7194B1A6841
:101DC00042F480321A6021681A689203A2D4226811
:101DD000521A642AF8D9FEE72268521A022A9ED9BA
:101DE000F9E72268521A022AADD9F4E72268521A9A
:101DF0008242B3D9EFE72268121A022ABBD9EAE776
:101E00002268121A022AC0D9E5E70521117012686A
:101E100002F00F028A42D0D1C0E700BF003C02406E
:101E2000EC1901200038024000700040800E47424B
:101E300060004742085440079A6822F0030242F0CB
:101E400002029A60B74A2068114641F288359368C9
:101E500003F00C03082B40F02381B34B1A6802F007
:101E60000F02052A06D905221A701B6803F00F031A
:101E70009342A2D18B6823F4E05343F4A0538B60C8
:101E80008B6823F4604343F400438B608B6803F05A
:101E90000C03042B00F02581082B00F00781A348D8
:101EA000A04DA34AAB68A34EC3F30313D35CD84041
:101EB000306009F0C1FB00230D932B6C43F080537D
:101EC0002B642B6C03F080530D930D9B9A4B196878
:101ED00041F480711960206832461968CD0540F1DF
:101EE0000281904B196F890500F103818D4B996830
:101EF00021F4F8119960196F41F4807119678F4BC3
:101F00000121196013684FF47A72B3FBF2F3013BBD
:101F1000B3F1807FC0F02E81894A8A4C136843F068
:101F2000040313600F214FF0FF300EF021FC4FF43B
:101F30006172E2814AF6C0022282228340F20112DB
:101F400062834FF47A6222844FF41652A28422866E
:101F500040F60172A28640F66412E2864FF48032A7
:101F6000C4F8042102F1021240F20131C4F8102138
:101F700002F102126182C4F81C214FF6FF7102F1D6
:101F800002124FF400604FF481754FF4C223A18216
:101F9000C4F82821FF2102F10212C4E90053E182B2
:101FA000002301214FF48075E0836085C4F834215B
:101FB00040F6A17002F102126184A085E185A36060
:101FC0002373A583E3842585638684F87830C4F879
:101FD000402132201946E2180433402B508782F802
:101FE0003810F8D1574B00211A4601200D46C2F88F
:101FF00080100131102982F87C0082F87D0082F87F
:102000007E5002F10802F2D104F1480100224FF49F
:102010009675012083F8FC2083F8FD20A3F8FE507C
:1020200083F800010C339942F4D1474B47491A68B1
:10203000474B1A6009685960464912F0FF0F09685A
:1020400099600AD1444B4549186803F17842A2F5DA
:10205000004204338B42A050F6D1414D414B002247
:10206000C5E90032C5E90422AA616A7FFF217F2009
:10207000C5E9020111401AB93B4A297701211160D3
:1020800002226A77CA225A6253225A620FF0A8F9D2
:102090002B68002879D0FF225A6204236B77FEE771
:1020A00023681B1AAB427FF6D2AE86E64A684B68BD
:1020B000496813F4800314BF2C481C48C1F38811ED
:1020C00018BF002302F03F02A1FB0001FEF7A0FAB7
:1020D000144B5B68C3F3014301335B00B0FBF3F0C7
:1020E000DEE62248DCE62168091A02297FF6F5AE11
:1020F000FEE7196F1E480125056021F44071002597
:1021000005601967196FCF077FF5F0AE206841F2BF
:102110008835196F8E073FF5E9AE2168091AA94283
:10212000F7D9E5E700380240003C02400024F40003
:102130004C3B050870000020007000404C004742F6
:1021400010E000E0280E01200040000804400008D4
:102150005C1E002008400008008000088C810008F8
:10216000E8160120002800403C0E474200127A0089
:10217000400E47422C4A53602C4BF02183F8231029
:102180000023936007231360C6E69A68286922F447
:10219000E00222F040029A606A6899680243686926
:1021A00002430A439A60EA681A611A69A96842EA16
:1021B00001421A61DA6822F08002DA609B689B06AD
:1021C00008D40FF0F5F828B12B68FF225A620423D7
:1021D0006B7764E72B68A9691A6C22F480221A6471
:1021E0001A6C0A431A640126FF225A626E771B6D2D
:1021F00043F2F227BB421FD00923ADF884303146A9
:10220000002321A88DF88630CDE9243308F0FCFDA9
:1022100000B1FEE726A8064B40F83C3D314608F0E9
:10222000D1FE38B1FEE700BF10E000E000ED00E0B5
:10223000010904172B681F65A278012A35D1E378BC
:10224000C3EB031399002B7F012B00F0798102234C
:102250006B772B682A77CA225A6253225A629A688D
:1022600012F4806FBC4A04D01668D868470700F1A2
:102270005D81986820F4806098601668D86840078F
:1022800040F15F819A6822F007029A609A6842F0F2
:1022900004029A6059619A6842F480629A60FF224F
:1022A0005A6201236B7700232B7721A808F02CFFBB
:1022B0009DF871309DF87020A84EDFF8C482DFF8D9
:1022C000C4B2DFF8C49202EB0322229B4FF47A716E
:1022D00092FBF1F201FB02324FF4807392FBF3F3B5
:1022E000D2B2DBB202EB032393FBF1F201FB123219
:1022F0009DF8863001FB03238DF870301B128DF89A
:1023000071309DF885209DF8723002F03F0223F075
:102310003F0313438DF872309DF884209DF873308D
:1023200002F01F0223F01F03134317A88DF8733028
:1023300008F010FF9DF874309DF85E2023F01F0315
:1023400002F01F0213438DF874309DF85D209DF854
:10235000753002F00F0223F00F0313438DF8753030
:102360009DF85F209DF8763002F07F0223F07F0316
:102370000DF1700A134350468DF8763006F02CF9B3
:10238000774BC3E9000100250995336B43F0100337
:102390003363336B03F010030993099B0895336B88
:1023A00043F004033363336B03F004030893089B87
:1023B0000795336B43F080033363336B03F0800383
:1023C0000793079B0695336B43F001033363336B2D
:1023D00003F001030693069B0595336B43F002035C
:1023E0003363336B03F002030593059B0495336B52
:1023F00043F008033363336B03F008030493049B37
:10240000584BC8F81830012703F1B463C9F81870A5
:10241000CBF81830544B4FF080729A614FF4800221
:10242000029321A9C3F8182440462022CDE9212790
:10243000CDE9235509F054F921A94846CDE9217782
:10244000CDE9235509F04CF9484A23954023CDE9BD
:102450002132029B0393184621A909F041F94FF458
:102460007A42CDE9212721A90222404624920292F4
:10247000239509F035F94FF48061CDE921154046E7
:1024800021A9239709F02CF94FF47F41CDE92117B9
:10249000029A249221A95846239509F021F94FF474
:1024A0008073CDE92137039B029A2492184621A913
:1024B000239509F015F9302321A95846CDE9213596
:1024C000239709F00DF9C023CDE9213721A9032372
:1024D00058462493239509F003F9402321A9244861
:1024E000CDE92137CDE92355224F09F0F9F805212F
:1024F00017200EF03DF94FF400033B603D2005210D
:102500000EF036F94FF000537B601B481B4F0561FE
:102510004FF4E133C0E900730C23C0E90255C0E970
:102520000535C5610EF09CFA80B3FEE71068801B8C
:10253000B0F57A7F7FF699AEFF225A6203236B775C
:10254000FEE71068801BB0F57A7F7FF697AEFF221A
:102550005A6203236B77F3E7EC190120003802403D
:10256000681E0020000020FA000002400000111048
:102570000004024000E100E060370020005000400D
:1025800000100240000C024000080240B64FB74B5A
:102590007A793B6002F0FF0352B90E933B71336BC3
:1025A00043F480533363336B03F480530E930E9BD9
:1025B000AF4E02237B710125AE4B7D711B683360EA
:1025C000AD4B1B687360AD4B1B68B3604FF4803339
:1025D000C9F818304FF40073C8F818300A2009F011
:1025E000E9F94FF00073C8F818300021C9F8185005
:1025F00028460CF0EDFD814609F025FAA04BA14AD2
:10260000C3F80090A04BA149A14822F003021A6030
:102610004FF420531360D3184FF000090B604FF0B4
:10262000282182F80490196042F60403D554994B8E
:102630001A60FEF7C3F94B46DFF8BCC2B1469E46AE
:102640005CF8230042688668B0F802B0C6F800E083
:10265000033222F0030200255D45C0F28E81013372
:102660000E2BEDD18C4A8D49DFF890B28C4D4FF492
:102670007A700AF0AFFB8B4A88494FF47A700AF0FF
:10268000A9FB8649884A4FF47A700AF0A3FB874B6E
:10269000DBF800201A60864B864800261E60864BB9
:1026A0001E600DF063FF8548FEF788F9844B219387
:1026B000844B22934FF480620323314621A8ADF866
:1026C0008C300293249625920AF096F97E4A029B5A
:1026D00085F82030137885F82E30591C7B4B2B6100
:1026E0002369EE60C5E9016685F82B60EE61117023
:1026F0005E46002B40F0488108F0C0FD6369AB6086
:10270000A369EB6047F27343AB85714B6B61714B0F
:10271000714CAB61714B0120C4E90030704B1C93CC
:102720003B79208200228342ADF87420C4E905A0E1
:10273000C4E907220F924FF002030DD07B713B6872
:10274000D9F800101960D9F804101960D9F80810E8
:10275000196078713A711B6826A9042241F85C3D22
:102760000DF172000FF0CBF9002317936368012B72
:1027700003D9C0215B48FEF77BFCA369012B03D979
:10278000C1215848FEF774FCE369012B03D9C2212B
:102790005448FEF76DFC236A33F4000303D0C321D1
:1027A0005048FEF765FC94F84430216803F0FF07B9
:1027B000002B40F0A580494B84F84570994240F0C9
:1027C0009F80A3F590431397196B474841F0007120
:1027D0001963196B01F00071139113991297196B1A
:1027E00041F080611963196B01F0806112911299B7
:1027F0001197196B41F0006119631B6B239703F06C
:10280000006311934FF0020B119B04234FF0030957
:10281000CDE9213B21A90B23CDE9249308F060FFEA
:102820003E23CDE9213B21A90B2330482593CDE957
:10283000237908F055FF8F23CDE9213B21A90B23F4
:102840002B482593CDE9237908F04AFF43F603038B
:10285000CDE9213B21A90B2326482593CDE92379F6
:1028600008F03EFF4CE000BF54370020003002402B
:1028700040360020107AFF1F147AFF1F187AFF1FBE
:1028800048170120679700205C9700206097002080
:10289000C0370020BC370020183C050859CE04087A
:1028A000B40F0120203C0508283C050844110120F4
:1028B00038110120EC1001203C110120E81001200A
:1028C000303C05086DD404083C970020ADAB0408EB
:1028D000F9590408E9740408A01601200080024098
:1028E0000080E1003D3C0508001002400008024065
:1028F0000000024000040240D43D0508EC1901200C
:1029000000231093244B5A6C42F480425A645B6C4F
:1029100003F480431093109B204B5A6822F400026A
:102920005A605A68216A0A435A60226802F5805345
:10293000196841F00101196030681968C90735D478
:102940001749184F0868184913690144B94223F020
:102950001C0300F23C8243F0080313614FF4004172
:1029600000200DF07FFE002800F0498201200EF0CB
:1029700073FB012384F8443023E03168116001883F
:10298000326001350A4467E66369AB60A369EB60B6
:1029900008F074FCB6E600BF003802400038014081
:1029A00070000020BFE1E40000D3CEFE3168091AB8
:1029B000B1F5FA7FC1D9032384F84430002384F8A9
:1029C000453094F84530012B33D00123BA4984F8BF
:1029D0004530E669DFF804E3E162022384F844301D
:1029E000002001F120034FF4801740F2F45C0CFB4F
:1029F00000E243F8207C43F8182C2EB953F8202C21
:102A000042F4400243F8202C03280CBF0A461A4621
:102A10000130042843F8142C03F12003E7D141F2DC
:102A200010032268D150012384F84430002384F835
:102A3000453094F84530012B2ED0022384F84430E1
:102A40009E4B9F4A9A6003F12006DE6002F2F45624
:102A500002F6E8329A6403F16002DA64994A9E62EF
:102A600044F2F4515960596259645966C3E91A2312
:102A70002168A36241F20C024FF0004003F14006CE
:102A80001860DE621862186418668B50012384F89F
:102A90004430002384F84530062385F824306369E8
:102AA000894F1A7885F825205A7885F826209A7853
:102AB00085F82720DA7885F828201A7985F82920E2
:102AC0005B7985F82A3040F2DC536B8495F82B3023
:102AD00043F00A0385F82B300EF04CFD7B4B186059
:102AE0000FCF21AE0FC63B687949336021A809F0AA
:102AF00083FF94F84530012B3AD0022384F8443008
:102B00000027236816974FF0010984F845901A684A
:102B100042F008021A601B6816930EF08BFA2368C5
:102B2000169A1A6015971A6842F004021A601B6818
:102B300015930EF07FFA2368159A1A6041F2180671
:102B400014979A5942F480129A519B5914930EF09B
:102B500071FA2368149A9A519A5984F8457042F48C
:102B600000529A519A5942F002029A5184F84490C4
:102B7000002610270421112027820DF073FD022367
:102B800017A93046238217960DF0AEFD17993046EF
:102B900041F4006117910DF065FD03234FF40451DA
:102BA0003046238217960DF05DFD17A938460DF0CB
:102BB0009BFD179921F4806141F4804138461791BB
:102BC0000DF050FD17A914200DF08EFD179921F07E
:102BD00020013943142017910DF044FD04234FF4D4
:102BE00004513046238217960DF03CFD17A9384654
:102BF0000DF07AFD179921F4806141F48041384647
:102C000017910DF02FFD17A914200DF06DFD1799E8
:102C100021F020013943142017910DF023FD0523E5
:102C20004FF404513046238217960DF01BFD17A96F
:102C300014200DF059FD179921F0200141F4047181
:102C4000142017910DF00EFD17A91D200DF04CFD5D
:102C500017991D2041F4007117910DF003FD062313
:102C600017A93046238217960DF03EFD179930467E
:102C700041F4006117910DF0F5FC314611202782D7
:102C80000DF0F0FC134B1A681D60134B2A601D6099
:102C900095F82B30C3F3800403F00102002C00F000
:102CA00021811ABB43F001025E0785F82B201DD558
:102CB0006A68DAB114E000BFE40400206404002074
:102CC0008806002064180020A03A050888BF00206C
:102CD000B40F01203897002034970020701E002088
:102CE0001C0703D59B49081FFEF71AF89A4D9B4C09
:102CF0002B79012B04BF4FF40073C8F818300FCCA8
:102D000017AE0FC623683360002117A809F074FEC0
:102D10006B78012B09D104340FCC21AE0FC6236888
:102D20003360002121A809F067FE8D4C0FCC21AE45
:102D30000FC623683360002121A809F05DFE2B78BF
:102D4000002B3BD05C2101200EF0B2FD854F0646E2
:102D50003860042128780EF0ABFD0434B0650FCC48
:102D600056460FC654F8043B3360002150463E6877
:102D700009F042FE30600FCC21AE0FC623683360ED
:102D8000002121A83C6809F037FE24216060322030
:102D90003C680CF01DFA1C21A0600A203C680CF075
:102DA00017FA0821E06019203C680CF011FA0321A1
:102DB00020610A203C680CF00BFA60612B7F002B2D
:102DC00000F0A980052B00F0AA806748A4E06749BD
:102DD000674F0144B94202D843F00C03BDE5654991
:102DE000654F0144B9427FF6B8AD64490144644877
:102DF000814294BF43F0040343F01003ADE5FF208C
:102E000008F0D8FD6368002B49D0376841F2883953
:102E100017A901200DF068FC3368DB1B4B4504D972
:102E200001200EF019F90123C6E5179B5A07EFD5CB
:102E30004FF4805100200DF015FC00287FF496AD72
:102E4000376841F2883917A901200DF04DFC33682D
:102E5000DB1B4B45E4D8179B9B06F4D517A9102024
:102E60000DF042FC00287FF481AD179B13F00402A3
:102E700018BF4FF400629F074CBF00234FF48043FC
:102E8000E260A36000200EF0E7F8012384F84430EC
:102E900095F82B3043F0040385F82B3091E5A368B7
:102EA00033F4804304D04FF4CD713648FEF7E0F898
:102EB000E36833F4006304D040F29B113148FEF71D
:102EC000D7F8D4E902315B0843EAD10189B2002086
:102ED0000DF0C8FB00287FF449AD40F6FF7008F004
:102EE00069FDCFE7002A3FF401AF23F00102180784
:102EF00085F82B207FF5FAAE234E337D2BB1B368D6
:102F0000AB4202D12046FEF703FE01340A2C06F143
:102F10001806F2D1EAE61D480EF06CFE0CE0002324
:102F20008DF884301A4B019303230093642221AB64
:102F30001849194809F066FC95F82830012B2FD064
:102F400003D3022B7DD0084800E014480EF052FE57
:102F500039E000BFB80F0120280E0120B43A05085F
:102F6000DC3A0508F8150120943C050840F1E9FD1C
:102F70003F787D0100796CFCFF596202001F0AFA5C
:102F80007FF0FA023D3C050854360020753C0508E8
:102F9000740600208E3C0508DD090408B43C0508D1
:102FA000624B019303240023C822614900946148C5
:102FB00009F028FC604B61496148CDE90043C82213
:102FC000002309F01FFC6B78012B09D15D4D0FCD5B
:102FD00021AC0FC42B682360002121A809F00CFD4F
:102FE000102180200CF0F4F8574B58491860002449
:102FF000574B0193009423468022564809F002FC67
:10300000012840F086804FF0500383F31188BFF30E
:103010006F8FBFF34F8F504B504A4FF0FF31196005
:103020004F4B18604F4B1C604F4B1868904214D1A7
:103030004FF0500383F31188BFF36F8FBFF34F8FAF
:10304000FEE700238DF88430484B0193032300935F
:10305000642221AB46494748B3E71A68464B9A4277
:1030600008D14FF0500383F31188BFF36F8FBFF384
:103070004F8FFEE7414B1A78D2B2219219701B781C
:103080003F4ADBB28DF870309DF8703003F050038A
:1030900013703C4B07221A609DF87010090602F16C
:1030A000FF302DD404B11A601A68120202F4E062F3
:1030B0001A60219B314ADBB21370334B1A6842F419
:1030C00070021A601A6842F070421A602F4B4FF477
:1030D0007A721B68B3FBF2F32D4A013B13602D4B50
:1030E00007221A602C4B00221A6008F005FF2B4AB9
:1030F000136843F04043136009F0EAF907F044F91C
:103100009DF870205200D2B28DF870200124024642
:10311000C2E7013008D14FF0500383F31188BFF3A9
:103120006F8FBFF34F8FFEE7FEE700BF68050020FB
:10313000CD3C05087578040864050020D43C0508DA
:10314000BD790408183B050884060020E13C050809
:10315000C8C300204DC504086C15012071C20F4181
:10316000FC190120001A012000ED00E07C0600207F
:10317000DB3C05085D5E040870C20F4100E400E01E
:10318000061401201815012020ED00E07000002039
:1031900014E000E010E000E05C00002034EF00E00C
:1031A0002DE9F84303898B42054638D90E46CB1AE0
:1031B0006989B14215D32B7B4BBBB14227D06B7BC6
:1031C0009B0724D46C68F31C641B1C4424F0030488
:1031D000A4B20B2C0CD9B4F5205F0AD900235B8173
:1031E000FFDE2A89761A1A442A81B6B22D68DFE7F3
:1031F0000C24DFF8CC90D9F800309D4203D32D4A3F
:10320000126895420DD3FDF7FDFD0BF01FFF2868F6
:103210006E812E8108B1FEF7CDF800232B60BDE84A
:10322000F883A5F1080735F8088CFF1ABFB2A8F19A
:103230000808A8EB07081FFA88F8A045CED3E6D007
:103240001D48FDF71DFED9F8003035F808EC03EBFA
:103250000E0C9CF80420E2B9184933F80EE0086817
:1032600007F108021444A4B21A19844508BF0A6081
:103270000021117123F804E0578025F8084C1A5BEF
:10328000B2F5205F1CBF9B185C800B48FEF78EF8E0
:10329000BDE704F114024245F7D8084807F10802D7
:1032A00014440168A4B21A198A4238BF026000208F
:1032B0001071DFE760970020C0370020BC37002086
:1032C0005C970020F8B5C3689B89DA0505460C4673
:1032D00014D4164FE66838682B8971682289034434
:1032E0000A449A1A002A0FDA5B1A002B0ADD091A1F
:1032F00089B229816868FFF753FF03E00846FEF7AB
:103300003DF900242C60F8BDB3892668DB0542BF77
:10331000EA68938943F48073204648BF9381FEF79F
:10332000D7F83446002ED5D1ECE700BF8CBF002083
:1033300001382DE9F84F0E461546032803D8DFE87B
:1033400000F0181416163624002D54D0022D40F229
:10335000C980032D4FD10D20FDF780FD074650B9E0
:10336000FDF7D8FD3846BDE8F88F0E24ECE70024C1
:10337000EAE72224E8E70219033424F00304C4F541
:1033800014741332B44222F0030228BF34460023DF
:1033900042600122068144810573341B0360C281AF
:1033A00080461E46A946002C04DC0123FB81002335
:1033B0007B73D7E70D20FDF751FD30B9FDF7AAFD6E
:1033C0003846FDF7F7FF0027CCE7A3B200F1100263
:1033D000B3F5147F80F80C9046730660C8F80000BF
:1033E0000381426028BF4FF4147301224381C281DC
:1033F000E41A8046D7E704F11305F31C25F0030512
:1034000023F003031D44ADB2002DDCD00B2D17D9E2
:10341000B5F5205FD7D83A483A4FFDF731FD3A4825
:103420003968D0F800C0ACEB01039BB2C5F5205A57
:103430006FF0070B534505D33148FDF7B7FFC2E7DF
:103440000C25E8E701EB030831F803E098F8049055
:10345000B9F1000F44D1ABEB03027244AA423FD34F
:1034600005F1140A524534D308351D44ADB24A194A
:1034700082F8049021F805E053800123A8F8005059
:1034800088F804304B5BB3F5205F01D00B445D80BE
:10349000C44508D11D4B39681A6843461D790DB1E2
:1034A00093421AD103601648FDF780FF18F1080710
:1034B00089D03C441334002324F00304C8F80C40A2
:1034C000A8F81060A8F81260C8F8083088F814301E
:1034D0006BE7012388F80430DAE71B880B44DDE74B
:1034E0007346A7E70C20FDF7B9FC074600283FF418
:1034F0006AAF00234360068146810360057354E789
:10350000C03700205C970020BC3700206097002067
:10351000B0F86230082BF7B504460D4601F00307FA
:1035200009D9CA0707D4A37E63F07F03A3764FF0BF
:10353000FF3003B0F0BD0022C5F34006B1001046D5
:10354000FFF7F6FE01460028EDD00096A36D2A464F
:103550002046FDF7CBFF0028E5D0A36EC3B9A066D7
:103560000023A4F8643017B1A36D0133A365EB0702
:1035700042BFA37E43F02003A3764068FDF783FBA0
:10358000B4F862301844A4F862000020D1E7134672
:103590001A68002AFBD11860E2E7836E1BB901218B
:1035A000FFF7B6BF13461A68002AFBD1D9688B898A
:1035B000C3F30222002AF2D143F480738B81837E0D
:1035C00043F02003837610467047000037B5044669
:1035D000037D002942D0042B01D0072B3ED1626F1E
:1035E0001AB9228DB2F5066F38D0238B0193E38A86
:1035F00000932246231D616AE06C09F0B7FD204666
:10360000FDF7C4FF454A1368A34215D1E368136070
:10361000434B01221A70237D0025042BE56013D152
:103620000A2323753F4B1A68E2601C6009F03EFCD8
:10363000002003B030BD1346002BE9D0DA68A24267
:10364000F9D1E268DA60E3E7374B1B68A34225D182
:10365000364A137843F010031370E9E7072BE7D8D5
:1036600001A252F823F000BF89360408B9360408D5
:10367000E7360408F9360408F93604083136040838
:10368000313604080F370408E38A3BB1284A13682F
:10369000A34209D1E36813600023E36021460120BF
:1036A000FDF7C8FBC4E71346002BF5D0DA68A24249
:1036B000F9D1E268DA60EFE71E4A0123002152F8EF
:1036C000230005684DB90133042BF8D121461A486F
:1036D000FDF77CFF21460220E2E7A86F844208BF85
:1036E000A967ED68EEE721460C48FDF76FFF0C4B2C
:1036F000012018702146D3E72046FFF74EFF00282F
:1037000097D105232375204609F076FD90E72046E2
:10371000FFF743FF00288CD10923F3E72011012094
:1037200094BF0020341101202811012084BF002003
:1037300024110120F44205082C110120037D012BE6
:103740001EBF837E43F0100383760121FFF73EBF47
:1037500010B5084614463AB11189FDF733FA2046F0
:10376000FDF728FE002010BD002BFBD1BDE8104066
:10377000FFF7E4BFF8B5466FD0F88050777B0023A1
:1037800004464367DDB1014632460069A847054655
:10379000E0B9BB0611D5238DD4F88060B3F5066F70
:1037A0001CBF0133238546B100231A4621462069F8
:1037B000B0470D3001D16FF00C052846F8BD014629
:1037C0002B4632462846FFF7C3FFE0E710F10D0510
:1037D000F1D066676FF00405EFE770B50D469542CE
:1037E0001E469DF81810049B1DD29DF81440A40796
:1037F00007D49C7E640616D419B1996E09B9DB6EA4
:103800008BB105F21B2424F003018A4228BF0A462B
:1038100091B20022FFF78CFD20B14289521B328009
:103820000581458170BD2946F3E700002DE9F04F81
:10383000484B494A4FF4887444431F1987B0F97ABA
:1038400052F821508046CDE900323DB92946FDF7B6
:1038500067F8BD72284607B0BDE8F08F009B1034B2
:103860001C442046FCF7B4FC002200F1120189B28E
:103870001046FFF75DFD0646002867D00C220021A8
:103880000DEB02000EF046F93A89130A43EA0223CF
:10389000ADF80C300C2201238DF80E300DEB020137
:1038A0004FF480733046ADF81030FCF79DFF013CBB
:1038B0000C2704F1010AD1464B46A9EB0A0B13F978
:1038C000012B2E2A5FFA8BF54C463BD12A4639460E
:1038D0003046FCF757FF7B1C1FFA8BF23D449BB22E
:1038E00051463046FCF7A5FFADB299F900206F1C98
:1038F000BFB2002ADDD139463046FCF743FF06A9A6
:103900004FF00123023541F8103D0422ABB230469E
:10391000FCF78FFF009A019910484FF4887303FB5E
:103920000828352398F80B2098F80F4001EB820205
:1039300050F82400314609F0ADF905463046FDF750
:1039400039FD87E7002AC1D09946B5E74FF0FF352A
:1039500080E700BFE0090120D80901209409012077
:1039600038B54FF488722A4C4243A3180546997A19
:10397000022923D0032943D001293ED10EF052F968
:10398000002380B2E218917A022902D11289824280
:10399000F4D003F58873B3F5886FF3D14FF48873CF
:1039A0006B43E21808331C44022310816380012317
:1039B000A3802846BDE83840FFF738BF1A7B013A9C
:1039C000D2B21A73CAB95A7B0132D2B2042A5A73DC
:1039D00014D1DA7A3AB90F49496821B10121D97273
:1039E00019735A73E5E700212846FCF799FF4FF455
:1039F000887303FB05440023A37238BD1A73D8E70C
:103A0000A358002BF3D0013BA350002BEFD0F4E7D9
:103A1000E0090120D809012008B50020FFF7A0FF28
:103A20000120FFF79DFF0220FFF79AFF0320BDE86A
:103A30000840FFF795BF00002DE9F04F8BB0074617
:103A40000C461D46DDF858B09046002A5BD0142184
:103A5000FDF721F9002840F0DB807A689DF85430AA
:103A600015725372D8F800301361452313709DF816
:103A700050305370398990710B0AD071674843EA0E
:103A8000012353800388190A41EA032101339180FD
:103A90000380002C34D1147354739473D4730023B3
:103AA0009372D372BBF82230002B00F0AA803D89BC
:103AB000AB4280F0A6800822143B93FBF2F39AB24B
:103AC00003927A680192167806F00F06B600142E5B
:103AD00040F0A180D288140A44EA0224A4B2C4F3BC
:103AE0000C0214F40054029240F095809BB2143DF5
:103AF000DB00ADB204936DB928460BB0BDE8F08F82
:103B00002368D360CBE743680DF128081B6948F8A8
:103B1000043DC7E7049BAB42A8BF2B4600221421FB
:103B200002201FFA83F9FFF703FC8246F8B1142242
:103B3000019940680DF0E3FFDAF804204B46002BB2
:103B400037D07C89A41BA4B29C4228BF1C4614B960
:103B50003F680026F3E70520CDE90523FDF77EF950
:103B6000DDE90523014628B95046FDF723FC4FF057
:103B7000FF30C2E778680C81CDE90623304400238A
:103B8000C1E900300220487308730120C8814C81CC
:103B900038460591FDF740F90599214B0B614F61BE
:103BA0005046FDF761F8079B069A1B1B9BB2002B42
:103BB000CED1BBF82210029B13398D42C3F30C0304
:103BC000A8BF43F400535BBAD38009F114035BBA76
:103BD00053804FF000039372D3725146DBF81430D8
:103BE0004246584698475046FDF7E4FBDDE902326D
:103BF00013442644A5EB09059BB2B6B2ADB20293BD
:103C000079E7DBF81430424639465846984774E75E
:103C10006FF0010071E76FF005006EE7B837002024
:103C2000F91A0408F0B4069C9DF810509DF8146031
:103C30001AB109B10F6807B9211DCDE905640495D2
:103C4000F0BCFFF7F9BE7FB50446C06CFDF72AF85B
:103C500000210246204607F0E3FA064640B9A37E5B
:103C600043F00303A3766FF00105284604B070BD4E
:103C7000251D2846FDF718F8A0B106220192627AA8
:103C800002900092A37A2A4621463046FFF7CAFFE7
:103C900005463046FDF78EFBA37E35B143F00303A6
:103CA000A376E2E76FF00305F3E723F00303F7E7FA
:103CB0002DE9F047B24BB34E1B7813F0100F0446BA
:103CC00000F0A78090F814C0B0F85C203168AE4DC9
:103CD000D0E9140E471A002F2B680CDB884203D161
:103CE000AEEB0300002806DB9E451CD1A748006808
:103CF000C089904217D9A548B4F85E800068C08991
:103D0000A4F85C0087B2B845C4E9141338BFA4F81E
:103D10005E0094F89510002F40F02B8119B94FF4F4
:103D20008071A4F89410606C994F191A002900F35F
:103D3000698198490988002940F06081B4F85CC025
:103D4000616D72446144914240F05881B4F9302071
:103D5000002AC0F25381984240F0508194F84330D9
:103D6000FF2B1CBF013384F8433094F84330032BFE
:103D700040F21681B4F84820638E13449BB29A42F5
:103D800001D2A4F84830A16EC9B1CB68D5F8008043
:103D90005868FCF787FF9B89B1F8089013F44073CB
:103DA00018BF0123A8EB0902D31A1B1A002B06DB4C
:103DB000E36CA8EB0308B8F1000F40F38781B4F877
:103DC00060303A881344626BA4F860300AB3A36B86
:103DD00029685B1A002B1CDA6F4BB4F93C00196898
:103DE000891AA1EBE00189B20BB2002BB4F93E2095
:103DF0000844BCBF49420BB2A2EBA202134400B27A
:103E00009BB2E38703EBE003A4F840300023A087D4
:103E10006363604F636A38883568002800F0BC82AD
:103E2000227D062A00F2B882591B012900F1718116
:103E3000C5F10102121A1A44002A00F36A81574B95
:103E40005868B0F80AC08C458AB2984680F25E8104
:103E500003899B1A9BB24FF0000C42898A42C0F240
:103E60004F81494209B2FCF716FFB8F80830626A80
:103E700032601D44D8F80C30AD1AA8F808505A60CA
:103E80003168626A8B1A002BC0F28182208D4B1C34
:103E90009B1A1B1A002B00F37A82914240F0CB81CF
:103EA0003E4DD5F80CC0B5F808E0BCF80C100B0A74
:103EB00043EA01239BB213F0030218BF01227244AC
:103EC00092B290423A801FD2DA0742BF03F03E031B
:103ED00021F47C5141EA0323288148BFACF80C301F
:103EE000BCF80C309A0544BF00F1FF3028812989C5
:103EF0006868FFF755F9EB682A899B8913F44073CA
:103F000018BF012313443B80D4F87080B8F1000F30
:103F100000F00E81EB689B89DB0500F10681D8F883
:103F20000CC030683A88DCF80430B8F80810024455
:103F30001944511A002980F21A81D21A002A40F33A
:103F40002E811B1A9BB2EA682B81928968689205C0
:103F500044BF03F1FF332B812989FFF721F9EB6877
:103F60002A899B8913F4407318BF012313443B80B3
:103F700015E100293FF4D7AE002184F89510D2E670
:103F80004F3700208CBF00204C3600209CBF002003
:103F90007CBF0020AABF002030110120D8100120D2
:103FA0007FF4F1AEE36E002B3FF4EDAEA37E580735
:103FB0003FF5E9AE204609F0AFF8B4F84830B4F860
:103FC0005C2093428BBF52085B08A4F84A20A4F8F7
:103FD0004A30638EB4F84A105A00914238BFA4F8B0
:103FE0004A201344B4F84A201344A4F84830A37E6E
:103FF00043F00403A37600232386C4E6002384F859
:104000004330C0E6E26C9A1A002A5BDCA27EB4F967
:104010003C006364510741BF22F00402A276B4F869
:104020004A20A4F84820E28F002102EBE002BCF114
:10403000030F84F84210A4F8402084F843100FD9ED
:10404000B4F84820B4F84A10638E91429CBF5B4399
:1040500093FBF2F313449BB29A4201D2A4F8483086
:10406000D4F86C803988B8F1000F00F0A181D8F83D
:104070000C305868FCF716FE9B89B8F808902A683F
:1040800013F4407318BF0123A9EB02021344034445
:10409000002B01DD00238DE1D8F804A0D8F8003012
:1040A000E3665046FCF7EFFD5046FCF7ECFDB4F834
:1040B0006230181AA4F86200494440463980FDF77E
:1040C00007FACDE72046FFF7BEFD5CE60B68A36666
:1040D0000BB9A4F86430D1F804804046FCF7D3FD56
:1040E0004046FCF7D0FDB4F86230181A3B88A4F8BB
:1040F000620099440846A7F80090FDF7E9F942E606
:104100000381A0F80AC0891A0068A6E6524211B2DB
:10411000A9E6ED1A002DBEBFA37E43F00203A376ED
:10412000AEE603682367FDF7D3F9206F0028F8D1C6
:104130003988238D32685B1A0A44626223852046DF
:10414000FCF7D8FA6B681A891AB19C4A13600023ED
:104150006B60EB689B89D80504D5994A137843F0C6
:1041600020031370954D964F4FF0000849E0BCF8BE
:104170000C30D80509D5EA689389990505D443F42C
:10418000807393812B8901333B80D8F8009040469F
:10419000FDF79EF9C846B9F1000F7FF4C0AEC4F830
:1041A0007080C5E732608B89B9F8081013F440734A
:1041B00018BF01230B441A446262228DD31A23854F
:1041C0002046FCF797FAD9F804100B892BB1286820
:1041D00050B3FCF749FDC9F80480D9F80C309B892D
:1041E000D90508D53B7843F020033B70237D042B91
:1041F00004BF07232375D9F8003023674846FDF72D
:1042000067F9D4F87090B9F1000F05D0D9F80C1007
:10421000636A4A689A42C5D0A37EDA0706D523F0BE
:10422000010343F0020303E02960D4E743F00103F4
:10423000A376BDE8F0872046FFF705FD256F1DB981
:1042400007F074F82067F4E733684FF0000803F1D3
:10425000FF3C03F1010EE8684168994216D1594BC1
:104260001A892B899A42E4D907F060F80028E0D037
:10427000B8F1000F08D0C8F800002946BDE8F047A3
:10428000FFF720B81546E6E72067F6E7B8F1000F1C
:1042900008D15A1A002A2CDA07F048F80028C8D0AA
:1042A0002067EAE7D8F80C205268ACEB0202002A3B
:1042B0001FDBAEEB0102002A1BDC07F037F80446D7
:1042C0000028B6D0D8F80C3031685A68B8F80830F1
:1042D00013445B1A002B07DD891A89B2A8F808106D
:1042E000D8F80400FEF75CFFC8F8004029462046D5
:1042F000C4E72A68A846002AC4D15B1A002B98DDBF
:104300008389DB0595D407F011F82860002890D048
:10431000EB6831685A682B8913445B1A002B05DD62
:10432000891A89B229816868FEF73AFFD6F800C079
:104330003B88666A218D63449B1B5B1A002B7FF7C9
:1043400078AF2868C468A289130A43EA02239BB2A3
:1043500013F0010FA1EB0C011CBF03F03E0322F48C
:104360007C52314418BF42EA032389B218BFA381AB
:1043700001814068FEF714FF2A68D36812899B897F
:1043800013F4407318BF012313443B8051E72046C8
:10439000BDE8F047FFF757BCEA1A002A06DB0135F3
:1043A000ED1A238DED1A002D7FF743AFA37E38E77A
:1043B0004FF6FF7323860023E376E4E480BF0020FA
:1043C00084BF0020D81001202DE9F04FA54FA64D45
:1043D0003B78A64E013387B03B70AA462C684FF05D
:1043E0000008E4B9A24A13780133DBB2DC0713708A
:1043F00012D5A04EDFF874923368013333603B78F6
:1044000001333B70DAF800404FF0000854BB9A4F7C
:104410003D68002D40F0D08107B0BDE8F08F3B78BB
:10442000627F9A421BD06377A37EDA0709D543F0F7
:104430000203A376204608F0DFFEA37E23F00303E9
:10444000A376636FD4F80C903BB1204686F80080C9
:10445000FFF790F93378002BC0D14C46C1E7D4F870
:104460000C90FAE73A78637F934205D1D4F80CB008
:104470004446A0465C46C9E7237D6277022B94F848
:10448000422004D1062A40F0AF81012516E00C2A13
:10449000FBD094F89550002D00F0F280774894F806
:1044A0009430054415F8012C9A4284BF013384F8F6
:1044B000943094F89430934277D20025237D062BD4
:1044C00009D1A27ED10606D53268216A521A282A5D
:1044D00084BF0135EDB294F808B01BF0080B18D07A
:1044E000042B02D0072B40F035813168236AD4F8C1
:1044F00090C0C91A0CF5242202F6B8424FF4FA70A3
:10450000B2FBF0F2914240F2F2800135EDB24FF091
:10451000010B206F68B13368226A9A1AB4F94030EF
:1045200003EB4303B2EB430F03D3FDF727F800235C
:104530002367237D032B40F013813368226A9B1A83
:10454000282B02D8002D00F016812046D4F88C507C
:10455000FDF71CF8E368B8F1000F00F00981C8F816
:104560000C30BBF1000F09D0238B0193E38A009339
:104570002246231D616AE06C08F0F8FD236905936B
:1045800021460120D4F80CB0FCF754FC002289F835
:10459000002025B1059B6FF00C011846A84799F83B
:1045A0000030002B3FF464AF2CE7E56E6DB9A56ECB
:1045B0005DB994F895300025062B84F894503FF6A9
:1045C0007CAF013384F8953078E7EA689389C3F3C8
:1045D00000231BB12B89B3FA83F35B09526805935F
:1045E00083F00101204606F01BFE834600283FF4BD
:1045F00064AF059B416843B38B8923F47C5343F438
:1046000088538B81EB685868FCF74CFBE36C0130F6
:104610001B1A002B04F10405B8BFE0642846FCF720
:1046200043FBE0B1A37A029000220620CDE90020EE
:1046300021462A465846FFF7F5FA05465846FCF744
:10464000B9FE002D7FF439AFB3E768682A89038982
:104650009B1A9BB201221431FCF7D8FAD2E76FF013
:104660000305EBE799BF00202011012094BF002033
:1046700098BF00203011012034110120193E050897
:10468000B4F930100029A4BF01312186E16E002960
:104690003FF413AFB4F93000B4F940108842FFF68C
:1046A0000CAF022B0AD0B4F93C10B4F93E3003EB46
:1046B000E10350498A5C9340A4F840300023B4F8E9
:1046C00048202386B4F85C30618EA4F848109342E9
:1046D00028BF13464A005B0892B29342A4F84A30BE
:1046E000204638BFA4F84A2008F0A6FEE6E694F873
:1046F0009630414A02FB03C3B3FBF0F3994229D938
:10470000E06C0138FCF7CEFA00210246204606F0A4
:1047100087FD834600283FF4FCAE221D104605921B
:10472000FCF7C2FAC8B100210622A37A0290CDE9B3
:1047300000125846059A2146FFF774FA0346584678
:104740000593FCF737FE059B23B994F896200132B8
:1047500084F896204FF0000BDBE66FF00303EEE7E2
:10476000092B7FF4EFAE3368226A9B1AF02BE8E640
:10477000CAF80030F5E6E37E227FD4F80CB00133AE
:10478000DBB29A42E3763FF674AED4F88830E57631
:1047900089F8005073B121462069984799F8003094
:1047A000002B7FF42FAE00287FF463AE204608F084
:1047B00023FD5EE62846F1E733682A6A9B1AF02B50
:1047C00002D82C46ED6824E62846FCF7DFFEEB68AD
:1047D00044B1E360D5F80C8029460120FCF72AFBA0
:1047E000454616E63B60F5E70C2A7FF452AE0125FC
:1047F00071E600BF0C3E0508F82401002DE9F041E8
:10480000044686B088461546242100220120FEF782
:104810008FFD064630B32768446865700025394629
:1048200084F8008025716571A571E5711C2204F181
:1048300008000DF064F9FB6806AF47F8043D384600
:10484000FCF732FA58B10123A570E5703A460290A0
:10485000CDE900532946FF233046FFF7E3F9304600
:10486000FCF7A8FD06B0BDE8F0810000F8B5466889
:104870000546706883880F463BBB03686B60142253
:1048800005F108010DF03BF901220B21301DFFF766
:10489000B5FF3046FCF7F7F904463046FCF78AFDD1
:1048A0006968A1B9104A2B6811688D4218BF3B6036
:1048B00029464FF0040008BF1360FCF7BBFA0B4A0F
:1048C00013881B1B13802046F8BD0024E8E74B68C3
:1048D00008461E68FCF7D7F904440846FCF76AFD51
:1048E000A4B23146DDE700BF78BF0020BA37002010
:1048F0002DE9F041DFF86C8006460F4600250024C4
:10490000D8F800302146A446204653B910B1FFF72D
:10491000ADFF0544BD4201DA012CF0DC2846BDE8BC
:10492000F081D6F80CE05A69724509D1D6F810E04A
:104930009A69724504D1B3F80CE0B288964508D064
:10494000013460B1C27F93F81FE096459CBF614679
:1049500018461A68002A18BF9C461346D5E76146D8
:104960001846F6E778BF002038B5084B18680024D1
:1049700000B938BDC37F056823B1013BC377044646
:104980002846F5E72146FFF771FFF9E778BF0020D9
:104990002DE9F04F466832781309042B8DB0044698
:1049A0008B4603D02046FCF705FD4BE102F00F03D8
:1049B0009B00049373881D0A45EA03250389ADB261
:1049C000AB4202D92946FEF7EBFB6389049A934276
:1049D000E8D32389AB42E5D3132AE3D9D6F8108074
:1049E0009F4D08F0F003C5F81480D6F80C90C5F878
:1049F0001090E02B5DD19BF82B7017F0010705D0CC
:104A0000DBF80430002B14BF5F46002759464846A8
:104A1000FBF7D1FE0028C5D109F0F000E028C1D095
:104A2000002FBFD0F38823F0C003002B00F02181BA
:104A3000D4F8048098F8003003F00F03052B059399
:104A4000B0D1B8F806300693B8F802300793204684
:104A5000FCF719F9834A138803440A2B81469246CE
:104A60004ADC814B1E68002E53D10420FCF7F6F976
:104A7000064658B949464046FFF73AFF814591DC62
:104A80000420FCF7EBF9064600288BD020220021F9
:104A900030460DF03FF80323F377734B1A6832600A
:104AA0001E601422414606F108000DF028F800F0BF
:104AB0003BBE6E4B1B685F464FF0010A97F82B20F8
:104AC000D2070BD57A684AB1904505939ED03946F6
:104AD0004046FBF770FE059B002897D1BAF1000F06
:104AE00008D13F685F4508BF3F684FF0000A002FBC
:104AF000E4D18BE71F46F5E701464046FFF7F8FE95
:104B000000283FF44FAFBAF800304B440A2BA8DD21
:104B100048E7D8F80C3072699A420AD1D8F81030B8
:104B2000B2699A4205D1B289B8F804309A4200F0CD
:104B3000EA85366897E7DEF80480B8F804A05145A6
:104B400036D2C2F800E0002B00F03586B3F806E05C
:104B50008E454DD8D4454BD81C60B37FD90771D54D
:104B600000286FD07368002B6CD05C68A388002B82
:104B700068D1D2F80080B8F1000F2FD1B38BD4F8F0
:104B800000901433B3831422204606F108010CF080
:104B9000B6FFB28B84F80680130A43EA02236380CF
:104BA00084F8078084F80A8084F80B80746834E005
:104BB0001ED0B8F806E08E451AD81BB1DB885345E5
:104BC00018BF0020D8F800E0434600F0EDBDB3F870
:104BD00006C01C60614518BF0020BEE7D8F804304D
:104BE000D1889A8891422DD1D3F800801A46C2E725
:104BF0002046FCF748F81B4BA9EB00001880D1E6D3
:104C0000D9F804806FF013014846FCF744F8494690
:104C10002046FCF729F8D8F80090B9F1000FEFD141
:104C2000114A13689E4216D133681360314604203E
:104C3000FCF700F92046FCF726F80A4A1388181AF0
:104C40001080ACB900200DB0BDE8F08F1A68964214
:104C500000F0B4851346002BF8D132681A60FFDEED
:104C6000A0370020BA37002078BF002038970020F6
:104C70006668AE60C5E9007B337803F00F039B00E4
:104C8000AB81049B20465942FCF705F8737A062B4A
:104C900000F0C880112B3AD0012B40F01B85D5F8CD
:104CA000089099F8006006F00F06B600132E31D96F
:104CB0006389032B2ED963681B78082B2AD1686976
:104CC00000F0F003E02B25D02968FBF774FD08BB4A
:104CD0002389072B1ED906F10E0120460FFA86F80C
:104CE000FBF7D9FF002800F0EA8421893144002233
:104CF00089B20220FEF71CFB074658B1428906F133
:104D000008039A4280F0A484FCF754FB02E0638914
:104D1000072B03D82046FCF74DFB32E0D5F8148072
:104D2000666829684046FBF746FD3388914AD5F806
:104D300010A011681F0A47EA032773888146180AE2
:104D400040EA032083B200260493BFB20B46B64666
:104D50009446FBB91EB9DBF804309845DAD16FF000
:104D600007012046FBF797FF0028D3D1002E43D040
:104D7000B569002DCED000977F4BF06922463146B1
:104D8000A8477E4B0022C3E900229A609A81C3E9BA
:104D9000042257E75A8A049882422AD11A68B9F144
:104DA000000F22D04AB1B8F1FF3F06D088EA0202D4
:104DB0001046DBF8082010421BD11A7C520702D49F
:104DC000002E08BF1E469A8ABA4212D15A680AB10A
:104DD00052450ED1BEF1000F05D0DA68CEF80C2096
:104DE000CCF80030D9601E46B9E7002AE5D09045DE
:104DF000E3D09E46DB68ACE7B9F1000F8AD16B695E
:104E000003F0F003E02B85D0A989083109B219B16C
:104E100001222046FBF789FC03221146201DFFF7E3
:104E2000EDFC77E76789564B66681E60132F7FF6A7
:104E300071AFD5F8148029684046FBF7BCFC002808
:104E40007FF468AF08F0F008B8F1E00F3FF462AF0C
:104E5000B189C1F30311890013297FF65BAF238960
:104E600089B28B42FFF456AFA1F11405454BDFF830
:104E70003081ADB28F421D80C8F80000424F5AD336
:104E8000494220463D80FBF706FF33887068DFF813
:104E900014914FEA132848EA032873881A0A42EA51
:104EA000032292B21FFA88F87280A6F80080FBF7FE
:104EB000F9FEC9F8000001467060B068FBF7F2FE29
:104EC000324B04901860F589DFF8D0E0B0602B0A0F
:104ED00043EA0523B589F3812B0A43EA05231BB274
:104EE0000A939DF828302A4DCDF8149003F03F071F
:104EF0002F7025890795079F13F0030518BF01251B
:104F00003D441FFA85FA234D1C4FA5F800A0DEF89A
:104F1000005008953D690995BB467D691B4F069574
:104F20000B97089D1B4F4FF0000CF146002D3BD115
:104F3000194D2F68D3E06FF013012046FBF7ABFE4D
:104F4000618939806D1A494209B22046FBF7A3FEF8
:104F500020684389ADB2AB42FFF4DCAE69424368DE
:104F6000C8F8003009B2FBF796FE23895D1B258146
:104F70008BE700BF14150120B0370020A0370020B8
:104F80009CBF0020A8BF0020A0BF00204C360020FE
:104F90004F370020AABF002034110120201101202A
:104FA000A4BF00208CBF0020B5F818E0C6455ED134
:104FB000B5F816E096455AD1686886460998864540
:104FC00055D1286886460698864550D1EA68BCF1D6
:104FD000000F05D0CCF80C20089AEA60A24A1560B0
:104FE000A249BDF81C000881CE60A148A14EDFF89F
:104FF000AC924C60002213F0080F0A60026032701D
:10500000A9F800208246884603D0637B43F0010361
:1050100063736B6FDFF888B2002B40F0C480964C4E
:10502000CBF800502378590700F1DA8013F0020121
:10503000AA7E00F0F880287D0238012840F2F38033
:1050400042F00202AA7633781C0740F1A382D5F819
:105050008C301BB16FF00D012869984729468248B2
:10506000FCF7B4FA29460120FBF7E4FEA9E0AC46C0
:10507000ED685BE73D8B454530D1FD8A95422DD1EA
:105080007D680998A84229D13D680698A84225D193
:105090005D073FF53FAE98070FD57B6ACB1A11D459
:1050A0003D8D5B1B002B0DDC744B0498CDE9002873
:1050B00051441A1D08F05AF82CE6DE0742BF704B27
:1050C0001B683B62BAF1000F3FF424AEBB7E43F095
:1050D0000203BB76384608F08FF81BE6FF68002F06
:1050E000C8D1684D2D682E4626B90A9B5B073FF54F
:1050F00011AED9E7B6F816C0944509D1D6F800C06C
:105100000698604500F05E83BCF1000F00F05A8302
:105110003746F668E8E7DFF88081DBF81430036093
:10512000D8F80020DBF810304360F38AC38213788C
:10513000527843EA0223038303230375059B1B680C
:105140005A1C013B036533694262C2620361866790
:10515000337A03F00C030372D9F80030C360C9F846
:10516000000007F0A3FE484B012207F132001A703D
:10517000FBF786FAD8F80030788EDB89A7F85C3028
:10518000391DA7F85E30A7F84A30FBF7B9FD1221A8
:1051900078863846FEF7BCF900289BD02946384669
:1051A000FCF73CFAB6E52846FEF7E4FA0D3008D0E5
:1051B0006B6F002B3FF433AF344B1B88002B3FF455
:1051C0002EAFD8F804000024CBF80040CAF8004005
:1051D00000283FF4D6ADFCF7EDF8C8F80440D0E560
:1051E0002B7D022B0ED12A4BEA6C1B689A427FF46E
:1051F0002AAF337843F008033370AB7E23F001030A
:10520000AB7620E7234B6A6A1B689A42F1D09B1A5F
:105210003FF519AF2A8D9B1A002B3FF714AFAB7ED9
:1052200043F00203ECE7D20658BF154A06915CBF73
:1052300012682A62002285F8962005F13200049354
:10524000FBF71EFA2A7D049B0699023A072A3FF6CD
:10525000FAAEDFE812F027009400F600FA004301EE
:10526000F6005C01890100BF20110120D810012047
:1052700080BF002084BF00204F370020B0370020BF
:10528000301101202C11012094BF0020AABF002062
:105290004C3600208CBF00209CBF00207CBF00202B
:1052A0002811012003F01202122A4FD1A7496A6C7B
:1052B000096801328A4249D1059B6A641B68A44A85
:1052C000688E1268591C6962E962013BD4892B65BA
:1052D00004232B75E918A5F85C40A5F85E40FBF7A0
:1052E0000FFD41F21C124300934238BF13466886FB
:1052F0008000834228BF0346A5F84830B5F86230E5
:10530000E86EA5F84A40013BA5F86230B0B9A86E36
:105310000368AB66FCF7DCF8EB6E93B94FF6FF73EE
:105320002B86D5F88430002B3FF479AF0022294634
:10533000286998470D307FF472AF42E70368EB6647
:10534000E8E700232B8685F84230EAE7DB067FF5A5
:105350007AAE7F4B059A1B6811681A8838880192CB
:105360005B88009301447B4B0B981A1D006807F083
:10537000FDFE00232B86284608F05EF863E6DC0677
:1053800051D5724B18686B6CDB43C3423CD4EB6C59
:10539000C31A002B38DC04232B75AB6F1BB92846CE
:1053A000FCF7C0F90DE79B69002BF8D000222946D5
:1053B0002869984718B10D303FF403AFEFE728464E
:1053C000FEF776FCB5F85C30A5F84A30B9F8003045
:1053D00013B1013BA9F800306A8E41F21C11530051
:1053E0008B4238BF0B469200934228BF1346A5F864
:1053F0004830337898067FF526AEAB7E43F0020343
:10540000AB7607232B751EE6514B059A1B68116876
:105410001A883C8801925B8800934E4B21441A1DE8
:1054200007F0A4FE0FE600293FF40DAE4A4A6B6A6E
:105430001268013B93427FF406AE284607F06CFEEB
:1054400001E62846FEF734FCD3E72846FEF730FC99
:10545000337813F0200F237831D013F0100FAB7E88
:1054600028D03A4AE96C1268914223D1AA6E0ABB4D
:1054700043F00203AB762846FCF788F8374A1368F6
:105480009D4209D1EB68136008E0DA68954202D1C9
:10549000EA68DA6002E01346002BF6D1304B0122B5
:1054A0001A700A232B752F4B1A68EA601D6007F0EB
:1054B000FDFCC8E543F00203AB760823A2E7D9065A
:1054C0007FF5C1AD214BEA6C1B689A427FF4BBADFE
:1054D000AB6E002B7FF4B7AD062393E72846FEF7AB
:1054E000E7FB33789A067FF5AEADAB7E43F002035F
:1054F000AB762846FCF74AF8184A13689D42C1D09B
:10550000002BCBD0DA689542C2D01346F8E7284684
:10551000FEF7CEFB2378DB067FF595AD0B4BEA6CEF
:105520001B689A427FF48FADAB6E002B7FF48BAD7E
:105530002846FCF72BF8094A13689D42A2D0002B9D
:10554000ACD0DA689542A3D01346F8E74C36002079
:105550009CBF0020B03700208CBF0020201101200C
:1055600094BF0020341101202846FEF7A1FB2378C8
:10557000DF067FF568ADA44AE96C12683378914282
:105580007FF461ADAA6E002A7FF45DAD43F0100395
:10559000337058E5B9F8002022B1EB6F8BB90023C6
:1055A000A9F800303378D80611D5AB7ED9063FF57F
:1055B00055ADD5F88C30002B3FF450AD6FF00E0197
:1055C0004AE52946286998470D30E8D1F9E5DAF827
:1055D0000020AAB1AB7E13F0100303D01046FBF7F6
:1055E000E9FEDCE6D5F88040D4B129462869A04719
:1055F00010F10D0F3FF4E5AD10B1DAF800306B6734
:1056000033789A0605D56B6F83B15A7B42F020023E
:105610005A7300232846CBF8003007F0EDFDD0E5A3
:10562000234629462046FEF793F8E1E72B8DD5F86F
:105630008040B3F5066F1CBF01332B85002CE8D0EA
:1056400000231A4629462869A0470D30E1D1B8E564
:105650004946324640680CF052FA71423846FBF730
:105660001AFB10B13846FFF74FBB21463846FBF70F
:105670000DF90028F6D12046FBF79CFE3C4641463A
:1056800020466668FBF707FB024600287FF442AB22
:1056900061686B69CB602B690B61FF233070B07060
:1056A000F0700B728872C8720121CDE90001CDF84B
:1056B00008B056492046FEF7B5FAFFF72BBBC6F5F2
:1056C0007F41F23109B22046FBF7E5FA00287FF46A
:1056D00021ABD4E76D6939462846FBF76CF8002802
:1056E0007FF418AB05F0F005E02D3FF413AB012279
:1056F00004992046FBF719F82046022240F8046F6F
:105700000321FFF78CBBB8F80620130A43EA0223F3
:10571000C3F30C0343B9F289130A43EA0223C3F328
:105720000C03002B7FF4BDA9BAF8000081441FFAD6
:1057300089F9AAF80090B8F80630980613D4B37F18
:10574000069A079943F00103B377069B1B0A43EAC5
:105750000222079B1B0A43EA01230599A3EB81035D
:1057600003EBC203B3836268D6F804E053884FEAC0
:10577000132C4CEA032C137803F00F03ACEB830CCF
:10578000D388190A41EA0321C1F30C01C90011FAB7
:105790008CFC00231FFA8CFC137053709370D37031
:1057A0009180A2F806C00120BEF1000F7FF4C3A9CA
:1057B000002B7FF40CAA7460FFF7CFB932681A602F
:1057C000FFF734BA27B1F068F860F560104D2E602D
:1057D0005D073FF59FAA13F010057FF465AC9807AD
:1057E0007FF598AA707DFBF7A1FF074600287FF49C
:1057F00092ACB369002B3FF48DAA01464FF0FF3203
:1058000030699847FFF786BA4C360020B43700203D
:105810002C1101202DE9F04F43890E2B89B004464D
:105820000E4614D9406803788589D9070AD5012B1B
:1058300011D1437833B983785E2B03D1637B43F076
:1058400010036373082D10D0B5F5C16F23D0204627
:10585000FBF7B0FD1BE0062265490CF041F900287A
:10586000F0D1637B43F00803EBE796F82B301A077F
:10587000EDD563890D2BEAD96FF00D012046FBF7BA
:105880000AFA0028E3D131462046FFF781F80020CC
:1058900009B0BDE8F08F96F82B301B07D7D5638988
:1058A0000D2BD4D96FF00D012046FBF7F4F980469B
:1058B0000028CCD165682B88B3F5807FC7D12B79C0
:1058C000062BC4D16F79042FC1D16B88082BBED1B0
:1058D00005F10E0A3A46514606A80CF010F905F1FA
:1058E00018033A46194607A804930CF008F97368A0
:1058F00005F1080713B1079A934274D04FF0020BD9
:10590000DDF81890B9F1000F40D031464846FAF75B
:1059100052FF0390002839D109F0F009B9F1E00FE6
:1059200034D0594606A8FCF707F900282EDBDFF82B
:10593000C490182202FB00F309EB030B02218BF841
:1059400014100C2112FB0010CBF808600622394617
:10595000484405930CF0D3F8BDF80C30ABF8123086
:10596000059B59F803B0BBF1000F0FD0039A49F81B
:1059700003204FF40063009306F125023B4659468D
:105980003046FBF7DDF95846FBF714FDEB88B3F51D
:10599000807F7FF45CAFB8F1000F3FF458AF002375
:1059A000AB710223EB715146042204980CF0A7F866
:1059B0000422B118123550460CF0A1F839460622DF
:1059C00028460CF09CF806F12501062238460CF01A
:1059D00096F840F6060300933A462B462146304699
:1059E000FBF7AEF933E74FF00108C34688E700BF85
:1059F0000A3C0508543600202DE9F043166885B0AE
:105A000004460D46014630461746FAF7D4FE0028F4
:105A100040F0A58006F0F003E02B15D10123ADF88E
:105A200008305E238DF80A307B7803F07F038DF811
:105A30000B30BB788DF80C30FB788DF80D3002AB55
:105A40004FF40062009260E06368A2687340134202
:105A500009D0B6B24FF6A9639E4204D0E368002B8A
:105A60007FD004F10C074C494C4E0A78D7F80080DF
:105A7000182303FB02638946187D012809D95B6856
:105A8000434506D129462046FBF782F905B0BDE81B
:105A9000F083424900220B7D012B06D94B68434518
:105AA00003D1D2B289F80020ECE701320A2A01F1D1
:105AB0001801F0D121464046FAF77DFE002853D167
:105AC00008F0F003E02B4FD0B8F1000F4CD00121CB
:105AD0003846FCF731F8B0F1000848DB182303FB27
